{
  "address": "0xDc64a140Aa3E981100a9becA4E685f962f0cF6C9",
  "abi": [
    {
      "inputs": [],
      "stateMutability": "nonpayable",
      "type": "constructor"
    },
    {
      "anonymous": false,
      "inputs": [
        {
          "indexed": true,
          "internalType": "address",
          "name": "owner",
          "type": "address"
        },
        {
          "indexed": true,
          "internalType": "address",
          "name": "approved",
          "type": "address"
        },
        {
          "indexed": true,
          "internalType": "uint256",
          "name": "tokenId",
          "type": "uint256"
        }
      ],
      "name": "Approval",
      "type": "event"
    },
    {
      "anonymous": false,
      "inputs": [
        {
          "indexed": true,
          "internalType": "address",
          "name": "owner",
          "type": "address"
        },
        {
          "indexed": true,
          "internalType": "address",
          "name": "operator",
          "type": "address"
        },
        {
          "indexed": false,
          "internalType": "bool",
          "name": "approved",
          "type": "bool"
        }
      ],
      "name": "ApprovalForAll",
      "type": "event"
    },
    {
      "anonymous": false,
      "inputs": [
        {
          "indexed": false,
          "internalType": "uint8",
          "name": "version",
          "type": "uint8"
        }
      ],
      "name": "Initialized",
      "type": "event"
    },
    {
      "anonymous": false,
      "inputs": [
        {
          "indexed": false,
          "internalType": "address",
          "name": "account",
          "type": "address"
        }
      ],
      "name": "Paused",
      "type": "event"
    },
    {
      "anonymous": false,
      "inputs": [
        {
          "indexed": true,
          "internalType": "bytes32",
          "name": "role",
          "type": "bytes32"
        },
        {
          "indexed": true,
          "internalType": "bytes32",
          "name": "previousAdminRole",
          "type": "bytes32"
        },
        {
          "indexed": true,
          "internalType": "bytes32",
          "name": "newAdminRole",
          "type": "bytes32"
        }
      ],
      "name": "RoleAdminChanged",
      "type": "event"
    },
    {
      "anonymous": false,
      "inputs": [
        {
          "indexed": true,
          "internalType": "bytes32",
          "name": "role",
          "type": "bytes32"
        },
        {
          "indexed": true,
          "internalType": "address",
          "name": "account",
          "type": "address"
        },
        {
          "indexed": true,
          "internalType": "address",
          "name": "sender",
          "type": "address"
        }
      ],
      "name": "RoleGranted",
      "type": "event"
    },
    {
      "anonymous": false,
      "inputs": [
        {
          "indexed": true,
          "internalType": "bytes32",
          "name": "role",
          "type": "bytes32"
        },
        {
          "indexed": true,
          "internalType": "address",
          "name": "account",
          "type": "address"
        },
        {
          "indexed": true,
          "internalType": "address",
          "name": "sender",
          "type": "address"
        }
      ],
      "name": "RoleRevoked",
      "type": "event"
    },
    {
      "anonymous": false,
      "inputs": [
        {
          "indexed": true,
          "internalType": "address",
          "name": "from",
          "type": "address"
        },
        {
          "indexed": true,
          "internalType": "address",
          "name": "to",
          "type": "address"
        },
        {
          "indexed": true,
          "internalType": "uint256",
          "name": "tokenId",
          "type": "uint256"
        }
      ],
      "name": "Transfer",
      "type": "event"
    },
    {
      "anonymous": false,
      "inputs": [
        {
          "indexed": false,
          "internalType": "address",
          "name": "account",
          "type": "address"
        }
      ],
      "name": "Unpaused",
      "type": "event"
    },
    {
      "inputs": [],
      "name": "DEFAULT_ADMIN_ROLE",
      "outputs": [
        {
          "internalType": "bytes32",
          "name": "",
          "type": "bytes32"
        }
      ],
      "stateMutability": "view",
      "type": "function"
    },
    {
      "inputs": [],
      "name": "MINTER_ROLE",
      "outputs": [
        {
          "internalType": "bytes32",
          "name": "",
          "type": "bytes32"
        }
      ],
      "stateMutability": "view",
      "type": "function"
    },
    {
      "inputs": [],
      "name": "PAUSER_ROLE",
      "outputs": [
        {
          "internalType": "bytes32",
          "name": "",
          "type": "bytes32"
        }
      ],
      "stateMutability": "view",
      "type": "function"
    },
    {
      "inputs": [
        {
          "internalType": "address",
          "name": "to",
          "type": "address"
        },
        {
          "internalType": "uint256",
          "name": "tokenId",
          "type": "uint256"
        }
      ],
      "name": "approve",
      "outputs": [],
      "stateMutability": "nonpayable",
      "type": "function"
    },
    {
      "inputs": [
        {
          "internalType": "address",
          "name": "owner",
          "type": "address"
        }
      ],
      "name": "balanceOf",
      "outputs": [
        {
          "internalType": "uint256",
          "name": "",
          "type": "uint256"
        }
      ],
      "stateMutability": "view",
      "type": "function"
    },
    {
      "inputs": [
        {
          "internalType": "uint256",
          "name": "tokenId",
          "type": "uint256"
        }
      ],
      "name": "getApproved",
      "outputs": [
        {
          "internalType": "address",
          "name": "",
          "type": "address"
        }
      ],
      "stateMutability": "view",
      "type": "function"
    },
    {
      "inputs": [
        {
          "internalType": "bytes32",
          "name": "role",
          "type": "bytes32"
        }
      ],
      "name": "getRoleAdmin",
      "outputs": [
        {
          "internalType": "bytes32",
          "name": "",
          "type": "bytes32"
        }
      ],
      "stateMutability": "view",
      "type": "function"
    },
    {
      "inputs": [
        {
          "internalType": "bytes32",
          "name": "role",
          "type": "bytes32"
        },
        {
          "internalType": "address",
          "name": "account",
          "type": "address"
        }
      ],
      "name": "grantRole",
      "outputs": [],
      "stateMutability": "nonpayable",
      "type": "function"
    },
    {
      "inputs": [
        {
          "internalType": "bytes32",
          "name": "role",
          "type": "bytes32"
        },
        {
          "internalType": "address",
          "name": "account",
          "type": "address"
        }
      ],
      "name": "hasRole",
      "outputs": [
        {
          "internalType": "bool",
          "name": "",
          "type": "bool"
        }
      ],
      "stateMutability": "view",
      "type": "function"
    },
    {
      "inputs": [],
      "name": "initialize",
      "outputs": [],
      "stateMutability": "nonpayable",
      "type": "function"
    },
    {
      "inputs": [
        {
          "internalType": "address",
          "name": "owner",
          "type": "address"
        },
        {
          "internalType": "address",
          "name": "operator",
          "type": "address"
        }
      ],
      "name": "isApprovedForAll",
      "outputs": [
        {
          "internalType": "bool",
          "name": "",
          "type": "bool"
        }
      ],
      "stateMutability": "view",
      "type": "function"
    },
    {
      "inputs": [],
      "name": "name",
      "outputs": [
        {
          "internalType": "string",
          "name": "",
          "type": "string"
        }
      ],
      "stateMutability": "view",
      "type": "function"
    },
    {
      "inputs": [
        {
          "internalType": "uint256",
          "name": "tokenId",
          "type": "uint256"
        }
      ],
      "name": "ownerOf",
      "outputs": [
        {
          "internalType": "address",
          "name": "",
          "type": "address"
        }
      ],
      "stateMutability": "view",
      "type": "function"
    },
    {
      "inputs": [],
      "name": "pause",
      "outputs": [],
      "stateMutability": "nonpayable",
      "type": "function"
    },
    {
      "inputs": [],
      "name": "paused",
      "outputs": [
        {
          "internalType": "bool",
          "name": "",
          "type": "bool"
        }
      ],
      "stateMutability": "view",
      "type": "function"
    },
    {
      "inputs": [
        {
          "internalType": "bytes32",
          "name": "role",
          "type": "bytes32"
        },
        {
          "internalType": "address",
          "name": "account",
          "type": "address"
        }
      ],
      "name": "renounceRole",
      "outputs": [],
      "stateMutability": "nonpayable",
      "type": "function"
    },
    {
      "inputs": [
        {
          "internalType": "bytes32",
          "name": "role",
          "type": "bytes32"
        },
        {
          "internalType": "address",
          "name": "account",
          "type": "address"
        }
      ],
      "name": "revokeRole",
      "outputs": [],
      "stateMutability": "nonpayable",
      "type": "function"
    },
    {
      "inputs": [
        {
          "internalType": "address",
          "name": "to",
          "type": "address"
        }
      ],
      "name": "safeMint",
      "outputs": [],
      "stateMutability": "nonpayable",
      "type": "function"
    },
    {
      "inputs": [
        {
          "internalType": "address",
          "name": "from",
          "type": "address"
        },
        {
          "internalType": "address",
          "name": "to",
          "type": "address"
        },
        {
          "internalType": "uint256",
          "name": "tokenId",
          "type": "uint256"
        }
      ],
      "name": "safeTransferFrom",
      "outputs": [],
      "stateMutability": "nonpayable",
      "type": "function"
    },
    {
      "inputs": [
        {
          "internalType": "address",
          "name": "from",
          "type": "address"
        },
        {
          "internalType": "address",
          "name": "to",
          "type": "address"
        },
        {
          "internalType": "uint256",
          "name": "tokenId",
          "type": "uint256"
        },
        {
          "internalType": "bytes",
          "name": "data",
          "type": "bytes"
        }
      ],
      "name": "safeTransferFrom",
      "outputs": [],
      "stateMutability": "nonpayable",
      "type": "function"
    },
    {
      "inputs": [
        {
          "internalType": "address",
          "name": "operator",
          "type": "address"
        },
        {
          "internalType": "bool",
          "name": "approved",
          "type": "bool"
        }
      ],
      "name": "setApprovalForAll",
      "outputs": [],
      "stateMutability": "nonpayable",
      "type": "function"
    },
    {
      "inputs": [
        {
          "internalType": "bytes4",
          "name": "interfaceId",
          "type": "bytes4"
        }
      ],
      "name": "supportsInterface",
      "outputs": [
        {
          "internalType": "bool",
          "name": "",
          "type": "bool"
        }
      ],
      "stateMutability": "view",
      "type": "function"
    },
    {
      "inputs": [],
      "name": "symbol",
      "outputs": [
        {
          "internalType": "string",
          "name": "",
          "type": "string"
        }
      ],
      "stateMutability": "view",
      "type": "function"
    },
    {
      "inputs": [
        {
          "internalType": "uint256",
          "name": "index",
          "type": "uint256"
        }
      ],
      "name": "tokenByIndex",
      "outputs": [
        {
          "internalType": "uint256",
          "name": "",
          "type": "uint256"
        }
      ],
      "stateMutability": "view",
      "type": "function"
    },
    {
      "inputs": [
        {
          "internalType": "address",
          "name": "owner",
          "type": "address"
        },
        {
          "internalType": "uint256",
          "name": "index",
          "type": "uint256"
        }
      ],
      "name": "tokenOfOwnerByIndex",
      "outputs": [
        {
          "internalType": "uint256",
          "name": "",
          "type": "uint256"
        }
      ],
      "stateMutability": "view",
      "type": "function"
    },
    {
      "inputs": [
        {
          "internalType": "uint256",
          "name": "tokenId",
          "type": "uint256"
        }
      ],
      "name": "tokenURI",
      "outputs": [
        {
          "internalType": "string",
          "name": "",
          "type": "string"
        }
      ],
      "stateMutability": "view",
      "type": "function"
    },
    {
      "inputs": [],
      "name": "totalSupply",
      "outputs": [
        {
          "internalType": "uint256",
          "name": "",
          "type": "uint256"
        }
      ],
      "stateMutability": "view",
      "type": "function"
    },
    {
      "inputs": [
        {
          "internalType": "address",
          "name": "from",
          "type": "address"
        },
        {
          "internalType": "address",
          "name": "to",
          "type": "address"
        },
        {
          "internalType": "uint256",
          "name": "tokenId",
          "type": "uint256"
        }
      ],
      "name": "transferFrom",
      "outputs": [],
      "stateMutability": "nonpayable",
      "type": "function"
    },
    {
      "inputs": [],
      "name": "unpause",
      "outputs": [],
      "stateMutability": "nonpayable",
      "type": "function"
    }
  ],
  "transactionHash": "0x527de23695fdd3f593fad7b03ef0724ba289f1601065ba0e3ef624ddd16f73c5",
  "args": [],
  "numDeployments": 1,
  "solcInputHash": "3f8481b2f2525ad799acb134338cfdae",
  "bytecode": "0x60806040523480156200001157600080fd5b50620000226200002860201b60201c565b620001d3565b600060019054906101000a900460ff16156200007b576040517f08c379a0000000000000000000000000000000000000000000000000000000008152600401620000729062000176565b60405180910390fd5b60ff801660008054906101000a900460ff1660ff161015620000ed5760ff6000806101000a81548160ff021916908360ff1602179055507f7f26b83ff96e1f2b6a682f133852f6798a09c465da95921460cefb384740249860ff604051620000e49190620001b6565b60405180910390a15b565b600082825260208201905092915050565b7f496e697469616c697a61626c653a20636f6e747261637420697320696e69746960008201527f616c697a696e6700000000000000000000000000000000000000000000000000602082015250565b60006200015e602783620000ef565b91506200016b8262000100565b604082019050919050565b6000602082019050818103600083015262000191816200014f565b9050919050565b600060ff82169050919050565b620001b08162000198565b82525050565b6000602082019050620001cd6000830184620001a5565b92915050565b6142ae80620001e36000396000f3fe608060405234801561001057600080fd5b50600436106101cf5760003560e01c80635c975abb11610104578063a217fddf116100a2578063d539139311610071578063d539139314610518578063d547741f14610536578063e63ab1e914610552578063e985e9c514610570576101cf565b8063a217fddf14610492578063a22cb465146104b0578063b88d4fde146104cc578063c87b56dd146104e8576101cf565b80638129fc1c116100de5780638129fc1c146104305780638456cb591461043a57806391d148541461044457806395d89b4114610474576101cf565b80635c975abb146103b25780636352211e146103d057806370a0823114610400576101cf565b80632f2ff15d116101715780633f4ba83a1161014b5780633f4ba83a1461034057806340d097c31461034a57806342842e0e146103665780634f6ccce714610382576101cf565b80632f2ff15d146102d85780632f745c59146102f457806336568abe14610324576101cf565b8063095ea7b3116101ad578063095ea7b31461025257806318160ddd1461026e57806323b872dd1461028c578063248a9ca3146102a8576101cf565b806301ffc9a7146101d457806306fdde0314610204578063081812fc14610222575b600080fd5b6101ee60048036038101906101e99190612d30565b6105a0565b6040516101fb9190612d78565b60405180910390f35b61020c6105b2565b6040516102199190612e2c565b60405180910390f35b61023c60048036038101906102379190612e84565b610644565b6040516102499190612ef2565b60405180910390f35b61026c60048036038101906102679190612f39565b61068a565b005b6102766107a2565b6040516102839190612f88565b60405180910390f35b6102a660048036038101906102a19190612fa3565b6107af565b005b6102c260048036038101906102bd919061302c565b61080f565b6040516102cf9190613068565b60405180910390f35b6102f260048036038101906102ed9190613083565b61082f565b005b61030e60048036038101906103099190612f39565b610850565b60405161031b9190612f88565b60405180910390f35b61033e60048036038101906103399190613083565b6108f5565b005b610348610978565b005b610364600480360381019061035f91906130c3565b6109ad565b005b610380600480360381019061037b9190612fa3565b610a00565b005b61039c60048036038101906103979190612e84565b610a20565b6040516103a99190612f88565b60405180910390f35b6103ba610a91565b6040516103c79190612d78565b60405180910390f35b6103ea60048036038101906103e59190612e84565b610aa8565b6040516103f79190612ef2565b60405180910390f35b61041a600480360381019061041591906130c3565b610b5a565b6040516104279190612f88565b60405180910390f35b610438610c12565b005b610442610e35565b005b61045e60048036038101906104599190613083565b610e6a565b60405161046b9190612d78565b60405180910390f35b61047c610ed5565b6040516104899190612e2c565b60405180910390f35b61049a610f67565b6040516104a79190613068565b60405180910390f35b6104ca60048036038101906104c5919061311c565b610f6e565b005b6104e660048036038101906104e19190613291565b610f84565b005b61050260048036038101906104fd9190612e84565b610fe6565b60405161050f9190612e2c565b60405180910390f35b61052061104e565b60405161052d9190613068565b60405180910390f35b610550600480360381019061054b9190613083565b611072565b005b61055a611093565b6040516105679190613068565b60405180910390f35b61058a60048036038101906105859190613314565b6110b7565b6040516105979190612d78565b60405180910390f35b60006105ab8261114b565b9050919050565b6060606580546105c190613383565b80601f01602080910402602001604051908101604052809291908181526020018280546105ed90613383565b801561063a5780601f1061060f5761010080835404028352916020019161063a565b820191906000526020600020905b81548152906001019060200180831161061d57829003601f168201915b5050505050905090565b600061064f826111c5565b6069600083815260200190815260200160002060009054906101000a900473ffffffffffffffffffffffffffffffffffffffff169050919050565b600061069582610aa8565b90508073ffffffffffffffffffffffffffffffffffffffff168373ffffffffffffffffffffffffffffffffffffffff161415610706576040517f08c379a00000000000000000000000000000000000000000000000000000000081526004016106fd90613427565b60405180910390fd5b8073ffffffffffffffffffffffffffffffffffffffff16610725611210565b73ffffffffffffffffffffffffffffffffffffffff16148061075457506107538161074e611210565b6110b7565b5b610793576040517f08c379a000000000000000000000000000000000000000000000000000000000815260040161078a906134b9565b60405180910390fd5b61079d8383611218565b505050565b6000609980549050905090565b6107c06107ba611210565b826112d1565b6107ff576040517f08c379a00000000000000000000000000000000000000000000000000000000081526004016107f69061354b565b60405180910390fd5b61080a838383611366565b505050565b600060fb6000838152602001908152602001600020600101549050919050565b6108388261080f565b610841816115cd565b61084b83836115e1565b505050565b600061085b83610b5a565b821061089c576040517f08c379a0000000000000000000000000000000000000000000000000000000008152600401610893906135dd565b60405180910390fd5b609760008473ffffffffffffffffffffffffffffffffffffffff1673ffffffffffffffffffffffffffffffffffffffff168152602001908152602001600020600083815260200190815260200160002054905092915050565b6108fd611210565b73ffffffffffffffffffffffffffffffffffffffff168173ffffffffffffffffffffffffffffffffffffffff161461096a576040517f08c379a00000000000000000000000000000000000000000000000000000000081526004016109619061366f565b60405180910390fd5b61097482826116c2565b5050565b7f65d7a28e3265b37a6474929f336521b332c1681b933f6cb9f3376673440d862a6109a2816115cd565b6109aa6117a4565b50565b7f9f2df0fed2c77648de5860a4cc508cd0818c85b8b8a1ab4ceeef8d981c8956a66109d7816115cd565b60006109e461012d611807565b90506109f161012d611815565b6109fb838261182b565b505050565b610a1b83838360405180602001604052806000815250610f84565b505050565b6000610a2a6107a2565b8210610a6b576040517f08c379a0000000000000000000000000000000000000000000000000000000008152600401610a6290613701565b60405180910390fd5b60998281548110610a7f57610a7e613721565b5b90600052602060002001549050919050565b600060c960009054906101000a900460ff16905090565b6000806067600084815260200190815260200160002060009054906101000a900473ffffffffffffffffffffffffffffffffffffffff169050600073ffffffffffffffffffffffffffffffffffffffff168173ffffffffffffffffffffffffffffffffffffffff161415610b51576040517f08c379a0000000000000000000000000000000000000000000000000000000008152600401610b489061379c565b60405180910390fd5b80915050919050565b60008073ffffffffffffffffffffffffffffffffffffffff168273ffffffffffffffffffffffffffffffffffffffff161415610bcb576040517f08c379a0000000000000000000000000000000000000000000000000000000008152600401610bc29061382e565b60405180910390fd5b606860008373ffffffffffffffffffffffffffffffffffffffff1673ffffffffffffffffffffffffffffffffffffffff168152602001908152602001600020549050919050565b60008060019054906101000a900460ff16159050808015610c435750600160008054906101000a900460ff1660ff16105b80610c705750610c5230611849565b158015610c6f5750600160008054906101000a900460ff1660ff16145b5b610caf576040517f08c379a0000000000000000000000000000000000000000000000000000000008152600401610ca6906138c0565b60405180910390fd5b60016000806101000a81548160ff021916908360ff1602179055508015610cec576001600060016101000a81548160ff0219169083151502179055505b610d606040518060400160405280600781526020017f436f7572736573000000000000000000000000000000000000000000000000008152506040518060400160405280600381526020017f435253000000000000000000000000000000000000000000000000000000000081525061186c565b610d686118c9565b610d7061191a565b610d78611973565b610d856000801b336115e1565b610daf7f65d7a28e3265b37a6474929f336521b332c1681b933f6cb9f3376673440d862a336115e1565b610dd97f9f2df0fed2c77648de5860a4cc508cd0818c85b8b8a1ab4ceeef8d981c8956a6336115e1565b8015610e325760008060016101000a81548160ff0219169083151502179055507f7f26b83ff96e1f2b6a682f133852f6798a09c465da95921460cefb38474024986001604051610e299190613932565b60405180910390a15b50565b7f65d7a28e3265b37a6474929f336521b332c1681b933f6cb9f3376673440d862a610e5f816115cd565b610e676119c4565b50565b600060fb600084815260200190815260200160002060000160008373ffffffffffffffffffffffffffffffffffffffff1673ffffffffffffffffffffffffffffffffffffffff16815260200190815260200160002060009054906101000a900460ff16905092915050565b606060668054610ee490613383565b80601f0160208091040260200160405190810160405280929190818152602001828054610f1090613383565b8015610f5d5780601f10610f3257610100808354040283529160200191610f5d565b820191906000526020600020905b815481529060010190602001808311610f4057829003601f168201915b5050505050905090565b6000801b81565b610f80610f79611210565b8383611a27565b5050565b610f95610f8f611210565b836112d1565b610fd4576040517f08c379a0000000000000000000000000000000000000000000000000000000008152600401610fcb9061354b565b60405180910390fd5b610fe084848484611b94565b50505050565b6060610ff1826111c5565b6000610ffb611bf0565b9050600081511161101b5760405180602001604052806000815250611046565b8061102584611c2d565b604051602001611036929190613989565b6040516020818303038152906040525b915050919050565b7f9f2df0fed2c77648de5860a4cc508cd0818c85b8b8a1ab4ceeef8d981c8956a681565b61107b8261080f565b611084816115cd565b61108e83836116c2565b505050565b7f65d7a28e3265b37a6474929f336521b332c1681b933f6cb9f3376673440d862a81565b6000606a60008473ffffffffffffffffffffffffffffffffffffffff1673ffffffffffffffffffffffffffffffffffffffff16815260200190815260200160002060008373ffffffffffffffffffffffffffffffffffffffff1673ffffffffffffffffffffffffffffffffffffffff16815260200190815260200160002060009054906101000a900460ff16905092915050565b60007f7965db0b000000000000000000000000000000000000000000000000000000007bffffffffffffffffffffffffffffffffffffffffffffffffffffffff1916827bffffffffffffffffffffffffffffffffffffffffffffffffffffffff191614806111be57506111bd82611d8e565b5b9050919050565b6111ce81611e08565b61120d576040517f08c379a00000000000000000000000000000000000000000000000000000000081526004016112049061379c565b60405180910390fd5b50565b600033905090565b816069600083815260200190815260200160002060006101000a81548173ffffffffffffffffffffffffffffffffffffffff021916908373ffffffffffffffffffffffffffffffffffffffff160217905550808273ffffffffffffffffffffffffffffffffffffffff1661128b83610aa8565b73ffffffffffffffffffffffffffffffffffffffff167f8c5be1e5ebec7d5bd14f71427d1e84f3dd0314c0f7b2291e5b200ac8c7c3b92560405160405180910390a45050565b6000806112dd83610aa8565b90508073ffffffffffffffffffffffffffffffffffffffff168473ffffffffffffffffffffffffffffffffffffffff16148061131f575061131e81856110b7565b5b8061135d57508373ffffffffffffffffffffffffffffffffffffffff1661134584610644565b73ffffffffffffffffffffffffffffffffffffffff16145b91505092915050565b8273ffffffffffffffffffffffffffffffffffffffff1661138682610aa8565b73ffffffffffffffffffffffffffffffffffffffff16146113dc576040517f08c379a00000000000000000000000000000000000000000000000000000000081526004016113d390613a1f565b60405180910390fd5b600073ffffffffffffffffffffffffffffffffffffffff168273ffffffffffffffffffffffffffffffffffffffff16141561144c576040517f08c379a000000000000000000000000000000000000000000000000000000000815260040161144390613ab1565b60405180910390fd5b611457838383611e74565b611462600082611218565b6001606860008573ffffffffffffffffffffffffffffffffffffffff1673ffffffffffffffffffffffffffffffffffffffff16815260200190815260200160002060008282546114b29190613b00565b925050819055506001606860008473ffffffffffffffffffffffffffffffffffffffff1673ffffffffffffffffffffffffffffffffffffffff16815260200190815260200160002060008282546115099190613b34565b92505081905550816067600083815260200190815260200160002060006101000a81548173ffffffffffffffffffffffffffffffffffffffff021916908373ffffffffffffffffffffffffffffffffffffffff160217905550808273ffffffffffffffffffffffffffffffffffffffff168473ffffffffffffffffffffffffffffffffffffffff167fddf252ad1be2c89b69c2b068fc378daa952ba7f163c4a11628f55a4df523b3ef60405160405180910390a46115c8838383611e8c565b505050565b6115de816115d9611210565b611e91565b50565b6115eb8282610e6a565b6116be57600160fb600084815260200190815260200160002060000160008373ffffffffffffffffffffffffffffffffffffffff1673ffffffffffffffffffffffffffffffffffffffff16815260200190815260200160002060006101000a81548160ff021916908315150217905550611663611210565b73ffffffffffffffffffffffffffffffffffffffff168173ffffffffffffffffffffffffffffffffffffffff16837f2f8788117e7eff1d82e926ec794901d17c78024a50270940304540a733656f0d60405160405180910390a45b5050565b6116cc8282610e6a565b156117a057600060fb600084815260200190815260200160002060000160008373ffffffffffffffffffffffffffffffffffffffff1673ffffffffffffffffffffffffffffffffffffffff16815260200190815260200160002060006101000a81548160ff021916908315150217905550611745611210565b73ffffffffffffffffffffffffffffffffffffffff168173ffffffffffffffffffffffffffffffffffffffff16837ff6391f5c32d9c69d2a47ea670b442974b53935d1edc7fd64eb21e047a839171b60405160405180910390a45b5050565b6117ac611f2e565b600060c960006101000a81548160ff0219169083151502179055507f5db9ee0a495bf2e6ff9c91a7834c1ba4fdd244a5e8aa4e537bd38aeae4b073aa6117f0611210565b6040516117fd9190612ef2565b60405180910390a1565b600081600001549050919050565b6001816000016000828254019250508190555050565b611845828260405180602001604052806000815250611f77565b5050565b6000808273ffffffffffffffffffffffffffffffffffffffff163b119050919050565b600060019054906101000a900460ff166118bb576040517f08c379a00000000000000000000000000000000000000000000000000000000081526004016118b290613bfc565b60405180910390fd5b6118c58282611fd2565b5050565b600060019054906101000a900460ff16611918576040517f08c379a000000000000000000000000000000000000000000000000000000000815260040161190f90613bfc565b60405180910390fd5b565b600060019054906101000a900460ff16611969576040517f08c379a000000000000000000000000000000000000000000000000000000000815260040161196090613bfc565b60405180910390fd5b611971612053565b565b600060019054906101000a900460ff166119c2576040517f08c379a00000000000000000000000000000000000000000000000000000000081526004016119b990613bfc565b60405180910390fd5b565b6119cc6120bf565b600160c960006101000a81548160ff0219169083151502179055507f62e78cea01bee320cd4e420270b5ea74000d11b0c9f74754ebdbfc544b05a258611a10611210565b604051611a1d9190612ef2565b60405180910390a1565b8173ffffffffffffffffffffffffffffffffffffffff168373ffffffffffffffffffffffffffffffffffffffff161415611a96576040517f08c379a0000000000000000000000000000000000000000000000000000000008152600401611a8d90613c68565b60405180910390fd5b80606a60008573ffffffffffffffffffffffffffffffffffffffff1673ffffffffffffffffffffffffffffffffffffffff16815260200190815260200160002060008473ffffffffffffffffffffffffffffffffffffffff1673ffffffffffffffffffffffffffffffffffffffff16815260200190815260200160002060006101000a81548160ff0219169083151502179055508173ffffffffffffffffffffffffffffffffffffffff168373ffffffffffffffffffffffffffffffffffffffff167f17307eab39ab6107e8899845ad3d59bd9653f200f220920489ca2b5937696c3183604051611b879190612d78565b60405180910390a3505050565b611b9f848484611366565b611bab84848484612109565b611bea576040517f08c379a0000000000000000000000000000000000000000000000000000000008152600401611be190613cfa565b60405180910390fd5b50505050565b60606040518060400160405280601581526020017f687474703a2f2f6c6f63616c686f73743a333030300000000000000000000000815250905090565b60606000821415611c75576040518060400160405280600181526020017f30000000000000000000000000000000000000000000000000000000000000008152509050611d89565b600082905060005b60008214611ca7578080611c9090613d1a565b915050600a82611ca09190613d92565b9150611c7d565b60008167ffffffffffffffff811115611cc357611cc2613166565b5b6040519080825280601f01601f191660200182016040528015611cf55781602001600182028036833780820191505090505b5090505b60008514611d8257600182611d0e9190613b00565b9150600a85611d1d9190613dc3565b6030611d299190613b34565b60f81b818381518110611d3f57611d3e613721565b5b60200101907effffffffffffffffffffffffffffffffffffffffffffffffffffffffffffff1916908160001a905350600a85611d7b9190613d92565b9450611cf9565b8093505050505b919050565b60007f780e9d63000000000000000000000000000000000000000000000000000000007bffffffffffffffffffffffffffffffffffffffffffffffffffffffff1916827bffffffffffffffffffffffffffffffffffffffffffffffffffffffff19161480611e015750611e00826122a0565b5b9050919050565b60008073ffffffffffffffffffffffffffffffffffffffff166067600084815260200190815260200160002060009054906101000a900473ffffffffffffffffffffffffffffffffffffffff1673ffffffffffffffffffffffffffffffffffffffff1614159050919050565b611e7c6120bf565b611e87838383612382565b505050565b505050565b611e9b8282610e6a565b611f2a57611ec08173ffffffffffffffffffffffffffffffffffffffff166014612496565b611ece8360001c6020612496565b604051602001611edf929190613e8c565b6040516020818303038152906040526040517f08c379a0000000000000000000000000000000000000000000000000000000008152600401611f219190612e2c565b60405180910390fd5b5050565b611f36610a91565b611f75576040517f08c379a0000000000000000000000000000000000000000000000000000000008152600401611f6c90613f12565b60405180910390fd5b565b611f8183836126d2565b611f8e6000848484612109565b611fcd576040517f08c379a0000000000000000000000000000000000000000000000000000000008152600401611fc490613cfa565b60405180910390fd5b505050565b600060019054906101000a900460ff16612021576040517f08c379a000000000000000000000000000000000000000000000000000000000815260040161201890613bfc565b60405180910390fd5b8160659080519060200190612037929190612c21565b50806066908051906020019061204e929190612c21565b505050565b600060019054906101000a900460ff166120a2576040517f08c379a000000000000000000000000000000000000000000000000000000000815260040161209990613bfc565b60405180910390fd5b600060c960006101000a81548160ff021916908315150217905550565b6120c7610a91565b15612107576040517f08c379a00000000000000000000000000000000000000000000000000000000081526004016120fe90613f7e565b60405180910390fd5b565b600061212a8473ffffffffffffffffffffffffffffffffffffffff16611849565b15612293578373ffffffffffffffffffffffffffffffffffffffff1663150b7a02612153611210565b8786866040518563ffffffff1660e01b81526004016121759493929190613ff3565b602060405180830381600087803b15801561218f57600080fd5b505af19250505080156121c057506040513d601f19601f820116820180604052508101906121bd9190614054565b60015b612243573d80600081146121f0576040519150601f19603f3d011682016040523d82523d6000602084013e6121f5565b606091505b5060008151141561223b576040517f08c379a000000000000000000000000000000000000000000000000000000000815260040161223290613cfa565b60405180910390fd5b805181602001fd5b63150b7a0260e01b7bffffffffffffffffffffffffffffffffffffffffffffffffffffffff1916817bffffffffffffffffffffffffffffffffffffffffffffffffffffffff191614915050612298565b600190505b949350505050565b60007f80ac58cd000000000000000000000000000000000000000000000000000000007bffffffffffffffffffffffffffffffffffffffffffffffffffffffff1916827bffffffffffffffffffffffffffffffffffffffffffffffffffffffff1916148061236b57507f5b5e139f000000000000000000000000000000000000000000000000000000007bffffffffffffffffffffffffffffffffffffffffffffffffffffffff1916827bffffffffffffffffffffffffffffffffffffffffffffffffffffffff1916145b8061237b575061237a826128ac565b5b9050919050565b61238d838383612916565b600073ffffffffffffffffffffffffffffffffffffffff168373ffffffffffffffffffffffffffffffffffffffff1614156123d0576123cb8161291b565b61240f565b8173ffffffffffffffffffffffffffffffffffffffff168373ffffffffffffffffffffffffffffffffffffffff161461240e5761240d8382612964565b5b5b600073ffffffffffffffffffffffffffffffffffffffff168273ffffffffffffffffffffffffffffffffffffffff1614156124525761244d81612ad1565b612491565b8273ffffffffffffffffffffffffffffffffffffffff168273ffffffffffffffffffffffffffffffffffffffff16146124905761248f8282612ba2565b5b5b505050565b6060600060028360026124a99190614081565b6124b39190613b34565b67ffffffffffffffff8111156124cc576124cb613166565b5b6040519080825280601f01601f1916602001820160405280156124fe5781602001600182028036833780820191505090505b5090507f30000000000000000000000000000000000000000000000000000000000000008160008151811061253657612535613721565b5b60200101907effffffffffffffffffffffffffffffffffffffffffffffffffffffffffffff1916908160001a9053507f78000000000000000000000000000000000000000000000000000000000000008160018151811061259a57612599613721565b5b60200101907effffffffffffffffffffffffffffffffffffffffffffffffffffffffffffff1916908160001a905350600060018460026125da9190614081565b6125e49190613b34565b90505b6001811115612684577f3031323334353637383961626364656600000000000000000000000000000000600f86166010811061262657612625613721565b5b1a60f81b82828151811061263d5761263c613721565b5b60200101907effffffffffffffffffffffffffffffffffffffffffffffffffffffffffffff1916908160001a905350600485901c94508061267d906140db565b90506125e7565b50600084146126c8576040517f08c379a00000000000000000000000000000000000000000000000000000000081526004016126bf90614151565b60405180910390fd5b8091505092915050565b600073ffffffffffffffffffffffffffffffffffffffff168273ffffffffffffffffffffffffffffffffffffffff161415612742576040517f08c379a0000000000000000000000000000000000000000000000000000000008152600401612739906141bd565b60405180910390fd5b61274b81611e08565b1561278b576040517f08c379a000000000000000000000000000000000000000000000000000000000815260040161278290614229565b60405180910390fd5b61279760008383611e74565b6001606860008473ffffffffffffffffffffffffffffffffffffffff1673ffffffffffffffffffffffffffffffffffffffff16815260200190815260200160002060008282546127e79190613b34565b92505081905550816067600083815260200190815260200160002060006101000a81548173ffffffffffffffffffffffffffffffffffffffff021916908373ffffffffffffffffffffffffffffffffffffffff160217905550808273ffffffffffffffffffffffffffffffffffffffff16600073ffffffffffffffffffffffffffffffffffffffff167fddf252ad1be2c89b69c2b068fc378daa952ba7f163c4a11628f55a4df523b3ef60405160405180910390a46128a860008383611e8c565b5050565b60007f01ffc9a7000000000000000000000000000000000000000000000000000000007bffffffffffffffffffffffffffffffffffffffffffffffffffffffff1916827bffffffffffffffffffffffffffffffffffffffffffffffffffffffff1916149050919050565b505050565b609980549050609a600083815260200190815260200160002081905550609981908060018154018082558091505060019003906000526020600020016000909190919091505550565b6000600161297184610b5a565b61297b9190613b00565b9050600060986000848152602001908152602001600020549050818114612a60576000609760008673ffffffffffffffffffffffffffffffffffffffff1673ffffffffffffffffffffffffffffffffffffffff168152602001908152602001600020600084815260200190815260200160002054905080609760008773ffffffffffffffffffffffffffffffffffffffff1673ffffffffffffffffffffffffffffffffffffffff168152602001908152602001600020600084815260200190815260200160002081905550816098600083815260200190815260200160002081905550505b6098600084815260200190815260200160002060009055609760008573ffffffffffffffffffffffffffffffffffffffff1673ffffffffffffffffffffffffffffffffffffffff16815260200190815260200160002060008381526020019081526020016000206000905550505050565b60006001609980549050612ae59190613b00565b90506000609a6000848152602001908152602001600020549050600060998381548110612b1557612b14613721565b5b906000526020600020015490508060998381548110612b3757612b36613721565b5b906000526020600020018190555081609a600083815260200190815260200160002081905550609a6000858152602001908152602001600020600090556099805480612b8657612b85614249565b5b6001900381819060005260206000200160009055905550505050565b6000612bad83610b5a565b905081609760008573ffffffffffffffffffffffffffffffffffffffff1673ffffffffffffffffffffffffffffffffffffffff168152602001908152602001600020600083815260200190815260200160002081905550806098600084815260200190815260200160002081905550505050565b828054612c2d90613383565b90600052602060002090601f016020900481019282612c4f5760008555612c96565b82601f10612c6857805160ff1916838001178555612c96565b82800160010185558215612c96579182015b82811115612c95578251825591602001919060010190612c7a565b5b509050612ca39190612ca7565b5090565b5b80821115612cc0576000816000905550600101612ca8565b5090565b6000604051905090565b600080fd5b600080fd5b60007fffffffff0000000000000000000000000000000000000000000000000000000082169050919050565b612d0d81612cd8565b8114612d1857600080fd5b50565b600081359050612d2a81612d04565b92915050565b600060208284031215612d4657612d45612cce565b5b6000612d5484828501612d1b565b91505092915050565b60008115159050919050565b612d7281612d5d565b82525050565b6000602082019050612d8d6000830184612d69565b92915050565b600081519050919050565b600082825260208201905092915050565b60005b83811015612dcd578082015181840152602081019050612db2565b83811115612ddc576000848401525b50505050565b6000601f19601f8301169050919050565b6000612dfe82612d93565b612e088185612d9e565b9350612e18818560208601612daf565b612e2181612de2565b840191505092915050565b60006020820190508181036000830152612e468184612df3565b905092915050565b6000819050919050565b612e6181612e4e565b8114612e6c57600080fd5b50565b600081359050612e7e81612e58565b92915050565b600060208284031215612e9a57612e99612cce565b5b6000612ea884828501612e6f565b91505092915050565b600073ffffffffffffffffffffffffffffffffffffffff82169050919050565b6000612edc82612eb1565b9050919050565b612eec81612ed1565b82525050565b6000602082019050612f076000830184612ee3565b92915050565b612f1681612ed1565b8114612f2157600080fd5b50565b600081359050612f3381612f0d565b92915050565b60008060408385031215612f5057612f4f612cce565b5b6000612f5e85828601612f24565b9250506020612f6f85828601612e6f565b9150509250929050565b612f8281612e4e565b82525050565b6000602082019050612f9d6000830184612f79565b92915050565b600080600060608486031215612fbc57612fbb612cce565b5b6000612fca86828701612f24565b9350506020612fdb86828701612f24565b9250506040612fec86828701612e6f565b9150509250925092565b6000819050919050565b61300981612ff6565b811461301457600080fd5b50565b60008135905061302681613000565b92915050565b60006020828403121561304257613041612cce565b5b600061305084828501613017565b91505092915050565b61306281612ff6565b82525050565b600060208201905061307d6000830184613059565b92915050565b6000806040838503121561309a57613099612cce565b5b60006130a885828601613017565b92505060206130b985828601612f24565b9150509250929050565b6000602082840312156130d9576130d8612cce565b5b60006130e784828501612f24565b91505092915050565b6130f981612d5d565b811461310457600080fd5b50565b600081359050613116816130f0565b92915050565b6000806040838503121561313357613132612cce565b5b600061314185828601612f24565b925050602061315285828601613107565b9150509250929050565b600080fd5b600080fd5b7f4e487b7100000000000000000000000000000000000000000000000000000000600052604160045260246000fd5b61319e82612de2565b810181811067ffffffffffffffff821117156131bd576131bc613166565b5b80604052505050565b60006131d0612cc4565b90506131dc8282613195565b919050565b600067ffffffffffffffff8211156131fc576131fb613166565b5b61320582612de2565b9050602081019050919050565b82818337600083830152505050565b600061323461322f846131e1565b6131c6565b9050828152602081018484840111156132505761324f613161565b5b61325b848285613212565b509392505050565b600082601f8301126132785761327761315c565b5b8135613288848260208601613221565b91505092915050565b600080600080608085870312156132ab576132aa612cce565b5b60006132b987828801612f24565b94505060206132ca87828801612f24565b93505060406132db87828801612e6f565b925050606085013567ffffffffffffffff8111156132fc576132fb612cd3565b5b61330887828801613263565b91505092959194509250565b6000806040838503121561332b5761332a612cce565b5b600061333985828601612f24565b925050602061334a85828601612f24565b9150509250929050565b7f4e487b7100000000000000000000000000000000000000000000000000000000600052602260045260246000fd5b6000600282049050600182168061339b57607f821691505b602082108114156133af576133ae613354565b5b50919050565b7f4552433732313a20617070726f76616c20746f2063757272656e74206f776e6560008201527f7200000000000000000000000000000000000000000000000000000000000000602082015250565b6000613411602183612d9e565b915061341c826133b5565b604082019050919050565b6000602082019050818103600083015261344081613404565b9050919050565b7f4552433732313a20617070726f76652063616c6c6572206973206e6f7420746f60008201527f6b656e206f776e6572206e6f7220617070726f76656420666f7220616c6c0000602082015250565b60006134a3603e83612d9e565b91506134ae82613447565b604082019050919050565b600060208201905081810360008301526134d281613496565b9050919050565b7f4552433732313a2063616c6c6572206973206e6f7420746f6b656e206f776e6560008201527f72206e6f7220617070726f766564000000000000000000000000000000000000602082015250565b6000613535602e83612d9e565b9150613540826134d9565b604082019050919050565b6000602082019050818103600083015261356481613528565b9050919050565b7f455243373231456e756d657261626c653a206f776e657220696e646578206f7560008201527f74206f6620626f756e6473000000000000000000000000000000000000000000602082015250565b60006135c7602b83612d9e565b91506135d28261356b565b604082019050919050565b600060208201905081810360008301526135f6816135ba565b9050919050565b7f416363657373436f6e74726f6c3a2063616e206f6e6c792072656e6f756e636560008201527f20726f6c657320666f722073656c660000000000000000000000000000000000602082015250565b6000613659602f83612d9e565b9150613664826135fd565b604082019050919050565b600060208201905081810360008301526136888161364c565b9050919050565b7f455243373231456e756d657261626c653a20676c6f62616c20696e646578206f60008201527f7574206f6620626f756e64730000000000000000000000000000000000000000602082015250565b60006136eb602c83612d9e565b91506136f68261368f565b604082019050919050565b6000602082019050818103600083015261371a816136de565b9050919050565b7f4e487b7100000000000000000000000000000000000000000000000000000000600052603260045260246000fd5b7f4552433732313a20696e76616c696420746f6b656e2049440000000000000000600082015250565b6000613786601883612d9e565b915061379182613750565b602082019050919050565b600060208201905081810360008301526137b581613779565b9050919050565b7f4552433732313a2061646472657373207a65726f206973206e6f74206120766160008201527f6c6964206f776e65720000000000000000000000000000000000000000000000602082015250565b6000613818602983612d9e565b9150613823826137bc565b604082019050919050565b600060208201905081810360008301526138478161380b565b9050919050565b7f496e697469616c697a61626c653a20636f6e747261637420697320616c72656160008201527f647920696e697469616c697a6564000000000000000000000000000000000000602082015250565b60006138aa602e83612d9e565b91506138b58261384e565b604082019050919050565b600060208201905081810360008301526138d98161389d565b9050919050565b6000819050919050565b600060ff82169050919050565b6000819050919050565b600061391c613917613912846138e0565b6138f7565b6138ea565b9050919050565b61392c81613901565b82525050565b60006020820190506139476000830184613923565b92915050565b600081905092915050565b600061396382612d93565b61396d818561394d565b935061397d818560208601612daf565b80840191505092915050565b60006139958285613958565b91506139a18284613958565b91508190509392505050565b7f4552433732313a207472616e736665722066726f6d20696e636f72726563742060008201527f6f776e6572000000000000000000000000000000000000000000000000000000602082015250565b6000613a09602583612d9e565b9150613a14826139ad565b604082019050919050565b60006020820190508181036000830152613a38816139fc565b9050919050565b7f4552433732313a207472616e7366657220746f20746865207a65726f2061646460008201527f7265737300000000000000000000000000000000000000000000000000000000602082015250565b6000613a9b602483612d9e565b9150613aa682613a3f565b604082019050919050565b60006020820190508181036000830152613aca81613a8e565b9050919050565b7f4e487b7100000000000000000000000000000000000000000000000000000000600052601160045260246000fd5b6000613b0b82612e4e565b9150613b1683612e4e565b925082821015613b2957613b28613ad1565b5b828203905092915050565b6000613b3f82612e4e565b9150613b4a83612e4e565b9250827fffffffffffffffffffffffffffffffffffffffffffffffffffffffffffffffff03821115613b7f57613b7e613ad1565b5b828201905092915050565b7f496e697469616c697a61626c653a20636f6e7472616374206973206e6f74206960008201527f6e697469616c697a696e67000000000000000000000000000000000000000000602082015250565b6000613be6602b83612d9e565b9150613bf182613b8a565b604082019050919050565b60006020820190508181036000830152613c1581613bd9565b9050919050565b7f4552433732313a20617070726f766520746f2063616c6c657200000000000000600082015250565b6000613c52601983612d9e565b9150613c5d82613c1c565b602082019050919050565b60006020820190508181036000830152613c8181613c45565b9050919050565b7f4552433732313a207472616e7366657220746f206e6f6e20455243373231526560008201527f63656976657220696d706c656d656e7465720000000000000000000000000000602082015250565b6000613ce4603283612d9e565b9150613cef82613c88565b604082019050919050565b60006020820190508181036000830152613d1381613cd7565b9050919050565b6000613d2582612e4e565b91507fffffffffffffffffffffffffffffffffffffffffffffffffffffffffffffffff821415613d5857613d57613ad1565b5b600182019050919050565b7f4e487b7100000000000000000000000000000000000000000000000000000000600052601260045260246000fd5b6000613d9d82612e4e565b9150613da883612e4e565b925082613db857613db7613d63565b5b828204905092915050565b6000613dce82612e4e565b9150613dd983612e4e565b925082613de957613de8613d63565b5b828206905092915050565b7f416363657373436f6e74726f6c3a206163636f756e7420000000000000000000600082015250565b6000613e2a60178361394d565b9150613e3582613df4565b601782019050919050565b7f206973206d697373696e6720726f6c6520000000000000000000000000000000600082015250565b6000613e7660118361394d565b9150613e8182613e40565b601182019050919050565b6000613e9782613e1d565b9150613ea38285613958565b9150613eae82613e69565b9150613eba8284613958565b91508190509392505050565b7f5061757361626c653a206e6f7420706175736564000000000000000000000000600082015250565b6000613efc601483612d9e565b9150613f0782613ec6565b602082019050919050565b60006020820190508181036000830152613f2b81613eef565b9050919050565b7f5061757361626c653a2070617573656400000000000000000000000000000000600082015250565b6000613f68601083612d9e565b9150613f7382613f32565b602082019050919050565b60006020820190508181036000830152613f9781613f5b565b9050919050565b600081519050919050565b600082825260208201905092915050565b6000613fc582613f9e565b613fcf8185613fa9565b9350613fdf818560208601612daf565b613fe881612de2565b840191505092915050565b60006080820190506140086000830187612ee3565b6140156020830186612ee3565b6140226040830185612f79565b81810360608301526140348184613fba565b905095945050505050565b60008151905061404e81612d04565b92915050565b60006020828403121561406a57614069612cce565b5b60006140788482850161403f565b91505092915050565b600061408c82612e4e565b915061409783612e4e565b9250817fffffffffffffffffffffffffffffffffffffffffffffffffffffffffffffffff04831182151516156140d0576140cf613ad1565b5b828202905092915050565b60006140e682612e4e565b915060008214156140fa576140f9613ad1565b5b600182039050919050565b7f537472696e67733a20686578206c656e67746820696e73756666696369656e74600082015250565b600061413b602083612d9e565b915061414682614105565b602082019050919050565b6000602082019050818103600083015261416a8161412e565b9050919050565b7f4552433732313a206d696e7420746f20746865207a65726f2061646472657373600082015250565b60006141a7602083612d9e565b91506141b282614171565b602082019050919050565b600060208201905081810360008301526141d68161419a565b9050919050565b7f4552433732313a20746f6b656e20616c7265616479206d696e74656400000000600082015250565b6000614213601c83612d9e565b915061421e826141dd565b602082019050919050565b6000602082019050818103600083015261424281614206565b9050919050565b7f4e487b7100000000000000000000000000000000000000000000000000000000600052603160045260246000fdfea264697066735822122098c00aff1a866149cb9cd79c30ddc53f6a1fcfaab926ed4202070e01e9a6c5e564736f6c63430008090033",
  "devdoc": {
    "kind": "dev",
    "methods": {
      "approve(address,uint256)": {
        "details": "See {IERC721-approve}."
      },
      "balanceOf(address)": {
        "details": "See {IERC721-balanceOf}."
      },
      "constructor": {
        "custom:oz-upgrades-unsafe-allow": "constructor"
      },
      "getApproved(uint256)": {
        "details": "See {IERC721-getApproved}."
      },
      "getRoleAdmin(bytes32)": {
        "details": "Returns the admin role that controls `role`. See {grantRole} and {revokeRole}. To change a role's admin, use {_setRoleAdmin}."
      },
      "grantRole(bytes32,address)": {
        "details": "Grants `role` to `account`. If `account` had not been already granted `role`, emits a {RoleGranted} event. Requirements: - the caller must have ``role``'s admin role. May emit a {RoleGranted} event."
      },
      "hasRole(bytes32,address)": {
        "details": "Returns `true` if `account` has been granted `role`."
      },
      "isApprovedForAll(address,address)": {
        "details": "See {IERC721-isApprovedForAll}."
      },
      "name()": {
        "details": "See {IERC721Metadata-name}."
      },
      "ownerOf(uint256)": {
        "details": "See {IERC721-ownerOf}."
      },
      "paused()": {
        "details": "Returns true if the contract is paused, and false otherwise."
      },
      "renounceRole(bytes32,address)": {
        "details": "Revokes `role` from the calling account. Roles are often managed via {grantRole} and {revokeRole}: this function's purpose is to provide a mechanism for accounts to lose their privileges if they are compromised (such as when a trusted device is misplaced). If the calling account had been revoked `role`, emits a {RoleRevoked} event. Requirements: - the caller must be `account`. May emit a {RoleRevoked} event."
      },
      "revokeRole(bytes32,address)": {
        "details": "Revokes `role` from `account`. If `account` had been granted `role`, emits a {RoleRevoked} event. Requirements: - the caller must have ``role``'s admin role. May emit a {RoleRevoked} event."
      },
      "safeTransferFrom(address,address,uint256)": {
        "details": "See {IERC721-safeTransferFrom}."
      },
      "safeTransferFrom(address,address,uint256,bytes)": {
        "details": "See {IERC721-safeTransferFrom}."
      },
      "setApprovalForAll(address,bool)": {
        "details": "See {IERC721-setApprovalForAll}."
      },
      "symbol()": {
        "details": "See {IERC721Metadata-symbol}."
      },
      "tokenByIndex(uint256)": {
        "details": "See {IERC721Enumerable-tokenByIndex}."
      },
      "tokenOfOwnerByIndex(address,uint256)": {
        "details": "See {IERC721Enumerable-tokenOfOwnerByIndex}."
      },
      "tokenURI(uint256)": {
        "details": "See {IERC721Metadata-tokenURI}."
      },
      "totalSupply()": {
        "details": "See {IERC721Enumerable-totalSupply}."
      },
      "transferFrom(address,address,uint256)": {
        "details": "See {IERC721-transferFrom}."
      }
    },
    "version": 1
  },
  "userdoc": {
    "kind": "user",
    "methods": {},
    "version": 1
  },
  "storageLayout": {
    "storage": [
      {
        "astId": 419,
        "contract": "contracts/Courses.sol:Courses",
        "label": "_initialized",
        "offset": 0,
        "slot": "0",
        "type": "t_uint8"
      },
      {
        "astId": 422,
        "contract": "contracts/Courses.sol:Courses",
        "label": "_initializing",
        "offset": 1,
        "slot": "0",
        "type": "t_bool"
      },
      {
        "astId": 2416,
        "contract": "contracts/Courses.sol:Courses",
        "label": "__gap",
        "offset": 0,
        "slot": "1",
        "type": "t_array(t_uint256)50_storage"
      },
      {
        "astId": 2760,
        "contract": "contracts/Courses.sol:Courses",
        "label": "__gap",
        "offset": 0,
        "slot": "51",
        "type": "t_array(t_uint256)50_storage"
      },
      {
        "astId": 719,
        "contract": "contracts/Courses.sol:Courses",
        "label": "_name",
        "offset": 0,
        "slot": "101",
        "type": "t_string_storage"
      },
      {
        "astId": 721,
        "contract": "contracts/Courses.sol:Courses",
        "label": "_symbol",
        "offset": 0,
        "slot": "102",
        "type": "t_string_storage"
      },
      {
        "astId": 725,
        "contract": "contracts/Courses.sol:Courses",
        "label": "_owners",
        "offset": 0,
        "slot": "103",
        "type": "t_mapping(t_uint256,t_address)"
      },
      {
        "astId": 729,
        "contract": "contracts/Courses.sol:Courses",
        "label": "_balances",
        "offset": 0,
        "slot": "104",
        "type": "t_mapping(t_address,t_uint256)"
      },
      {
        "astId": 733,
        "contract": "contracts/Courses.sol:Courses",
        "label": "_tokenApprovals",
        "offset": 0,
        "slot": "105",
        "type": "t_mapping(t_uint256,t_address)"
      },
      {
        "astId": 739,
        "contract": "contracts/Courses.sol:Courses",
        "label": "_operatorApprovals",
        "offset": 0,
        "slot": "106",
        "type": "t_mapping(t_address,t_mapping(t_address,t_bool))"
      },
      {
        "astId": 1581,
        "contract": "contracts/Courses.sol:Courses",
        "label": "__gap",
        "offset": 0,
        "slot": "107",
        "type": "t_array(t_uint256)44_storage"
      },
      {
        "astId": 1746,
        "contract": "contracts/Courses.sol:Courses",
        "label": "_ownedTokens",
        "offset": 0,
        "slot": "151",
        "type": "t_mapping(t_address,t_mapping(t_uint256,t_uint256))"
      },
      {
        "astId": 1750,
        "contract": "contracts/Courses.sol:Courses",
        "label": "_ownedTokensIndex",
        "offset": 0,
        "slot": "152",
        "type": "t_mapping(t_uint256,t_uint256)"
      },
      {
        "astId": 1753,
        "contract": "contracts/Courses.sol:Courses",
        "label": "_allTokens",
        "offset": 0,
        "slot": "153",
        "type": "t_array(t_uint256)dyn_storage"
      },
      {
        "astId": 1757,
        "contract": "contracts/Courses.sol:Courses",
        "label": "_allTokensIndex",
        "offset": 0,
        "slot": "154",
        "type": "t_mapping(t_uint256,t_uint256)"
      },
      {
        "astId": 2073,
        "contract": "contracts/Courses.sol:Courses",
        "label": "__gap",
        "offset": 0,
        "slot": "155",
        "type": "t_array(t_uint256)46_storage"
      },
      {
        "astId": 584,
        "contract": "contracts/Courses.sol:Courses",
        "label": "_paused",
        "offset": 0,
        "slot": "201",
        "type": "t_bool"
      },
      {
        "astId": 689,
        "contract": "contracts/Courses.sol:Courses",
        "label": "__gap",
        "offset": 0,
        "slot": "202",
        "type": "t_array(t_uint256)49_storage"
      },
      {
        "astId": 39,
        "contract": "contracts/Courses.sol:Courses",
        "label": "_roles",
        "offset": 0,
        "slot": "251",
        "type": "t_mapping(t_bytes32,t_struct(RoleData)34_storage)"
      },
      {
        "astId": 338,
        "contract": "contracts/Courses.sol:Courses",
        "label": "__gap",
        "offset": 0,
        "slot": "252",
        "type": "t_array(t_uint256)49_storage"
      },
      {
        "astId": 2808,
        "contract": "contracts/Courses.sol:Courses",
        "label": "_tokenIdCounter",
        "offset": 0,
        "slot": "301",
        "type": "t_struct(Counter)2423_storage"
      }
    ],
    "types": {
      "t_address": {
        "encoding": "inplace",
        "label": "address",
        "numberOfBytes": "20"
      },
      "t_array(t_uint256)44_storage": {
        "base": "t_uint256",
        "encoding": "inplace",
        "label": "uint256[44]",
        "numberOfBytes": "1408"
      },
      "t_array(t_uint256)46_storage": {
        "base": "t_uint256",
        "encoding": "inplace",
        "label": "uint256[46]",
        "numberOfBytes": "1472"
      },
      "t_array(t_uint256)49_storage": {
        "base": "t_uint256",
        "encoding": "inplace",
        "label": "uint256[49]",
        "numberOfBytes": "1568"
      },
      "t_array(t_uint256)50_storage": {
        "base": "t_uint256",
        "encoding": "inplace",
        "label": "uint256[50]",
        "numberOfBytes": "1600"
      },
      "t_array(t_uint256)dyn_storage": {
        "base": "t_uint256",
        "encoding": "dynamic_array",
        "label": "uint256[]",
        "numberOfBytes": "32"
      },
      "t_bool": {
        "encoding": "inplace",
        "label": "bool",
        "numberOfBytes": "1"
      },
      "t_bytes32": {
        "encoding": "inplace",
        "label": "bytes32",
        "numberOfBytes": "32"
      },
      "t_mapping(t_address,t_bool)": {
        "encoding": "mapping",
        "key": "t_address",
        "label": "mapping(address => bool)",
        "numberOfBytes": "32",
        "value": "t_bool"
      },
      "t_mapping(t_address,t_mapping(t_address,t_bool))": {
        "encoding": "mapping",
        "key": "t_address",
        "label": "mapping(address => mapping(address => bool))",
        "numberOfBytes": "32",
        "value": "t_mapping(t_address,t_bool)"
      },
      "t_mapping(t_address,t_mapping(t_uint256,t_uint256))": {
        "encoding": "mapping",
        "key": "t_address",
        "label": "mapping(address => mapping(uint256 => uint256))",
        "numberOfBytes": "32",
        "value": "t_mapping(t_uint256,t_uint256)"
      },
      "t_mapping(t_address,t_uint256)": {
        "encoding": "mapping",
        "key": "t_address",
        "label": "mapping(address => uint256)",
        "numberOfBytes": "32",
        "value": "t_uint256"
      },
      "t_mapping(t_bytes32,t_struct(RoleData)34_storage)": {
        "encoding": "mapping",
        "key": "t_bytes32",
        "label": "mapping(bytes32 => struct AccessControlUpgradeable.RoleData)",
        "numberOfBytes": "32",
        "value": "t_struct(RoleData)34_storage"
      },
      "t_mapping(t_uint256,t_address)": {
        "encoding": "mapping",
        "key": "t_uint256",
        "label": "mapping(uint256 => address)",
        "numberOfBytes": "32",
        "value": "t_address"
      },
      "t_mapping(t_uint256,t_uint256)": {
        "encoding": "mapping",
        "key": "t_uint256",
        "label": "mapping(uint256 => uint256)",
        "numberOfBytes": "32",
        "value": "t_uint256"
      },
      "t_string_storage": {
        "encoding": "bytes",
        "label": "string",
        "numberOfBytes": "32"
      },
      "t_struct(Counter)2423_storage": {
        "encoding": "inplace",
        "label": "struct CountersUpgradeable.Counter",
        "members": [
          {
            "astId": 2422,
            "contract": "contracts/Courses.sol:Courses",
            "label": "_value",
            "offset": 0,
            "slot": "0",
            "type": "t_uint256"
          }
        ],
        "numberOfBytes": "32"
      },
      "t_struct(RoleData)34_storage": {
        "encoding": "inplace",
        "label": "struct AccessControlUpgradeable.RoleData",
        "members": [
          {
            "astId": 31,
            "contract": "contracts/Courses.sol:Courses",
            "label": "members",
            "offset": 0,
            "slot": "0",
            "type": "t_mapping(t_address,t_bool)"
          },
          {
            "astId": 33,
            "contract": "contracts/Courses.sol:Courses",
            "label": "adminRole",
            "offset": 0,
            "slot": "1",
            "type": "t_bytes32"
          }
        ],
        "numberOfBytes": "64"
      },
      "t_uint256": {
        "encoding": "inplace",
        "label": "uint256",
        "numberOfBytes": "32"
      },
      "t_uint8": {
        "encoding": "inplace",
        "label": "uint8",
        "numberOfBytes": "1"
      }
    }
  }
}