{
  "_format": "hh-sol-artifact-1",
  "contractName": "Token",
  "sourceName": "contracts/Token.sol",
  "abi": [
    {
      "anonymous": false,
      "inputs": [
        {
          "indexed": false,
          "internalType": "uint8",
          "name": "version",
          "type": "uint8"
        }
      ],
      "name": "Initialized",
      "type": "event"
    },
    {
      "inputs": [],
      "name": "getX",
      "outputs": [
        {
          "internalType": "uint256",
          "name": "",
          "type": "uint256"
        }
      ],
      "stateMutability": "view",
      "type": "function"
    },
    {
      "inputs": [
        {
          "internalType": "uint256",
          "name": "_x",
          "type": "uint256"
        }
      ],
      "name": "initialize",
      "outputs": [],
      "stateMutability": "nonpayable",
      "type": "function"
    },
    {
      "inputs": [
        {
          "internalType": "uint256",
          "name": "_x",
          "type": "uint256"
        }
      ],
      "name": "setX",
      "outputs": [],
      "stateMutability": "nonpayable",
      "type": "function"
    },
    {
      "inputs": [],
      "name": "x",
      "outputs": [
        {
          "internalType": "uint256",
          "name": "",
          "type": "uint256"
        }
      ],
      "stateMutability": "view",
      "type": "function"
    }
  ],
  "bytecode": "0x608060405234801561001057600080fd5b506104ad806100206000396000f3fe608060405234801561001057600080fd5b506004361061004c5760003560e01c80630c55699c146100515780634018d9aa1461006f5780635197c7aa1461008b578063fe4b84df146100a9575b600080fd5b6100596100c5565b6040516100669190610265565b60405180910390f35b610089600480360381019061008491906102b1565b6100cb565b005b6100936100e1565b6040516100a09190610265565b60405180910390f35b6100c360048036038101906100be91906102b1565b6100eb565b005b60015481565b6064816100d8919061030d565b60018190555050565b6000600154905090565b60008060019054906101000a900460ff1615905080801561011c5750600160008054906101000a900460ff1660ff16105b80610149575061012b30610229565b1580156101485750600160008054906101000a900460ff1660ff16145b5b610188576040517f08c379a000000000000000000000000000000000000000000000000000000000815260040161017f906103ea565b60405180910390fd5b60016000806101000a81548160ff021916908360ff16021790555080156101c5576001600060016101000a81548160ff0219169083151502179055505b8160018190555080156102255760008060016101000a81548160ff0219169083151502179055507f7f26b83ff96e1f2b6a682f133852f6798a09c465da95921460cefb3847402498600160405161021c919061045c565b60405180910390a15b5050565b6000808273ffffffffffffffffffffffffffffffffffffffff163b119050919050565b6000819050919050565b61025f8161024c565b82525050565b600060208201905061027a6000830184610256565b92915050565b600080fd5b61028e8161024c565b811461029957600080fd5b50565b6000813590506102ab81610285565b92915050565b6000602082840312156102c7576102c6610280565b5b60006102d58482850161029c565b91505092915050565b7f4e487b7100000000000000000000000000000000000000000000000000000000600052601160045260246000fd5b60006103188261024c565b91506103238361024c565b9250817fffffffffffffffffffffffffffffffffffffffffffffffffffffffffffffffff048311821515161561035c5761035b6102de565b5b828202905092915050565b600082825260208201905092915050565b7f496e697469616c697a61626c653a20636f6e747261637420697320616c72656160008201527f647920696e697469616c697a6564000000000000000000000000000000000000602082015250565b60006103d4602e83610367565b91506103df82610378565b604082019050919050565b60006020820190508181036000830152610403816103c7565b9050919050565b6000819050919050565b600060ff82169050919050565b6000819050919050565b600061044661044161043c8461040a565b610421565b610414565b9050919050565b6104568161042b565b82525050565b6000602082019050610471600083018461044d565b9291505056fea26469706673582212204ab6a6f218d41148f9c56ca51111e3854b17d834d108737aa7d51bfa775376a664736f6c63430008090033",
  "linkReferences": {},
  "deployedLinkReferences": {}
}