{
  "address": "0xbe69e38F42349b117c325dbb5113628BeBa37a6E",
  "abi": [
    {
      "inputs": [],
      "stateMutability": "nonpayable",
      "type": "constructor"
    },
    {
      "anonymous": false,
      "inputs": [
        {
          "indexed": false,
          "internalType": "uint8",
          "name": "version",
          "type": "uint8"
        }
      ],
      "name": "Initialized",
      "type": "event"
    },
    {
      "anonymous": false,
      "inputs": [
        {
          "indexed": false,
          "internalType": "uint256",
          "name": "institutionId",
          "type": "uint256"
        },
        {
          "indexed": false,
          "internalType": "address",
          "name": "institutionAddress",
          "type": "address"
        },
        {
          "indexed": false,
          "internalType": "string",
          "name": "institutionName",
          "type": "string"
        }
      ],
      "name": "InstitutionRegistered",
      "type": "event"
    },
    {
      "anonymous": false,
      "inputs": [
        {
          "indexed": false,
          "internalType": "uint256",
          "name": "institutionId",
          "type": "uint256"
        },
        {
          "indexed": false,
          "internalType": "address",
          "name": "institutionAddress",
          "type": "address"
        },
        {
          "indexed": false,
          "internalType": "string",
          "name": "institutionName",
          "type": "string"
        }
      ],
      "name": "InstitutionUnregistered",
      "type": "event"
    },
    {
      "anonymous": false,
      "inputs": [
        {
          "indexed": false,
          "internalType": "address",
          "name": "account",
          "type": "address"
        }
      ],
      "name": "Paused",
      "type": "event"
    },
    {
      "anonymous": false,
      "inputs": [
        {
          "indexed": true,
          "internalType": "bytes32",
          "name": "role",
          "type": "bytes32"
        },
        {
          "indexed": true,
          "internalType": "bytes32",
          "name": "previousAdminRole",
          "type": "bytes32"
        },
        {
          "indexed": true,
          "internalType": "bytes32",
          "name": "newAdminRole",
          "type": "bytes32"
        }
      ],
      "name": "RoleAdminChanged",
      "type": "event"
    },
    {
      "anonymous": false,
      "inputs": [
        {
          "indexed": true,
          "internalType": "bytes32",
          "name": "role",
          "type": "bytes32"
        },
        {
          "indexed": true,
          "internalType": "address",
          "name": "account",
          "type": "address"
        },
        {
          "indexed": true,
          "internalType": "address",
          "name": "sender",
          "type": "address"
        }
      ],
      "name": "RoleGranted",
      "type": "event"
    },
    {
      "anonymous": false,
      "inputs": [
        {
          "indexed": true,
          "internalType": "bytes32",
          "name": "role",
          "type": "bytes32"
        },
        {
          "indexed": true,
          "internalType": "address",
          "name": "account",
          "type": "address"
        },
        {
          "indexed": true,
          "internalType": "address",
          "name": "sender",
          "type": "address"
        }
      ],
      "name": "RoleRevoked",
      "type": "event"
    },
    {
      "anonymous": false,
      "inputs": [
        {
          "indexed": false,
          "internalType": "address",
          "name": "account",
          "type": "address"
        }
      ],
      "name": "Unpaused",
      "type": "event"
    },
    {
      "inputs": [],
      "name": "DEFAULT_ADMIN_ROLE",
      "outputs": [
        {
          "internalType": "bytes32",
          "name": "",
          "type": "bytes32"
        }
      ],
      "stateMutability": "view",
      "type": "function"
    },
    {
      "inputs": [],
      "name": "INSTITUTION_INTERFACE_ID",
      "outputs": [
        {
          "internalType": "bytes4",
          "name": "",
          "type": "bytes4"
        }
      ],
      "stateMutability": "view",
      "type": "function"
    },
    {
      "inputs": [
        {
          "internalType": "uint256",
          "name": "institutionId",
          "type": "uint256"
        },
        {
          "internalType": "address",
          "name": "student",
          "type": "address"
        }
      ],
      "name": "getAllStudentIds",
      "outputs": [
        {
          "internalType": "uint256[]",
          "name": "",
          "type": "uint256[]"
        }
      ],
      "stateMutability": "view",
      "type": "function"
    },
    {
      "inputs": [
        {
          "internalType": "uint256",
          "name": "institutionId",
          "type": "uint256"
        },
        {
          "internalType": "address",
          "name": "student",
          "type": "address"
        }
      ],
      "name": "getAllStudentURIs",
      "outputs": [
        {
          "internalType": "string[]",
          "name": "",
          "type": "string[]"
        }
      ],
      "stateMutability": "view",
      "type": "function"
    },
    {
      "inputs": [
        {
          "internalType": "uint256",
          "name": "institutionId",
          "type": "uint256"
        },
        {
          "internalType": "uint256",
          "name": "courseId",
          "type": "uint256"
        }
      ],
      "name": "getCourse",
      "outputs": [
        {
          "components": [
            {
              "internalType": "string",
              "name": "name",
              "type": "string"
            },
            {
              "internalType": "bool",
              "name": "isActive",
              "type": "bool"
            },
            {
              "internalType": "string",
              "name": "baseURI",
              "type": "string"
            },
            {
              "internalType": "uint256",
              "name": "studentsBalance",
              "type": "uint256"
            },
            {
              "internalType": "uint256",
              "name": "activeStudentsBalance",
              "type": "uint256"
            }
          ],
          "internalType": "struct Institution.Course",
          "name": "",
          "type": "tuple"
        }
      ],
      "stateMutability": "view",
      "type": "function"
    },
    {
      "inputs": [
        {
          "internalType": "bytes32",
          "name": "role",
          "type": "bytes32"
        }
      ],
      "name": "getRoleAdmin",
      "outputs": [
        {
          "internalType": "bytes32",
          "name": "",
          "type": "bytes32"
        }
      ],
      "stateMutability": "view",
      "type": "function"
    },
    {
      "inputs": [
        {
          "internalType": "uint256",
          "name": "institutionId",
          "type": "uint256"
        },
        {
          "internalType": "uint256",
          "name": "courseId",
          "type": "uint256"
        },
        {
          "internalType": "address",
          "name": "student",
          "type": "address"
        }
      ],
      "name": "getStudentId",
      "outputs": [
        {
          "internalType": "uint256",
          "name": "",
          "type": "uint256"
        }
      ],
      "stateMutability": "view",
      "type": "function"
    },
    {
      "inputs": [
        {
          "internalType": "uint256",
          "name": "institutionId",
          "type": "uint256"
        },
        {
          "internalType": "uint256",
          "name": "courseId",
          "type": "uint256"
        },
        {
          "internalType": "address",
          "name": "student",
          "type": "address"
        }
      ],
      "name": "getStudentURI",
      "outputs": [
        {
          "internalType": "string",
          "name": "",
          "type": "string"
        }
      ],
      "stateMutability": "view",
      "type": "function"
    },
    {
      "inputs": [
        {
          "internalType": "bytes32",
          "name": "role",
          "type": "bytes32"
        },
        {
          "internalType": "address",
          "name": "account",
          "type": "address"
        }
      ],
      "name": "grantRole",
      "outputs": [],
      "stateMutability": "nonpayable",
      "type": "function"
    },
    {
      "inputs": [
        {
          "internalType": "bytes32",
          "name": "role",
          "type": "bytes32"
        },
        {
          "internalType": "address",
          "name": "account",
          "type": "address"
        }
      ],
      "name": "hasRole",
      "outputs": [
        {
          "internalType": "bool",
          "name": "",
          "type": "bool"
        }
      ],
      "stateMutability": "view",
      "type": "function"
    },
    {
      "inputs": [],
      "name": "initialize",
      "outputs": [],
      "stateMutability": "nonpayable",
      "type": "function"
    },
    {
      "inputs": [],
      "name": "institutionCounter",
      "outputs": [
        {
          "internalType": "uint256",
          "name": "_value",
          "type": "uint256"
        }
      ],
      "stateMutability": "view",
      "type": "function"
    },
    {
      "inputs": [
        {
          "internalType": "uint256",
          "name": "",
          "type": "uint256"
        }
      ],
      "name": "institutionIdToAddress",
      "outputs": [
        {
          "internalType": "address",
          "name": "",
          "type": "address"
        }
      ],
      "stateMutability": "view",
      "type": "function"
    },
    {
      "inputs": [
        {
          "internalType": "address",
          "name": "",
          "type": "address"
        }
      ],
      "name": "institutions",
      "outputs": [
        {
          "internalType": "uint256",
          "name": "id",
          "type": "uint256"
        },
        {
          "internalType": "string",
          "name": "name",
          "type": "string"
        },
        {
          "internalType": "bool",
          "name": "isActive",
          "type": "bool"
        }
      ],
      "stateMutability": "view",
      "type": "function"
    },
    {
      "inputs": [],
      "name": "paused",
      "outputs": [
        {
          "internalType": "bool",
          "name": "",
          "type": "bool"
        }
      ],
      "stateMutability": "view",
      "type": "function"
    },
    {
      "inputs": [
        {
          "internalType": "address",
          "name": "institutionAddress",
          "type": "address"
        },
        {
          "internalType": "string",
          "name": "institutionName",
          "type": "string"
        }
      ],
      "name": "registerInstitution",
      "outputs": [],
      "stateMutability": "nonpayable",
      "type": "function"
    },
    {
      "inputs": [
        {
          "internalType": "bytes32",
          "name": "role",
          "type": "bytes32"
        },
        {
          "internalType": "address",
          "name": "account",
          "type": "address"
        }
      ],
      "name": "renounceRole",
      "outputs": [],
      "stateMutability": "nonpayable",
      "type": "function"
    },
    {
      "inputs": [
        {
          "internalType": "bytes32",
          "name": "role",
          "type": "bytes32"
        },
        {
          "internalType": "address",
          "name": "account",
          "type": "address"
        }
      ],
      "name": "revokeRole",
      "outputs": [],
      "stateMutability": "nonpayable",
      "type": "function"
    },
    {
      "inputs": [
        {
          "internalType": "bytes4",
          "name": "interfaceId",
          "type": "bytes4"
        }
      ],
      "name": "supportsInterface",
      "outputs": [
        {
          "internalType": "bool",
          "name": "",
          "type": "bool"
        }
      ],
      "stateMutability": "view",
      "type": "function"
    },
    {
      "inputs": [
        {
          "internalType": "uint256",
          "name": "institutionId",
          "type": "uint256"
        }
      ],
      "name": "unregisterInstitution",
      "outputs": [],
      "stateMutability": "nonpayable",
      "type": "function"
    }
  ],
  "transactionHash": "0x2863298adb256d12a56b8faa33eea14970462525152079afa46847c313fe67a4",
  "args": [],
  "numDeployments": 5,
  "solcInputHash": "81d4c5405db50c9d055a0945cdd4ef87",
  "bytecode": "0x60806040523480156200001157600080fd5b50620000226200002860201b60201c565b620001d3565b600060019054906101000a900460ff16156200007b576040517f08c379a0000000000000000000000000000000000000000000000000000000008152600401620000729062000176565b60405180910390fd5b60ff801660008054906101000a900460ff1660ff161015620000ed5760ff6000806101000a81548160ff021916908360ff1602179055507f7f26b83ff96e1f2b6a682f133852f6798a09c465da95921460cefb384740249860ff604051620000e49190620001b6565b60405180910390a15b565b600082825260208201905092915050565b7f496e697469616c697a61626c653a20636f6e747261637420697320696e69746960008201527f616c697a696e6700000000000000000000000000000000000000000000000000602082015250565b60006200015e602783620000ef565b91506200016b8262000100565b604082019050919050565b6000602082019050818103600083015262000191816200014f565b9050919050565b600060ff82169050919050565b620001b08162000198565b82525050565b6000602082019050620001cd6000830184620001a5565b92915050565b612ceb80620001e36000396000f3fe608060405234801561001057600080fd5b506004361061012b5760003560e01c80635e0f9fe9116100ad578063a217fddf11610071578063a217fddf14610368578063b2d9767f14610386578063c2728626146103b8578063d547741f146103d4578063ec996691146103f05761012b565b80635e0f9fe9146102b05780637471fedf146102e057806380cb5367146102fe5780638129fc1c1461032e57806391d14854146103385761012b565b8063248a9ca3116100f4578063248a9ca3146101fa5780632f2ff15d1461022a57806336568abe1461024657806339c21a7a146102625780635c975abb146102925761012b565b806215bd061461013057806301ffc9a71461014e57806302ba417e1461017e5780630d7fac12146101ae5780631f6b05f4146101de575b600080fd5b610138610420565b60405161014591906117bb565b60405180910390f35b61016860048036038101906101639190611816565b61042b565b604051610175919061185e565b60405180910390f35b6101986004803603810190610193919061190d565b6104a5565b6040516101a59190611aa8565b60405180910390f35b6101c860048036038101906101c39190611aca565b610545565b6040516101d59190611b67565b60405180910390f35b6101f860048036038101906101f39190611cbe565b6105e8565b005b610214600480360381019061020f9190611d50565b610868565b6040516102219190611d8c565b60405180910390f35b610244600480360381019061023f9190611da7565b610888565b005b610260600480360381019061025b9190611da7565b6108a9565b005b61027c6004803603810190610277919061190d565b61092c565b6040516102899190611ea5565b60405180910390f35b61029a6109cc565b6040516102a7919061185e565b60405180910390f35b6102ca60048036038101906102c59190611aca565b6109e3565b6040516102d79190611ed6565b60405180910390f35b6102e8610a81565b6040516102f59190611ed6565b60405180910390f35b61031860048036038101906103139190611ef1565b610a8d565b6040516103259190611f2d565b60405180910390f35b610336610ac0565b005b610352600480360381019061034d9190611da7565b610c13565b60405161035f919061185e565b60405180910390f35b610370610c7e565b60405161037d9190611d8c565b60405180910390f35b6103a0600480360381019061039b9190611f48565b610c85565b6040516103af93929190611f75565b60405180910390f35b6103d260048036038101906103cd9190611ef1565b610d44565b005b6103ee60048036038101906103e99190611da7565b610f29565b005b61040a60048036038101906104059190611fb3565b610f4a565b604051610417919061207f565b60405180910390f35b63494e535460e01b81565b60007f7965db0b000000000000000000000000000000000000000000000000000000007bffffffffffffffffffffffffffffffffffffffffffffffffffffffff1916827bffffffffffffffffffffffffffffffffffffffffffffffffffffffff1916148061049e575061049d82610ff0565b5b9050919050565b60606104b08361105a565b73ffffffffffffffffffffffffffffffffffffffff16639779d9c8836040518263ffffffff1660e01b81526004016104e89190611f2d565b60006040518083038186803b15801561050057600080fd5b505afa158015610514573d6000803e3d6000fd5b505050506040513d6000823e3d601f19601f8201168201806040525081019061053d91906121f7565b905092915050565b60606105508461105a565b73ffffffffffffffffffffffffffffffffffffffff1663825c021984846040518363ffffffff1660e01b815260040161058a929190612240565b60006040518083038186803b1580156105a257600080fd5b505afa1580156105b6573d6000803e3d6000fd5b505050506040513d6000823e3d601f19601f820116820180604052508101906105df9190612269565b90509392505050565b6000801b6105f581611097565b8273ffffffffffffffffffffffffffffffffffffffff166301ffc9a763494e535460e01b6040518263ffffffff1660e01b815260040161063591906117bb565b60206040518083038186803b15801561064d57600080fd5b505afa158015610661573d6000803e3d6000fd5b505050506040513d601f19601f8201168201806040525081019061068591906122de565b6106c4576040517f08c379a00000000000000000000000000000000000000000000000000000000081526004016106bb9061237d565b60405180910390fd5b60006106d060cb6110ab565b90508060c960008673ffffffffffffffffffffffffffffffffffffffff1673ffffffffffffffffffffffffffffffffffffffff16815260200190815260200160002060000181905550600160c960008673ffffffffffffffffffffffffffffffffffffffff1673ffffffffffffffffffffffffffffffffffffffff16815260200190815260200160002060020160006101000a81548160ff0219169083151502179055508260c960008673ffffffffffffffffffffffffffffffffffffffff1673ffffffffffffffffffffffffffffffffffffffff16815260200190815260200160002060010190805190602001906107ca9291906116ac565b508360ca600083815260200190815260200160002060006101000a81548173ffffffffffffffffffffffffffffffffffffffff021916908373ffffffffffffffffffffffffffffffffffffffff16021790555061082760cb6110b9565b7f4e4ac5839e2cc623c0c457a037f1f02209957eddda1fde98b40c144e0d4a75b681858560405161085a9392919061239d565b60405180910390a150505050565b600060976000838152602001908152602001600020600101549050919050565b61089182610868565b61089a81611097565b6108a483836110cf565b505050565b6108b16111b0565b73ffffffffffffffffffffffffffffffffffffffff168173ffffffffffffffffffffffffffffffffffffffff161461091e576040517f08c379a00000000000000000000000000000000000000000000000000000000081526004016109159061244d565b60405180910390fd5b61092882826111b8565b5050565b60606109378361105a565b73ffffffffffffffffffffffffffffffffffffffff16637d23b3bf836040518263ffffffff1660e01b815260040161096f9190611f2d565b60006040518083038186803b15801561098757600080fd5b505afa15801561099b573d6000803e3d6000fd5b505050506040513d6000823e3d601f19601f820116820180604052508101906109c49190612545565b905092915050565b6000603360009054906101000a900460ff16905090565b60006109ee8461105a565b73ffffffffffffffffffffffffffffffffffffffff166335f10d1a84846040518363ffffffff1660e01b8152600401610a28929190612240565b60206040518083038186803b158015610a4057600080fd5b505afa158015610a54573d6000803e3d6000fd5b505050506040513d601f19601f82011682018060405250810190610a78919061258e565b90509392505050565b60cb8060000154905081565b60ca6020528060005260406000206000915054906101000a900473ffffffffffffffffffffffffffffffffffffffff1681565b60008060019054906101000a900460ff16159050808015610af15750600160008054906101000a900460ff1660ff16105b80610b1e5750610b003061129a565b158015610b1d5750600160008054906101000a900460ff1660ff16145b5b610b5d576040517f08c379a0000000000000000000000000000000000000000000000000000000008152600401610b549061262d565b60405180910390fd5b60016000806101000a81548160ff021916908360ff1602179055508015610b9a576001600060016101000a81548160ff0219169083151502179055505b610ba26112bd565b610baa611316565b610bb76000801b336110cf565b8015610c105760008060016101000a81548160ff0219169083151502179055507f7f26b83ff96e1f2b6a682f133852f6798a09c465da95921460cefb38474024986001604051610c07919061269f565b60405180910390a15b50565b60006097600084815260200190815260200160002060000160008373ffffffffffffffffffffffffffffffffffffffff1673ffffffffffffffffffffffffffffffffffffffff16815260200190815260200160002060009054906101000a900460ff16905092915050565b6000801b81565b60c9602052806000526040600020600091509050806000015490806001018054610cae906126e9565b80601f0160208091040260200160405190810160405280929190818152602001828054610cda906126e9565b8015610d275780601f10610cfc57610100808354040283529160200191610d27565b820191906000526020600020905b815481529060010190602001808311610d0a57829003601f168201915b5050505050908060020160009054906101000a900460ff16905083565b6000801b610d5181611097565b8160c9600060ca600084815260200190815260200160002060009054906101000a900473ffffffffffffffffffffffffffffffffffffffff1673ffffffffffffffffffffffffffffffffffffffff1673ffffffffffffffffffffffffffffffffffffffff16815260200190815260200160002060020160009054906101000a900460ff16610e14576040517f08c379a0000000000000000000000000000000000000000000000000000000008152600401610e0b90612767565b60405180910390fd5b600060ca600085815260200190815260200160002060009054906101000a900473ffffffffffffffffffffffffffffffffffffffff169050600060c960008373ffffffffffffffffffffffffffffffffffffffff1673ffffffffffffffffffffffffffffffffffffffff16815260200190815260200160002060020160006101000a81548160ff0219169083151502179055507ff3efa966bd542b881477a3eb4373064eaf34e6ce879a9379397b3ba64330de04848260c960008573ffffffffffffffffffffffffffffffffffffffff1673ffffffffffffffffffffffffffffffffffffffff168152602001908152602001600020600101604051610f1b9392919061281c565b60405180910390a150505050565b610f3282610868565b610f3b81611097565b610f4583836111b8565b505050565b610f52611732565b610f5b8361105a565b73ffffffffffffffffffffffffffffffffffffffff16630b91e28d836040518263ffffffff1660e01b8152600401610f939190611ed6565b60006040518083038186803b158015610fab57600080fd5b505afa158015610fbf573d6000803e3d6000fd5b505050506040513d6000823e3d601f19601f82011682018060405250810190610fe89190612928565b905092915050565b60007f01ffc9a7000000000000000000000000000000000000000000000000000000007bffffffffffffffffffffffffffffffffffffffffffffffffffffffff1916827bffffffffffffffffffffffffffffffffffffffffffffffffffffffff1916149050919050565b600060ca600083815260200190815260200160002060009054906101000a900473ffffffffffffffffffffffffffffffffffffffff169050919050565b6110a8816110a36111b0565b611367565b50565b600081600001549050919050565b6001816000016000828254019250508190555050565b6110d98282610c13565b6111ac5760016097600084815260200190815260200160002060000160008373ffffffffffffffffffffffffffffffffffffffff1673ffffffffffffffffffffffffffffffffffffffff16815260200190815260200160002060006101000a81548160ff0219169083151502179055506111516111b0565b73ffffffffffffffffffffffffffffffffffffffff168173ffffffffffffffffffffffffffffffffffffffff16837f2f8788117e7eff1d82e926ec794901d17c78024a50270940304540a733656f0d60405160405180910390a45b5050565b600033905090565b6111c28282610c13565b156112965760006097600084815260200190815260200160002060000160008373ffffffffffffffffffffffffffffffffffffffff1673ffffffffffffffffffffffffffffffffffffffff16815260200190815260200160002060006101000a81548160ff02191690831515021790555061123b6111b0565b73ffffffffffffffffffffffffffffffffffffffff168173ffffffffffffffffffffffffffffffffffffffff16837ff6391f5c32d9c69d2a47ea670b442974b53935d1edc7fd64eb21e047a839171b60405160405180910390a45b5050565b6000808273ffffffffffffffffffffffffffffffffffffffff163b119050919050565b600060019054906101000a900460ff1661130c576040517f08c379a0000000000000000000000000000000000000000000000000000000008152600401611303906129e3565b60405180910390fd5b611314611404565b565b600060019054906101000a900460ff16611365576040517f08c379a000000000000000000000000000000000000000000000000000000000815260040161135c906129e3565b60405180910390fd5b565b6113718282610c13565b611400576113968173ffffffffffffffffffffffffffffffffffffffff166014611470565b6113a48360001c6020611470565b6040516020016113b5929190612ad7565b6040516020818303038152906040526040517f08c379a00000000000000000000000000000000000000000000000000000000081526004016113f79190611b67565b60405180910390fd5b5050565b600060019054906101000a900460ff16611453576040517f08c379a000000000000000000000000000000000000000000000000000000000815260040161144a906129e3565b60405180910390fd5b6000603360006101000a81548160ff021916908315150217905550565b6060600060028360026114839190612b40565b61148d9190612b9a565b67ffffffffffffffff8111156114a6576114a5611b93565b5b6040519080825280601f01601f1916602001820160405280156114d85781602001600182028036833780820191505090505b5090507f3000000000000000000000000000000000000000000000000000000000000000816000815181106115105761150f612bf0565b5b60200101907effffffffffffffffffffffffffffffffffffffffffffffffffffffffffffff1916908160001a9053507f78000000000000000000000000000000000000000000000000000000000000008160018151811061157457611573612bf0565b5b60200101907effffffffffffffffffffffffffffffffffffffffffffffffffffffffffffff1916908160001a905350600060018460026115b49190612b40565b6115be9190612b9a565b90505b600181111561165e577f3031323334353637383961626364656600000000000000000000000000000000600f861660108110611600576115ff612bf0565b5b1a60f81b82828151811061161757611616612bf0565b5b60200101907effffffffffffffffffffffffffffffffffffffffffffffffffffffffffffff1916908160001a905350600485901c94508061165790612c1f565b90506115c1565b50600084146116a2576040517f08c379a000000000000000000000000000000000000000000000000000000000815260040161169990612c95565b60405180910390fd5b8091505092915050565b8280546116b8906126e9565b90600052602060002090601f0160209004810192826116da5760008555611721565b82601f106116f357805160ff1916838001178555611721565b82800160010185558215611721579182015b82811115611720578251825591602001919060010190611705565b5b50905061172e9190611763565b5090565b6040518060a00160405280606081526020016000151581526020016060815260200160008152602001600081525090565b5b8082111561177c576000816000905550600101611764565b5090565b60007fffffffff0000000000000000000000000000000000000000000000000000000082169050919050565b6117b581611780565b82525050565b60006020820190506117d060008301846117ac565b92915050565b6000604051905090565b600080fd5b600080fd5b6117f381611780565b81146117fe57600080fd5b50565b600081359050611810816117ea565b92915050565b60006020828403121561182c5761182b6117e0565b5b600061183a84828501611801565b91505092915050565b60008115159050919050565b61185881611843565b82525050565b6000602082019050611873600083018461184f565b92915050565b6000819050919050565b61188c81611879565b811461189757600080fd5b50565b6000813590506118a981611883565b92915050565b600073ffffffffffffffffffffffffffffffffffffffff82169050919050565b60006118da826118af565b9050919050565b6118ea816118cf565b81146118f557600080fd5b50565b600081359050611907816118e1565b92915050565b60008060408385031215611924576119236117e0565b5b60006119328582860161189a565b9250506020611943858286016118f8565b9150509250929050565b600081519050919050565b600082825260208201905092915050565b6000819050602082019050919050565b600081519050919050565b600082825260208201905092915050565b60005b838110156119b3578082015181840152602081019050611998565b838111156119c2576000848401525b50505050565b6000601f19601f8301169050919050565b60006119e482611979565b6119ee8185611984565b93506119fe818560208601611995565b611a07816119c8565b840191505092915050565b6000611a1e83836119d9565b905092915050565b6000602082019050919050565b6000611a3e8261194d565b611a488185611958565b935083602082028501611a5a85611969565b8060005b85811015611a965784840389528151611a778582611a12565b9450611a8283611a26565b925060208a01995050600181019050611a5e565b50829750879550505050505092915050565b60006020820190508181036000830152611ac28184611a33565b905092915050565b600080600060608486031215611ae357611ae26117e0565b5b6000611af18682870161189a565b9350506020611b028682870161189a565b9250506040611b13868287016118f8565b9150509250925092565b600082825260208201905092915050565b6000611b3982611979565b611b438185611b1d565b9350611b53818560208601611995565b611b5c816119c8565b840191505092915050565b60006020820190508181036000830152611b818184611b2e565b905092915050565b600080fd5b600080fd5b7f4e487b7100000000000000000000000000000000000000000000000000000000600052604160045260246000fd5b611bcb826119c8565b810181811067ffffffffffffffff82111715611bea57611be9611b93565b5b80604052505050565b6000611bfd6117d6565b9050611c098282611bc2565b919050565b600067ffffffffffffffff821115611c2957611c28611b93565b5b611c32826119c8565b9050602081019050919050565b82818337600083830152505050565b6000611c61611c5c84611c0e565b611bf3565b905082815260208101848484011115611c7d57611c7c611b8e565b5b611c88848285611c3f565b509392505050565b600082601f830112611ca557611ca4611b89565b5b8135611cb5848260208601611c4e565b91505092915050565b60008060408385031215611cd557611cd46117e0565b5b6000611ce3858286016118f8565b925050602083013567ffffffffffffffff811115611d0457611d036117e5565b5b611d1085828601611c90565b9150509250929050565b6000819050919050565b611d2d81611d1a565b8114611d3857600080fd5b50565b600081359050611d4a81611d24565b92915050565b600060208284031215611d6657611d656117e0565b5b6000611d7484828501611d3b565b91505092915050565b611d8681611d1a565b82525050565b6000602082019050611da16000830184611d7d565b92915050565b60008060408385031215611dbe57611dbd6117e0565b5b6000611dcc85828601611d3b565b9250506020611ddd858286016118f8565b9150509250929050565b600081519050919050565b600082825260208201905092915050565b6000819050602082019050919050565b611e1c81611879565b82525050565b6000611e2e8383611e13565b60208301905092915050565b6000602082019050919050565b6000611e5282611de7565b611e5c8185611df2565b9350611e6783611e03565b8060005b83811015611e98578151611e7f8882611e22565b9750611e8a83611e3a565b925050600181019050611e6b565b5085935050505092915050565b60006020820190508181036000830152611ebf8184611e47565b905092915050565b611ed081611879565b82525050565b6000602082019050611eeb6000830184611ec7565b92915050565b600060208284031215611f0757611f066117e0565b5b6000611f158482850161189a565b91505092915050565b611f27816118cf565b82525050565b6000602082019050611f426000830184611f1e565b92915050565b600060208284031215611f5e57611f5d6117e0565b5b6000611f6c848285016118f8565b91505092915050565b6000606082019050611f8a6000830186611ec7565b8181036020830152611f9c8185611b2e565b9050611fab604083018461184f565b949350505050565b60008060408385031215611fca57611fc96117e0565b5b6000611fd88582860161189a565b9250506020611fe98582860161189a565b9150509250929050565b611ffc81611843565b82525050565b600060a083016000830151848203600086015261201f82826119d9565b91505060208301516120346020860182611ff3565b506040830151848203604086015261204c82826119d9565b91505060608301516120616060860182611e13565b5060808301516120746080860182611e13565b508091505092915050565b600060208201905081810360008301526120998184612002565b905092915050565b600067ffffffffffffffff8211156120bc576120bb611b93565b5b602082029050602081019050919050565b600080fd5b60006120e56120e084611c0e565b611bf3565b90508281526020810184848401111561210157612100611b8e565b5b61210c848285611995565b509392505050565b600082601f83011261212957612128611b89565b5b81516121398482602086016120d2565b91505092915050565b6000612155612150846120a1565b611bf3565b90508083825260208201905060208402830185811115612178576121776120cd565b5b835b818110156121bf57805167ffffffffffffffff81111561219d5761219c611b89565b5b8086016121aa8982612114565b8552602085019450505060208101905061217a565b5050509392505050565b600082601f8301126121de576121dd611b89565b5b81516121ee848260208601612142565b91505092915050565b60006020828403121561220d5761220c6117e0565b5b600082015167ffffffffffffffff81111561222b5761222a6117e5565b5b612237848285016121c9565b91505092915050565b60006040820190506122556000830185611ec7565b6122626020830184611f1e565b9392505050565b60006020828403121561227f5761227e6117e0565b5b600082015167ffffffffffffffff81111561229d5761229c6117e5565b5b6122a984828501612114565b91505092915050565b6122bb81611843565b81146122c657600080fd5b50565b6000815190506122d8816122b2565b92915050565b6000602082840312156122f4576122f36117e0565b5b6000612302848285016122c9565b91505092915050565b7f436f6e7472616374206d75737420696d706c656d656e7420496e73746974757460008201527f696f6e7320696e74657266616365000000000000000000000000000000000000602082015250565b6000612367602e83611b1d565b91506123728261230b565b604082019050919050565b600060208201905081810360008301526123968161235a565b9050919050565b60006060820190506123b26000830186611ec7565b6123bf6020830185611f1e565b81810360408301526123d18184611b2e565b9050949350505050565b7f416363657373436f6e74726f6c3a2063616e206f6e6c792072656e6f756e636560008201527f20726f6c657320666f722073656c660000000000000000000000000000000000602082015250565b6000612437602f83611b1d565b9150612442826123db565b604082019050919050565b600060208201905081810360008301526124668161242a565b9050919050565b600067ffffffffffffffff82111561248857612487611b93565b5b602082029050602081019050919050565b6000815190506124a881611883565b92915050565b60006124c16124bc8461246d565b611bf3565b905080838252602082019050602084028301858111156124e4576124e36120cd565b5b835b8181101561250d57806124f98882612499565b8452602084019350506020810190506124e6565b5050509392505050565b600082601f83011261252c5761252b611b89565b5b815161253c8482602086016124ae565b91505092915050565b60006020828403121561255b5761255a6117e0565b5b600082015167ffffffffffffffff811115612579576125786117e5565b5b61258584828501612517565b91505092915050565b6000602082840312156125a4576125a36117e0565b5b60006125b284828501612499565b91505092915050565b7f496e697469616c697a61626c653a20636f6e747261637420697320616c72656160008201527f647920696e697469616c697a6564000000000000000000000000000000000000602082015250565b6000612617602e83611b1d565b9150612622826125bb565b604082019050919050565b600060208201905081810360008301526126468161260a565b9050919050565b6000819050919050565b600060ff82169050919050565b6000819050919050565b600061268961268461267f8461264d565b612664565b612657565b9050919050565b6126998161266e565b82525050565b60006020820190506126b46000830184612690565b92915050565b7f4e487b7100000000000000000000000000000000000000000000000000000000600052602260045260246000fd5b6000600282049050600182168061270157607f821691505b60208210811415612715576127146126ba565b5b50919050565b7f496e737469747574696f6e20696e616374697665000000000000000000000000600082015250565b6000612751601483611b1d565b915061275c8261271b565b602082019050919050565b6000602082019050818103600083015261278081612744565b9050919050565b60008190508160005260206000209050919050565b600081546127a9816126e9565b6127b38186611b1d565b945060018216600081146127ce57600181146127e057612813565b60ff1983168652602086019350612813565b6127e985612787565b60005b8381101561280b578154818901526001820191506020810190506127ec565b808801955050505b50505092915050565b60006060820190506128316000830186611ec7565b61283e6020830185611f1e565b8181036040830152612850818461279c565b9050949350505050565b600080fd5b600080fd5b600060a0828403121561287a5761287961285a565b5b61288460a0611bf3565b9050600082015167ffffffffffffffff8111156128a4576128a361285f565b5b6128b084828501612114565b60008301525060206128c4848285016122c9565b602083015250604082015167ffffffffffffffff8111156128e8576128e761285f565b5b6128f484828501612114565b604083015250606061290884828501612499565b606083015250608061291c84828501612499565b60808301525092915050565b60006020828403121561293e5761293d6117e0565b5b600082015167ffffffffffffffff81111561295c5761295b6117e5565b5b61296884828501612864565b91505092915050565b7f496e697469616c697a61626c653a20636f6e7472616374206973206e6f74206960008201527f6e697469616c697a696e67000000000000000000000000000000000000000000602082015250565b60006129cd602b83611b1d565b91506129d882612971565b604082019050919050565b600060208201905081810360008301526129fc816129c0565b9050919050565b600081905092915050565b7f416363657373436f6e74726f6c3a206163636f756e7420000000000000000000600082015250565b6000612a44601783612a03565b9150612a4f82612a0e565b601782019050919050565b6000612a6582611979565b612a6f8185612a03565b9350612a7f818560208601611995565b80840191505092915050565b7f206973206d697373696e6720726f6c6520000000000000000000000000000000600082015250565b6000612ac1601183612a03565b9150612acc82612a8b565b601182019050919050565b6000612ae282612a37565b9150612aee8285612a5a565b9150612af982612ab4565b9150612b058284612a5a565b91508190509392505050565b7f4e487b7100000000000000000000000000000000000000000000000000000000600052601160045260246000fd5b6000612b4b82611879565b9150612b5683611879565b9250817fffffffffffffffffffffffffffffffffffffffffffffffffffffffffffffffff0483118215151615612b8f57612b8e612b11565b5b828202905092915050565b6000612ba582611879565b9150612bb083611879565b9250827fffffffffffffffffffffffffffffffffffffffffffffffffffffffffffffffff03821115612be557612be4612b11565b5b828201905092915050565b7f4e487b7100000000000000000000000000000000000000000000000000000000600052603260045260246000fd5b6000612c2a82611879565b91506000821415612c3e57612c3d612b11565b5b600182039050919050565b7f537472696e67733a20686578206c656e67746820696e73756666696369656e74600082015250565b6000612c7f602083611b1d565b9150612c8a82612c49565b602082019050919050565b60006020820190508181036000830152612cae81612c72565b905091905056fea26469706673582212204f123b26c266dbacf0bb2d4723fc3b5c3e90bd30975b6bccd850ed6f106fc2d264736f6c63430008090033",
  "devdoc": {
    "kind": "dev",
    "methods": {
      "getRoleAdmin(bytes32)": {
        "details": "Returns the admin role that controls `role`. See {grantRole} and {revokeRole}. To change a role's admin, use {_setRoleAdmin}."
      },
      "grantRole(bytes32,address)": {
        "details": "Grants `role` to `account`. If `account` had not been already granted `role`, emits a {RoleGranted} event. Requirements: - the caller must have ``role``'s admin role. May emit a {RoleGranted} event."
      },
      "hasRole(bytes32,address)": {
        "details": "Returns `true` if `account` has been granted `role`."
      },
      "paused()": {
        "details": "Returns true if the contract is paused, and false otherwise."
      },
      "renounceRole(bytes32,address)": {
        "details": "Revokes `role` from the calling account. Roles are often managed via {grantRole} and {revokeRole}: this function's purpose is to provide a mechanism for accounts to lose their privileges if they are compromised (such as when a trusted device is misplaced). If the calling account had been revoked `role`, emits a {RoleRevoked} event. Requirements: - the caller must be `account`. May emit a {RoleRevoked} event."
      },
      "revokeRole(bytes32,address)": {
        "details": "Revokes `role` from `account`. If `account` had been granted `role`, emits a {RoleRevoked} event. Requirements: - the caller must have ``role``'s admin role. May emit a {RoleRevoked} event."
      },
      "supportsInterface(bytes4)": {
        "details": "See {IERC165-supportsInterface}."
      }
    },
    "version": 1
  },
  "userdoc": {
    "kind": "user",
    "methods": {},
    "version": 1
  },
  "storageLayout": {
    "storage": [
      {
        "astId": 419,
        "contract": "contracts/Indexer.sol:Indexer",
        "label": "_initialized",
        "offset": 0,
        "slot": "0",
        "type": "t_uint8"
      },
      {
        "astId": 422,
        "contract": "contracts/Indexer.sol:Indexer",
        "label": "_initializing",
        "offset": 1,
        "slot": "0",
        "type": "t_bool"
      },
      {
        "astId": 2561,
        "contract": "contracts/Indexer.sol:Indexer",
        "label": "__gap",
        "offset": 0,
        "slot": "1",
        "type": "t_array(t_uint256)50_storage"
      },
      {
        "astId": 584,
        "contract": "contracts/Indexer.sol:Indexer",
        "label": "_paused",
        "offset": 0,
        "slot": "51",
        "type": "t_bool"
      },
      {
        "astId": 689,
        "contract": "contracts/Indexer.sol:Indexer",
        "label": "__gap",
        "offset": 0,
        "slot": "52",
        "type": "t_array(t_uint256)49_storage"
      },
      {
        "astId": 2905,
        "contract": "contracts/Indexer.sol:Indexer",
        "label": "__gap",
        "offset": 0,
        "slot": "101",
        "type": "t_array(t_uint256)50_storage"
      },
      {
        "astId": 39,
        "contract": "contracts/Indexer.sol:Indexer",
        "label": "_roles",
        "offset": 0,
        "slot": "151",
        "type": "t_mapping(t_bytes32,t_struct(RoleData)34_storage)"
      },
      {
        "astId": 338,
        "contract": "contracts/Indexer.sol:Indexer",
        "label": "__gap",
        "offset": 0,
        "slot": "152",
        "type": "t_array(t_uint256)49_storage"
      },
      {
        "astId": 2967,
        "contract": "contracts/Indexer.sol:Indexer",
        "label": "institutions",
        "offset": 0,
        "slot": "201",
        "type": "t_mapping(t_address,t_struct(_Institution)2962_storage)"
      },
      {
        "astId": 2971,
        "contract": "contracts/Indexer.sol:Indexer",
        "label": "institutionIdToAddress",
        "offset": 0,
        "slot": "202",
        "type": "t_mapping(t_uint256,t_address)"
      },
      {
        "astId": 2974,
        "contract": "contracts/Indexer.sol:Indexer",
        "label": "institutionCounter",
        "offset": 0,
        "slot": "203",
        "type": "t_struct(Counter)2568_storage"
      }
    ],
    "types": {
      "t_address": {
        "encoding": "inplace",
        "label": "address",
        "numberOfBytes": "20"
      },
      "t_array(t_uint256)49_storage": {
        "base": "t_uint256",
        "encoding": "inplace",
        "label": "uint256[49]",
        "numberOfBytes": "1568"
      },
      "t_array(t_uint256)50_storage": {
        "base": "t_uint256",
        "encoding": "inplace",
        "label": "uint256[50]",
        "numberOfBytes": "1600"
      },
      "t_bool": {
        "encoding": "inplace",
        "label": "bool",
        "numberOfBytes": "1"
      },
      "t_bytes32": {
        "encoding": "inplace",
        "label": "bytes32",
        "numberOfBytes": "32"
      },
      "t_mapping(t_address,t_bool)": {
        "encoding": "mapping",
        "key": "t_address",
        "label": "mapping(address => bool)",
        "numberOfBytes": "32",
        "value": "t_bool"
      },
      "t_mapping(t_address,t_struct(_Institution)2962_storage)": {
        "encoding": "mapping",
        "key": "t_address",
        "label": "mapping(address => struct Indexer._Institution)",
        "numberOfBytes": "32",
        "value": "t_struct(_Institution)2962_storage"
      },
      "t_mapping(t_bytes32,t_struct(RoleData)34_storage)": {
        "encoding": "mapping",
        "key": "t_bytes32",
        "label": "mapping(bytes32 => struct AccessControlUpgradeable.RoleData)",
        "numberOfBytes": "32",
        "value": "t_struct(RoleData)34_storage"
      },
      "t_mapping(t_uint256,t_address)": {
        "encoding": "mapping",
        "key": "t_uint256",
        "label": "mapping(uint256 => address)",
        "numberOfBytes": "32",
        "value": "t_address"
      },
      "t_string_storage": {
        "encoding": "bytes",
        "label": "string",
        "numberOfBytes": "32"
      },
      "t_struct(Counter)2568_storage": {
        "encoding": "inplace",
        "label": "struct CountersUpgradeable.Counter",
        "members": [
          {
            "astId": 2567,
            "contract": "contracts/Indexer.sol:Indexer",
            "label": "_value",
            "offset": 0,
            "slot": "0",
            "type": "t_uint256"
          }
        ],
        "numberOfBytes": "32"
      },
      "t_struct(RoleData)34_storage": {
        "encoding": "inplace",
        "label": "struct AccessControlUpgradeable.RoleData",
        "members": [
          {
            "astId": 31,
            "contract": "contracts/Indexer.sol:Indexer",
            "label": "members",
            "offset": 0,
            "slot": "0",
            "type": "t_mapping(t_address,t_bool)"
          },
          {
            "astId": 33,
            "contract": "contracts/Indexer.sol:Indexer",
            "label": "adminRole",
            "offset": 0,
            "slot": "1",
            "type": "t_bytes32"
          }
        ],
        "numberOfBytes": "64"
      },
      "t_struct(_Institution)2962_storage": {
        "encoding": "inplace",
        "label": "struct Indexer._Institution",
        "members": [
          {
            "astId": 2957,
            "contract": "contracts/Indexer.sol:Indexer",
            "label": "id",
            "offset": 0,
            "slot": "0",
            "type": "t_uint256"
          },
          {
            "astId": 2959,
            "contract": "contracts/Indexer.sol:Indexer",
            "label": "name",
            "offset": 0,
            "slot": "1",
            "type": "t_string_storage"
          },
          {
            "astId": 2961,
            "contract": "contracts/Indexer.sol:Indexer",
            "label": "isActive",
            "offset": 0,
            "slot": "2",
            "type": "t_bool"
          }
        ],
        "numberOfBytes": "96"
      },
      "t_uint256": {
        "encoding": "inplace",
        "label": "uint256",
        "numberOfBytes": "32"
      },
      "t_uint8": {
        "encoding": "inplace",
        "label": "uint8",
        "numberOfBytes": "1"
      }
    }
  }
}