{
  "address": "0xe1B625954c7366F59812160cbC4809653ca076f7",
  "abi": [
    {
      "inputs": [],
      "stateMutability": "nonpayable",
      "type": "constructor"
    },
    {
      "anonymous": false,
      "inputs": [
        {
          "indexed": false,
          "internalType": "uint8",
          "name": "version",
          "type": "uint8"
        }
      ],
      "name": "Initialized",
      "type": "event"
    },
    {
      "anonymous": false,
      "inputs": [
        {
          "indexed": false,
          "internalType": "address",
          "name": "account",
          "type": "address"
        }
      ],
      "name": "Paused",
      "type": "event"
    },
    {
      "anonymous": false,
      "inputs": [
        {
          "indexed": true,
          "internalType": "bytes32",
          "name": "role",
          "type": "bytes32"
        },
        {
          "indexed": true,
          "internalType": "bytes32",
          "name": "previousAdminRole",
          "type": "bytes32"
        },
        {
          "indexed": true,
          "internalType": "bytes32",
          "name": "newAdminRole",
          "type": "bytes32"
        }
      ],
      "name": "RoleAdminChanged",
      "type": "event"
    },
    {
      "anonymous": false,
      "inputs": [
        {
          "indexed": true,
          "internalType": "bytes32",
          "name": "role",
          "type": "bytes32"
        },
        {
          "indexed": true,
          "internalType": "address",
          "name": "account",
          "type": "address"
        },
        {
          "indexed": true,
          "internalType": "address",
          "name": "sender",
          "type": "address"
        }
      ],
      "name": "RoleGranted",
      "type": "event"
    },
    {
      "anonymous": false,
      "inputs": [
        {
          "indexed": true,
          "internalType": "bytes32",
          "name": "role",
          "type": "bytes32"
        },
        {
          "indexed": true,
          "internalType": "address",
          "name": "account",
          "type": "address"
        },
        {
          "indexed": true,
          "internalType": "address",
          "name": "sender",
          "type": "address"
        }
      ],
      "name": "RoleRevoked",
      "type": "event"
    },
    {
      "anonymous": false,
      "inputs": [
        {
          "indexed": false,
          "internalType": "address",
          "name": "account",
          "type": "address"
        }
      ],
      "name": "Unpaused",
      "type": "event"
    },
    {
      "inputs": [],
      "name": "DEFAULT_ADMIN_ROLE",
      "outputs": [
        {
          "internalType": "bytes32",
          "name": "",
          "type": "bytes32"
        }
      ],
      "stateMutability": "view",
      "type": "function"
    },
    {
      "inputs": [],
      "name": "INSTITUTIONS_INTERFACE_ID",
      "outputs": [
        {
          "internalType": "bytes4",
          "name": "",
          "type": "bytes4"
        }
      ],
      "stateMutability": "view",
      "type": "function"
    },
    {
      "inputs": [
        {
          "internalType": "uint256",
          "name": "institutionId",
          "type": "uint256"
        },
        {
          "internalType": "address",
          "name": "student",
          "type": "address"
        }
      ],
      "name": "getAllCertificatesURIs",
      "outputs": [
        {
          "internalType": "string[]",
          "name": "",
          "type": "string[]"
        }
      ],
      "stateMutability": "view",
      "type": "function"
    },
    {
      "inputs": [
        {
          "internalType": "bytes32",
          "name": "role",
          "type": "bytes32"
        }
      ],
      "name": "getRoleAdmin",
      "outputs": [
        {
          "internalType": "bytes32",
          "name": "",
          "type": "bytes32"
        }
      ],
      "stateMutability": "view",
      "type": "function"
    },
    {
      "inputs": [
        {
          "internalType": "bytes32",
          "name": "role",
          "type": "bytes32"
        },
        {
          "internalType": "address",
          "name": "account",
          "type": "address"
        }
      ],
      "name": "grantRole",
      "outputs": [],
      "stateMutability": "nonpayable",
      "type": "function"
    },
    {
      "inputs": [
        {
          "internalType": "bytes32",
          "name": "role",
          "type": "bytes32"
        },
        {
          "internalType": "address",
          "name": "account",
          "type": "address"
        }
      ],
      "name": "hasRole",
      "outputs": [
        {
          "internalType": "bool",
          "name": "",
          "type": "bool"
        }
      ],
      "stateMutability": "view",
      "type": "function"
    },
    {
      "inputs": [],
      "name": "initialize",
      "outputs": [],
      "stateMutability": "nonpayable",
      "type": "function"
    },
    {
      "inputs": [],
      "name": "institutionCounter",
      "outputs": [
        {
          "internalType": "uint256",
          "name": "_value",
          "type": "uint256"
        }
      ],
      "stateMutability": "view",
      "type": "function"
    },
    {
      "inputs": [
        {
          "internalType": "uint256",
          "name": "",
          "type": "uint256"
        }
      ],
      "name": "institutionIdToAddress",
      "outputs": [
        {
          "internalType": "address",
          "name": "",
          "type": "address"
        }
      ],
      "stateMutability": "view",
      "type": "function"
    },
    {
      "inputs": [
        {
          "internalType": "address",
          "name": "",
          "type": "address"
        }
      ],
      "name": "institutions",
      "outputs": [
        {
          "internalType": "uint256",
          "name": "id",
          "type": "uint256"
        },
        {
          "internalType": "bool",
          "name": "isActive",
          "type": "bool"
        },
        {
          "internalType": "uint256",
          "name": "activeCoursesBalance",
          "type": "uint256"
        }
      ],
      "stateMutability": "view",
      "type": "function"
    },
    {
      "inputs": [],
      "name": "paused",
      "outputs": [
        {
          "internalType": "bool",
          "name": "",
          "type": "bool"
        }
      ],
      "stateMutability": "view",
      "type": "function"
    },
    {
      "inputs": [
        {
          "internalType": "address",
          "name": "institutionAddress",
          "type": "address"
        }
      ],
      "name": "registerInstitution",
      "outputs": [],
      "stateMutability": "nonpayable",
      "type": "function"
    },
    {
      "inputs": [
        {
          "internalType": "bytes32",
          "name": "role",
          "type": "bytes32"
        },
        {
          "internalType": "address",
          "name": "account",
          "type": "address"
        }
      ],
      "name": "renounceRole",
      "outputs": [],
      "stateMutability": "nonpayable",
      "type": "function"
    },
    {
      "inputs": [
        {
          "internalType": "bytes32",
          "name": "role",
          "type": "bytes32"
        },
        {
          "internalType": "address",
          "name": "account",
          "type": "address"
        }
      ],
      "name": "revokeRole",
      "outputs": [],
      "stateMutability": "nonpayable",
      "type": "function"
    },
    {
      "inputs": [
        {
          "internalType": "bytes4",
          "name": "interfaceId",
          "type": "bytes4"
        }
      ],
      "name": "supportsInterface",
      "outputs": [
        {
          "internalType": "bool",
          "name": "",
          "type": "bool"
        }
      ],
      "stateMutability": "view",
      "type": "function"
    },
    {
      "inputs": [
        {
          "internalType": "uint256",
          "name": "institutionId",
          "type": "uint256"
        }
      ],
      "name": "unregisterInstitution",
      "outputs": [],
      "stateMutability": "nonpayable",
      "type": "function"
    }
  ],
  "transactionHash": "0x1bd28bfbaacb47da0be232674912e58fc67fadf7fee067a255be28dba8daeabd",
  "args": [],
  "numDeployments": 6,
  "solcInputHash": "1be7a0d608cbc1e6488b612e207eead3",
  "bytecode": "0x60806040523480156200001157600080fd5b50620000226200002860201b60201c565b620001d3565b600060019054906101000a900460ff16156200007b576040517f08c379a0000000000000000000000000000000000000000000000000000000008152600401620000729062000176565b60405180910390fd5b60ff801660008054906101000a900460ff1660ff161015620000ed5760ff6000806101000a81548160ff021916908360ff1602179055507f7f26b83ff96e1f2b6a682f133852f6798a09c465da95921460cefb384740249860ff604051620000e49190620001b6565b60405180910390a15b565b600082825260208201905092915050565b7f496e697469616c697a61626c653a20636f6e747261637420697320696e69746960008201527f616c697a696e6700000000000000000000000000000000000000000000000000602082015250565b60006200015e602783620000ef565b91506200016b8262000100565b604082019050919050565b6000602082019050818103600083015262000191816200014f565b9050919050565b600060ff82169050919050565b620001b08162000198565b82525050565b6000602082019050620001cd6000830184620001a5565b92915050565b61212f80620001e36000396000f3fe608060405234801561001057600080fd5b50600436106101005760003560e01c80638129fc1c11610097578063b2d9767f11610066578063b2d9767f146102af578063c2728626146102e1578063d547741f146102fd578063f06d80fc1461031957610100565b80638129fc1c146102275780638f775a6f1461023157806391d1485414610261578063a217fddf1461029157610100565b80635c975abb116100d35780635c975abb1461019d5780635f6d0a0b146101bb5780637471fedf146101d957806380cb5367146101f757610100565b806301ffc9a714610105578063248a9ca3146101355780632f2ff15d1461016557806336568abe14610181575b600080fd5b61011f600480360381019061011a91906112f3565b610335565b60405161012c919061133b565b60405180910390f35b61014f600480360381019061014a919061138c565b6103af565b60405161015c91906113c8565b60405180910390f35b61017f600480360381019061017a9190611441565b6103cf565b005b61019b60048036038101906101969190611441565b6103f0565b005b6101a5610473565b6040516101b2919061133b565b60405180910390f35b6101c361048a565b6040516101d09190611490565b60405180910390f35b6101e1610495565b6040516101ee91906114c4565b60405180910390f35b610211600480360381019061020c919061150b565b6104a1565b60405161021e9190611547565b60405180910390f35b61022f6104d4565b005b61024b60048036038101906102469190611562565b610627565b60405161025891906116fd565b60405180910390f35b61027b60048036038101906102769190611441565b6107bc565b604051610288919061133b565b60405180910390f35b610299610827565b6040516102a691906113c8565b60405180910390f35b6102c960048036038101906102c4919061171f565b61082e565b6040516102d89392919061174c565b60405180910390f35b6102fb60048036038101906102f6919061150b565b610865565b005b61031760048036038101906103129190611441565b6109c8565b005b610333600480360381019061032e919061171f565b6109e9565b005b60007f7965db0b000000000000000000000000000000000000000000000000000000007bffffffffffffffffffffffffffffffffffffffffffffffffffffffff1916827bffffffffffffffffffffffffffffffffffffffffffffffffffffffff191614806103a857506103a782610bc6565b5b9050919050565b600060976000838152602001908152602001600020600101549050919050565b6103d8826103af565b6103e181610c30565b6103eb8383610c44565b505050565b6103f8610d25565b73ffffffffffffffffffffffffffffffffffffffff168173ffffffffffffffffffffffffffffffffffffffff1614610465576040517f08c379a000000000000000000000000000000000000000000000000000000000815260040161045c90611806565b60405180910390fd5b61046f8282610d2d565b5050565b6000603360009054906101000a900460ff16905090565b63494e535460e01b81565b60cb8060000154905081565b60ca6020528060005260406000206000915054906101000a900473ffffffffffffffffffffffffffffffffffffffff1681565b60008060019054906101000a900460ff161590508080156105055750600160008054906101000a900460ff1660ff16105b80610532575061051430610e0f565b1580156105315750600160008054906101000a900460ff1660ff16145b5b610571576040517f08c379a000000000000000000000000000000000000000000000000000000000815260040161056890611898565b60405180910390fd5b60016000806101000a81548160ff021916908360ff16021790555080156105ae576001600060016101000a81548160ff0219169083151502179055505b6105b6610e32565b6105be610e8b565b6105cb6000801b33610c44565b80156106245760008060016101000a81548160ff0219169083151502179055507f7f26b83ff96e1f2b6a682f133852f6798a09c465da95921460cefb3847402498600160405161061b919061190a565b60405180910390a15b50565b6060600061063484610edc565b905060008173ffffffffffffffffffffffffffffffffffffffff166305391db6856040518263ffffffff1660e01b81526004016106719190611547565b60006040518083038186803b15801561068957600080fd5b505afa15801561069d573d6000803e3d6000fd5b505050506040513d6000823e3d601f19601f820116820180604052508101906106c69190611a82565b9050606060005b82518110156107af578373ffffffffffffffffffffffffffffffffffffffff16638aabffd484838151811061070557610704611acb565b5b60200260200101516040518263ffffffff1660e01b815260040161072991906114c4565b60006040518083038186803b15801561074157600080fd5b505afa158015610755573d6000803e3d6000fd5b505050506040513d6000823e3d601f19601f8201168201806040525081019061077e9190611ba0565b82828151811061079157610790611acb565b5b602002602001018190525080806107a790611c18565b9150506106cd565b5080935050505092915050565b60006097600084815260200190815260200160002060000160008373ffffffffffffffffffffffffffffffffffffffff1673ffffffffffffffffffffffffffffffffffffffff16815260200190815260200160002060009054906101000a900460ff16905092915050565b6000801b81565b60c96020528060005260406000206000915090508060000154908060010160009054906101000a900460ff16908060020154905083565b6000801b61087281610c30565b8160c9600060ca600084815260200190815260200160002060009054906101000a900473ffffffffffffffffffffffffffffffffffffffff1673ffffffffffffffffffffffffffffffffffffffff1673ffffffffffffffffffffffffffffffffffffffff16815260200190815260200160002060010160009054906101000a900460ff16610935576040517f08c379a000000000000000000000000000000000000000000000000000000000815260040161092c90611cad565b60405180910390fd5b600060c9600060ca600087815260200190815260200160002060009054906101000a900473ffffffffffffffffffffffffffffffffffffffff1673ffffffffffffffffffffffffffffffffffffffff1673ffffffffffffffffffffffffffffffffffffffff16815260200190815260200160002060010160006101000a81548160ff021916908315150217905550505050565b6109d1826103af565b6109da81610c30565b6109e48383610d2d565b505050565b6000801b6109f681610c30565b8173ffffffffffffffffffffffffffffffffffffffff166301ffc9a763494e535460e01b6040518263ffffffff1660e01b8152600401610a369190611490565b60206040518083038186803b158015610a4e57600080fd5b505afa158015610a62573d6000803e3d6000fd5b505050506040513d601f19601f82011682018060405250810190610a869190611cf9565b610ac5576040517f08c379a0000000000000000000000000000000000000000000000000000000008152600401610abc90611d98565b60405180910390fd5b610acf60cb610f1e565b60c960008473ffffffffffffffffffffffffffffffffffffffff1673ffffffffffffffffffffffffffffffffffffffff16815260200190815260200160002060000181905550600060c960008473ffffffffffffffffffffffffffffffffffffffff1673ffffffffffffffffffffffffffffffffffffffff16815260200190815260200160002060020181905550600160c960008473ffffffffffffffffffffffffffffffffffffffff1673ffffffffffffffffffffffffffffffffffffffff16815260200190815260200160002060010160006101000a81548160ff021916908315150217905550610bc260cb610f2c565b5050565b60007f01ffc9a7000000000000000000000000000000000000000000000000000000007bffffffffffffffffffffffffffffffffffffffffffffffffffffffff1916827bffffffffffffffffffffffffffffffffffffffffffffffffffffffff1916149050919050565b610c4181610c3c610d25565b610f42565b50565b610c4e82826107bc565b610d215760016097600084815260200190815260200160002060000160008373ffffffffffffffffffffffffffffffffffffffff1673ffffffffffffffffffffffffffffffffffffffff16815260200190815260200160002060006101000a81548160ff021916908315150217905550610cc6610d25565b73ffffffffffffffffffffffffffffffffffffffff168173ffffffffffffffffffffffffffffffffffffffff16837f2f8788117e7eff1d82e926ec794901d17c78024a50270940304540a733656f0d60405160405180910390a45b5050565b600033905090565b610d3782826107bc565b15610e0b5760006097600084815260200190815260200160002060000160008373ffffffffffffffffffffffffffffffffffffffff1673ffffffffffffffffffffffffffffffffffffffff16815260200190815260200160002060006101000a81548160ff021916908315150217905550610db0610d25565b73ffffffffffffffffffffffffffffffffffffffff168173ffffffffffffffffffffffffffffffffffffffff16837ff6391f5c32d9c69d2a47ea670b442974b53935d1edc7fd64eb21e047a839171b60405160405180910390a45b5050565b6000808273ffffffffffffffffffffffffffffffffffffffff163b119050919050565b600060019054906101000a900460ff16610e81576040517f08c379a0000000000000000000000000000000000000000000000000000000008152600401610e7890611e2a565b60405180910390fd5b610e89610fdf565b565b600060019054906101000a900460ff16610eda576040517f08c379a0000000000000000000000000000000000000000000000000000000008152600401610ed190611e2a565b60405180910390fd5b565b60008060ca600084815260200190815260200160002060009054906101000a900473ffffffffffffffffffffffffffffffffffffffff16905080915050919050565b600081600001549050919050565b6001816000016000828254019250508190555050565b610f4c82826107bc565b610fdb57610f718173ffffffffffffffffffffffffffffffffffffffff16601461104b565b610f7f8360001c602061104b565b604051602001610f90929190611f1e565b6040516020818303038152906040526040517f08c379a0000000000000000000000000000000000000000000000000000000008152600401610fd29190611f91565b60405180910390fd5b5050565b600060019054906101000a900460ff1661102e576040517f08c379a000000000000000000000000000000000000000000000000000000000815260040161102590611e2a565b60405180910390fd5b6000603360006101000a81548160ff021916908315150217905550565b60606000600283600261105e9190611fb3565b611068919061200d565b67ffffffffffffffff8111156110815761108061192a565b5b6040519080825280601f01601f1916602001820160405280156110b35781602001600182028036833780820191505090505b5090507f3000000000000000000000000000000000000000000000000000000000000000816000815181106110eb576110ea611acb565b5b60200101907effffffffffffffffffffffffffffffffffffffffffffffffffffffffffffff1916908160001a9053507f78000000000000000000000000000000000000000000000000000000000000008160018151811061114f5761114e611acb565b5b60200101907effffffffffffffffffffffffffffffffffffffffffffffffffffffffffffff1916908160001a9053506000600184600261118f9190611fb3565b611199919061200d565b90505b6001811115611239577f3031323334353637383961626364656600000000000000000000000000000000600f8616601081106111db576111da611acb565b5b1a60f81b8282815181106111f2576111f1611acb565b5b60200101907effffffffffffffffffffffffffffffffffffffffffffffffffffffffffffff1916908160001a905350600485901c94508061123290612063565b905061119c565b506000841461127d576040517f08c379a0000000000000000000000000000000000000000000000000000000008152600401611274906120d9565b60405180910390fd5b8091505092915050565b6000604051905090565b600080fd5b600080fd5b60007fffffffff0000000000000000000000000000000000000000000000000000000082169050919050565b6112d08161129b565b81146112db57600080fd5b50565b6000813590506112ed816112c7565b92915050565b60006020828403121561130957611308611291565b5b6000611317848285016112de565b91505092915050565b60008115159050919050565b61133581611320565b82525050565b6000602082019050611350600083018461132c565b92915050565b6000819050919050565b61136981611356565b811461137457600080fd5b50565b60008135905061138681611360565b92915050565b6000602082840312156113a2576113a1611291565b5b60006113b084828501611377565b91505092915050565b6113c281611356565b82525050565b60006020820190506113dd60008301846113b9565b92915050565b600073ffffffffffffffffffffffffffffffffffffffff82169050919050565b600061140e826113e3565b9050919050565b61141e81611403565b811461142957600080fd5b50565b60008135905061143b81611415565b92915050565b6000806040838503121561145857611457611291565b5b600061146685828601611377565b92505060206114778582860161142c565b9150509250929050565b61148a8161129b565b82525050565b60006020820190506114a56000830184611481565b92915050565b6000819050919050565b6114be816114ab565b82525050565b60006020820190506114d960008301846114b5565b92915050565b6114e8816114ab565b81146114f357600080fd5b50565b600081359050611505816114df565b92915050565b60006020828403121561152157611520611291565b5b600061152f848285016114f6565b91505092915050565b61154181611403565b82525050565b600060208201905061155c6000830184611538565b92915050565b6000806040838503121561157957611578611291565b5b6000611587858286016114f6565b92505060206115988582860161142c565b9150509250929050565b600081519050919050565b600082825260208201905092915050565b6000819050602082019050919050565b600081519050919050565b600082825260208201905092915050565b60005b838110156116085780820151818401526020810190506115ed565b83811115611617576000848401525b50505050565b6000601f19601f8301169050919050565b6000611639826115ce565b61164381856115d9565b93506116538185602086016115ea565b61165c8161161d565b840191505092915050565b6000611673838361162e565b905092915050565b6000602082019050919050565b6000611693826115a2565b61169d81856115ad565b9350836020820285016116af856115be565b8060005b858110156116eb57848403895281516116cc8582611667565b94506116d78361167b565b925060208a019950506001810190506116b3565b50829750879550505050505092915050565b600060208201905081810360008301526117178184611688565b905092915050565b60006020828403121561173557611734611291565b5b60006117438482850161142c565b91505092915050565b600060608201905061176160008301866114b5565b61176e602083018561132c565b61177b60408301846114b5565b949350505050565b600082825260208201905092915050565b7f416363657373436f6e74726f6c3a2063616e206f6e6c792072656e6f756e636560008201527f20726f6c657320666f722073656c660000000000000000000000000000000000602082015250565b60006117f0602f83611783565b91506117fb82611794565b604082019050919050565b6000602082019050818103600083015261181f816117e3565b9050919050565b7f496e697469616c697a61626c653a20636f6e747261637420697320616c72656160008201527f647920696e697469616c697a6564000000000000000000000000000000000000602082015250565b6000611882602e83611783565b915061188d82611826565b604082019050919050565b600060208201905081810360008301526118b181611875565b9050919050565b6000819050919050565b600060ff82169050919050565b6000819050919050565b60006118f46118ef6118ea846118b8565b6118cf565b6118c2565b9050919050565b611904816118d9565b82525050565b600060208201905061191f60008301846118fb565b92915050565b600080fd5b7f4e487b7100000000000000000000000000000000000000000000000000000000600052604160045260246000fd5b6119628261161d565b810181811067ffffffffffffffff821117156119815761198061192a565b5b80604052505050565b6000611994611287565b90506119a08282611959565b919050565b600067ffffffffffffffff8211156119c0576119bf61192a565b5b602082029050602081019050919050565b600080fd5b6000815190506119e5816114df565b92915050565b60006119fe6119f9846119a5565b61198a565b90508083825260208201905060208402830185811115611a2157611a206119d1565b5b835b81811015611a4a5780611a3688826119d6565b845260208401935050602081019050611a23565b5050509392505050565b600082601f830112611a6957611a68611925565b5b8151611a798482602086016119eb565b91505092915050565b600060208284031215611a9857611a97611291565b5b600082015167ffffffffffffffff811115611ab657611ab5611296565b5b611ac284828501611a54565b91505092915050565b7f4e487b7100000000000000000000000000000000000000000000000000000000600052603260045260246000fd5b600080fd5b600067ffffffffffffffff821115611b1a57611b1961192a565b5b611b238261161d565b9050602081019050919050565b6000611b43611b3e84611aff565b61198a565b905082815260208101848484011115611b5f57611b5e611afa565b5b611b6a8482856115ea565b509392505050565b600082601f830112611b8757611b86611925565b5b8151611b97848260208601611b30565b91505092915050565b600060208284031215611bb657611bb5611291565b5b600082015167ffffffffffffffff811115611bd457611bd3611296565b5b611be084828501611b72565b91505092915050565b7f4e487b7100000000000000000000000000000000000000000000000000000000600052601160045260246000fd5b6000611c23826114ab565b91507fffffffffffffffffffffffffffffffffffffffffffffffffffffffffffffffff821415611c5657611c55611be9565b5b600182019050919050565b7f496e737469747574696f6e20696e616374697665000000000000000000000000600082015250565b6000611c97601483611783565b9150611ca282611c61565b602082019050919050565b60006020820190508181036000830152611cc681611c8a565b9050919050565b611cd681611320565b8114611ce157600080fd5b50565b600081519050611cf381611ccd565b92915050565b600060208284031215611d0f57611d0e611291565b5b6000611d1d84828501611ce4565b91505092915050565b7f436f6e7472616374206d75737420696d706c656d656e7420496e73746974757460008201527f696f6e7320696e74657266616365000000000000000000000000000000000000602082015250565b6000611d82602e83611783565b9150611d8d82611d26565b604082019050919050565b60006020820190508181036000830152611db181611d75565b9050919050565b7f496e697469616c697a61626c653a20636f6e7472616374206973206e6f74206960008201527f6e697469616c697a696e67000000000000000000000000000000000000000000602082015250565b6000611e14602b83611783565b9150611e1f82611db8565b604082019050919050565b60006020820190508181036000830152611e4381611e07565b9050919050565b600081905092915050565b7f416363657373436f6e74726f6c3a206163636f756e7420000000000000000000600082015250565b6000611e8b601783611e4a565b9150611e9682611e55565b601782019050919050565b6000611eac826115ce565b611eb68185611e4a565b9350611ec68185602086016115ea565b80840191505092915050565b7f206973206d697373696e6720726f6c6520000000000000000000000000000000600082015250565b6000611f08601183611e4a565b9150611f1382611ed2565b601182019050919050565b6000611f2982611e7e565b9150611f358285611ea1565b9150611f4082611efb565b9150611f4c8284611ea1565b91508190509392505050565b6000611f63826115ce565b611f6d8185611783565b9350611f7d8185602086016115ea565b611f868161161d565b840191505092915050565b60006020820190508181036000830152611fab8184611f58565b905092915050565b6000611fbe826114ab565b9150611fc9836114ab565b9250817fffffffffffffffffffffffffffffffffffffffffffffffffffffffffffffffff048311821515161561200257612001611be9565b5b828202905092915050565b6000612018826114ab565b9150612023836114ab565b9250827fffffffffffffffffffffffffffffffffffffffffffffffffffffffffffffffff0382111561205857612057611be9565b5b828201905092915050565b600061206e826114ab565b9150600082141561208257612081611be9565b5b600182039050919050565b7f537472696e67733a20686578206c656e67746820696e73756666696369656e74600082015250565b60006120c3602083611783565b91506120ce8261208d565b602082019050919050565b600060208201905081810360008301526120f2816120b6565b905091905056fea264697066735822122010f59dbbf736316d48748d073a57bde3874d5db48ba4bc3a942e8518f824fa1464736f6c63430008090033",
  "devdoc": {
    "kind": "dev",
    "methods": {
      "getRoleAdmin(bytes32)": {
        "details": "Returns the admin role that controls `role`. See {grantRole} and {revokeRole}. To change a role's admin, use {_setRoleAdmin}."
      },
      "grantRole(bytes32,address)": {
        "details": "Grants `role` to `account`. If `account` had not been already granted `role`, emits a {RoleGranted} event. Requirements: - the caller must have ``role``'s admin role. May emit a {RoleGranted} event."
      },
      "hasRole(bytes32,address)": {
        "details": "Returns `true` if `account` has been granted `role`."
      },
      "paused()": {
        "details": "Returns true if the contract is paused, and false otherwise."
      },
      "renounceRole(bytes32,address)": {
        "details": "Revokes `role` from the calling account. Roles are often managed via {grantRole} and {revokeRole}: this function's purpose is to provide a mechanism for accounts to lose their privileges if they are compromised (such as when a trusted device is misplaced). If the calling account had been revoked `role`, emits a {RoleRevoked} event. Requirements: - the caller must be `account`. May emit a {RoleRevoked} event."
      },
      "revokeRole(bytes32,address)": {
        "details": "Revokes `role` from `account`. If `account` had been granted `role`, emits a {RoleRevoked} event. Requirements: - the caller must have ``role``'s admin role. May emit a {RoleRevoked} event."
      },
      "supportsInterface(bytes4)": {
        "details": "See {IERC165-supportsInterface}."
      }
    },
    "version": 1
  },
  "userdoc": {
    "kind": "user",
    "methods": {},
    "version": 1
  },
  "storageLayout": {
    "storage": [
      {
        "astId": 419,
        "contract": "contracts/Indexer.sol:Indexer",
        "label": "_initialized",
        "offset": 0,
        "slot": "0",
        "type": "t_uint8"
      },
      {
        "astId": 422,
        "contract": "contracts/Indexer.sol:Indexer",
        "label": "_initializing",
        "offset": 1,
        "slot": "0",
        "type": "t_bool"
      },
      {
        "astId": 2561,
        "contract": "contracts/Indexer.sol:Indexer",
        "label": "__gap",
        "offset": 0,
        "slot": "1",
        "type": "t_array(t_uint256)50_storage"
      },
      {
        "astId": 584,
        "contract": "contracts/Indexer.sol:Indexer",
        "label": "_paused",
        "offset": 0,
        "slot": "51",
        "type": "t_bool"
      },
      {
        "astId": 689,
        "contract": "contracts/Indexer.sol:Indexer",
        "label": "__gap",
        "offset": 0,
        "slot": "52",
        "type": "t_array(t_uint256)49_storage"
      },
      {
        "astId": 2905,
        "contract": "contracts/Indexer.sol:Indexer",
        "label": "__gap",
        "offset": 0,
        "slot": "101",
        "type": "t_array(t_uint256)50_storage"
      },
      {
        "astId": 39,
        "contract": "contracts/Indexer.sol:Indexer",
        "label": "_roles",
        "offset": 0,
        "slot": "151",
        "type": "t_mapping(t_bytes32,t_struct(RoleData)34_storage)"
      },
      {
        "astId": 338,
        "contract": "contracts/Indexer.sol:Indexer",
        "label": "__gap",
        "offset": 0,
        "slot": "152",
        "type": "t_array(t_uint256)49_storage"
      },
      {
        "astId": 2953,
        "contract": "contracts/Indexer.sol:Indexer",
        "label": "institutions",
        "offset": 0,
        "slot": "201",
        "type": "t_mapping(t_address,t_struct(Institution)2948_storage)"
      },
      {
        "astId": 2957,
        "contract": "contracts/Indexer.sol:Indexer",
        "label": "institutionIdToAddress",
        "offset": 0,
        "slot": "202",
        "type": "t_mapping(t_uint256,t_address)"
      },
      {
        "astId": 2960,
        "contract": "contracts/Indexer.sol:Indexer",
        "label": "institutionCounter",
        "offset": 0,
        "slot": "203",
        "type": "t_struct(Counter)2568_storage"
      }
    ],
    "types": {
      "t_address": {
        "encoding": "inplace",
        "label": "address",
        "numberOfBytes": "20"
      },
      "t_array(t_uint256)49_storage": {
        "base": "t_uint256",
        "encoding": "inplace",
        "label": "uint256[49]",
        "numberOfBytes": "1568"
      },
      "t_array(t_uint256)50_storage": {
        "base": "t_uint256",
        "encoding": "inplace",
        "label": "uint256[50]",
        "numberOfBytes": "1600"
      },
      "t_bool": {
        "encoding": "inplace",
        "label": "bool",
        "numberOfBytes": "1"
      },
      "t_bytes32": {
        "encoding": "inplace",
        "label": "bytes32",
        "numberOfBytes": "32"
      },
      "t_mapping(t_address,t_bool)": {
        "encoding": "mapping",
        "key": "t_address",
        "label": "mapping(address => bool)",
        "numberOfBytes": "32",
        "value": "t_bool"
      },
      "t_mapping(t_address,t_struct(Institution)2948_storage)": {
        "encoding": "mapping",
        "key": "t_address",
        "label": "mapping(address => struct Indexer.Institution)",
        "numberOfBytes": "32",
        "value": "t_struct(Institution)2948_storage"
      },
      "t_mapping(t_bytes32,t_struct(RoleData)34_storage)": {
        "encoding": "mapping",
        "key": "t_bytes32",
        "label": "mapping(bytes32 => struct AccessControlUpgradeable.RoleData)",
        "numberOfBytes": "32",
        "value": "t_struct(RoleData)34_storage"
      },
      "t_mapping(t_uint256,t_address)": {
        "encoding": "mapping",
        "key": "t_uint256",
        "label": "mapping(uint256 => address)",
        "numberOfBytes": "32",
        "value": "t_address"
      },
      "t_struct(Counter)2568_storage": {
        "encoding": "inplace",
        "label": "struct CountersUpgradeable.Counter",
        "members": [
          {
            "astId": 2567,
            "contract": "contracts/Indexer.sol:Indexer",
            "label": "_value",
            "offset": 0,
            "slot": "0",
            "type": "t_uint256"
          }
        ],
        "numberOfBytes": "32"
      },
      "t_struct(Institution)2948_storage": {
        "encoding": "inplace",
        "label": "struct Indexer.Institution",
        "members": [
          {
            "astId": 2943,
            "contract": "contracts/Indexer.sol:Indexer",
            "label": "id",
            "offset": 0,
            "slot": "0",
            "type": "t_uint256"
          },
          {
            "astId": 2945,
            "contract": "contracts/Indexer.sol:Indexer",
            "label": "isActive",
            "offset": 0,
            "slot": "1",
            "type": "t_bool"
          },
          {
            "astId": 2947,
            "contract": "contracts/Indexer.sol:Indexer",
            "label": "activeCoursesBalance",
            "offset": 0,
            "slot": "2",
            "type": "t_uint256"
          }
        ],
        "numberOfBytes": "96"
      },
      "t_struct(RoleData)34_storage": {
        "encoding": "inplace",
        "label": "struct AccessControlUpgradeable.RoleData",
        "members": [
          {
            "astId": 31,
            "contract": "contracts/Indexer.sol:Indexer",
            "label": "members",
            "offset": 0,
            "slot": "0",
            "type": "t_mapping(t_address,t_bool)"
          },
          {
            "astId": 33,
            "contract": "contracts/Indexer.sol:Indexer",
            "label": "adminRole",
            "offset": 0,
            "slot": "1",
            "type": "t_bytes32"
          }
        ],
        "numberOfBytes": "64"
      },
      "t_uint256": {
        "encoding": "inplace",
        "label": "uint256",
        "numberOfBytes": "32"
      },
      "t_uint8": {
        "encoding": "inplace",
        "label": "uint8",
        "numberOfBytes": "1"
      }
    }
  }
}