{
  "address": "0x90f57A17f65044daB67b574C43f32398538B7DDe",
  "abi": [
    {
      "inputs": [],
      "stateMutability": "nonpayable",
      "type": "constructor"
    },
    {
      "anonymous": false,
      "inputs": [
        {
          "indexed": false,
          "internalType": "uint256",
          "name": "courseId",
          "type": "uint256"
        },
        {
          "indexed": false,
          "internalType": "string",
          "name": "courseName",
          "type": "string"
        }
      ],
      "name": "CourseRegistered",
      "type": "event"
    },
    {
      "anonymous": false,
      "inputs": [
        {
          "indexed": false,
          "internalType": "uint256",
          "name": "courseId",
          "type": "uint256"
        },
        {
          "indexed": false,
          "internalType": "string",
          "name": "courseName",
          "type": "string"
        }
      ],
      "name": "CourseUnregistered",
      "type": "event"
    },
    {
      "anonymous": false,
      "inputs": [
        {
          "indexed": false,
          "internalType": "uint8",
          "name": "version",
          "type": "uint8"
        }
      ],
      "name": "Initialized",
      "type": "event"
    },
    {
      "anonymous": false,
      "inputs": [
        {
          "indexed": false,
          "internalType": "address",
          "name": "account",
          "type": "address"
        }
      ],
      "name": "Paused",
      "type": "event"
    },
    {
      "anonymous": false,
      "inputs": [
        {
          "indexed": true,
          "internalType": "bytes32",
          "name": "role",
          "type": "bytes32"
        },
        {
          "indexed": true,
          "internalType": "bytes32",
          "name": "previousAdminRole",
          "type": "bytes32"
        },
        {
          "indexed": true,
          "internalType": "bytes32",
          "name": "newAdminRole",
          "type": "bytes32"
        }
      ],
      "name": "RoleAdminChanged",
      "type": "event"
    },
    {
      "anonymous": false,
      "inputs": [
        {
          "indexed": true,
          "internalType": "bytes32",
          "name": "role",
          "type": "bytes32"
        },
        {
          "indexed": true,
          "internalType": "address",
          "name": "account",
          "type": "address"
        },
        {
          "indexed": true,
          "internalType": "address",
          "name": "sender",
          "type": "address"
        }
      ],
      "name": "RoleGranted",
      "type": "event"
    },
    {
      "anonymous": false,
      "inputs": [
        {
          "indexed": true,
          "internalType": "bytes32",
          "name": "role",
          "type": "bytes32"
        },
        {
          "indexed": true,
          "internalType": "address",
          "name": "account",
          "type": "address"
        },
        {
          "indexed": true,
          "internalType": "address",
          "name": "sender",
          "type": "address"
        }
      ],
      "name": "RoleRevoked",
      "type": "event"
    },
    {
      "anonymous": false,
      "inputs": [
        {
          "indexed": false,
          "internalType": "uint256",
          "name": "courseId",
          "type": "uint256"
        },
        {
          "indexed": false,
          "internalType": "uint256",
          "name": "studentId",
          "type": "uint256"
        },
        {
          "indexed": false,
          "internalType": "address",
          "name": "studentAddress",
          "type": "address"
        }
      ],
      "name": "StudentRegistered",
      "type": "event"
    },
    {
      "anonymous": false,
      "inputs": [
        {
          "indexed": false,
          "internalType": "uint256",
          "name": "courseId",
          "type": "uint256"
        },
        {
          "indexed": false,
          "internalType": "uint256",
          "name": "studentId",
          "type": "uint256"
        },
        {
          "indexed": false,
          "internalType": "address",
          "name": "studentAddress",
          "type": "address"
        }
      ],
      "name": "StudentUnregistered",
      "type": "event"
    },
    {
      "anonymous": false,
      "inputs": [
        {
          "indexed": false,
          "internalType": "address",
          "name": "account",
          "type": "address"
        }
      ],
      "name": "Unpaused",
      "type": "event"
    },
    {
      "inputs": [],
      "name": "DEFAULT_ADMIN_ROLE",
      "outputs": [
        {
          "internalType": "bytes32",
          "name": "",
          "type": "bytes32"
        }
      ],
      "stateMutability": "view",
      "type": "function"
    },
    {
      "inputs": [],
      "name": "INSTITUTION_INTERFACE_ID",
      "outputs": [
        {
          "internalType": "bytes4",
          "name": "",
          "type": "bytes4"
        }
      ],
      "stateMutability": "view",
      "type": "function"
    },
    {
      "inputs": [],
      "name": "INTERFACE_ERC721",
      "outputs": [
        {
          "internalType": "bytes4",
          "name": "",
          "type": "bytes4"
        }
      ],
      "stateMutability": "view",
      "type": "function"
    },
    {
      "inputs": [],
      "name": "MINTER_ROLE",
      "outputs": [
        {
          "internalType": "bytes32",
          "name": "",
          "type": "bytes32"
        }
      ],
      "stateMutability": "view",
      "type": "function"
    },
    {
      "inputs": [],
      "name": "PAUSER_ROLE",
      "outputs": [
        {
          "internalType": "bytes32",
          "name": "",
          "type": "bytes32"
        }
      ],
      "stateMutability": "view",
      "type": "function"
    },
    {
      "inputs": [],
      "name": "activeCourseCounter",
      "outputs": [
        {
          "internalType": "uint256",
          "name": "_value",
          "type": "uint256"
        }
      ],
      "stateMutability": "view",
      "type": "function"
    },
    {
      "inputs": [],
      "name": "courseCounter",
      "outputs": [
        {
          "internalType": "uint256",
          "name": "_value",
          "type": "uint256"
        }
      ],
      "stateMutability": "view",
      "type": "function"
    },
    {
      "inputs": [
        {
          "internalType": "uint256",
          "name": "",
          "type": "uint256"
        }
      ],
      "name": "courses",
      "outputs": [
        {
          "internalType": "string",
          "name": "name",
          "type": "string"
        },
        {
          "internalType": "bool",
          "name": "isActive",
          "type": "bool"
        },
        {
          "internalType": "string",
          "name": "baseURI",
          "type": "string"
        },
        {
          "internalType": "uint256",
          "name": "studentsBalance",
          "type": "uint256"
        },
        {
          "internalType": "uint256",
          "name": "activeStudentsBalance",
          "type": "uint256"
        }
      ],
      "stateMutability": "view",
      "type": "function"
    },
    {
      "inputs": [
        {
          "internalType": "address",
          "name": "student",
          "type": "address"
        }
      ],
      "name": "getAllStudentIds",
      "outputs": [
        {
          "internalType": "uint256[]",
          "name": "",
          "type": "uint256[]"
        }
      ],
      "stateMutability": "view",
      "type": "function"
    },
    {
      "inputs": [
        {
          "internalType": "address",
          "name": "student",
          "type": "address"
        }
      ],
      "name": "getAllStudentURIs",
      "outputs": [
        {
          "internalType": "string[]",
          "name": "",
          "type": "string[]"
        }
      ],
      "stateMutability": "view",
      "type": "function"
    },
    {
      "inputs": [
        {
          "internalType": "uint256",
          "name": "courseId",
          "type": "uint256"
        }
      ],
      "name": "getCourse",
      "outputs": [
        {
          "components": [
            {
              "internalType": "string",
              "name": "name",
              "type": "string"
            },
            {
              "internalType": "bool",
              "name": "isActive",
              "type": "bool"
            },
            {
              "internalType": "string",
              "name": "baseURI",
              "type": "string"
            },
            {
              "internalType": "uint256",
              "name": "studentsBalance",
              "type": "uint256"
            },
            {
              "internalType": "uint256",
              "name": "activeStudentsBalance",
              "type": "uint256"
            }
          ],
          "internalType": "struct Institution.Course",
          "name": "",
          "type": "tuple"
        }
      ],
      "stateMutability": "view",
      "type": "function"
    },
    {
      "inputs": [
        {
          "internalType": "bytes32",
          "name": "role",
          "type": "bytes32"
        }
      ],
      "name": "getRoleAdmin",
      "outputs": [
        {
          "internalType": "bytes32",
          "name": "",
          "type": "bytes32"
        }
      ],
      "stateMutability": "view",
      "type": "function"
    },
    {
      "inputs": [
        {
          "internalType": "uint256",
          "name": "courseId",
          "type": "uint256"
        },
        {
          "internalType": "address",
          "name": "student",
          "type": "address"
        }
      ],
      "name": "getStudentId",
      "outputs": [
        {
          "internalType": "uint256",
          "name": "",
          "type": "uint256"
        }
      ],
      "stateMutability": "view",
      "type": "function"
    },
    {
      "inputs": [
        {
          "internalType": "uint256",
          "name": "courseId",
          "type": "uint256"
        },
        {
          "internalType": "address",
          "name": "student",
          "type": "address"
        }
      ],
      "name": "getStudentURI",
      "outputs": [
        {
          "internalType": "string",
          "name": "",
          "type": "string"
        }
      ],
      "stateMutability": "view",
      "type": "function"
    },
    {
      "inputs": [
        {
          "internalType": "bytes32",
          "name": "role",
          "type": "bytes32"
        },
        {
          "internalType": "address",
          "name": "account",
          "type": "address"
        }
      ],
      "name": "grantRole",
      "outputs": [],
      "stateMutability": "nonpayable",
      "type": "function"
    },
    {
      "inputs": [
        {
          "internalType": "bytes32",
          "name": "role",
          "type": "bytes32"
        },
        {
          "internalType": "address",
          "name": "account",
          "type": "address"
        }
      ],
      "name": "hasRole",
      "outputs": [
        {
          "internalType": "bool",
          "name": "",
          "type": "bool"
        }
      ],
      "stateMutability": "view",
      "type": "function"
    },
    {
      "inputs": [],
      "name": "initialize",
      "outputs": [],
      "stateMutability": "nonpayable",
      "type": "function"
    },
    {
      "inputs": [],
      "name": "pause",
      "outputs": [],
      "stateMutability": "nonpayable",
      "type": "function"
    },
    {
      "inputs": [],
      "name": "paused",
      "outputs": [
        {
          "internalType": "bool",
          "name": "",
          "type": "bool"
        }
      ],
      "stateMutability": "view",
      "type": "function"
    },
    {
      "inputs": [
        {
          "internalType": "string",
          "name": "courseBaseURI",
          "type": "string"
        },
        {
          "internalType": "string",
          "name": "courseName",
          "type": "string"
        }
      ],
      "name": "registerCourse",
      "outputs": [],
      "stateMutability": "nonpayable",
      "type": "function"
    },
    {
      "inputs": [
        {
          "internalType": "uint256",
          "name": "courseId",
          "type": "uint256"
        },
        {
          "internalType": "address",
          "name": "student",
          "type": "address"
        }
      ],
      "name": "registerStudent",
      "outputs": [],
      "stateMutability": "nonpayable",
      "type": "function"
    },
    {
      "inputs": [
        {
          "internalType": "bytes32",
          "name": "role",
          "type": "bytes32"
        },
        {
          "internalType": "address",
          "name": "account",
          "type": "address"
        }
      ],
      "name": "renounceRole",
      "outputs": [],
      "stateMutability": "nonpayable",
      "type": "function"
    },
    {
      "inputs": [
        {
          "internalType": "bytes32",
          "name": "role",
          "type": "bytes32"
        },
        {
          "internalType": "address",
          "name": "account",
          "type": "address"
        }
      ],
      "name": "revokeRole",
      "outputs": [],
      "stateMutability": "nonpayable",
      "type": "function"
    },
    {
      "inputs": [
        {
          "internalType": "address",
          "name": "_studentsERC721",
          "type": "address"
        }
      ],
      "name": "setStudentsERC721",
      "outputs": [],
      "stateMutability": "nonpayable",
      "type": "function"
    },
    {
      "inputs": [],
      "name": "studentCounter",
      "outputs": [
        {
          "internalType": "uint256",
          "name": "_value",
          "type": "uint256"
        }
      ],
      "stateMutability": "view",
      "type": "function"
    },
    {
      "inputs": [
        {
          "internalType": "uint256",
          "name": "",
          "type": "uint256"
        },
        {
          "internalType": "address",
          "name": "",
          "type": "address"
        }
      ],
      "name": "students",
      "outputs": [
        {
          "internalType": "uint256",
          "name": "id",
          "type": "uint256"
        },
        {
          "internalType": "bool",
          "name": "isActive",
          "type": "bool"
        }
      ],
      "stateMutability": "view",
      "type": "function"
    },
    {
      "inputs": [],
      "name": "studentsERC721",
      "outputs": [
        {
          "internalType": "address",
          "name": "",
          "type": "address"
        }
      ],
      "stateMutability": "view",
      "type": "function"
    },
    {
      "inputs": [
        {
          "internalType": "bytes4",
          "name": "interfaceId",
          "type": "bytes4"
        }
      ],
      "name": "supportsInterface",
      "outputs": [
        {
          "internalType": "bool",
          "name": "",
          "type": "bool"
        }
      ],
      "stateMutability": "view",
      "type": "function"
    },
    {
      "inputs": [],
      "name": "unpause",
      "outputs": [],
      "stateMutability": "nonpayable",
      "type": "function"
    },
    {
      "inputs": [
        {
          "internalType": "uint256",
          "name": "courseId",
          "type": "uint256"
        }
      ],
      "name": "unregisterCourse",
      "outputs": [],
      "stateMutability": "nonpayable",
      "type": "function"
    },
    {
      "inputs": [
        {
          "internalType": "uint256",
          "name": "courseId",
          "type": "uint256"
        },
        {
          "internalType": "address",
          "name": "student",
          "type": "address"
        }
      ],
      "name": "unregisterStudent",
      "outputs": [],
      "stateMutability": "nonpayable",
      "type": "function"
    }
  ],
  "transactionHash": "0x318c128d73da746b1dccd9755dc078c55321496205f6652112664fb77916659d",
  "args": [],
  "numDeployments": 4,
  "solcInputHash": "81d4c5405db50c9d055a0945cdd4ef87",
  "bytecode": "0x60806040523480156200001157600080fd5b50620000226200002860201b60201c565b620001d3565b600060019054906101000a900460ff16156200007b576040517f08c379a0000000000000000000000000000000000000000000000000000000008152600401620000729062000176565b60405180910390fd5b60ff801660008054906101000a900460ff1660ff161015620000ed5760ff6000806101000a81548160ff021916908360ff1602179055507f7f26b83ff96e1f2b6a682f133852f6798a09c465da95921460cefb384740249860ff604051620000e49190620001b6565b60405180910390a15b565b600082825260208201905092915050565b7f496e697469616c697a61626c653a20636f6e747261637420697320696e69746960008201527f616c697a696e6700000000000000000000000000000000000000000000000000602082015250565b60006200015e602783620000ef565b91506200016b8262000100565b604082019050919050565b6000602082019050818103600083015262000191816200014f565b9050919050565b600060ff82169050919050565b620001b08162000198565b82525050565b6000602082019050620001cd6000830184620001a5565b92915050565b613b3b80620001e36000396000f3fe608060405234801561001057600080fd5b50600436106101e45760003560e01c80638137f9701161010f57806399f7cbeb116100a2578063e3596cac11610071578063e3596cac1461056d578063e63ab1e91461058b578063fb6c2b68146105a9578063fcfedaa5146105c7576101e4565b806399f7cbeb146104f7578063a217fddf14610515578063d539139314610533578063d547741f14610551576101e4565b806389383aaa116100de57806389383aaa1461044757806391d148541461046357806396f979d2146104935780639779d9c8146104c7576101e4565b80638137f970146103d157806382216fbd146103ef578063825c02191461040d5780638456cb591461043d576101e4565b806335f10d1a11610187578063772ab33111610156578063772ab3311461035f5780637a807c7b1461037b5780637d23b3bf146103975780638129fc1c146103c7576101e4565b806335f10d1a146102eb57806336568abe1461031b5780633f4ba83a146103375780635c975abb14610341576101e4565b80630fd88c7a116101c35780630fd88c7a146102675780632332425814610283578063248a9ca31461029f5780632f2ff15d146102cf576101e4565b806215bd06146101e957806301ffc9a7146102075780630b91e28d14610237575b600080fd5b6101f16105f8565b6040516101fe919061261b565b60405180910390f35b610221600480360381019061021c9190612676565b610603565b60405161022e91906126be565b60405180910390f35b610251600480360381019061024c919061270f565b610664565b60405161025e9190612870565b60405180910390f35b610281600480360381019061027c91906129c7565b6107e4565b005b61029d6004803603810190610298919061270f565b6109be565b005b6102b960048036038101906102b49190612a75565b610ad8565b6040516102c69190612ab1565b60405180910390f35b6102e960048036038101906102e49190612b2a565b610af8565b005b61030560048036038101906103009190612b6a565b610b19565b6040516103129190612bb9565b60405180910390f35b61033560048036038101906103309190612b2a565b610c1b565b005b61033f610c9e565b005b610349610cd3565b60405161035691906126be565b60405180910390f35b61037960048036038101906103749190612b6a565b610cea565b005b61039560048036038101906103909190612bd4565b610ee5565b005b6103b160048036038101906103ac9190612bd4565b611006565b6040516103be9190612cb0565b60405180910390f35b6103cf611114565b005b6103d96112bb565b6040516103e6919061261b565b60405180910390f35b6103f76112c6565b6040516104049190612bb9565b60405180910390f35b61042760048036038101906104229190612b6a565b6112d2565b6040516104349190612d1c565b60405180910390f35b610445611483565b005b610461600480360381019061045c9190612b6a565b6114b8565b005b61047d60048036038101906104789190612b2a565b611891565b60405161048a91906126be565b60405180910390f35b6104ad60048036038101906104a8919061270f565b6118fc565b6040516104be959493929190612d3e565b60405180910390f35b6104e160048036038101906104dc9190612bd4565b611a4f565b6040516104ee9190612e61565b60405180910390f35b6104ff611b72565b60405161050c9190612e92565b60405180910390f35b61051d611b98565b60405161052a9190612ab1565b60405180910390f35b61053b611b9f565b6040516105489190612ab1565b60405180910390f35b61056b60048036038101906105669190612b2a565b611bc3565b005b610575611be4565b6040516105829190612bb9565b60405180910390f35b610593611bf0565b6040516105a09190612ab1565b60405180910390f35b6105b1611c14565b6040516105be9190612bb9565b60405180910390f35b6105e160048036038101906105dc9190612b6a565b611c20565b6040516105ef929190612ead565b60405180910390f35b63494e535460e01b81565b600061060e82611c5e565b8061065d575063494e535460e01b7bffffffffffffffffffffffffffffffffffffffffffffffffffffffff1916827bffffffffffffffffffffffffffffffffffffffffffffffffffffffff1916145b9050919050565b61066c61250c565b60ca60008381526020019081526020016000206040518060a001604052908160008201805461069a90612f05565b80601f01602080910402602001604051908101604052809291908181526020018280546106c690612f05565b80156107135780601f106106e857610100808354040283529160200191610713565b820191906000526020600020905b8154815290600101906020018083116106f657829003601f168201915b505050505081526020016001820160009054906101000a900460ff1615151515815260200160028201805461074790612f05565b80601f016020809104026020016040519081016040528092919081815260200182805461077390612f05565b80156107c05780601f10610795576101008083540402835291602001916107c0565b820191906000526020600020905b8154815290600101906020018083116107a357829003601f168201915b50505050508152602001600382015481526020016004820154815250509050919050565b7f9f2df0fed2c77648de5860a4cc508cd0818c85b8b8a1ab4ceeef8d981c8956a661080e81611cd8565b600073ffffffffffffffffffffffffffffffffffffffff1660c960009054906101000a900473ffffffffffffffffffffffffffffffffffffffff1673ffffffffffffffffffffffffffffffffffffffff1614156108a0576040517f08c379a000000000000000000000000000000000000000000000000000000000815260040161089790612f83565b60405180910390fd5b60006108ac60cb611cec565b9050600060ca600083815260200190815260200160002060030181905550600060ca600083815260200190815260200160002060040181905550600160ca600083815260200190815260200160002060010160006101000a81548160ff0219169083151502179055508360ca6000838152602001908152602001600020600201908051906020019061093f92919061253d565b508260ca6000838152602001908152602001600020600001908051906020019061096a92919061253d565b5061097560cb611cfa565b61097f60cc611cfa565b7fd53531fce7aab6eccb2aa2920e31555c687539472943d1ead2b5e64d9c57e9ce81846040516109b0929190612fa3565b60405180910390a150505050565b7f9f2df0fed2c77648de5860a4cc508cd0818c85b8b8a1ab4ceeef8d981c8956a66109e881611cd8565b8160ca600082815260200190815260200160002060010160009054906101000a900460ff16610a4c576040517f08c379a0000000000000000000000000000000000000000000000000000000008152600401610a439061301f565b60405180910390fd5b600060ca600085815260200190815260200160002060010160006101000a81548160ff021916908315150217905550610a8560cc611d10565b7f3dfef52cc4c4689197ee94b3a21b18067266aca685e3d80d0417e95ff7e80bd58360ca6000868152602001908152602001600020600001604051610acb9291906130d4565b60405180910390a1505050565b600060976000838152602001908152602001600020600101549050919050565b610b0182610ad8565b610b0a81611cd8565b610b148383611d6c565b505050565b6000828260cd600083815260200190815260200160002060008273ffffffffffffffffffffffffffffffffffffffff1673ffffffffffffffffffffffffffffffffffffffff16815260200190815260200160002060010160009054906101000a900460ff16610bbd576040517f08c379a0000000000000000000000000000000000000000000000000000000008152600401610bb490613150565b60405180910390fd5b60cd600086815260200190815260200160002060008573ffffffffffffffffffffffffffffffffffffffff1673ffffffffffffffffffffffffffffffffffffffff168152602001908152602001600020600001549250505092915050565b610c23611e4d565b73ffffffffffffffffffffffffffffffffffffffff168173ffffffffffffffffffffffffffffffffffffffff1614610c90576040517f08c379a0000000000000000000000000000000000000000000000000000000008152600401610c87906131e2565b60405180910390fd5b610c9a8282611e55565b5050565b7f65d7a28e3265b37a6474929f336521b332c1681b933f6cb9f3376673440d862a610cc881611cd8565b610cd0611f37565b50565b6000603360009054906101000a900460ff16905090565b7f9f2df0fed2c77648de5860a4cc508cd0818c85b8b8a1ab4ceeef8d981c8956a6610d1481611cd8565b828260cd600083815260200190815260200160002060008273ffffffffffffffffffffffffffffffffffffffff1673ffffffffffffffffffffffffffffffffffffffff16815260200190815260200160002060010160009054906101000a900460ff16610db6576040517f08c379a0000000000000000000000000000000000000000000000000000000008152600401610dad90613150565b60405180910390fd5b600060cd600087815260200190815260200160002060008673ffffffffffffffffffffffffffffffffffffffff1673ffffffffffffffffffffffffffffffffffffffff16815260200190815260200160002060010160006101000a81548160ff021916908315150217905550600160ca60008781526020019081526020016000206004016000828254610e499190613231565b925050819055507ffdd3d48b9cdf9f8a115aab58d55b064ba71a5751b6965f8225ed6110fba763a78560cd600088815260200190815260200160002060008773ffffffffffffffffffffffffffffffffffffffff1673ffffffffffffffffffffffffffffffffffffffff1681526020019081526020016000206000015486604051610ed693929190613265565b60405180910390a15050505050565b6000801b610ef281611cd8565b8173ffffffffffffffffffffffffffffffffffffffff166301ffc9a76380ac58cd60e01b6040518263ffffffff1660e01b8152600401610f32919061261b565b60206040518083038186803b158015610f4a57600080fd5b505afa158015610f5e573d6000803e3d6000fd5b505050506040513d601f19601f82011682018060405250810190610f8291906132c8565b610fc1576040517f08c379a0000000000000000000000000000000000000000000000000000000008152600401610fb890613341565b60405180910390fd5b8160c960006101000a81548173ffffffffffffffffffffffffffffffffffffffff021916908373ffffffffffffffffffffffffffffffffffffffff1602179055505050565b60608060005b61101660cb611cec565b81101561110a5760cd600082815260200190815260200160002060008573ffffffffffffffffffffffffffffffffffffffff1673ffffffffffffffffffffffffffffffffffffffff16815260200190815260200160002060010160009054906101000a900460ff16156110f75760cd600082815260200190815260200160002060008573ffffffffffffffffffffffffffffffffffffffff1673ffffffffffffffffffffffffffffffffffffffff168152602001908152602001600020600001548282815181106110ea576110e9613361565b5b6020026020010181815250505b808061110290613390565b91505061100c565b5080915050919050565b60008060019054906101000a900460ff161590508080156111455750600160008054906101000a900460ff1660ff16105b80611172575061115430611f9a565b1580156111715750600160008054906101000a900460ff1660ff16145b5b6111b1576040517f08c379a00000000000000000000000000000000000000000000000000000000081526004016111a89061344b565b60405180910390fd5b60016000806101000a81548160ff021916908360ff16021790555080156111ee576001600060016101000a81548160ff0219169083151502179055505b6111f6611fbd565b6111fe612016565b61120b6000801b33611d6c565b6112357f65d7a28e3265b37a6474929f336521b332c1681b933f6cb9f3376673440d862a33611d6c565b61125f7f9f2df0fed2c77648de5860a4cc508cd0818c85b8b8a1ab4ceeef8d981c8956a633611d6c565b80156112b85760008060016101000a81548160ff0219169083151502179055507f7f26b83ff96e1f2b6a682f133852f6798a09c465da95921460cefb384740249860016040516112af91906134bd565b60405180910390a15b50565b6380ac58cd60e01b81565b60cb8060000154905081565b6060828260cd600083815260200190815260200160002060008273ffffffffffffffffffffffffffffffffffffffff1673ffffffffffffffffffffffffffffffffffffffff16815260200190815260200160002060010160009054906101000a900460ff16611376576040517f08c379a000000000000000000000000000000000000000000000000000000000815260040161136d90613150565b60405180910390fd5b60c960009054906101000a900473ffffffffffffffffffffffffffffffffffffffff1673ffffffffffffffffffffffffffffffffffffffff1663c87b56dd60cd600088815260200190815260200160002060008773ffffffffffffffffffffffffffffffffffffffff1673ffffffffffffffffffffffffffffffffffffffff168152602001908152602001600020600001546040518263ffffffff1660e01b81526004016114249190612bb9565b60006040518083038186803b15801561143c57600080fd5b505afa158015611450573d6000803e3d6000fd5b505050506040513d6000823e3d601f19601f820116820180604052508101906114799190613548565b9250505092915050565b7f65d7a28e3265b37a6474929f336521b332c1681b933f6cb9f3376673440d862a6114ad81611cd8565b6114b5612067565b50565b7f9f2df0fed2c77648de5860a4cc508cd0818c85b8b8a1ab4ceeef8d981c8956a66114e281611cd8565b8260ca600082815260200190815260200160002060010160009054906101000a900460ff16611546576040517f08c379a000000000000000000000000000000000000000000000000000000000815260040161153d9061301f565b60405180910390fd5b838360cd600083815260200190815260200160002060008273ffffffffffffffffffffffffffffffffffffffff1673ffffffffffffffffffffffffffffffffffffffff16815260200190815260200160002060010160009054906101000a900460ff16156115e9576040517f08c379a00000000000000000000000000000000000000000000000000000000081526004016115e0906135dd565b60405180910390fd5b84600073ffffffffffffffffffffffffffffffffffffffff168173ffffffffffffffffffffffffffffffffffffffff16141561165a576040517f08c379a000000000000000000000000000000000000000000000000000000000815260040161165190613649565b60405180910390fd5b600060c960009054906101000a900473ffffffffffffffffffffffffffffffffffffffff1673ffffffffffffffffffffffffffffffffffffffff1663d204c45e8860ca60008c81526020019081526020016000206002016040518363ffffffff1660e01b81526004016116ce929190613669565b602060405180830381600087803b1580156116e857600080fd5b505af11580156116fc573d6000803e3d6000fd5b505050506040513d601f19601f8201168201806040525081019061172091906136ae565b90508060cd60008a815260200190815260200160002060008973ffffffffffffffffffffffffffffffffffffffff1673ffffffffffffffffffffffffffffffffffffffff16815260200190815260200160002060000181905550600160cd60008a815260200190815260200160002060008973ffffffffffffffffffffffffffffffffffffffff1673ffffffffffffffffffffffffffffffffffffffff16815260200190815260200160002060010160006101000a81548160ff021916908315150217905550600160ca60008a8152602001908152602001600020600401600082825461180d91906136db565b92505081905550600160ca60008a8152602001908152602001600020600301600082825461183b91906136db565b9250508190555061184c60ce611cfa565b7f392750c9bb96d6376203c9f2d73b6e4f940547ac38d05458d47f85b07179795988828960405161187f93929190613265565b60405180910390a15050505050505050565b60006097600084815260200190815260200160002060000160008373ffffffffffffffffffffffffffffffffffffffff1673ffffffffffffffffffffffffffffffffffffffff16815260200190815260200160002060009054906101000a900460ff16905092915050565b60ca60205280600052604060002060009150905080600001805461191f90612f05565b80601f016020809104026020016040519081016040528092919081815260200182805461194b90612f05565b80156119985780601f1061196d57610100808354040283529160200191611998565b820191906000526020600020905b81548152906001019060200180831161197b57829003601f168201915b5050505050908060010160009054906101000a900460ff16908060020180546119c090612f05565b80601f01602080910402602001604051908101604052809291908181526020018280546119ec90612f05565b8015611a395780601f10611a0e57610100808354040283529160200191611a39565b820191906000526020600020905b815481529060010190602001808311611a1c57829003601f168201915b5050505050908060030154908060040154905085565b60606000611a5c83611006565b9050606060005b8251811015611b675760c960009054906101000a900473ffffffffffffffffffffffffffffffffffffffff1673ffffffffffffffffffffffffffffffffffffffff1663c87b56dd848381518110611abd57611abc613361565b5b60200260200101516040518263ffffffff1660e01b8152600401611ae19190612bb9565b60006040518083038186803b158015611af957600080fd5b505afa158015611b0d573d6000803e3d6000fd5b505050506040513d6000823e3d601f19601f82011682018060405250810190611b369190613548565b828281518110611b4957611b48613361565b5b60200260200101819052508080611b5f90613390565b915050611a63565b508092505050919050565b60c960009054906101000a900473ffffffffffffffffffffffffffffffffffffffff1681565b6000801b81565b7f9f2df0fed2c77648de5860a4cc508cd0818c85b8b8a1ab4ceeef8d981c8956a681565b611bcc82610ad8565b611bd581611cd8565b611bdf8383611e55565b505050565b60ce8060000154905081565b7f65d7a28e3265b37a6474929f336521b332c1681b933f6cb9f3376673440d862a81565b60cc8060000154905081565b60cd602052816000526040600020602052806000526040600020600091509150508060000154908060010160009054906101000a900460ff16905082565b60007f7965db0b000000000000000000000000000000000000000000000000000000007bffffffffffffffffffffffffffffffffffffffffffffffffffffffff1916827bffffffffffffffffffffffffffffffffffffffffffffffffffffffff19161480611cd15750611cd0826120ca565b5b9050919050565b611ce981611ce4611e4d565b612134565b50565b600081600001549050919050565b6001816000016000828254019250508190555050565b60008160000154905060008111611d5c576040517f08c379a0000000000000000000000000000000000000000000000000000000008152600401611d539061377d565b60405180910390fd5b6001810382600001819055505050565b611d768282611891565b611e495760016097600084815260200190815260200160002060000160008373ffffffffffffffffffffffffffffffffffffffff1673ffffffffffffffffffffffffffffffffffffffff16815260200190815260200160002060006101000a81548160ff021916908315150217905550611dee611e4d565b73ffffffffffffffffffffffffffffffffffffffff168173ffffffffffffffffffffffffffffffffffffffff16837f2f8788117e7eff1d82e926ec794901d17c78024a50270940304540a733656f0d60405160405180910390a45b5050565b600033905090565b611e5f8282611891565b15611f335760006097600084815260200190815260200160002060000160008373ffffffffffffffffffffffffffffffffffffffff1673ffffffffffffffffffffffffffffffffffffffff16815260200190815260200160002060006101000a81548160ff021916908315150217905550611ed8611e4d565b73ffffffffffffffffffffffffffffffffffffffff168173ffffffffffffffffffffffffffffffffffffffff16837ff6391f5c32d9c69d2a47ea670b442974b53935d1edc7fd64eb21e047a839171b60405160405180910390a45b5050565b611f3f6121d1565b6000603360006101000a81548160ff0219169083151502179055507f5db9ee0a495bf2e6ff9c91a7834c1ba4fdd244a5e8aa4e537bd38aeae4b073aa611f83611e4d565b604051611f909190612e92565b60405180910390a1565b6000808273ffffffffffffffffffffffffffffffffffffffff163b119050919050565b600060019054906101000a900460ff1661200c576040517f08c379a00000000000000000000000000000000000000000000000000000000081526004016120039061380f565b60405180910390fd5b61201461221a565b565b600060019054906101000a900460ff16612065576040517f08c379a000000000000000000000000000000000000000000000000000000000815260040161205c9061380f565b60405180910390fd5b565b61206f612286565b6001603360006101000a81548160ff0219169083151502179055507f62e78cea01bee320cd4e420270b5ea74000d11b0c9f74754ebdbfc544b05a2586120b3611e4d565b6040516120c09190612e92565b60405180910390a1565b60007f01ffc9a7000000000000000000000000000000000000000000000000000000007bffffffffffffffffffffffffffffffffffffffffffffffffffffffff1916827bffffffffffffffffffffffffffffffffffffffffffffffffffffffff1916149050919050565b61213e8282611891565b6121cd576121638173ffffffffffffffffffffffffffffffffffffffff1660146122d0565b6121718360001c60206122d0565b604051602001612182929190613903565b6040516020818303038152906040526040517f08c379a00000000000000000000000000000000000000000000000000000000081526004016121c49190612d1c565b60405180910390fd5b5050565b6121d9610cd3565b612218576040517f08c379a000000000000000000000000000000000000000000000000000000000815260040161220f90613989565b60405180910390fd5b565b600060019054906101000a900460ff16612269576040517f08c379a00000000000000000000000000000000000000000000000000000000081526004016122609061380f565b60405180910390fd5b6000603360006101000a81548160ff021916908315150217905550565b61228e610cd3565b156122ce576040517f08c379a00000000000000000000000000000000000000000000000000000000081526004016122c5906139f5565b60405180910390fd5b565b6060600060028360026122e39190613a15565b6122ed91906136db565b67ffffffffffffffff8111156123065761230561289c565b5b6040519080825280601f01601f1916602001820160405280156123385781602001600182028036833780820191505090505b5090507f3000000000000000000000000000000000000000000000000000000000000000816000815181106123705761236f613361565b5b60200101907effffffffffffffffffffffffffffffffffffffffffffffffffffffffffffff1916908160001a9053507f7800000000000000000000000000000000000000000000000000000000000000816001815181106123d4576123d3613361565b5b60200101907effffffffffffffffffffffffffffffffffffffffffffffffffffffffffffff1916908160001a905350600060018460026124149190613a15565b61241e91906136db565b90505b60018111156124be577f3031323334353637383961626364656600000000000000000000000000000000600f8616601081106124605761245f613361565b5b1a60f81b82828151811061247757612476613361565b5b60200101907effffffffffffffffffffffffffffffffffffffffffffffffffffffffffffff1916908160001a905350600485901c9450806124b790613a6f565b9050612421565b5060008414612502576040517f08c379a00000000000000000000000000000000000000000000000000000000081526004016124f990613ae5565b60405180910390fd5b8091505092915050565b6040518060a00160405280606081526020016000151581526020016060815260200160008152602001600081525090565b82805461254990612f05565b90600052602060002090601f01602090048101928261256b57600085556125b2565b82601f1061258457805160ff19168380011785556125b2565b828001600101855582156125b2579182015b828111156125b1578251825591602001919060010190612596565b5b5090506125bf91906125c3565b5090565b5b808211156125dc5760008160009055506001016125c4565b5090565b60007fffffffff0000000000000000000000000000000000000000000000000000000082169050919050565b612615816125e0565b82525050565b6000602082019050612630600083018461260c565b92915050565b6000604051905090565b600080fd5b600080fd5b612653816125e0565b811461265e57600080fd5b50565b6000813590506126708161264a565b92915050565b60006020828403121561268c5761268b612640565b5b600061269a84828501612661565b91505092915050565b60008115159050919050565b6126b8816126a3565b82525050565b60006020820190506126d360008301846126af565b92915050565b6000819050919050565b6126ec816126d9565b81146126f757600080fd5b50565b600081359050612709816126e3565b92915050565b60006020828403121561272557612724612640565b5b6000612733848285016126fa565b91505092915050565b600081519050919050565b600082825260208201905092915050565b60005b8381101561277657808201518184015260208101905061275b565b83811115612785576000848401525b50505050565b6000601f19601f8301169050919050565b60006127a78261273c565b6127b18185612747565b93506127c1818560208601612758565b6127ca8161278b565b840191505092915050565b6127de816126a3565b82525050565b6127ed816126d9565b82525050565b600060a0830160008301518482036000860152612810828261279c565b915050602083015161282560208601826127d5565b506040830151848203604086015261283d828261279c565b915050606083015161285260608601826127e4565b50608083015161286560808601826127e4565b508091505092915050565b6000602082019050818103600083015261288a81846127f3565b905092915050565b600080fd5b600080fd5b7f4e487b7100000000000000000000000000000000000000000000000000000000600052604160045260246000fd5b6128d48261278b565b810181811067ffffffffffffffff821117156128f3576128f261289c565b5b80604052505050565b6000612906612636565b905061291282826128cb565b919050565b600067ffffffffffffffff8211156129325761293161289c565b5b61293b8261278b565b9050602081019050919050565b82818337600083830152505050565b600061296a61296584612917565b6128fc565b90508281526020810184848401111561298657612985612897565b5b612991848285612948565b509392505050565b600082601f8301126129ae576129ad612892565b5b81356129be848260208601612957565b91505092915050565b600080604083850312156129de576129dd612640565b5b600083013567ffffffffffffffff8111156129fc576129fb612645565b5b612a0885828601612999565b925050602083013567ffffffffffffffff811115612a2957612a28612645565b5b612a3585828601612999565b9150509250929050565b6000819050919050565b612a5281612a3f565b8114612a5d57600080fd5b50565b600081359050612a6f81612a49565b92915050565b600060208284031215612a8b57612a8a612640565b5b6000612a9984828501612a60565b91505092915050565b612aab81612a3f565b82525050565b6000602082019050612ac66000830184612aa2565b92915050565b600073ffffffffffffffffffffffffffffffffffffffff82169050919050565b6000612af782612acc565b9050919050565b612b0781612aec565b8114612b1257600080fd5b50565b600081359050612b2481612afe565b92915050565b60008060408385031215612b4157612b40612640565b5b6000612b4f85828601612a60565b9250506020612b6085828601612b15565b9150509250929050565b60008060408385031215612b8157612b80612640565b5b6000612b8f858286016126fa565b9250506020612ba085828601612b15565b9150509250929050565b612bb3816126d9565b82525050565b6000602082019050612bce6000830184612baa565b92915050565b600060208284031215612bea57612be9612640565b5b6000612bf884828501612b15565b91505092915050565b600081519050919050565b600082825260208201905092915050565b6000819050602082019050919050565b6000612c3983836127e4565b60208301905092915050565b6000602082019050919050565b6000612c5d82612c01565b612c678185612c0c565b9350612c7283612c1d565b8060005b83811015612ca3578151612c8a8882612c2d565b9750612c9583612c45565b925050600181019050612c76565b5085935050505092915050565b60006020820190508181036000830152612cca8184612c52565b905092915050565b600082825260208201905092915050565b6000612cee8261273c565b612cf88185612cd2565b9350612d08818560208601612758565b612d118161278b565b840191505092915050565b60006020820190508181036000830152612d368184612ce3565b905092915050565b600060a0820190508181036000830152612d588188612ce3565b9050612d6760208301876126af565b8181036040830152612d798186612ce3565b9050612d886060830185612baa565b612d956080830184612baa565b9695505050505050565b600081519050919050565b600082825260208201905092915050565b6000819050602082019050919050565b6000612dd7838361279c565b905092915050565b6000602082019050919050565b6000612df782612d9f565b612e018185612daa565b935083602082028501612e1385612dbb565b8060005b85811015612e4f5784840389528151612e308582612dcb565b9450612e3b83612ddf565b925060208a01995050600181019050612e17565b50829750879550505050505092915050565b60006020820190508181036000830152612e7b8184612dec565b905092915050565b612e8c81612aec565b82525050565b6000602082019050612ea76000830184612e83565b92915050565b6000604082019050612ec26000830185612baa565b612ecf60208301846126af565b9392505050565b7f4e487b7100000000000000000000000000000000000000000000000000000000600052602260045260246000fd5b60006002820490506001821680612f1d57607f821691505b60208210811415612f3157612f30612ed6565b5b50919050565b7f53747564656e7473455243373231206e6f7420646566696e6564000000000000600082015250565b6000612f6d601a83612cd2565b9150612f7882612f37565b602082019050919050565b60006020820190508181036000830152612f9c81612f60565b9050919050565b6000604082019050612fb86000830185612baa565b8181036020830152612fca8184612ce3565b90509392505050565b7f436f7572736520696e6163746976650000000000000000000000000000000000600082015250565b6000613009600f83612cd2565b915061301482612fd3565b602082019050919050565b6000602082019050818103600083015261303881612ffc565b9050919050565b60008190508160005260206000209050919050565b6000815461306181612f05565b61306b8186612cd2565b945060018216600081146130865760018114613098576130cb565b60ff19831686526020860193506130cb565b6130a18561303f565b60005b838110156130c3578154818901526001820191506020810190506130a4565b808801955050505b50505092915050565b60006040820190506130e96000830185612baa565b81810360208301526130fb8184613054565b90509392505050565b7f53747564656e74206e6f74207265676973746572656400000000000000000000600082015250565b600061313a601683612cd2565b915061314582613104565b602082019050919050565b600060208201905081810360008301526131698161312d565b9050919050565b7f416363657373436f6e74726f6c3a2063616e206f6e6c792072656e6f756e636560008201527f20726f6c657320666f722073656c660000000000000000000000000000000000602082015250565b60006131cc602f83612cd2565b91506131d782613170565b604082019050919050565b600060208201905081810360008301526131fb816131bf565b9050919050565b7f4e487b7100000000000000000000000000000000000000000000000000000000600052601160045260246000fd5b600061323c826126d9565b9150613247836126d9565b92508282101561325a57613259613202565b5b828203905092915050565b600060608201905061327a6000830186612baa565b6132876020830185612baa565b6132946040830184612e83565b949350505050565b6132a5816126a3565b81146132b057600080fd5b50565b6000815190506132c28161329c565b92915050565b6000602082840312156132de576132dd612640565b5b60006132ec848285016132b3565b91505092915050565b7f436f6e7472616374206d757374206465726976652066726f6d20455243373231600082015250565b600061332b602083612cd2565b9150613336826132f5565b602082019050919050565b6000602082019050818103600083015261335a8161331e565b9050919050565b7f4e487b7100000000000000000000000000000000000000000000000000000000600052603260045260246000fd5b600061339b826126d9565b91507fffffffffffffffffffffffffffffffffffffffffffffffffffffffffffffffff8214156133ce576133cd613202565b5b600182019050919050565b7f496e697469616c697a61626c653a20636f6e747261637420697320616c72656160008201527f647920696e697469616c697a6564000000000000000000000000000000000000602082015250565b6000613435602e83612cd2565b9150613440826133d9565b604082019050919050565b6000602082019050818103600083015261346481613428565b9050919050565b6000819050919050565b600060ff82169050919050565b6000819050919050565b60006134a76134a261349d8461346b565b613482565b613475565b9050919050565b6134b78161348c565b82525050565b60006020820190506134d260008301846134ae565b92915050565b60006134eb6134e684612917565b6128fc565b90508281526020810184848401111561350757613506612897565b5b613512848285612758565b509392505050565b600082601f83011261352f5761352e612892565b5b815161353f8482602086016134d8565b91505092915050565b60006020828403121561355e5761355d612640565b5b600082015167ffffffffffffffff81111561357c5761357b612645565b5b6135888482850161351a565b91505092915050565b7f53747564656e7420616c72656164792072656769737465726564000000000000600082015250565b60006135c7601a83612cd2565b91506135d282613591565b602082019050919050565b600060208201905081810360008301526135f6816135ba565b9050919050565b7f5a65726f20616464726573730000000000000000000000000000000000000000600082015250565b6000613633600c83612cd2565b915061363e826135fd565b602082019050919050565b6000602082019050818103600083015261366281613626565b9050919050565b600060408201905061367e6000830185612e83565b81810360208301526136908184613054565b90509392505050565b6000815190506136a8816126e3565b92915050565b6000602082840312156136c4576136c3612640565b5b60006136d284828501613699565b91505092915050565b60006136e6826126d9565b91506136f1836126d9565b9250827fffffffffffffffffffffffffffffffffffffffffffffffffffffffffffffffff0382111561372657613725613202565b5b828201905092915050565b7f436f756e7465723a2064656372656d656e74206f766572666c6f770000000000600082015250565b6000613767601b83612cd2565b915061377282613731565b602082019050919050565b600060208201905081810360008301526137968161375a565b9050919050565b7f496e697469616c697a61626c653a20636f6e7472616374206973206e6f74206960008201527f6e697469616c697a696e67000000000000000000000000000000000000000000602082015250565b60006137f9602b83612cd2565b91506138048261379d565b604082019050919050565b60006020820190508181036000830152613828816137ec565b9050919050565b600081905092915050565b7f416363657373436f6e74726f6c3a206163636f756e7420000000000000000000600082015250565b600061387060178361382f565b915061387b8261383a565b601782019050919050565b60006138918261273c565b61389b818561382f565b93506138ab818560208601612758565b80840191505092915050565b7f206973206d697373696e6720726f6c6520000000000000000000000000000000600082015250565b60006138ed60118361382f565b91506138f8826138b7565b601182019050919050565b600061390e82613863565b915061391a8285613886565b9150613925826138e0565b91506139318284613886565b91508190509392505050565b7f5061757361626c653a206e6f7420706175736564000000000000000000000000600082015250565b6000613973601483612cd2565b915061397e8261393d565b602082019050919050565b600060208201905081810360008301526139a281613966565b9050919050565b7f5061757361626c653a2070617573656400000000000000000000000000000000600082015250565b60006139df601083612cd2565b91506139ea826139a9565b602082019050919050565b60006020820190508181036000830152613a0e816139d2565b9050919050565b6000613a20826126d9565b9150613a2b836126d9565b9250817fffffffffffffffffffffffffffffffffffffffffffffffffffffffffffffffff0483118215151615613a6457613a63613202565b5b828202905092915050565b6000613a7a826126d9565b91506000821415613a8e57613a8d613202565b5b600182039050919050565b7f537472696e67733a20686578206c656e67746820696e73756666696369656e74600082015250565b6000613acf602083612cd2565b9150613ada82613a99565b602082019050919050565b60006020820190508181036000830152613afe81613ac2565b905091905056fea264697066735822122063404ed176bdf84bf32b6d38bd0b199131a92c8dde3f124bc1af2ce9b4a1ea5064736f6c63430008090033",
  "devdoc": {
    "kind": "dev",
    "methods": {
      "getRoleAdmin(bytes32)": {
        "details": "Returns the admin role that controls `role`. See {grantRole} and {revokeRole}. To change a role's admin, use {_setRoleAdmin}."
      },
      "grantRole(bytes32,address)": {
        "details": "Grants `role` to `account`. If `account` had not been already granted `role`, emits a {RoleGranted} event. Requirements: - the caller must have ``role``'s admin role. May emit a {RoleGranted} event."
      },
      "hasRole(bytes32,address)": {
        "details": "Returns `true` if `account` has been granted `role`."
      },
      "paused()": {
        "details": "Returns true if the contract is paused, and false otherwise."
      },
      "renounceRole(bytes32,address)": {
        "details": "Revokes `role` from the calling account. Roles are often managed via {grantRole} and {revokeRole}: this function's purpose is to provide a mechanism for accounts to lose their privileges if they are compromised (such as when a trusted device is misplaced). If the calling account had been revoked `role`, emits a {RoleRevoked} event. Requirements: - the caller must be `account`. May emit a {RoleRevoked} event."
      },
      "revokeRole(bytes32,address)": {
        "details": "Revokes `role` from `account`. If `account` had been granted `role`, emits a {RoleRevoked} event. Requirements: - the caller must have ``role``'s admin role. May emit a {RoleRevoked} event."
      },
      "supportsInterface(bytes4)": {
        "details": "See {IERC165-supportsInterface}."
      }
    },
    "version": 1
  },
  "userdoc": {
    "kind": "user",
    "methods": {},
    "version": 1
  },
  "storageLayout": {
    "storage": [
      {
        "astId": 419,
        "contract": "contracts/Institution.sol:Institution",
        "label": "_initialized",
        "offset": 0,
        "slot": "0",
        "type": "t_uint8"
      },
      {
        "astId": 422,
        "contract": "contracts/Institution.sol:Institution",
        "label": "_initializing",
        "offset": 1,
        "slot": "0",
        "type": "t_bool"
      },
      {
        "astId": 2561,
        "contract": "contracts/Institution.sol:Institution",
        "label": "__gap",
        "offset": 0,
        "slot": "1",
        "type": "t_array(t_uint256)50_storage"
      },
      {
        "astId": 584,
        "contract": "contracts/Institution.sol:Institution",
        "label": "_paused",
        "offset": 0,
        "slot": "51",
        "type": "t_bool"
      },
      {
        "astId": 689,
        "contract": "contracts/Institution.sol:Institution",
        "label": "__gap",
        "offset": 0,
        "slot": "52",
        "type": "t_array(t_uint256)49_storage"
      },
      {
        "astId": 2905,
        "contract": "contracts/Institution.sol:Institution",
        "label": "__gap",
        "offset": 0,
        "slot": "101",
        "type": "t_array(t_uint256)50_storage"
      },
      {
        "astId": 39,
        "contract": "contracts/Institution.sol:Institution",
        "label": "_roles",
        "offset": 0,
        "slot": "151",
        "type": "t_mapping(t_bytes32,t_struct(RoleData)34_storage)"
      },
      {
        "astId": 338,
        "contract": "contracts/Institution.sol:Institution",
        "label": "__gap",
        "offset": 0,
        "slot": "152",
        "type": "t_array(t_uint256)49_storage"
      },
      {
        "astId": 3288,
        "contract": "contracts/Institution.sol:Institution",
        "label": "studentsERC721",
        "offset": 0,
        "slot": "201",
        "type": "t_address"
      },
      {
        "astId": 3304,
        "contract": "contracts/Institution.sol:Institution",
        "label": "courses",
        "offset": 0,
        "slot": "202",
        "type": "t_mapping(t_uint256,t_struct(Course)3299_storage)"
      },
      {
        "astId": 3307,
        "contract": "contracts/Institution.sol:Institution",
        "label": "courseCounter",
        "offset": 0,
        "slot": "203",
        "type": "t_struct(Counter)2568_storage"
      },
      {
        "astId": 3310,
        "contract": "contracts/Institution.sol:Institution",
        "label": "activeCourseCounter",
        "offset": 0,
        "slot": "204",
        "type": "t_struct(Counter)2568_storage"
      },
      {
        "astId": 3322,
        "contract": "contracts/Institution.sol:Institution",
        "label": "students",
        "offset": 0,
        "slot": "205",
        "type": "t_mapping(t_uint256,t_mapping(t_address,t_struct(Student)3315_storage))"
      },
      {
        "astId": 3325,
        "contract": "contracts/Institution.sol:Institution",
        "label": "studentCounter",
        "offset": 0,
        "slot": "206",
        "type": "t_struct(Counter)2568_storage"
      }
    ],
    "types": {
      "t_address": {
        "encoding": "inplace",
        "label": "address",
        "numberOfBytes": "20"
      },
      "t_array(t_uint256)49_storage": {
        "base": "t_uint256",
        "encoding": "inplace",
        "label": "uint256[49]",
        "numberOfBytes": "1568"
      },
      "t_array(t_uint256)50_storage": {
        "base": "t_uint256",
        "encoding": "inplace",
        "label": "uint256[50]",
        "numberOfBytes": "1600"
      },
      "t_bool": {
        "encoding": "inplace",
        "label": "bool",
        "numberOfBytes": "1"
      },
      "t_bytes32": {
        "encoding": "inplace",
        "label": "bytes32",
        "numberOfBytes": "32"
      },
      "t_mapping(t_address,t_bool)": {
        "encoding": "mapping",
        "key": "t_address",
        "label": "mapping(address => bool)",
        "numberOfBytes": "32",
        "value": "t_bool"
      },
      "t_mapping(t_address,t_struct(Student)3315_storage)": {
        "encoding": "mapping",
        "key": "t_address",
        "label": "mapping(address => struct Institution.Student)",
        "numberOfBytes": "32",
        "value": "t_struct(Student)3315_storage"
      },
      "t_mapping(t_bytes32,t_struct(RoleData)34_storage)": {
        "encoding": "mapping",
        "key": "t_bytes32",
        "label": "mapping(bytes32 => struct AccessControlUpgradeable.RoleData)",
        "numberOfBytes": "32",
        "value": "t_struct(RoleData)34_storage"
      },
      "t_mapping(t_uint256,t_mapping(t_address,t_struct(Student)3315_storage))": {
        "encoding": "mapping",
        "key": "t_uint256",
        "label": "mapping(uint256 => mapping(address => struct Institution.Student))",
        "numberOfBytes": "32",
        "value": "t_mapping(t_address,t_struct(Student)3315_storage)"
      },
      "t_mapping(t_uint256,t_struct(Course)3299_storage)": {
        "encoding": "mapping",
        "key": "t_uint256",
        "label": "mapping(uint256 => struct Institution.Course)",
        "numberOfBytes": "32",
        "value": "t_struct(Course)3299_storage"
      },
      "t_string_storage": {
        "encoding": "bytes",
        "label": "string",
        "numberOfBytes": "32"
      },
      "t_struct(Counter)2568_storage": {
        "encoding": "inplace",
        "label": "struct CountersUpgradeable.Counter",
        "members": [
          {
            "astId": 2567,
            "contract": "contracts/Institution.sol:Institution",
            "label": "_value",
            "offset": 0,
            "slot": "0",
            "type": "t_uint256"
          }
        ],
        "numberOfBytes": "32"
      },
      "t_struct(Course)3299_storage": {
        "encoding": "inplace",
        "label": "struct Institution.Course",
        "members": [
          {
            "astId": 3290,
            "contract": "contracts/Institution.sol:Institution",
            "label": "name",
            "offset": 0,
            "slot": "0",
            "type": "t_string_storage"
          },
          {
            "astId": 3292,
            "contract": "contracts/Institution.sol:Institution",
            "label": "isActive",
            "offset": 0,
            "slot": "1",
            "type": "t_bool"
          },
          {
            "astId": 3294,
            "contract": "contracts/Institution.sol:Institution",
            "label": "baseURI",
            "offset": 0,
            "slot": "2",
            "type": "t_string_storage"
          },
          {
            "astId": 3296,
            "contract": "contracts/Institution.sol:Institution",
            "label": "studentsBalance",
            "offset": 0,
            "slot": "3",
            "type": "t_uint256"
          },
          {
            "astId": 3298,
            "contract": "contracts/Institution.sol:Institution",
            "label": "activeStudentsBalance",
            "offset": 0,
            "slot": "4",
            "type": "t_uint256"
          }
        ],
        "numberOfBytes": "160"
      },
      "t_struct(RoleData)34_storage": {
        "encoding": "inplace",
        "label": "struct AccessControlUpgradeable.RoleData",
        "members": [
          {
            "astId": 31,
            "contract": "contracts/Institution.sol:Institution",
            "label": "members",
            "offset": 0,
            "slot": "0",
            "type": "t_mapping(t_address,t_bool)"
          },
          {
            "astId": 33,
            "contract": "contracts/Institution.sol:Institution",
            "label": "adminRole",
            "offset": 0,
            "slot": "1",
            "type": "t_bytes32"
          }
        ],
        "numberOfBytes": "64"
      },
      "t_struct(Student)3315_storage": {
        "encoding": "inplace",
        "label": "struct Institution.Student",
        "members": [
          {
            "astId": 3312,
            "contract": "contracts/Institution.sol:Institution",
            "label": "id",
            "offset": 0,
            "slot": "0",
            "type": "t_uint256"
          },
          {
            "astId": 3314,
            "contract": "contracts/Institution.sol:Institution",
            "label": "isActive",
            "offset": 0,
            "slot": "1",
            "type": "t_bool"
          }
        ],
        "numberOfBytes": "64"
      },
      "t_uint256": {
        "encoding": "inplace",
        "label": "uint256",
        "numberOfBytes": "32"
      },
      "t_uint8": {
        "encoding": "inplace",
        "label": "uint8",
        "numberOfBytes": "1"
      }
    }
  }
}