{
  "address": "0x3a40B5D98BB16dF05267Fb704c5a2bf7F576f948",
  "abi": [
    {
      "inputs": [],
      "stateMutability": "nonpayable",
      "type": "constructor"
    },
    {
      "anonymous": false,
      "inputs": [
        {
          "indexed": false,
          "internalType": "uint8",
          "name": "version",
          "type": "uint8"
        }
      ],
      "name": "Initialized",
      "type": "event"
    },
    {
      "anonymous": false,
      "inputs": [
        {
          "indexed": false,
          "internalType": "address",
          "name": "account",
          "type": "address"
        }
      ],
      "name": "Paused",
      "type": "event"
    },
    {
      "anonymous": false,
      "inputs": [
        {
          "indexed": true,
          "internalType": "bytes32",
          "name": "role",
          "type": "bytes32"
        },
        {
          "indexed": true,
          "internalType": "bytes32",
          "name": "previousAdminRole",
          "type": "bytes32"
        },
        {
          "indexed": true,
          "internalType": "bytes32",
          "name": "newAdminRole",
          "type": "bytes32"
        }
      ],
      "name": "RoleAdminChanged",
      "type": "event"
    },
    {
      "anonymous": false,
      "inputs": [
        {
          "indexed": true,
          "internalType": "bytes32",
          "name": "role",
          "type": "bytes32"
        },
        {
          "indexed": true,
          "internalType": "address",
          "name": "account",
          "type": "address"
        },
        {
          "indexed": true,
          "internalType": "address",
          "name": "sender",
          "type": "address"
        }
      ],
      "name": "RoleGranted",
      "type": "event"
    },
    {
      "anonymous": false,
      "inputs": [
        {
          "indexed": true,
          "internalType": "bytes32",
          "name": "role",
          "type": "bytes32"
        },
        {
          "indexed": true,
          "internalType": "address",
          "name": "account",
          "type": "address"
        },
        {
          "indexed": true,
          "internalType": "address",
          "name": "sender",
          "type": "address"
        }
      ],
      "name": "RoleRevoked",
      "type": "event"
    },
    {
      "anonymous": false,
      "inputs": [
        {
          "indexed": false,
          "internalType": "address",
          "name": "account",
          "type": "address"
        }
      ],
      "name": "Unpaused",
      "type": "event"
    },
    {
      "inputs": [],
      "name": "DEFAULT_ADMIN_ROLE",
      "outputs": [
        {
          "internalType": "bytes32",
          "name": "",
          "type": "bytes32"
        }
      ],
      "stateMutability": "view",
      "type": "function"
    },
    {
      "inputs": [],
      "name": "INSTITUTIONS_INTERFACE_ID",
      "outputs": [
        {
          "internalType": "bytes4",
          "name": "",
          "type": "bytes4"
        }
      ],
      "stateMutability": "view",
      "type": "function"
    },
    {
      "inputs": [],
      "name": "INTERFACE_ERC721",
      "outputs": [
        {
          "internalType": "bytes4",
          "name": "",
          "type": "bytes4"
        }
      ],
      "stateMutability": "view",
      "type": "function"
    },
    {
      "inputs": [],
      "name": "MINTER_ROLE",
      "outputs": [
        {
          "internalType": "bytes32",
          "name": "",
          "type": "bytes32"
        }
      ],
      "stateMutability": "view",
      "type": "function"
    },
    {
      "inputs": [],
      "name": "PAUSER_ROLE",
      "outputs": [
        {
          "internalType": "bytes32",
          "name": "",
          "type": "bytes32"
        }
      ],
      "stateMutability": "view",
      "type": "function"
    },
    {
      "inputs": [],
      "name": "baseURI",
      "outputs": [
        {
          "internalType": "string",
          "name": "",
          "type": "string"
        }
      ],
      "stateMutability": "view",
      "type": "function"
    },
    {
      "inputs": [
        {
          "internalType": "string",
          "name": "",
          "type": "string"
        }
      ],
      "name": "baseURIExists",
      "outputs": [
        {
          "internalType": "bool",
          "name": "",
          "type": "bool"
        }
      ],
      "stateMutability": "view",
      "type": "function"
    },
    {
      "inputs": [
        {
          "internalType": "uint256",
          "name": "courseId",
          "type": "uint256"
        },
        {
          "internalType": "address",
          "name": "student",
          "type": "address"
        }
      ],
      "name": "certifyStudent",
      "outputs": [],
      "stateMutability": "nonpayable",
      "type": "function"
    },
    {
      "inputs": [],
      "name": "courseCounter",
      "outputs": [
        {
          "internalType": "uint256",
          "name": "_value",
          "type": "uint256"
        }
      ],
      "stateMutability": "view",
      "type": "function"
    },
    {
      "inputs": [
        {
          "internalType": "uint256",
          "name": "",
          "type": "uint256"
        }
      ],
      "name": "courses",
      "outputs": [
        {
          "internalType": "bool",
          "name": "isActive",
          "type": "bool"
        },
        {
          "internalType": "string",
          "name": "baseURI",
          "type": "string"
        },
        {
          "internalType": "uint256",
          "name": "activeStudentsBalance",
          "type": "uint256"
        }
      ],
      "stateMutability": "view",
      "type": "function"
    },
    {
      "inputs": [
        {
          "internalType": "uint256",
          "name": "courseId",
          "type": "uint256"
        },
        {
          "internalType": "address",
          "name": "student",
          "type": "address"
        }
      ],
      "name": "generateCertificate",
      "outputs": [],
      "stateMutability": "nonpayable",
      "type": "function"
    },
    {
      "inputs": [
        {
          "internalType": "address",
          "name": "student",
          "type": "address"
        }
      ],
      "name": "getAllCertificatesIds",
      "outputs": [
        {
          "internalType": "uint256[]",
          "name": "",
          "type": "uint256[]"
        }
      ],
      "stateMutability": "view",
      "type": "function"
    },
    {
      "inputs": [
        {
          "internalType": "address",
          "name": "student",
          "type": "address"
        }
      ],
      "name": "getAllCertificatesURIs",
      "outputs": [
        {
          "internalType": "string[]",
          "name": "",
          "type": "string[]"
        }
      ],
      "stateMutability": "view",
      "type": "function"
    },
    {
      "inputs": [
        {
          "internalType": "uint256",
          "name": "courseId",
          "type": "uint256"
        },
        {
          "internalType": "address",
          "name": "student",
          "type": "address"
        }
      ],
      "name": "getCertificateId",
      "outputs": [
        {
          "internalType": "uint256",
          "name": "",
          "type": "uint256"
        }
      ],
      "stateMutability": "view",
      "type": "function"
    },
    {
      "inputs": [
        {
          "internalType": "uint256",
          "name": "certificateId",
          "type": "uint256"
        }
      ],
      "name": "getCertificateURI",
      "outputs": [
        {
          "internalType": "string",
          "name": "",
          "type": "string"
        }
      ],
      "stateMutability": "view",
      "type": "function"
    },
    {
      "inputs": [
        {
          "internalType": "uint256",
          "name": "courseId",
          "type": "uint256"
        }
      ],
      "name": "getCourseURI",
      "outputs": [
        {
          "internalType": "string",
          "name": "",
          "type": "string"
        }
      ],
      "stateMutability": "view",
      "type": "function"
    },
    {
      "inputs": [
        {
          "internalType": "bytes32",
          "name": "role",
          "type": "bytes32"
        }
      ],
      "name": "getRoleAdmin",
      "outputs": [
        {
          "internalType": "bytes32",
          "name": "",
          "type": "bytes32"
        }
      ],
      "stateMutability": "view",
      "type": "function"
    },
    {
      "inputs": [
        {
          "internalType": "uint256",
          "name": "courseId",
          "type": "uint256"
        },
        {
          "internalType": "address",
          "name": "student",
          "type": "address"
        }
      ],
      "name": "getStudentCertificate",
      "outputs": [
        {
          "internalType": "uint256",
          "name": "",
          "type": "uint256"
        }
      ],
      "stateMutability": "view",
      "type": "function"
    },
    {
      "inputs": [
        {
          "internalType": "bytes32",
          "name": "role",
          "type": "bytes32"
        },
        {
          "internalType": "address",
          "name": "account",
          "type": "address"
        }
      ],
      "name": "grantRole",
      "outputs": [],
      "stateMutability": "nonpayable",
      "type": "function"
    },
    {
      "inputs": [
        {
          "internalType": "bytes32",
          "name": "role",
          "type": "bytes32"
        },
        {
          "internalType": "address",
          "name": "account",
          "type": "address"
        }
      ],
      "name": "hasRole",
      "outputs": [
        {
          "internalType": "bool",
          "name": "",
          "type": "bool"
        }
      ],
      "stateMutability": "view",
      "type": "function"
    },
    {
      "inputs": [],
      "name": "initialize",
      "outputs": [],
      "stateMutability": "nonpayable",
      "type": "function"
    },
    {
      "inputs": [],
      "name": "pause",
      "outputs": [],
      "stateMutability": "nonpayable",
      "type": "function"
    },
    {
      "inputs": [],
      "name": "paused",
      "outputs": [
        {
          "internalType": "bool",
          "name": "",
          "type": "bool"
        }
      ],
      "stateMutability": "view",
      "type": "function"
    },
    {
      "inputs": [
        {
          "internalType": "string",
          "name": "_baseURI",
          "type": "string"
        }
      ],
      "name": "registerCourse",
      "outputs": [],
      "stateMutability": "nonpayable",
      "type": "function"
    },
    {
      "inputs": [
        {
          "internalType": "bytes32",
          "name": "role",
          "type": "bytes32"
        },
        {
          "internalType": "address",
          "name": "account",
          "type": "address"
        }
      ],
      "name": "renounceRole",
      "outputs": [],
      "stateMutability": "nonpayable",
      "type": "function"
    },
    {
      "inputs": [
        {
          "internalType": "bytes32",
          "name": "role",
          "type": "bytes32"
        },
        {
          "internalType": "address",
          "name": "account",
          "type": "address"
        }
      ],
      "name": "revokeRole",
      "outputs": [],
      "stateMutability": "nonpayable",
      "type": "function"
    },
    {
      "inputs": [
        {
          "internalType": "address",
          "name": "_studentsERC721",
          "type": "address"
        }
      ],
      "name": "setStudentsERC721",
      "outputs": [],
      "stateMutability": "nonpayable",
      "type": "function"
    },
    {
      "inputs": [],
      "name": "studentCounter",
      "outputs": [
        {
          "internalType": "uint256",
          "name": "_value",
          "type": "uint256"
        }
      ],
      "stateMutability": "view",
      "type": "function"
    },
    {
      "inputs": [
        {
          "internalType": "uint256",
          "name": "",
          "type": "uint256"
        },
        {
          "internalType": "address",
          "name": "",
          "type": "address"
        }
      ],
      "name": "students",
      "outputs": [
        {
          "internalType": "uint256",
          "name": "id",
          "type": "uint256"
        },
        {
          "internalType": "bool",
          "name": "isCertified",
          "type": "bool"
        }
      ],
      "stateMutability": "view",
      "type": "function"
    },
    {
      "inputs": [],
      "name": "studentsERC721",
      "outputs": [
        {
          "internalType": "address",
          "name": "",
          "type": "address"
        }
      ],
      "stateMutability": "view",
      "type": "function"
    },
    {
      "inputs": [
        {
          "internalType": "bytes4",
          "name": "interfaceId",
          "type": "bytes4"
        }
      ],
      "name": "supportsInterface",
      "outputs": [
        {
          "internalType": "bool",
          "name": "",
          "type": "bool"
        }
      ],
      "stateMutability": "view",
      "type": "function"
    },
    {
      "inputs": [],
      "name": "unpause",
      "outputs": [],
      "stateMutability": "nonpayable",
      "type": "function"
    },
    {
      "inputs": [
        {
          "internalType": "uint256",
          "name": "courseId",
          "type": "uint256"
        }
      ],
      "name": "unregisterCourse",
      "outputs": [],
      "stateMutability": "nonpayable",
      "type": "function"
    },
    {
      "inputs": [
        {
          "internalType": "uint256",
          "name": "courseId",
          "type": "uint256"
        },
        {
          "internalType": "address",
          "name": "student",
          "type": "address"
        }
      ],
      "name": "unregisterStudent",
      "outputs": [],
      "stateMutability": "nonpayable",
      "type": "function"
    }
  ],
  "transactionHash": "0x8ce9bb5c496408c63e05452a1ac15f6306d991a60f0045d4f52a213f5fa25a0a",
  "args": [],
  "numDeployments": 4,
  "solcInputHash": "cd343a983fcbc3855315b6e3f3a7426c",
  "bytecode": "0x608060405234801561001057600080fd5b50613c94806100206000396000f3fe608060405234801561001057600080fd5b50600436106102065760003560e01c806382216fbd1161011a578063a217fddf116100ad578063d53913931161007c578063d5391393146105ed578063d547741f1461060b578063e3596cac14610627578063e63ab1e914610645578063fcfedaa51461066357610206565b8063a217fddf1461053f578063b024ebea1461055d578063c1b1b5411461058d578063cb07b616146105bd57610206565b806391d14854116100e957806391d148541461048f57806396f979d2146104bf57806399f7cbeb146104f15780639ddf4b341461050f57610206565b806382216fbd146104075780638226c205146104255780638456cb59146104555780638aabffd41461045f57610206565b80635f6d0a0b1161019d578063772ab3311161016c578063772ab3311461038b5780637a807c7b146103a75780637c38356b146103c35780638129fc1c146103df5780638137f970146103e957610206565b80635f6d0a0b146103175780636abbd3f7146103355780636c0360eb1461035157806376f3c50b1461036f57610206565b80632f2ff15d116101d95780632f2ff15d146102b757806336568abe146102d35780633f4ba83a146102ef5780635c975abb146102f957610206565b806301ffc9a71461020b57806305391db61461023b578063233242581461026b578063248a9ca314610287575b600080fd5b6102256004803603810190610220919061282c565b610694565b6040516102329190612874565b60405180910390f35b610255600480360381019061025091906128ed565b6106f5565b60405161026291906129e2565b60405180910390f35b61028560048036038101906102809190612a30565b61089d565b005b6102a1600480360381019061029c9190612a93565b61095f565b6040516102ae9190612acf565b60405180910390f35b6102d160048036038101906102cc9190612aea565b61097f565b005b6102ed60048036038101906102e89190612aea565b6109a0565b005b6102f7610a23565b005b610301610a58565b60405161030e9190612874565b60405180910390f35b61031f610a6f565b60405161032c9190612b39565b60405180910390f35b61034f600480360381019061034a9190612c9a565b610a7a565b005b610359610bb1565b6040516103669190612d6b565b60405180910390f35b61038960048036038101906103849190612d8d565b610c3f565b005b6103a560048036038101906103a09190612d8d565b610f38565b005b6103c160048036038101906103bc91906128ed565b6110a5565b005b6103dd60048036038101906103d89190612d8d565b6111c6565b005b6103e7611516565b005b6103f16116bd565b6040516103fe9190612b39565b60405180910390f35b61040f6116c8565b60405161041c9190612ddc565b60405180910390f35b61043f600480360381019061043a9190612d8d565b6116d4565b60405161044c9190612ddc565b60405180910390f35b61045d6118a2565b005b61047960048036038101906104749190612a30565b6118d7565b6040516104869190612d6b565b60405180910390f35b6104a960048036038101906104a49190612aea565b611990565b6040516104b69190612874565b60405180910390f35b6104d960048036038101906104d49190612a30565b6119fb565b6040516104e893929190612df7565b60405180910390f35b6104f9611aba565b6040516105069190612e44565b60405180910390f35b61052960048036038101906105249190612a30565b611ae0565b6040516105369190612d6b565b60405180910390f35b610547611b88565b6040516105549190612acf565b60405180910390f35b610577600480360381019061057291906128ed565b611b8f565b6040516105849190612f6b565b60405180910390f35b6105a760048036038101906105a29190612c9a565b611cb2565b6040516105b49190612874565b60405180910390f35b6105d760048036038101906105d29190612d8d565b611ce8565b6040516105e49190612ddc565b60405180910390f35b6105f5611e18565b6040516106029190612acf565b60405180910390f35b61062560048036038101906106209190612aea565b611e3c565b005b61062f611e5d565b60405161063c9190612ddc565b60405180910390f35b61064d611e69565b60405161065a9190612acf565b60405180910390f35b61067d60048036038101906106789190612d8d565b611e8d565b60405161068b929190612f8d565b60405180910390f35b600061069f82611ecb565b806106ee575063494e535460e01b7bffffffffffffffffffffffffffffffffffffffffffffffffffffffff1916827bffffffffffffffffffffffffffffffffffffffffffffffffffffffff1916145b9050919050565b6060600060ca60009054906101000a900473ffffffffffffffffffffffffffffffffffffffff1673ffffffffffffffffffffffffffffffffffffffff166370a08231846040518263ffffffff1660e01b81526004016107549190612e44565b60206040518083038186803b15801561076c57600080fd5b505afa158015610780573d6000803e3d6000fd5b505050506040513d601f19601f820116820180604052508101906107a49190612fcb565b9050606060005b828110156108925760ca60009054906101000a900473ffffffffffffffffffffffffffffffffffffffff1673ffffffffffffffffffffffffffffffffffffffff16632f745c5986836040518363ffffffff1660e01b8152600401610810929190612ff8565b60206040518083038186803b15801561082857600080fd5b505afa15801561083c573d6000803e3d6000fd5b505050506040513d601f19601f820116820180604052508101906108609190612fcb565b82828151811061087357610872613021565b5b602002602001018181525050808061088a9061307f565b9150506107ab565b508092505050919050565b7f9f2df0fed2c77648de5860a4cc508cd0818c85b8b8a1ab4ceeef8d981c8956a66108c781611f45565b8160cb600082815260200190815260200160002060000160009054906101000a900460ff1661092b576040517f08c379a000000000000000000000000000000000000000000000000000000000815260040161092290613114565b60405180910390fd5b600060cb600085815260200190815260200160002060000160006101000a81548160ff021916908315150217905550505050565b600060976000838152602001908152602001600020600101549050919050565b6109888261095f565b61099181611f45565b61099b8383611f59565b505050565b6109a861203a565b73ffffffffffffffffffffffffffffffffffffffff168173ffffffffffffffffffffffffffffffffffffffff1614610a15576040517f08c379a0000000000000000000000000000000000000000000000000000000008152600401610a0c906131a6565b60405180910390fd5b610a1f8282612042565b5050565b7f65d7a28e3265b37a6474929f336521b332c1681b933f6cb9f3376673440d862a610a4d81611f45565b610a55612124565b50565b6000603360009054906101000a900460ff16905090565b63494e535460e01b81565b7f9f2df0fed2c77648de5860a4cc508cd0818c85b8b8a1ab4ceeef8d981c8956a6610aa481611f45565b8160cc81604051610ab59190613202565b908152602001604051809103902060009054906101000a900460ff1615610b11576040517f08c379a0000000000000000000000000000000000000000000000000000000008152600401610b0890613265565b60405180910390fd5b600060cb6000610b2160cd612187565b815260200190815260200160002060020181905550600160cb6000610b4660cd612187565b815260200190815260200160002060000160006101000a81548160ff0219169083151502179055508260cb6000610b7d60cd612187565b81526020019081526020016000206001019080519060200190610ba192919061271d565b50610bac60cd612195565b505050565b60c98054610bbe906132b4565b80601f0160208091040260200160405190810160405280929190818152602001828054610bea906132b4565b8015610c375780601f10610c0c57610100808354040283529160200191610c37565b820191906000526020600020905b815481529060010190602001808311610c1a57829003601f168201915b505050505081565b80600073ffffffffffffffffffffffffffffffffffffffff168173ffffffffffffffffffffffffffffffffffffffff161415610cb0576040517f08c379a0000000000000000000000000000000000000000000000000000000008152600401610ca790613332565b60405180910390fd5b8260cb600082815260200190815260200160002060000160009054906101000a900460ff16610d14576040517f08c379a0000000000000000000000000000000000000000000000000000000008152600401610d0b90613114565b60405180910390fd5b838360ce600083815260200190815260200160002060008273ffffffffffffffffffffffffffffffffffffffff1673ffffffffffffffffffffffffffffffffffffffff16815260200190815260200160002060010160009054906101000a900460ff16610db6576040517f08c379a0000000000000000000000000000000000000000000000000000000008152600401610dad9061339e565b60405180910390fd5b7f9f2df0fed2c77648de5860a4cc508cd0818c85b8b8a1ab4ceeef8d981c8956a6610de081611f45565b600060ca60009054906101000a900473ffffffffffffffffffffffffffffffffffffffff1673ffffffffffffffffffffffffffffffffffffffff1663d204c45e8860cb60008c81526020019081526020016000206001016040518363ffffffff1660e01b8152600401610e54929190613453565b602060405180830381600087803b158015610e6e57600080fd5b505af1158015610e82573d6000803e3d6000fd5b505050506040513d601f19601f82011682018060405250810190610ea69190612fcb565b9050600160cb60008a81526020019081526020016000206002016000828254610ecf9190613483565b925050819055508060ce60008a815260200190815260200160002060008973ffffffffffffffffffffffffffffffffffffffff1673ffffffffffffffffffffffffffffffffffffffff168152602001908152602001600020600001819055505050505050505050565b7f9f2df0fed2c77648de5860a4cc508cd0818c85b8b8a1ab4ceeef8d981c8956a6610f6281611f45565b828260ce600083815260200190815260200160002060008273ffffffffffffffffffffffffffffffffffffffff1673ffffffffffffffffffffffffffffffffffffffff16815260200190815260200160002060010160009054906101000a900460ff16611004576040517f08c379a0000000000000000000000000000000000000000000000000000000008152600401610ffb90613525565b60405180910390fd5b600060ce600087815260200190815260200160002060008673ffffffffffffffffffffffffffffffffffffffff1673ffffffffffffffffffffffffffffffffffffffff16815260200190815260200160002060010160006101000a81548160ff021916908315150217905550600160cb600087815260200190815260200160002060020160008282546110979190613545565b925050819055505050505050565b6000801b6110b281611f45565b8173ffffffffffffffffffffffffffffffffffffffff166301ffc9a76380ac58cd60e01b6040518263ffffffff1660e01b81526004016110f29190612b39565b60206040518083038186803b15801561110a57600080fd5b505afa15801561111e573d6000803e3d6000fd5b505050506040513d601f19601f8201168201806040525081019061114291906135a5565b611181576040517f08c379a00000000000000000000000000000000000000000000000000000000081526004016111789061361e565b60405180910390fd5b8160ca60006101000a81548173ffffffffffffffffffffffffffffffffffffffff021916908373ffffffffffffffffffffffffffffffffffffffff1602179055505050565b7f9f2df0fed2c77648de5860a4cc508cd0818c85b8b8a1ab4ceeef8d981c8956a66111f081611f45565b8260cb600082815260200190815260200160002060000160009054906101000a900460ff16611254576040517f08c379a000000000000000000000000000000000000000000000000000000000815260040161124b90613114565b60405180910390fd5b838360ce600083815260200190815260200160002060008273ffffffffffffffffffffffffffffffffffffffff1673ffffffffffffffffffffffffffffffffffffffff16815260200190815260200160002060010160009054906101000a900460ff166112f6576040517f08c379a00000000000000000000000000000000000000000000000000000000081526004016112ed9061339e565b60405180910390fd5b84600073ffffffffffffffffffffffffffffffffffffffff168173ffffffffffffffffffffffffffffffffffffffff161415611367576040517f08c379a000000000000000000000000000000000000000000000000000000000815260040161135e90613332565b60405180910390fd5b60ce600088815260200190815260200160002060008773ffffffffffffffffffffffffffffffffffffffff1673ffffffffffffffffffffffffffffffffffffffff16815260200190815260200160002060010160009054906101000a900460ff1615611408576040517f08c379a00000000000000000000000000000000000000000000000000000000081526004016113ff9061368a565b60405180910390fd5b61141260cf612187565b60ce600089815260200190815260200160002060008873ffffffffffffffffffffffffffffffffffffffff1673ffffffffffffffffffffffffffffffffffffffff16815260200190815260200160002060000181905550600160ce600089815260200190815260200160002060008873ffffffffffffffffffffffffffffffffffffffff1673ffffffffffffffffffffffffffffffffffffffff16815260200190815260200160002060010160006101000a81548160ff0219169083151502179055506114df60cf612195565b600160cb600089815260200190815260200160002060020160008282546115069190613483565b9250508190555050505050505050565b60008060019054906101000a900460ff161590508080156115475750600160008054906101000a900460ff1660ff16105b806115745750611556306121ab565b1580156115735750600160008054906101000a900460ff1660ff16145b5b6115b3576040517f08c379a00000000000000000000000000000000000000000000000000000000081526004016115aa9061371c565b60405180910390fd5b60016000806101000a81548160ff021916908360ff16021790555080156115f0576001600060016101000a81548160ff0219169083151502179055505b6115f86121ce565b611600612227565b61160d6000801b33611f59565b6116377f65d7a28e3265b37a6474929f336521b332c1681b933f6cb9f3376673440d862a33611f59565b6116617f9f2df0fed2c77648de5860a4cc508cd0818c85b8b8a1ab4ceeef8d981c8956a633611f59565b80156116ba5760008060016101000a81548160ff0219169083151502179055507f7f26b83ff96e1f2b6a682f133852f6798a09c465da95921460cefb384740249860016040516116b1919061378e565b60405180910390a15b50565b6380ac58cd60e01b81565b60cd8060000154905081565b600081600073ffffffffffffffffffffffffffffffffffffffff168173ffffffffffffffffffffffffffffffffffffffff161415611747576040517f08c379a000000000000000000000000000000000000000000000000000000000815260040161173e90613332565b60405180910390fd5b838360ce600083815260200190815260200160002060008273ffffffffffffffffffffffffffffffffffffffff1673ffffffffffffffffffffffffffffffffffffffff16815260200190815260200160002060010160009054906101000a900460ff166117e9576040517f08c379a00000000000000000000000000000000000000000000000000000000081526004016117e090613525565b60405180910390fd5b60ca60009054906101000a900473ffffffffffffffffffffffffffffffffffffffff1673ffffffffffffffffffffffffffffffffffffffff16632f745c598660006040518363ffffffff1660e01b81526004016118479291906137e4565b60206040518083038186803b15801561185f57600080fd5b505afa158015611873573d6000803e3d6000fd5b505050506040513d601f19601f820116820180604052508101906118979190612fcb565b935050505092915050565b7f65d7a28e3265b37a6474929f336521b332c1681b933f6cb9f3376673440d862a6118cc81611f45565b6118d4612278565b50565b606060ca60009054906101000a900473ffffffffffffffffffffffffffffffffffffffff1673ffffffffffffffffffffffffffffffffffffffff1663c87b56dd836040518263ffffffff1660e01b81526004016119349190612ddc565b60006040518083038186803b15801561194c57600080fd5b505afa158015611960573d6000803e3d6000fd5b505050506040513d6000823e3d601f19601f82011682018060405250810190611989919061387d565b9050919050565b60006097600084815260200190815260200160002060000160008373ffffffffffffffffffffffffffffffffffffffff1673ffffffffffffffffffffffffffffffffffffffff16815260200190815260200160002060009054906101000a900460ff16905092915050565b60cb6020528060005260406000206000915090508060000160009054906101000a900460ff1690806001018054611a31906132b4565b80601f0160208091040260200160405190810160405280929190818152602001828054611a5d906132b4565b8015611aaa5780601f10611a7f57610100808354040283529160200191611aaa565b820191906000526020600020905b815481529060010190602001808311611a8d57829003601f168201915b5050505050908060020154905083565b60ca60009054906101000a900473ffffffffffffffffffffffffffffffffffffffff1681565b606060cb60008381526020019081526020016000206001018054611b03906132b4565b80601f0160208091040260200160405190810160405280929190818152602001828054611b2f906132b4565b8015611b7c5780601f10611b5157610100808354040283529160200191611b7c565b820191906000526020600020905b815481529060010190602001808311611b5f57829003601f168201915b50505050509050919050565b6000801b81565b60606000611b9c836106f5565b9050606060005b8251811015611ca75760ca60009054906101000a900473ffffffffffffffffffffffffffffffffffffffff1673ffffffffffffffffffffffffffffffffffffffff1663c87b56dd848381518110611bfd57611bfc613021565b5b60200260200101516040518263ffffffff1660e01b8152600401611c219190612ddc565b60006040518083038186803b158015611c3957600080fd5b505afa158015611c4d573d6000803e3d6000fd5b505050506040513d6000823e3d601f19601f82011682018060405250810190611c76919061387d565b828281518110611c8957611c88613021565b5b60200260200101819052508080611c9f9061307f565b915050611ba3565b508092505050919050565b60cc818051602081018201805184825260208301602085012081835280955050505050506000915054906101000a900460ff1681565b600080600090505b611cfa60cd612187565b811015611dd65760ce600085815260200190815260200160002060008473ffffffffffffffffffffffffffffffffffffffff1673ffffffffffffffffffffffffffffffffffffffff16815260200190815260200160002060010160009054906101000a900460ff1615611dc35760ce600085815260200190815260200160002060008473ffffffffffffffffffffffffffffffffffffffff1673ffffffffffffffffffffffffffffffffffffffff16815260200190815260200160002060000154915050611e12565b8080611dce9061307f565b915050611cf0565b506040517f08c379a0000000000000000000000000000000000000000000000000000000008152600401611e0990613912565b60405180910390fd5b92915050565b7f9f2df0fed2c77648de5860a4cc508cd0818c85b8b8a1ab4ceeef8d981c8956a681565b611e458261095f565b611e4e81611f45565b611e588383612042565b505050565b60cf8060000154905081565b7f65d7a28e3265b37a6474929f336521b332c1681b933f6cb9f3376673440d862a81565b60ce602052816000526040600020602052806000526040600020600091509150508060000154908060010160009054906101000a900460ff16905082565b60007f7965db0b000000000000000000000000000000000000000000000000000000007bffffffffffffffffffffffffffffffffffffffffffffffffffffffff1916827bffffffffffffffffffffffffffffffffffffffffffffffffffffffff19161480611f3e5750611f3d826122db565b5b9050919050565b611f5681611f5161203a565b612345565b50565b611f638282611990565b6120365760016097600084815260200190815260200160002060000160008373ffffffffffffffffffffffffffffffffffffffff1673ffffffffffffffffffffffffffffffffffffffff16815260200190815260200160002060006101000a81548160ff021916908315150217905550611fdb61203a565b73ffffffffffffffffffffffffffffffffffffffff168173ffffffffffffffffffffffffffffffffffffffff16837f2f8788117e7eff1d82e926ec794901d17c78024a50270940304540a733656f0d60405160405180910390a45b5050565b600033905090565b61204c8282611990565b156121205760006097600084815260200190815260200160002060000160008373ffffffffffffffffffffffffffffffffffffffff1673ffffffffffffffffffffffffffffffffffffffff16815260200190815260200160002060006101000a81548160ff0219169083151502179055506120c561203a565b73ffffffffffffffffffffffffffffffffffffffff168173ffffffffffffffffffffffffffffffffffffffff16837ff6391f5c32d9c69d2a47ea670b442974b53935d1edc7fd64eb21e047a839171b60405160405180910390a45b5050565b61212c6123e2565b6000603360006101000a81548160ff0219169083151502179055507f5db9ee0a495bf2e6ff9c91a7834c1ba4fdd244a5e8aa4e537bd38aeae4b073aa61217061203a565b60405161217d9190612e44565b60405180910390a1565b600081600001549050919050565b6001816000016000828254019250508190555050565b6000808273ffffffffffffffffffffffffffffffffffffffff163b119050919050565b600060019054906101000a900460ff1661221d576040517f08c379a0000000000000000000000000000000000000000000000000000000008152600401612214906139a4565b60405180910390fd5b61222561242b565b565b600060019054906101000a900460ff16612276576040517f08c379a000000000000000000000000000000000000000000000000000000000815260040161226d906139a4565b60405180910390fd5b565b612280612497565b6001603360006101000a81548160ff0219169083151502179055507f62e78cea01bee320cd4e420270b5ea74000d11b0c9f74754ebdbfc544b05a2586122c461203a565b6040516122d19190612e44565b60405180910390a1565b60007f01ffc9a7000000000000000000000000000000000000000000000000000000007bffffffffffffffffffffffffffffffffffffffffffffffffffffffff1916827bffffffffffffffffffffffffffffffffffffffffffffffffffffffff1916149050919050565b61234f8282611990565b6123de576123748173ffffffffffffffffffffffffffffffffffffffff1660146124e1565b6123828360001c60206124e1565b604051602001612393929190613a5c565b6040516020818303038152906040526040517f08c379a00000000000000000000000000000000000000000000000000000000081526004016123d59190612d6b565b60405180910390fd5b5050565b6123ea610a58565b612429576040517f08c379a000000000000000000000000000000000000000000000000000000000815260040161242090613ae2565b60405180910390fd5b565b600060019054906101000a900460ff1661247a576040517f08c379a0000000000000000000000000000000000000000000000000000000008152600401612471906139a4565b60405180910390fd5b6000603360006101000a81548160ff021916908315150217905550565b61249f610a58565b156124df576040517f08c379a00000000000000000000000000000000000000000000000000000000081526004016124d690613b4e565b60405180910390fd5b565b6060600060028360026124f49190613b6e565b6124fe9190613483565b67ffffffffffffffff81111561251757612516612b6f565b5b6040519080825280601f01601f1916602001820160405280156125495781602001600182028036833780820191505090505b5090507f30000000000000000000000000000000000000000000000000000000000000008160008151811061258157612580613021565b5b60200101907effffffffffffffffffffffffffffffffffffffffffffffffffffffffffffff1916908160001a9053507f7800000000000000000000000000000000000000000000000000000000000000816001815181106125e5576125e4613021565b5b60200101907effffffffffffffffffffffffffffffffffffffffffffffffffffffffffffff1916908160001a905350600060018460026126259190613b6e565b61262f9190613483565b90505b60018111156126cf577f3031323334353637383961626364656600000000000000000000000000000000600f86166010811061267157612670613021565b5b1a60f81b82828151811061268857612687613021565b5b60200101907effffffffffffffffffffffffffffffffffffffffffffffffffffffffffffff1916908160001a905350600485901c9450806126c890613bc8565b9050612632565b5060008414612713576040517f08c379a000000000000000000000000000000000000000000000000000000000815260040161270a90613c3e565b60405180910390fd5b8091505092915050565b828054612729906132b4565b90600052602060002090601f01602090048101928261274b5760008555612792565b82601f1061276457805160ff1916838001178555612792565b82800160010185558215612792579182015b82811115612791578251825591602001919060010190612776565b5b50905061279f91906127a3565b5090565b5b808211156127bc5760008160009055506001016127a4565b5090565b6000604051905090565b600080fd5b600080fd5b60007fffffffff0000000000000000000000000000000000000000000000000000000082169050919050565b612809816127d4565b811461281457600080fd5b50565b60008135905061282681612800565b92915050565b600060208284031215612842576128416127ca565b5b600061285084828501612817565b91505092915050565b60008115159050919050565b61286e81612859565b82525050565b60006020820190506128896000830184612865565b92915050565b600073ffffffffffffffffffffffffffffffffffffffff82169050919050565b60006128ba8261288f565b9050919050565b6128ca816128af565b81146128d557600080fd5b50565b6000813590506128e7816128c1565b92915050565b600060208284031215612903576129026127ca565b5b6000612911848285016128d8565b91505092915050565b600081519050919050565b600082825260208201905092915050565b6000819050602082019050919050565b6000819050919050565b61295981612946565b82525050565b600061296b8383612950565b60208301905092915050565b6000602082019050919050565b600061298f8261291a565b6129998185612925565b93506129a483612936565b8060005b838110156129d55781516129bc888261295f565b97506129c783612977565b9250506001810190506129a8565b5085935050505092915050565b600060208201905081810360008301526129fc8184612984565b905092915050565b612a0d81612946565b8114612a1857600080fd5b50565b600081359050612a2a81612a04565b92915050565b600060208284031215612a4657612a456127ca565b5b6000612a5484828501612a1b565b91505092915050565b6000819050919050565b612a7081612a5d565b8114612a7b57600080fd5b50565b600081359050612a8d81612a67565b92915050565b600060208284031215612aa957612aa86127ca565b5b6000612ab784828501612a7e565b91505092915050565b612ac981612a5d565b82525050565b6000602082019050612ae46000830184612ac0565b92915050565b60008060408385031215612b0157612b006127ca565b5b6000612b0f85828601612a7e565b9250506020612b20858286016128d8565b9150509250929050565b612b33816127d4565b82525050565b6000602082019050612b4e6000830184612b2a565b92915050565b600080fd5b600080fd5b6000601f19601f8301169050919050565b7f4e487b7100000000000000000000000000000000000000000000000000000000600052604160045260246000fd5b612ba782612b5e565b810181811067ffffffffffffffff82111715612bc657612bc5612b6f565b5b80604052505050565b6000612bd96127c0565b9050612be58282612b9e565b919050565b600067ffffffffffffffff821115612c0557612c04612b6f565b5b612c0e82612b5e565b9050602081019050919050565b82818337600083830152505050565b6000612c3d612c3884612bea565b612bcf565b905082815260208101848484011115612c5957612c58612b59565b5b612c64848285612c1b565b509392505050565b600082601f830112612c8157612c80612b54565b5b8135612c91848260208601612c2a565b91505092915050565b600060208284031215612cb057612caf6127ca565b5b600082013567ffffffffffffffff811115612cce57612ccd6127cf565b5b612cda84828501612c6c565b91505092915050565b600081519050919050565b600082825260208201905092915050565b60005b83811015612d1d578082015181840152602081019050612d02565b83811115612d2c576000848401525b50505050565b6000612d3d82612ce3565b612d478185612cee565b9350612d57818560208601612cff565b612d6081612b5e565b840191505092915050565b60006020820190508181036000830152612d858184612d32565b905092915050565b60008060408385031215612da457612da36127ca565b5b6000612db285828601612a1b565b9250506020612dc3858286016128d8565b9150509250929050565b612dd681612946565b82525050565b6000602082019050612df16000830184612dcd565b92915050565b6000606082019050612e0c6000830186612865565b8181036020830152612e1e8185612d32565b9050612e2d6040830184612dcd565b949350505050565b612e3e816128af565b82525050565b6000602082019050612e596000830184612e35565b92915050565b600081519050919050565b600082825260208201905092915050565b6000819050602082019050919050565b600082825260208201905092915050565b6000612ea782612ce3565b612eb18185612e8b565b9350612ec1818560208601612cff565b612eca81612b5e565b840191505092915050565b6000612ee18383612e9c565b905092915050565b6000602082019050919050565b6000612f0182612e5f565b612f0b8185612e6a565b935083602082028501612f1d85612e7b565b8060005b85811015612f595784840389528151612f3a8582612ed5565b9450612f4583612ee9565b925060208a01995050600181019050612f21565b50829750879550505050505092915050565b60006020820190508181036000830152612f858184612ef6565b905092915050565b6000604082019050612fa26000830185612dcd565b612faf6020830184612865565b9392505050565b600081519050612fc581612a04565b92915050565b600060208284031215612fe157612fe06127ca565b5b6000612fef84828501612fb6565b91505092915050565b600060408201905061300d6000830185612e35565b61301a6020830184612dcd565b9392505050565b7f4e487b7100000000000000000000000000000000000000000000000000000000600052603260045260246000fd5b7f4e487b7100000000000000000000000000000000000000000000000000000000600052601160045260246000fd5b600061308a82612946565b91507fffffffffffffffffffffffffffffffffffffffffffffffffffffffffffffffff8214156130bd576130bc613050565b5b600182019050919050565b7f436f7572736520696e6163746976650000000000000000000000000000000000600082015250565b60006130fe600f83612cee565b9150613109826130c8565b602082019050919050565b6000602082019050818103600083015261312d816130f1565b9050919050565b7f416363657373436f6e74726f6c3a2063616e206f6e6c792072656e6f756e636560008201527f20726f6c657320666f722073656c660000000000000000000000000000000000602082015250565b6000613190602f83612cee565b915061319b82613134565b604082019050919050565b600060208201905081810360008301526131bf81613183565b9050919050565b600081905092915050565b60006131dc82612ce3565b6131e681856131c6565b93506131f6818560208601612cff565b80840191505092915050565b600061320e82846131d1565b915081905092915050565b7f4261736520555249207265706561746564000000000000000000000000000000600082015250565b600061324f601183612cee565b915061325a82613219565b602082019050919050565b6000602082019050818103600083015261327e81613242565b9050919050565b7f4e487b7100000000000000000000000000000000000000000000000000000000600052602260045260246000fd5b600060028204905060018216806132cc57607f821691505b602082108114156132e0576132df613285565b5b50919050565b7f5a65726f20616464726573730000000000000000000000000000000000000000600082015250565b600061331c600c83612cee565b9150613327826132e6565b602082019050919050565b6000602082019050818103600083015261334b8161330f565b9050919050565b7f53747564656e7420697320616c72656164792063657274696669656400000000600082015250565b6000613388601c83612cee565b915061339382613352565b602082019050919050565b600060208201905081810360008301526133b78161337b565b9050919050565b60008190508160005260206000209050919050565b600081546133e0816132b4565b6133ea8186612cee565b9450600182166000811461340557600181146134175761344a565b60ff198316865260208601935061344a565b613420856133be565b60005b8381101561344257815481890152600182019150602081019050613423565b808801955050505b50505092915050565b60006040820190506134686000830185612e35565b818103602083015261347a81846133d3565b90509392505050565b600061348e82612946565b915061349983612946565b9250827fffffffffffffffffffffffffffffffffffffffffffffffffffffffffffffffff038211156134ce576134cd613050565b5b828201905092915050565b7f53747564656e74206973206e6f74206365727469666965640000000000000000600082015250565b600061350f601883612cee565b915061351a826134d9565b602082019050919050565b6000602082019050818103600083015261353e81613502565b9050919050565b600061355082612946565b915061355b83612946565b92508282101561356e5761356d613050565b5b828203905092915050565b61358281612859565b811461358d57600080fd5b50565b60008151905061359f81613579565b92915050565b6000602082840312156135bb576135ba6127ca565b5b60006135c984828501613590565b91505092915050565b7f436f6e7472616374206d757374206465726976652066726f6d20455243373231600082015250565b6000613608602083612cee565b9150613613826135d2565b602082019050919050565b60006020820190508181036000830152613637816135fb565b9050919050565b7f53747564656e7420616c72656164792072656769737465726564000000000000600082015250565b6000613674601a83612cee565b915061367f8261363e565b602082019050919050565b600060208201905081810360008301526136a381613667565b9050919050565b7f496e697469616c697a61626c653a20636f6e747261637420697320616c72656160008201527f647920696e697469616c697a6564000000000000000000000000000000000000602082015250565b6000613706602e83612cee565b9150613711826136aa565b604082019050919050565b60006020820190508181036000830152613735816136f9565b9050919050565b6000819050919050565b600060ff82169050919050565b6000819050919050565b600061377861377361376e8461373c565b613753565b613746565b9050919050565b6137888161375d565b82525050565b60006020820190506137a3600083018461377f565b92915050565b6000819050919050565b60006137ce6137c96137c4846137a9565b613753565b612946565b9050919050565b6137de816137b3565b82525050565b60006040820190506137f96000830185612e35565b61380660208301846137d5565b9392505050565b600061382061381b84612bea565b612bcf565b90508281526020810184848401111561383c5761383b612b59565b5b613847848285612cff565b509392505050565b600082601f83011261386457613863612b54565b5b815161387484826020860161380d565b91505092915050565b600060208284031215613893576138926127ca565b5b600082015167ffffffffffffffff8111156138b1576138b06127cf565b5b6138bd8482850161384f565b91505092915050565b7f53747564656e7420686173206e6f206365727469666963617465000000000000600082015250565b60006138fc601a83612cee565b9150613907826138c6565b602082019050919050565b6000602082019050818103600083015261392b816138ef565b9050919050565b7f496e697469616c697a61626c653a20636f6e7472616374206973206e6f74206960008201527f6e697469616c697a696e67000000000000000000000000000000000000000000602082015250565b600061398e602b83612cee565b915061399982613932565b604082019050919050565b600060208201905081810360008301526139bd81613981565b9050919050565b7f416363657373436f6e74726f6c3a206163636f756e7420000000000000000000600082015250565b60006139fa6017836131c6565b9150613a05826139c4565b601782019050919050565b7f206973206d697373696e6720726f6c6520000000000000000000000000000000600082015250565b6000613a466011836131c6565b9150613a5182613a10565b601182019050919050565b6000613a67826139ed565b9150613a7382856131d1565b9150613a7e82613a39565b9150613a8a82846131d1565b91508190509392505050565b7f5061757361626c653a206e6f7420706175736564000000000000000000000000600082015250565b6000613acc601483612cee565b9150613ad782613a96565b602082019050919050565b60006020820190508181036000830152613afb81613abf565b9050919050565b7f5061757361626c653a2070617573656400000000000000000000000000000000600082015250565b6000613b38601083612cee565b9150613b4382613b02565b602082019050919050565b60006020820190508181036000830152613b6781613b2b565b9050919050565b6000613b7982612946565b9150613b8483612946565b9250817fffffffffffffffffffffffffffffffffffffffffffffffffffffffffffffffff0483118215151615613bbd57613bbc613050565b5b828202905092915050565b6000613bd382612946565b91506000821415613be757613be6613050565b5b600182039050919050565b7f537472696e67733a20686578206c656e67746820696e73756666696369656e74600082015250565b6000613c28602083612cee565b9150613c3382613bf2565b602082019050919050565b60006020820190508181036000830152613c5781613c1b565b905091905056fea2646970667358221220c9aa0c6d189c2dbb323da3f8c63a3e04a9edb4a607ae18b6467b2b9123079fca64736f6c63430008090033",
  "devdoc": {
    "kind": "dev",
    "methods": {
      "getRoleAdmin(bytes32)": {
        "details": "Returns the admin role that controls `role`. See {grantRole} and {revokeRole}. To change a role's admin, use {_setRoleAdmin}."
      },
      "grantRole(bytes32,address)": {
        "details": "Grants `role` to `account`. If `account` had not been already granted `role`, emits a {RoleGranted} event. Requirements: - the caller must have ``role``'s admin role. May emit a {RoleGranted} event."
      },
      "hasRole(bytes32,address)": {
        "details": "Returns `true` if `account` has been granted `role`."
      },
      "paused()": {
        "details": "Returns true if the contract is paused, and false otherwise."
      },
      "renounceRole(bytes32,address)": {
        "details": "Revokes `role` from the calling account. Roles are often managed via {grantRole} and {revokeRole}: this function's purpose is to provide a mechanism for accounts to lose their privileges if they are compromised (such as when a trusted device is misplaced). If the calling account had been revoked `role`, emits a {RoleRevoked} event. Requirements: - the caller must be `account`. May emit a {RoleRevoked} event."
      },
      "revokeRole(bytes32,address)": {
        "details": "Revokes `role` from `account`. If `account` had been granted `role`, emits a {RoleRevoked} event. Requirements: - the caller must have ``role``'s admin role. May emit a {RoleRevoked} event."
      },
      "supportsInterface(bytes4)": {
        "details": "See {IERC165-supportsInterface}."
      }
    },
    "version": 1
  },
  "userdoc": {
    "kind": "user",
    "methods": {},
    "version": 1
  },
  "storageLayout": {
    "storage": [
      {
        "astId": 419,
        "contract": "contracts/Institutions.sol:Institutions",
        "label": "_initialized",
        "offset": 0,
        "slot": "0",
        "type": "t_uint8"
      },
      {
        "astId": 422,
        "contract": "contracts/Institutions.sol:Institutions",
        "label": "_initializing",
        "offset": 1,
        "slot": "0",
        "type": "t_bool"
      },
      {
        "astId": 2561,
        "contract": "contracts/Institutions.sol:Institutions",
        "label": "__gap",
        "offset": 0,
        "slot": "1",
        "type": "t_array(t_uint256)50_storage"
      },
      {
        "astId": 584,
        "contract": "contracts/Institutions.sol:Institutions",
        "label": "_paused",
        "offset": 0,
        "slot": "51",
        "type": "t_bool"
      },
      {
        "astId": 689,
        "contract": "contracts/Institutions.sol:Institutions",
        "label": "__gap",
        "offset": 0,
        "slot": "52",
        "type": "t_array(t_uint256)49_storage"
      },
      {
        "astId": 2905,
        "contract": "contracts/Institutions.sol:Institutions",
        "label": "__gap",
        "offset": 0,
        "slot": "101",
        "type": "t_array(t_uint256)50_storage"
      },
      {
        "astId": 39,
        "contract": "contracts/Institutions.sol:Institutions",
        "label": "_roles",
        "offset": 0,
        "slot": "151",
        "type": "t_mapping(t_bytes32,t_struct(RoleData)34_storage)"
      },
      {
        "astId": 338,
        "contract": "contracts/Institutions.sol:Institutions",
        "label": "__gap",
        "offset": 0,
        "slot": "152",
        "type": "t_array(t_uint256)49_storage"
      },
      {
        "astId": 3493,
        "contract": "contracts/Institutions.sol:Institutions",
        "label": "baseURI",
        "offset": 0,
        "slot": "201",
        "type": "t_string_storage"
      },
      {
        "astId": 3495,
        "contract": "contracts/Institutions.sol:Institutions",
        "label": "studentsERC721",
        "offset": 0,
        "slot": "202",
        "type": "t_address"
      },
      {
        "astId": 3507,
        "contract": "contracts/Institutions.sol:Institutions",
        "label": "courses",
        "offset": 0,
        "slot": "203",
        "type": "t_mapping(t_uint256,t_struct(Course)3502_storage)"
      },
      {
        "astId": 3511,
        "contract": "contracts/Institutions.sol:Institutions",
        "label": "baseURIExists",
        "offset": 0,
        "slot": "204",
        "type": "t_mapping(t_string_memory_ptr,t_bool)"
      },
      {
        "astId": 3514,
        "contract": "contracts/Institutions.sol:Institutions",
        "label": "courseCounter",
        "offset": 0,
        "slot": "205",
        "type": "t_struct(Counter)2568_storage"
      },
      {
        "astId": 3526,
        "contract": "contracts/Institutions.sol:Institutions",
        "label": "students",
        "offset": 0,
        "slot": "206",
        "type": "t_mapping(t_uint256,t_mapping(t_address,t_struct(Student)3519_storage))"
      },
      {
        "astId": 3529,
        "contract": "contracts/Institutions.sol:Institutions",
        "label": "studentCounter",
        "offset": 0,
        "slot": "207",
        "type": "t_struct(Counter)2568_storage"
      }
    ],
    "types": {
      "t_address": {
        "encoding": "inplace",
        "label": "address",
        "numberOfBytes": "20"
      },
      "t_array(t_uint256)49_storage": {
        "base": "t_uint256",
        "encoding": "inplace",
        "label": "uint256[49]",
        "numberOfBytes": "1568"
      },
      "t_array(t_uint256)50_storage": {
        "base": "t_uint256",
        "encoding": "inplace",
        "label": "uint256[50]",
        "numberOfBytes": "1600"
      },
      "t_bool": {
        "encoding": "inplace",
        "label": "bool",
        "numberOfBytes": "1"
      },
      "t_bytes32": {
        "encoding": "inplace",
        "label": "bytes32",
        "numberOfBytes": "32"
      },
      "t_mapping(t_address,t_bool)": {
        "encoding": "mapping",
        "key": "t_address",
        "label": "mapping(address => bool)",
        "numberOfBytes": "32",
        "value": "t_bool"
      },
      "t_mapping(t_address,t_struct(Student)3519_storage)": {
        "encoding": "mapping",
        "key": "t_address",
        "label": "mapping(address => struct Institutions.Student)",
        "numberOfBytes": "32",
        "value": "t_struct(Student)3519_storage"
      },
      "t_mapping(t_bytes32,t_struct(RoleData)34_storage)": {
        "encoding": "mapping",
        "key": "t_bytes32",
        "label": "mapping(bytes32 => struct AccessControlUpgradeable.RoleData)",
        "numberOfBytes": "32",
        "value": "t_struct(RoleData)34_storage"
      },
      "t_mapping(t_string_memory_ptr,t_bool)": {
        "encoding": "mapping",
        "key": "t_string_memory_ptr",
        "label": "mapping(string => bool)",
        "numberOfBytes": "32",
        "value": "t_bool"
      },
      "t_mapping(t_uint256,t_mapping(t_address,t_struct(Student)3519_storage))": {
        "encoding": "mapping",
        "key": "t_uint256",
        "label": "mapping(uint256 => mapping(address => struct Institutions.Student))",
        "numberOfBytes": "32",
        "value": "t_mapping(t_address,t_struct(Student)3519_storage)"
      },
      "t_mapping(t_uint256,t_struct(Course)3502_storage)": {
        "encoding": "mapping",
        "key": "t_uint256",
        "label": "mapping(uint256 => struct Institutions.Course)",
        "numberOfBytes": "32",
        "value": "t_struct(Course)3502_storage"
      },
      "t_string_memory_ptr": {
        "encoding": "bytes",
        "label": "string",
        "numberOfBytes": "32"
      },
      "t_string_storage": {
        "encoding": "bytes",
        "label": "string",
        "numberOfBytes": "32"
      },
      "t_struct(Counter)2568_storage": {
        "encoding": "inplace",
        "label": "struct CountersUpgradeable.Counter",
        "members": [
          {
            "astId": 2567,
            "contract": "contracts/Institutions.sol:Institutions",
            "label": "_value",
            "offset": 0,
            "slot": "0",
            "type": "t_uint256"
          }
        ],
        "numberOfBytes": "32"
      },
      "t_struct(Course)3502_storage": {
        "encoding": "inplace",
        "label": "struct Institutions.Course",
        "members": [
          {
            "astId": 3497,
            "contract": "contracts/Institutions.sol:Institutions",
            "label": "isActive",
            "offset": 0,
            "slot": "0",
            "type": "t_bool"
          },
          {
            "astId": 3499,
            "contract": "contracts/Institutions.sol:Institutions",
            "label": "baseURI",
            "offset": 0,
            "slot": "1",
            "type": "t_string_storage"
          },
          {
            "astId": 3501,
            "contract": "contracts/Institutions.sol:Institutions",
            "label": "activeStudentsBalance",
            "offset": 0,
            "slot": "2",
            "type": "t_uint256"
          }
        ],
        "numberOfBytes": "96"
      },
      "t_struct(RoleData)34_storage": {
        "encoding": "inplace",
        "label": "struct AccessControlUpgradeable.RoleData",
        "members": [
          {
            "astId": 31,
            "contract": "contracts/Institutions.sol:Institutions",
            "label": "members",
            "offset": 0,
            "slot": "0",
            "type": "t_mapping(t_address,t_bool)"
          },
          {
            "astId": 33,
            "contract": "contracts/Institutions.sol:Institutions",
            "label": "adminRole",
            "offset": 0,
            "slot": "1",
            "type": "t_bytes32"
          }
        ],
        "numberOfBytes": "64"
      },
      "t_struct(Student)3519_storage": {
        "encoding": "inplace",
        "label": "struct Institutions.Student",
        "members": [
          {
            "astId": 3516,
            "contract": "contracts/Institutions.sol:Institutions",
            "label": "id",
            "offset": 0,
            "slot": "0",
            "type": "t_uint256"
          },
          {
            "astId": 3518,
            "contract": "contracts/Institutions.sol:Institutions",
            "label": "isCertified",
            "offset": 0,
            "slot": "1",
            "type": "t_bool"
          }
        ],
        "numberOfBytes": "64"
      },
      "t_uint256": {
        "encoding": "inplace",
        "label": "uint256",
        "numberOfBytes": "32"
      },
      "t_uint8": {
        "encoding": "inplace",
        "label": "uint8",
        "numberOfBytes": "1"
      }
    }
  }
}