{
  "address": "0x539B576250732D5fCbdf7842C72ECdD06cc4bcD4",
  "abi": [
    {
      "inputs": [],
      "stateMutability": "nonpayable",
      "type": "constructor"
    },
    {
      "anonymous": false,
      "inputs": [
        {
          "indexed": false,
          "internalType": "uint8",
          "name": "version",
          "type": "uint8"
        }
      ],
      "name": "Initialized",
      "type": "event"
    },
    {
      "anonymous": false,
      "inputs": [
        {
          "indexed": false,
          "internalType": "address",
          "name": "account",
          "type": "address"
        }
      ],
      "name": "Paused",
      "type": "event"
    },
    {
      "anonymous": false,
      "inputs": [
        {
          "indexed": true,
          "internalType": "bytes32",
          "name": "role",
          "type": "bytes32"
        },
        {
          "indexed": true,
          "internalType": "bytes32",
          "name": "previousAdminRole",
          "type": "bytes32"
        },
        {
          "indexed": true,
          "internalType": "bytes32",
          "name": "newAdminRole",
          "type": "bytes32"
        }
      ],
      "name": "RoleAdminChanged",
      "type": "event"
    },
    {
      "anonymous": false,
      "inputs": [
        {
          "indexed": true,
          "internalType": "bytes32",
          "name": "role",
          "type": "bytes32"
        },
        {
          "indexed": true,
          "internalType": "address",
          "name": "account",
          "type": "address"
        },
        {
          "indexed": true,
          "internalType": "address",
          "name": "sender",
          "type": "address"
        }
      ],
      "name": "RoleGranted",
      "type": "event"
    },
    {
      "anonymous": false,
      "inputs": [
        {
          "indexed": true,
          "internalType": "bytes32",
          "name": "role",
          "type": "bytes32"
        },
        {
          "indexed": true,
          "internalType": "address",
          "name": "account",
          "type": "address"
        },
        {
          "indexed": true,
          "internalType": "address",
          "name": "sender",
          "type": "address"
        }
      ],
      "name": "RoleRevoked",
      "type": "event"
    },
    {
      "anonymous": false,
      "inputs": [
        {
          "indexed": false,
          "internalType": "address",
          "name": "account",
          "type": "address"
        }
      ],
      "name": "Unpaused",
      "type": "event"
    },
    {
      "inputs": [],
      "name": "DEFAULT_ADMIN_ROLE",
      "outputs": [
        {
          "internalType": "bytes32",
          "name": "",
          "type": "bytes32"
        }
      ],
      "stateMutability": "view",
      "type": "function"
    },
    {
      "inputs": [],
      "name": "INSTITUTIONS_INTERFACE_ID",
      "outputs": [
        {
          "internalType": "bytes4",
          "name": "",
          "type": "bytes4"
        }
      ],
      "stateMutability": "view",
      "type": "function"
    },
    {
      "inputs": [],
      "name": "INTERFACE_ERC721",
      "outputs": [
        {
          "internalType": "bytes4",
          "name": "",
          "type": "bytes4"
        }
      ],
      "stateMutability": "view",
      "type": "function"
    },
    {
      "inputs": [],
      "name": "MINTER_ROLE",
      "outputs": [
        {
          "internalType": "bytes32",
          "name": "",
          "type": "bytes32"
        }
      ],
      "stateMutability": "view",
      "type": "function"
    },
    {
      "inputs": [],
      "name": "PAUSER_ROLE",
      "outputs": [
        {
          "internalType": "bytes32",
          "name": "",
          "type": "bytes32"
        }
      ],
      "stateMutability": "view",
      "type": "function"
    },
    {
      "inputs": [],
      "name": "baseURI",
      "outputs": [
        {
          "internalType": "string",
          "name": "",
          "type": "string"
        }
      ],
      "stateMutability": "view",
      "type": "function"
    },
    {
      "inputs": [
        {
          "internalType": "string",
          "name": "",
          "type": "string"
        }
      ],
      "name": "baseURIExists",
      "outputs": [
        {
          "internalType": "bool",
          "name": "",
          "type": "bool"
        }
      ],
      "stateMutability": "view",
      "type": "function"
    },
    {
      "inputs": [
        {
          "internalType": "uint256",
          "name": "courseId",
          "type": "uint256"
        },
        {
          "internalType": "address",
          "name": "student",
          "type": "address"
        }
      ],
      "name": "certifyStudent",
      "outputs": [],
      "stateMutability": "nonpayable",
      "type": "function"
    },
    {
      "inputs": [],
      "name": "courseCounter",
      "outputs": [
        {
          "internalType": "uint256",
          "name": "_value",
          "type": "uint256"
        }
      ],
      "stateMutability": "view",
      "type": "function"
    },
    {
      "inputs": [
        {
          "internalType": "uint256",
          "name": "",
          "type": "uint256"
        }
      ],
      "name": "courses",
      "outputs": [
        {
          "internalType": "bool",
          "name": "isActive",
          "type": "bool"
        },
        {
          "internalType": "string",
          "name": "baseURI",
          "type": "string"
        },
        {
          "internalType": "uint256",
          "name": "activeStudentsBalance",
          "type": "uint256"
        }
      ],
      "stateMutability": "view",
      "type": "function"
    },
    {
      "inputs": [
        {
          "internalType": "address",
          "name": "student",
          "type": "address"
        }
      ],
      "name": "getAllCertificatesIds",
      "outputs": [
        {
          "internalType": "uint256[]",
          "name": "",
          "type": "uint256[]"
        }
      ],
      "stateMutability": "view",
      "type": "function"
    },
    {
      "inputs": [
        {
          "internalType": "address",
          "name": "student",
          "type": "address"
        }
      ],
      "name": "getAllCertificatesURIs",
      "outputs": [
        {
          "internalType": "string[]",
          "name": "",
          "type": "string[]"
        }
      ],
      "stateMutability": "view",
      "type": "function"
    },
    {
      "inputs": [
        {
          "internalType": "uint256",
          "name": "courseId",
          "type": "uint256"
        },
        {
          "internalType": "address",
          "name": "student",
          "type": "address"
        }
      ],
      "name": "getCertificateId",
      "outputs": [
        {
          "internalType": "uint256",
          "name": "",
          "type": "uint256"
        }
      ],
      "stateMutability": "view",
      "type": "function"
    },
    {
      "inputs": [
        {
          "internalType": "uint256",
          "name": "certificateId",
          "type": "uint256"
        }
      ],
      "name": "getCertificateURI",
      "outputs": [
        {
          "internalType": "string",
          "name": "",
          "type": "string"
        }
      ],
      "stateMutability": "view",
      "type": "function"
    },
    {
      "inputs": [
        {
          "internalType": "uint256",
          "name": "courseId",
          "type": "uint256"
        }
      ],
      "name": "getCourseURI",
      "outputs": [
        {
          "internalType": "string",
          "name": "",
          "type": "string"
        }
      ],
      "stateMutability": "view",
      "type": "function"
    },
    {
      "inputs": [
        {
          "internalType": "bytes32",
          "name": "role",
          "type": "bytes32"
        }
      ],
      "name": "getRoleAdmin",
      "outputs": [
        {
          "internalType": "bytes32",
          "name": "",
          "type": "bytes32"
        }
      ],
      "stateMutability": "view",
      "type": "function"
    },
    {
      "inputs": [
        {
          "internalType": "uint256",
          "name": "courseId",
          "type": "uint256"
        },
        {
          "internalType": "address",
          "name": "student",
          "type": "address"
        }
      ],
      "name": "getStudentCertificate",
      "outputs": [
        {
          "internalType": "uint256",
          "name": "",
          "type": "uint256"
        }
      ],
      "stateMutability": "view",
      "type": "function"
    },
    {
      "inputs": [
        {
          "internalType": "bytes32",
          "name": "role",
          "type": "bytes32"
        },
        {
          "internalType": "address",
          "name": "account",
          "type": "address"
        }
      ],
      "name": "grantRole",
      "outputs": [],
      "stateMutability": "nonpayable",
      "type": "function"
    },
    {
      "inputs": [
        {
          "internalType": "bytes32",
          "name": "role",
          "type": "bytes32"
        },
        {
          "internalType": "address",
          "name": "account",
          "type": "address"
        }
      ],
      "name": "hasRole",
      "outputs": [
        {
          "internalType": "bool",
          "name": "",
          "type": "bool"
        }
      ],
      "stateMutability": "view",
      "type": "function"
    },
    {
      "inputs": [],
      "name": "initialize",
      "outputs": [],
      "stateMutability": "nonpayable",
      "type": "function"
    },
    {
      "inputs": [],
      "name": "pause",
      "outputs": [],
      "stateMutability": "nonpayable",
      "type": "function"
    },
    {
      "inputs": [],
      "name": "paused",
      "outputs": [
        {
          "internalType": "bool",
          "name": "",
          "type": "bool"
        }
      ],
      "stateMutability": "view",
      "type": "function"
    },
    {
      "inputs": [
        {
          "internalType": "string",
          "name": "_baseURI",
          "type": "string"
        }
      ],
      "name": "registerCourse",
      "outputs": [],
      "stateMutability": "nonpayable",
      "type": "function"
    },
    {
      "inputs": [
        {
          "internalType": "uint256",
          "name": "courseId",
          "type": "uint256"
        },
        {
          "internalType": "address",
          "name": "student",
          "type": "address"
        }
      ],
      "name": "registerStudent",
      "outputs": [],
      "stateMutability": "nonpayable",
      "type": "function"
    },
    {
      "inputs": [
        {
          "internalType": "bytes32",
          "name": "role",
          "type": "bytes32"
        },
        {
          "internalType": "address",
          "name": "account",
          "type": "address"
        }
      ],
      "name": "renounceRole",
      "outputs": [],
      "stateMutability": "nonpayable",
      "type": "function"
    },
    {
      "inputs": [
        {
          "internalType": "bytes32",
          "name": "role",
          "type": "bytes32"
        },
        {
          "internalType": "address",
          "name": "account",
          "type": "address"
        }
      ],
      "name": "revokeRole",
      "outputs": [],
      "stateMutability": "nonpayable",
      "type": "function"
    },
    {
      "inputs": [
        {
          "internalType": "address",
          "name": "_studentsERC721",
          "type": "address"
        }
      ],
      "name": "setStudentsERC721",
      "outputs": [],
      "stateMutability": "nonpayable",
      "type": "function"
    },
    {
      "inputs": [],
      "name": "studentCounter",
      "outputs": [
        {
          "internalType": "uint256",
          "name": "_value",
          "type": "uint256"
        }
      ],
      "stateMutability": "view",
      "type": "function"
    },
    {
      "inputs": [
        {
          "internalType": "uint256",
          "name": "",
          "type": "uint256"
        },
        {
          "internalType": "address",
          "name": "",
          "type": "address"
        }
      ],
      "name": "students",
      "outputs": [
        {
          "internalType": "uint256",
          "name": "id",
          "type": "uint256"
        },
        {
          "internalType": "bool",
          "name": "isCertified",
          "type": "bool"
        }
      ],
      "stateMutability": "view",
      "type": "function"
    },
    {
      "inputs": [],
      "name": "studentsERC721",
      "outputs": [
        {
          "internalType": "address",
          "name": "",
          "type": "address"
        }
      ],
      "stateMutability": "view",
      "type": "function"
    },
    {
      "inputs": [
        {
          "internalType": "bytes4",
          "name": "interfaceId",
          "type": "bytes4"
        }
      ],
      "name": "supportsInterface",
      "outputs": [
        {
          "internalType": "bool",
          "name": "",
          "type": "bool"
        }
      ],
      "stateMutability": "view",
      "type": "function"
    },
    {
      "inputs": [],
      "name": "unpause",
      "outputs": [],
      "stateMutability": "nonpayable",
      "type": "function"
    },
    {
      "inputs": [
        {
          "internalType": "uint256",
          "name": "courseId",
          "type": "uint256"
        }
      ],
      "name": "unregisterCourse",
      "outputs": [],
      "stateMutability": "nonpayable",
      "type": "function"
    },
    {
      "inputs": [
        {
          "internalType": "uint256",
          "name": "courseId",
          "type": "uint256"
        },
        {
          "internalType": "address",
          "name": "student",
          "type": "address"
        }
      ],
      "name": "unregisterStudent",
      "outputs": [],
      "stateMutability": "nonpayable",
      "type": "function"
    }
  ],
  "transactionHash": "0x0ee64ad117904d012d780d8f5a66414e8f8fa0e36b3d7e0b17d94433f1c8aa6d",
  "args": [],
  "numDeployments": 3,
  "solcInputHash": "79ab46929e0dd83a066285075fa8b95f",
  "bytecode": "0x608060405234801561001057600080fd5b506140ba806100206000396000f3fe608060405234801561001057600080fd5b50600436106102065760003560e01c80638226c2051161011a578063a217fddf116100ad578063d53913931161007c578063d5391393146105ed578063d547741f1461060b578063e3596cac14610627578063e63ab1e914610645578063fcfedaa51461066357610206565b8063a217fddf1461053f578063b024ebea1461055d578063c1b1b5411461058d578063cb07b616146105bd57610206565b806391d14854116100e957806391d148541461048f57806396f979d2146104bf57806399f7cbeb146104f15780639ddf4b341461050f57610206565b80638226c205146104095780638456cb591461043957806389383aaa146104435780638aabffd41461045f57610206565b80635f6d0a0b1161019d578063772ab3311161016c578063772ab3311461038b5780637a807c7b146103a75780638129fc1c146103c35780638137f970146103cd57806382216fbd146103eb57610206565b80635f6d0a0b146103175780636abbd3f7146103355780636c0360eb1461035157806376f3c50b1461036f57610206565b80632f2ff15d116101d95780632f2ff15d146102b757806336568abe146102d35780633f4ba83a146102ef5780635c975abb146102f957610206565b806301ffc9a71461020b57806305391db61461023b578063233242581461026b578063248a9ca314610287575b600080fd5b61022560048036038101906102209190612b1e565b610694565b6040516102329190612b66565b60405180910390f35b61025560048036038101906102509190612bdf565b6106f5565b6040516102629190612cd4565b60405180910390f35b61028560048036038101906102809190612d22565b61089d565b005b6102a1600480360381019061029c9190612d85565b61095f565b6040516102ae9190612dc1565b60405180910390f35b6102d160048036038101906102cc9190612ddc565b61097f565b005b6102ed60048036038101906102e89190612ddc565b6109a0565b005b6102f7610a23565b005b610301610a58565b60405161030e9190612b66565b60405180910390f35b61031f610a6f565b60405161032c9190612e2b565b60405180910390f35b61034f600480360381019061034a9190612f8c565b610a7a565b005b610359610bb1565b604051610366919061305d565b60405180910390f35b6103896004803603810190610384919061307f565b610c3f565b005b6103a560048036038101906103a0919061307f565b610ebb565b005b6103c160048036038101906103bc9190612bdf565b611028565b005b6103cb611149565b005b6103d56112f0565b6040516103e29190612e2b565b60405180910390f35b6103f36112fb565b60405161040091906130ce565b60405180910390f35b610423600480360381019061041e919061307f565b611307565b60405161043091906130ce565b60405180910390f35b6104416114d5565b005b61045d6004803603810190610458919061307f565b61150a565b005b61047960048036038101906104749190612d22565b61185a565b604051610486919061305d565b60405180910390f35b6104a960048036038101906104a49190612ddc565b611913565b6040516104b69190612b66565b60405180910390f35b6104d960048036038101906104d49190612d22565b61197e565b6040516104e8939291906130e9565b60405180910390f35b6104f9611a3d565b6040516105069190613136565b60405180910390f35b61052960048036038101906105249190612d22565b611a63565b604051610536919061305d565b60405180910390f35b610547611b0b565b6040516105549190612dc1565b60405180910390f35b61057760048036038101906105729190612bdf565b611b12565b604051610584919061325d565b60405180910390f35b6105a760048036038101906105a29190612f8c565b611c35565b6040516105b49190612b66565b60405180910390f35b6105d760048036038101906105d2919061307f565b611c6b565b6040516105e491906130ce565b60405180910390f35b6105f5611f52565b6040516106029190612dc1565b60405180910390f35b61062560048036038101906106209190612ddc565b611f76565b005b61062f611f97565b60405161063c91906130ce565b60405180910390f35b61064d611fa3565b60405161065a9190612dc1565b60405180910390f35b61067d6004803603810190610678919061307f565b611fc7565b60405161068b92919061327f565b60405180910390f35b600061069f82612005565b806106ee575063494e535460e01b7bffffffffffffffffffffffffffffffffffffffffffffffffffffffff1916827bffffffffffffffffffffffffffffffffffffffffffffffffffffffff1916145b9050919050565b6060600060ca60009054906101000a900473ffffffffffffffffffffffffffffffffffffffff1673ffffffffffffffffffffffffffffffffffffffff166370a08231846040518263ffffffff1660e01b81526004016107549190613136565b60206040518083038186803b15801561076c57600080fd5b505afa158015610780573d6000803e3d6000fd5b505050506040513d601f19601f820116820180604052508101906107a491906132bd565b9050606060005b828110156108925760ca60009054906101000a900473ffffffffffffffffffffffffffffffffffffffff1673ffffffffffffffffffffffffffffffffffffffff16632f745c5986836040518363ffffffff1660e01b81526004016108109291906132ea565b60206040518083038186803b15801561082857600080fd5b505afa15801561083c573d6000803e3d6000fd5b505050506040513d601f19601f8201168201806040525081019061086091906132bd565b82828151811061087357610872613313565b5b602002602001018181525050808061088a90613371565b9150506107ab565b508092505050919050565b7f9f2df0fed2c77648de5860a4cc508cd0818c85b8b8a1ab4ceeef8d981c8956a66108c78161207f565b8160cb600082815260200190815260200160002060000160009054906101000a900460ff1661092b576040517f08c379a000000000000000000000000000000000000000000000000000000000815260040161092290613406565b60405180910390fd5b600060cb600085815260200190815260200160002060000160006101000a81548160ff021916908315150217905550505050565b600060976000838152602001908152602001600020600101549050919050565b6109888261095f565b6109918161207f565b61099b8383612093565b505050565b6109a8612174565b73ffffffffffffffffffffffffffffffffffffffff168173ffffffffffffffffffffffffffffffffffffffff1614610a15576040517f08c379a0000000000000000000000000000000000000000000000000000000008152600401610a0c90613498565b60405180910390fd5b610a1f828261217c565b5050565b7f65d7a28e3265b37a6474929f336521b332c1681b933f6cb9f3376673440d862a610a4d8161207f565b610a5561225e565b50565b6000603360009054906101000a900460ff16905090565b63494e535460e01b81565b7f9f2df0fed2c77648de5860a4cc508cd0818c85b8b8a1ab4ceeef8d981c8956a6610aa48161207f565b8160cc81604051610ab591906134f4565b908152602001604051809103902060009054906101000a900460ff1615610b11576040517f08c379a0000000000000000000000000000000000000000000000000000000008152600401610b0890613557565b60405180910390fd5b600060cb6000610b2160cd6122c1565b815260200190815260200160002060020181905550600160cb6000610b4660cd6122c1565b815260200190815260200160002060000160006101000a81548160ff0219169083151502179055508260cb6000610b7d60cd6122c1565b81526020019081526020016000206001019080519060200190610ba1929190612a0f565b50610bac60cd6122cf565b505050565b60c98054610bbe906135a6565b80601f0160208091040260200160405190810160405280929190818152602001828054610bea906135a6565b8015610c375780601f10610c0c57610100808354040283529160200191610c37565b820191906000526020600020905b815481529060010190602001808311610c1a57829003601f168201915b505050505081565b80600073ffffffffffffffffffffffffffffffffffffffff168173ffffffffffffffffffffffffffffffffffffffff161415610cb0576040517f08c379a0000000000000000000000000000000000000000000000000000000008152600401610ca790613624565b60405180910390fd5b8260cb600082815260200190815260200160002060000160009054906101000a900460ff16610d14576040517f08c379a0000000000000000000000000000000000000000000000000000000008152600401610d0b90613406565b60405180910390fd5b838360ce600083815260200190815260200160002060008273ffffffffffffffffffffffffffffffffffffffff1673ffffffffffffffffffffffffffffffffffffffff16815260200190815260200160002060010160009054906101000a900460ff16610db6576040517f08c379a0000000000000000000000000000000000000000000000000000000008152600401610dad90613690565b60405180910390fd5b7f9f2df0fed2c77648de5860a4cc508cd0818c85b8b8a1ab4ceeef8d981c8956a6610de08161207f565b60ca60009054906101000a900473ffffffffffffffffffffffffffffffffffffffff1673ffffffffffffffffffffffffffffffffffffffff1663d204c45e8760cb60008b81526020019081526020016000206001016040518363ffffffff1660e01b8152600401610e52929190613745565b600060405180830381600087803b158015610e6c57600080fd5b505af1158015610e80573d6000803e3d6000fd5b50505050600160cb60008981526020019081526020016000206002016000828254610eab9190613775565b9250508190555050505050505050565b7f9f2df0fed2c77648de5860a4cc508cd0818c85b8b8a1ab4ceeef8d981c8956a6610ee58161207f565b828260ce600083815260200190815260200160002060008273ffffffffffffffffffffffffffffffffffffffff1673ffffffffffffffffffffffffffffffffffffffff16815260200190815260200160002060010160009054906101000a900460ff16610f87576040517f08c379a0000000000000000000000000000000000000000000000000000000008152600401610f7e90613817565b60405180910390fd5b600060ce600087815260200190815260200160002060008673ffffffffffffffffffffffffffffffffffffffff1673ffffffffffffffffffffffffffffffffffffffff16815260200190815260200160002060010160006101000a81548160ff021916908315150217905550600160cb6000878152602001908152602001600020600201600082825461101a9190613837565b925050819055505050505050565b6000801b6110358161207f565b8173ffffffffffffffffffffffffffffffffffffffff166301ffc9a76380ac58cd60e01b6040518263ffffffff1660e01b81526004016110759190612e2b565b60206040518083038186803b15801561108d57600080fd5b505afa1580156110a1573d6000803e3d6000fd5b505050506040513d601f19601f820116820180604052508101906110c59190613897565b611104576040517f08c379a00000000000000000000000000000000000000000000000000000000081526004016110fb90613910565b60405180910390fd5b8160ca60006101000a81548173ffffffffffffffffffffffffffffffffffffffff021916908373ffffffffffffffffffffffffffffffffffffffff1602179055505050565b60008060019054906101000a900460ff1615905080801561117a5750600160008054906101000a900460ff1660ff16105b806111a75750611189306122e5565b1580156111a65750600160008054906101000a900460ff1660ff16145b5b6111e6576040517f08c379a00000000000000000000000000000000000000000000000000000000081526004016111dd906139a2565b60405180910390fd5b60016000806101000a81548160ff021916908360ff1602179055508015611223576001600060016101000a81548160ff0219169083151502179055505b61122b612308565b611233612361565b6112406000801b33612093565b61126a7f65d7a28e3265b37a6474929f336521b332c1681b933f6cb9f3376673440d862a33612093565b6112947f9f2df0fed2c77648de5860a4cc508cd0818c85b8b8a1ab4ceeef8d981c8956a633612093565b80156112ed5760008060016101000a81548160ff0219169083151502179055507f7f26b83ff96e1f2b6a682f133852f6798a09c465da95921460cefb384740249860016040516112e49190613a14565b60405180910390a15b50565b6380ac58cd60e01b81565b60cd8060000154905081565b600081600073ffffffffffffffffffffffffffffffffffffffff168173ffffffffffffffffffffffffffffffffffffffff16141561137a576040517f08c379a000000000000000000000000000000000000000000000000000000000815260040161137190613624565b60405180910390fd5b838360ce600083815260200190815260200160002060008273ffffffffffffffffffffffffffffffffffffffff1673ffffffffffffffffffffffffffffffffffffffff16815260200190815260200160002060010160009054906101000a900460ff1661141c576040517f08c379a000000000000000000000000000000000000000000000000000000000815260040161141390613817565b60405180910390fd5b60ca60009054906101000a900473ffffffffffffffffffffffffffffffffffffffff1673ffffffffffffffffffffffffffffffffffffffff16632f745c598660006040518363ffffffff1660e01b815260040161147a929190613a6a565b60206040518083038186803b15801561149257600080fd5b505afa1580156114a6573d6000803e3d6000fd5b505050506040513d601f19601f820116820180604052508101906114ca91906132bd565b935050505092915050565b7f65d7a28e3265b37a6474929f336521b332c1681b933f6cb9f3376673440d862a6114ff8161207f565b6115076123b2565b50565b7f9f2df0fed2c77648de5860a4cc508cd0818c85b8b8a1ab4ceeef8d981c8956a66115348161207f565b8260cb600082815260200190815260200160002060000160009054906101000a900460ff16611598576040517f08c379a000000000000000000000000000000000000000000000000000000000815260040161158f90613406565b60405180910390fd5b838360ce600083815260200190815260200160002060008273ffffffffffffffffffffffffffffffffffffffff1673ffffffffffffffffffffffffffffffffffffffff16815260200190815260200160002060010160009054906101000a900460ff1661163a576040517f08c379a000000000000000000000000000000000000000000000000000000000815260040161163190613690565b60405180910390fd5b84600073ffffffffffffffffffffffffffffffffffffffff168173ffffffffffffffffffffffffffffffffffffffff1614156116ab576040517f08c379a00000000000000000000000000000000000000000000000000000000081526004016116a290613624565b60405180910390fd5b60ce600088815260200190815260200160002060008773ffffffffffffffffffffffffffffffffffffffff1673ffffffffffffffffffffffffffffffffffffffff16815260200190815260200160002060010160009054906101000a900460ff161561174c576040517f08c379a000000000000000000000000000000000000000000000000000000000815260040161174390613adf565b60405180910390fd5b61175660cf6122c1565b60ce600089815260200190815260200160002060008873ffffffffffffffffffffffffffffffffffffffff1673ffffffffffffffffffffffffffffffffffffffff16815260200190815260200160002060000181905550600160ce600089815260200190815260200160002060008873ffffffffffffffffffffffffffffffffffffffff1673ffffffffffffffffffffffffffffffffffffffff16815260200190815260200160002060010160006101000a81548160ff02191690831515021790555061182360cf6122cf565b600160cb6000898152602001908152602001600020600201600082825461184a9190613775565b9250508190555050505050505050565b606060ca60009054906101000a900473ffffffffffffffffffffffffffffffffffffffff1673ffffffffffffffffffffffffffffffffffffffff1663c87b56dd836040518263ffffffff1660e01b81526004016118b791906130ce565b60006040518083038186803b1580156118cf57600080fd5b505afa1580156118e3573d6000803e3d6000fd5b505050506040513d6000823e3d601f19601f8201168201806040525081019061190c9190613b6f565b9050919050565b60006097600084815260200190815260200160002060000160008373ffffffffffffffffffffffffffffffffffffffff1673ffffffffffffffffffffffffffffffffffffffff16815260200190815260200160002060009054906101000a900460ff16905092915050565b60cb6020528060005260406000206000915090508060000160009054906101000a900460ff16908060010180546119b4906135a6565b80601f01602080910402602001604051908101604052809291908181526020018280546119e0906135a6565b8015611a2d5780601f10611a0257610100808354040283529160200191611a2d565b820191906000526020600020905b815481529060010190602001808311611a1057829003601f168201915b5050505050908060020154905083565b60ca60009054906101000a900473ffffffffffffffffffffffffffffffffffffffff1681565b606060cb60008381526020019081526020016000206001018054611a86906135a6565b80601f0160208091040260200160405190810160405280929190818152602001828054611ab2906135a6565b8015611aff5780601f10611ad457610100808354040283529160200191611aff565b820191906000526020600020905b815481529060010190602001808311611ae257829003601f168201915b50505050509050919050565b6000801b81565b60606000611b1f836106f5565b9050606060005b8251811015611c2a5760ca60009054906101000a900473ffffffffffffffffffffffffffffffffffffffff1673ffffffffffffffffffffffffffffffffffffffff1663c87b56dd848381518110611b8057611b7f613313565b5b60200260200101516040518263ffffffff1660e01b8152600401611ba491906130ce565b60006040518083038186803b158015611bbc57600080fd5b505afa158015611bd0573d6000803e3d6000fd5b505050506040513d6000823e3d601f19601f82011682018060405250810190611bf99190613b6f565b828281518110611c0c57611c0b613313565b5b60200260200101819052508080611c2290613371565b915050611b26565b508092505050919050565b60cc818051602081018201805184825260208301602085012081835280955050505050506000915054906101000a900460ff1681565b60008060ca60009054906101000a900473ffffffffffffffffffffffffffffffffffffffff1673ffffffffffffffffffffffffffffffffffffffff166370a08231846040518263ffffffff1660e01b8152600401611cc99190613136565b60206040518083038186803b158015611ce157600080fd5b505afa158015611cf5573d6000803e3d6000fd5b505050506040513d601f19601f82011682018060405250810190611d1991906132bd565b905060005b81811015611f1057600060ca60009054906101000a900473ffffffffffffffffffffffffffffffffffffffff1673ffffffffffffffffffffffffffffffffffffffff16632f745c5986846040518363ffffffff1660e01b8152600401611d859291906132ea565b60206040518083038186803b158015611d9d57600080fd5b505afa158015611db1573d6000803e3d6000fd5b505050506040513d601f19601f82011682018060405250810190611dd591906132bd565b9050600060ca60009054906101000a900473ffffffffffffffffffffffffffffffffffffffff1673ffffffffffffffffffffffffffffffffffffffff1663c87b56dd836040518263ffffffff1660e01b8152600401611e3491906130ce565b60006040518083038186803b158015611e4c57600080fd5b505afa158015611e60573d6000803e3d6000fd5b505050506040513d6000823e3d601f19601f82011682018060405250810190611e899190613b6f565b90506000611e978884612415565b905081604051602001611eaa91906134f4565b6040516020818303038152906040528051906020012081604051602001611ed191906134f4565b604051602081830303815290604052805190602001201415611efa578295505050505050611f4c565b5050508080611f0890613371565b915050611d1e565b506040517f08c379a0000000000000000000000000000000000000000000000000000000008152600401611f4390613c04565b60405180910390fd5b92915050565b7f9f2df0fed2c77648de5860a4cc508cd0818c85b8b8a1ab4ceeef8d981c8956a681565b611f7f8261095f565b611f888161207f565b611f92838361217c565b505050565b60cf8060000154905081565b7f65d7a28e3265b37a6474929f336521b332c1681b933f6cb9f3376673440d862a81565b60ce602052816000526040600020602052806000526040600020600091509150508060000154908060010160009054906101000a900460ff16905082565b60007f7965db0b000000000000000000000000000000000000000000000000000000007bffffffffffffffffffffffffffffffffffffffffffffffffffffffff1916827bffffffffffffffffffffffffffffffffffffffffffffffffffffffff1916148061207857506120778261246c565b5b9050919050565b6120908161208b612174565b6124d6565b50565b61209d8282611913565b6121705760016097600084815260200190815260200160002060000160008373ffffffffffffffffffffffffffffffffffffffff1673ffffffffffffffffffffffffffffffffffffffff16815260200190815260200160002060006101000a81548160ff021916908315150217905550612115612174565b73ffffffffffffffffffffffffffffffffffffffff168173ffffffffffffffffffffffffffffffffffffffff16837f2f8788117e7eff1d82e926ec794901d17c78024a50270940304540a733656f0d60405160405180910390a45b5050565b600033905090565b6121868282611913565b1561225a5760006097600084815260200190815260200160002060000160008373ffffffffffffffffffffffffffffffffffffffff1673ffffffffffffffffffffffffffffffffffffffff16815260200190815260200160002060006101000a81548160ff0219169083151502179055506121ff612174565b73ffffffffffffffffffffffffffffffffffffffff168173ffffffffffffffffffffffffffffffffffffffff16837ff6391f5c32d9c69d2a47ea670b442974b53935d1edc7fd64eb21e047a839171b60405160405180910390a45b5050565b612266612573565b6000603360006101000a81548160ff0219169083151502179055507f5db9ee0a495bf2e6ff9c91a7834c1ba4fdd244a5e8aa4e537bd38aeae4b073aa6122aa612174565b6040516122b79190613136565b60405180910390a1565b600081600001549050919050565b6001816000016000828254019250508190555050565b6000808273ffffffffffffffffffffffffffffffffffffffff163b119050919050565b600060019054906101000a900460ff16612357576040517f08c379a000000000000000000000000000000000000000000000000000000000815260040161234e90613c96565b60405180910390fd5b61235f6125bc565b565b600060019054906101000a900460ff166123b0576040517f08c379a00000000000000000000000000000000000000000000000000000000081526004016123a790613c96565b60405180910390fd5b565b6123ba612628565b6001603360006101000a81548160ff0219169083151502179055507f62e78cea01bee320cd4e420270b5ea74000d11b0c9f74754ebdbfc544b05a2586123fe612174565b60405161240b9190613136565b60405180910390a1565b60606000801b6124248161207f565b60cb600085815260200190815260200160002060010161244384612672565b604051602001612454929190613d35565b60405160208183030381529060405291505092915050565b60007f01ffc9a7000000000000000000000000000000000000000000000000000000007bffffffffffffffffffffffffffffffffffffffffffffffffffffffff1916827bffffffffffffffffffffffffffffffffffffffffffffffffffffffff1916149050919050565b6124e08282611913565b61256f576125058173ffffffffffffffffffffffffffffffffffffffff1660146127d3565b6125138360001c60206127d3565b604051602001612524929190613df1565b6040516020818303038152906040526040517f08c379a0000000000000000000000000000000000000000000000000000000008152600401612566919061305d565b60405180910390fd5b5050565b61257b610a58565b6125ba576040517f08c379a00000000000000000000000000000000000000000000000000000000081526004016125b190613e77565b60405180910390fd5b565b600060019054906101000a900460ff1661260b576040517f08c379a000000000000000000000000000000000000000000000000000000000815260040161260290613c96565b60405180910390fd5b6000603360006101000a81548160ff021916908315150217905550565b612630610a58565b15612670576040517f08c379a000000000000000000000000000000000000000000000000000000000815260040161266790613ee3565b60405180910390fd5b565b606060008214156126ba576040518060400160405280600181526020017f300000000000000000000000000000000000000000000000000000000000000081525090506127ce565b600082905060005b600082146126ec5780806126d590613371565b915050600a826126e59190613f32565b91506126c2565b60008167ffffffffffffffff81111561270857612707612e61565b5b6040519080825280601f01601f19166020018201604052801561273a5781602001600182028036833780820191505090505b5090505b600085146127c7576001826127539190613837565b9150600a856127629190613f63565b603061276e9190613775565b60f81b81838151811061278457612783613313565b5b60200101907effffffffffffffffffffffffffffffffffffffffffffffffffffffffffffff1916908160001a905350600a856127c09190613f32565b945061273e565b8093505050505b919050565b6060600060028360026127e69190613f94565b6127f09190613775565b67ffffffffffffffff81111561280957612808612e61565b5b6040519080825280601f01601f19166020018201604052801561283b5781602001600182028036833780820191505090505b5090507f30000000000000000000000000000000000000000000000000000000000000008160008151811061287357612872613313565b5b60200101907effffffffffffffffffffffffffffffffffffffffffffffffffffffffffffff1916908160001a9053507f7800000000000000000000000000000000000000000000000000000000000000816001815181106128d7576128d6613313565b5b60200101907effffffffffffffffffffffffffffffffffffffffffffffffffffffffffffff1916908160001a905350600060018460026129179190613f94565b6129219190613775565b90505b60018111156129c1577f3031323334353637383961626364656600000000000000000000000000000000600f86166010811061296357612962613313565b5b1a60f81b82828151811061297a57612979613313565b5b60200101907effffffffffffffffffffffffffffffffffffffffffffffffffffffffffffff1916908160001a905350600485901c9450806129ba90613fee565b9050612924565b5060008414612a05576040517f08c379a00000000000000000000000000000000000000000000000000000000081526004016129fc90614064565b60405180910390fd5b8091505092915050565b828054612a1b906135a6565b90600052602060002090601f016020900481019282612a3d5760008555612a84565b82601f10612a5657805160ff1916838001178555612a84565b82800160010185558215612a84579182015b82811115612a83578251825591602001919060010190612a68565b5b509050612a919190612a95565b5090565b5b80821115612aae576000816000905550600101612a96565b5090565b6000604051905090565b600080fd5b600080fd5b60007fffffffff0000000000000000000000000000000000000000000000000000000082169050919050565b612afb81612ac6565b8114612b0657600080fd5b50565b600081359050612b1881612af2565b92915050565b600060208284031215612b3457612b33612abc565b5b6000612b4284828501612b09565b91505092915050565b60008115159050919050565b612b6081612b4b565b82525050565b6000602082019050612b7b6000830184612b57565b92915050565b600073ffffffffffffffffffffffffffffffffffffffff82169050919050565b6000612bac82612b81565b9050919050565b612bbc81612ba1565b8114612bc757600080fd5b50565b600081359050612bd981612bb3565b92915050565b600060208284031215612bf557612bf4612abc565b5b6000612c0384828501612bca565b91505092915050565b600081519050919050565b600082825260208201905092915050565b6000819050602082019050919050565b6000819050919050565b612c4b81612c38565b82525050565b6000612c5d8383612c42565b60208301905092915050565b6000602082019050919050565b6000612c8182612c0c565b612c8b8185612c17565b9350612c9683612c28565b8060005b83811015612cc7578151612cae8882612c51565b9750612cb983612c69565b925050600181019050612c9a565b5085935050505092915050565b60006020820190508181036000830152612cee8184612c76565b905092915050565b612cff81612c38565b8114612d0a57600080fd5b50565b600081359050612d1c81612cf6565b92915050565b600060208284031215612d3857612d37612abc565b5b6000612d4684828501612d0d565b91505092915050565b6000819050919050565b612d6281612d4f565b8114612d6d57600080fd5b50565b600081359050612d7f81612d59565b92915050565b600060208284031215612d9b57612d9a612abc565b5b6000612da984828501612d70565b91505092915050565b612dbb81612d4f565b82525050565b6000602082019050612dd66000830184612db2565b92915050565b60008060408385031215612df357612df2612abc565b5b6000612e0185828601612d70565b9250506020612e1285828601612bca565b9150509250929050565b612e2581612ac6565b82525050565b6000602082019050612e406000830184612e1c565b92915050565b600080fd5b600080fd5b6000601f19601f8301169050919050565b7f4e487b7100000000000000000000000000000000000000000000000000000000600052604160045260246000fd5b612e9982612e50565b810181811067ffffffffffffffff82111715612eb857612eb7612e61565b5b80604052505050565b6000612ecb612ab2565b9050612ed78282612e90565b919050565b600067ffffffffffffffff821115612ef757612ef6612e61565b5b612f0082612e50565b9050602081019050919050565b82818337600083830152505050565b6000612f2f612f2a84612edc565b612ec1565b905082815260208101848484011115612f4b57612f4a612e4b565b5b612f56848285612f0d565b509392505050565b600082601f830112612f7357612f72612e46565b5b8135612f83848260208601612f1c565b91505092915050565b600060208284031215612fa257612fa1612abc565b5b600082013567ffffffffffffffff811115612fc057612fbf612ac1565b5b612fcc84828501612f5e565b91505092915050565b600081519050919050565b600082825260208201905092915050565b60005b8381101561300f578082015181840152602081019050612ff4565b8381111561301e576000848401525b50505050565b600061302f82612fd5565b6130398185612fe0565b9350613049818560208601612ff1565b61305281612e50565b840191505092915050565b600060208201905081810360008301526130778184613024565b905092915050565b6000806040838503121561309657613095612abc565b5b60006130a485828601612d0d565b92505060206130b585828601612bca565b9150509250929050565b6130c881612c38565b82525050565b60006020820190506130e360008301846130bf565b92915050565b60006060820190506130fe6000830186612b57565b81810360208301526131108185613024565b905061311f60408301846130bf565b949350505050565b61313081612ba1565b82525050565b600060208201905061314b6000830184613127565b92915050565b600081519050919050565b600082825260208201905092915050565b6000819050602082019050919050565b600082825260208201905092915050565b600061319982612fd5565b6131a3818561317d565b93506131b3818560208601612ff1565b6131bc81612e50565b840191505092915050565b60006131d3838361318e565b905092915050565b6000602082019050919050565b60006131f382613151565b6131fd818561315c565b93508360208202850161320f8561316d565b8060005b8581101561324b578484038952815161322c85826131c7565b9450613237836131db565b925060208a01995050600181019050613213565b50829750879550505050505092915050565b6000602082019050818103600083015261327781846131e8565b905092915050565b600060408201905061329460008301856130bf565b6132a16020830184612b57565b9392505050565b6000815190506132b781612cf6565b92915050565b6000602082840312156132d3576132d2612abc565b5b60006132e1848285016132a8565b91505092915050565b60006040820190506132ff6000830185613127565b61330c60208301846130bf565b9392505050565b7f4e487b7100000000000000000000000000000000000000000000000000000000600052603260045260246000fd5b7f4e487b7100000000000000000000000000000000000000000000000000000000600052601160045260246000fd5b600061337c82612c38565b91507fffffffffffffffffffffffffffffffffffffffffffffffffffffffffffffffff8214156133af576133ae613342565b5b600182019050919050565b7f436f7572736520696e6163746976650000000000000000000000000000000000600082015250565b60006133f0600f83612fe0565b91506133fb826133ba565b602082019050919050565b6000602082019050818103600083015261341f816133e3565b9050919050565b7f416363657373436f6e74726f6c3a2063616e206f6e6c792072656e6f756e636560008201527f20726f6c657320666f722073656c660000000000000000000000000000000000602082015250565b6000613482602f83612fe0565b915061348d82613426565b604082019050919050565b600060208201905081810360008301526134b181613475565b9050919050565b600081905092915050565b60006134ce82612fd5565b6134d881856134b8565b93506134e8818560208601612ff1565b80840191505092915050565b600061350082846134c3565b915081905092915050565b7f4261736520555249207265706561746564000000000000000000000000000000600082015250565b6000613541601183612fe0565b915061354c8261350b565b602082019050919050565b6000602082019050818103600083015261357081613534565b9050919050565b7f4e487b7100000000000000000000000000000000000000000000000000000000600052602260045260246000fd5b600060028204905060018216806135be57607f821691505b602082108114156135d2576135d1613577565b5b50919050565b7f5a65726f20616464726573730000000000000000000000000000000000000000600082015250565b600061360e600c83612fe0565b9150613619826135d8565b602082019050919050565b6000602082019050818103600083015261363d81613601565b9050919050565b7f53747564656e7420697320616c72656164792063657274696669656400000000600082015250565b600061367a601c83612fe0565b915061368582613644565b602082019050919050565b600060208201905081810360008301526136a98161366d565b9050919050565b60008190508160005260206000209050919050565b600081546136d2816135a6565b6136dc8186612fe0565b945060018216600081146136f757600181146137095761373c565b60ff198316865260208601935061373c565b613712856136b0565b60005b8381101561373457815481890152600182019150602081019050613715565b808801955050505b50505092915050565b600060408201905061375a6000830185613127565b818103602083015261376c81846136c5565b90509392505050565b600061378082612c38565b915061378b83612c38565b9250827fffffffffffffffffffffffffffffffffffffffffffffffffffffffffffffffff038211156137c0576137bf613342565b5b828201905092915050565b7f53747564656e74206973206e6f74206365727469666965640000000000000000600082015250565b6000613801601883612fe0565b915061380c826137cb565b602082019050919050565b60006020820190508181036000830152613830816137f4565b9050919050565b600061384282612c38565b915061384d83612c38565b9250828210156138605761385f613342565b5b828203905092915050565b61387481612b4b565b811461387f57600080fd5b50565b6000815190506138918161386b565b92915050565b6000602082840312156138ad576138ac612abc565b5b60006138bb84828501613882565b91505092915050565b7f436f6e7472616374206d757374206465726976652066726f6d20455243373231600082015250565b60006138fa602083612fe0565b9150613905826138c4565b602082019050919050565b60006020820190508181036000830152613929816138ed565b9050919050565b7f496e697469616c697a61626c653a20636f6e747261637420697320616c72656160008201527f647920696e697469616c697a6564000000000000000000000000000000000000602082015250565b600061398c602e83612fe0565b915061399782613930565b604082019050919050565b600060208201905081810360008301526139bb8161397f565b9050919050565b6000819050919050565b600060ff82169050919050565b6000819050919050565b60006139fe6139f96139f4846139c2565b6139d9565b6139cc565b9050919050565b613a0e816139e3565b82525050565b6000602082019050613a296000830184613a05565b92915050565b6000819050919050565b6000613a54613a4f613a4a84613a2f565b6139d9565b612c38565b9050919050565b613a6481613a39565b82525050565b6000604082019050613a7f6000830185613127565b613a8c6020830184613a5b565b9392505050565b7f53747564656e7420616c72656164792072656769737465726564000000000000600082015250565b6000613ac9601a83612fe0565b9150613ad482613a93565b602082019050919050565b60006020820190508181036000830152613af881613abc565b9050919050565b6000613b12613b0d84612edc565b612ec1565b905082815260208101848484011115613b2e57613b2d612e4b565b5b613b39848285612ff1565b509392505050565b600082601f830112613b5657613b55612e46565b5b8151613b66848260208601613aff565b91505092915050565b600060208284031215613b8557613b84612abc565b5b600082015167ffffffffffffffff811115613ba357613ba2612ac1565b5b613baf84828501613b41565b91505092915050565b7f53747564656e7420686173206e6f206365727469666963617465000000000000600082015250565b6000613bee601a83612fe0565b9150613bf982613bb8565b602082019050919050565b60006020820190508181036000830152613c1d81613be1565b9050919050565b7f496e697469616c697a61626c653a20636f6e7472616374206973206e6f74206960008201527f6e697469616c697a696e67000000000000000000000000000000000000000000602082015250565b6000613c80602b83612fe0565b9150613c8b82613c24565b604082019050919050565b60006020820190508181036000830152613caf81613c73565b9050919050565b60008154613cc3816135a6565b613ccd81866134b8565b94506001821660008114613ce85760018114613cf957613d2c565b60ff19831686528186019350613d2c565b613d02856136b0565b60005b83811015613d2457815481890152600182019150602081019050613d05565b838801955050505b50505092915050565b6000613d418285613cb6565b9150613d4d82846134c3565b91508190509392505050565b7f416363657373436f6e74726f6c3a206163636f756e7420000000000000000000600082015250565b6000613d8f6017836134b8565b9150613d9a82613d59565b601782019050919050565b7f206973206d697373696e6720726f6c6520000000000000000000000000000000600082015250565b6000613ddb6011836134b8565b9150613de682613da5565b601182019050919050565b6000613dfc82613d82565b9150613e0882856134c3565b9150613e1382613dce565b9150613e1f82846134c3565b91508190509392505050565b7f5061757361626c653a206e6f7420706175736564000000000000000000000000600082015250565b6000613e61601483612fe0565b9150613e6c82613e2b565b602082019050919050565b60006020820190508181036000830152613e9081613e54565b9050919050565b7f5061757361626c653a2070617573656400000000000000000000000000000000600082015250565b6000613ecd601083612fe0565b9150613ed882613e97565b602082019050919050565b60006020820190508181036000830152613efc81613ec0565b9050919050565b7f4e487b7100000000000000000000000000000000000000000000000000000000600052601260045260246000fd5b6000613f3d82612c38565b9150613f4883612c38565b925082613f5857613f57613f03565b5b828204905092915050565b6000613f6e82612c38565b9150613f7983612c38565b925082613f8957613f88613f03565b5b828206905092915050565b6000613f9f82612c38565b9150613faa83612c38565b9250817fffffffffffffffffffffffffffffffffffffffffffffffffffffffffffffffff0483118215151615613fe357613fe2613342565b5b828202905092915050565b6000613ff982612c38565b9150600082141561400d5761400c613342565b5b600182039050919050565b7f537472696e67733a20686578206c656e67746820696e73756666696369656e74600082015250565b600061404e602083612fe0565b915061405982614018565b602082019050919050565b6000602082019050818103600083015261407d81614041565b905091905056fea264697066735822122006dd33e29e5ef8824c7ddfb4db4c15cdf351709931cdfc0dacaad0cc6b3baee864736f6c63430008090033",
  "devdoc": {
    "kind": "dev",
    "methods": {
      "getRoleAdmin(bytes32)": {
        "details": "Returns the admin role that controls `role`. See {grantRole} and {revokeRole}. To change a role's admin, use {_setRoleAdmin}."
      },
      "grantRole(bytes32,address)": {
        "details": "Grants `role` to `account`. If `account` had not been already granted `role`, emits a {RoleGranted} event. Requirements: - the caller must have ``role``'s admin role. May emit a {RoleGranted} event."
      },
      "hasRole(bytes32,address)": {
        "details": "Returns `true` if `account` has been granted `role`."
      },
      "paused()": {
        "details": "Returns true if the contract is paused, and false otherwise."
      },
      "renounceRole(bytes32,address)": {
        "details": "Revokes `role` from the calling account. Roles are often managed via {grantRole} and {revokeRole}: this function's purpose is to provide a mechanism for accounts to lose their privileges if they are compromised (such as when a trusted device is misplaced). If the calling account had been revoked `role`, emits a {RoleRevoked} event. Requirements: - the caller must be `account`. May emit a {RoleRevoked} event."
      },
      "revokeRole(bytes32,address)": {
        "details": "Revokes `role` from `account`. If `account` had been granted `role`, emits a {RoleRevoked} event. Requirements: - the caller must have ``role``'s admin role. May emit a {RoleRevoked} event."
      },
      "supportsInterface(bytes4)": {
        "details": "See {IERC165-supportsInterface}."
      }
    },
    "version": 1
  },
  "userdoc": {
    "kind": "user",
    "methods": {},
    "version": 1
  },
  "storageLayout": {
    "storage": [
      {
        "astId": 419,
        "contract": "contracts/Institutions.sol:Institutions",
        "label": "_initialized",
        "offset": 0,
        "slot": "0",
        "type": "t_uint8"
      },
      {
        "astId": 422,
        "contract": "contracts/Institutions.sol:Institutions",
        "label": "_initializing",
        "offset": 1,
        "slot": "0",
        "type": "t_bool"
      },
      {
        "astId": 2561,
        "contract": "contracts/Institutions.sol:Institutions",
        "label": "__gap",
        "offset": 0,
        "slot": "1",
        "type": "t_array(t_uint256)50_storage"
      },
      {
        "astId": 584,
        "contract": "contracts/Institutions.sol:Institutions",
        "label": "_paused",
        "offset": 0,
        "slot": "51",
        "type": "t_bool"
      },
      {
        "astId": 689,
        "contract": "contracts/Institutions.sol:Institutions",
        "label": "__gap",
        "offset": 0,
        "slot": "52",
        "type": "t_array(t_uint256)49_storage"
      },
      {
        "astId": 2905,
        "contract": "contracts/Institutions.sol:Institutions",
        "label": "__gap",
        "offset": 0,
        "slot": "101",
        "type": "t_array(t_uint256)50_storage"
      },
      {
        "astId": 39,
        "contract": "contracts/Institutions.sol:Institutions",
        "label": "_roles",
        "offset": 0,
        "slot": "151",
        "type": "t_mapping(t_bytes32,t_struct(RoleData)34_storage)"
      },
      {
        "astId": 338,
        "contract": "contracts/Institutions.sol:Institutions",
        "label": "__gap",
        "offset": 0,
        "slot": "152",
        "type": "t_array(t_uint256)49_storage"
      },
      {
        "astId": 3493,
        "contract": "contracts/Institutions.sol:Institutions",
        "label": "baseURI",
        "offset": 0,
        "slot": "201",
        "type": "t_string_storage"
      },
      {
        "astId": 3495,
        "contract": "contracts/Institutions.sol:Institutions",
        "label": "studentsERC721",
        "offset": 0,
        "slot": "202",
        "type": "t_address"
      },
      {
        "astId": 3507,
        "contract": "contracts/Institutions.sol:Institutions",
        "label": "courses",
        "offset": 0,
        "slot": "203",
        "type": "t_mapping(t_uint256,t_struct(Course)3502_storage)"
      },
      {
        "astId": 3511,
        "contract": "contracts/Institutions.sol:Institutions",
        "label": "baseURIExists",
        "offset": 0,
        "slot": "204",
        "type": "t_mapping(t_string_memory_ptr,t_bool)"
      },
      {
        "astId": 3514,
        "contract": "contracts/Institutions.sol:Institutions",
        "label": "courseCounter",
        "offset": 0,
        "slot": "205",
        "type": "t_struct(Counter)2568_storage"
      },
      {
        "astId": 3526,
        "contract": "contracts/Institutions.sol:Institutions",
        "label": "students",
        "offset": 0,
        "slot": "206",
        "type": "t_mapping(t_uint256,t_mapping(t_address,t_struct(Student)3519_storage))"
      },
      {
        "astId": 3529,
        "contract": "contracts/Institutions.sol:Institutions",
        "label": "studentCounter",
        "offset": 0,
        "slot": "207",
        "type": "t_struct(Counter)2568_storage"
      }
    ],
    "types": {
      "t_address": {
        "encoding": "inplace",
        "label": "address",
        "numberOfBytes": "20"
      },
      "t_array(t_uint256)49_storage": {
        "base": "t_uint256",
        "encoding": "inplace",
        "label": "uint256[49]",
        "numberOfBytes": "1568"
      },
      "t_array(t_uint256)50_storage": {
        "base": "t_uint256",
        "encoding": "inplace",
        "label": "uint256[50]",
        "numberOfBytes": "1600"
      },
      "t_bool": {
        "encoding": "inplace",
        "label": "bool",
        "numberOfBytes": "1"
      },
      "t_bytes32": {
        "encoding": "inplace",
        "label": "bytes32",
        "numberOfBytes": "32"
      },
      "t_mapping(t_address,t_bool)": {
        "encoding": "mapping",
        "key": "t_address",
        "label": "mapping(address => bool)",
        "numberOfBytes": "32",
        "value": "t_bool"
      },
      "t_mapping(t_address,t_struct(Student)3519_storage)": {
        "encoding": "mapping",
        "key": "t_address",
        "label": "mapping(address => struct Institutions.Student)",
        "numberOfBytes": "32",
        "value": "t_struct(Student)3519_storage"
      },
      "t_mapping(t_bytes32,t_struct(RoleData)34_storage)": {
        "encoding": "mapping",
        "key": "t_bytes32",
        "label": "mapping(bytes32 => struct AccessControlUpgradeable.RoleData)",
        "numberOfBytes": "32",
        "value": "t_struct(RoleData)34_storage"
      },
      "t_mapping(t_string_memory_ptr,t_bool)": {
        "encoding": "mapping",
        "key": "t_string_memory_ptr",
        "label": "mapping(string => bool)",
        "numberOfBytes": "32",
        "value": "t_bool"
      },
      "t_mapping(t_uint256,t_mapping(t_address,t_struct(Student)3519_storage))": {
        "encoding": "mapping",
        "key": "t_uint256",
        "label": "mapping(uint256 => mapping(address => struct Institutions.Student))",
        "numberOfBytes": "32",
        "value": "t_mapping(t_address,t_struct(Student)3519_storage)"
      },
      "t_mapping(t_uint256,t_struct(Course)3502_storage)": {
        "encoding": "mapping",
        "key": "t_uint256",
        "label": "mapping(uint256 => struct Institutions.Course)",
        "numberOfBytes": "32",
        "value": "t_struct(Course)3502_storage"
      },
      "t_string_memory_ptr": {
        "encoding": "bytes",
        "label": "string",
        "numberOfBytes": "32"
      },
      "t_string_storage": {
        "encoding": "bytes",
        "label": "string",
        "numberOfBytes": "32"
      },
      "t_struct(Counter)2568_storage": {
        "encoding": "inplace",
        "label": "struct CountersUpgradeable.Counter",
        "members": [
          {
            "astId": 2567,
            "contract": "contracts/Institutions.sol:Institutions",
            "label": "_value",
            "offset": 0,
            "slot": "0",
            "type": "t_uint256"
          }
        ],
        "numberOfBytes": "32"
      },
      "t_struct(Course)3502_storage": {
        "encoding": "inplace",
        "label": "struct Institutions.Course",
        "members": [
          {
            "astId": 3497,
            "contract": "contracts/Institutions.sol:Institutions",
            "label": "isActive",
            "offset": 0,
            "slot": "0",
            "type": "t_bool"
          },
          {
            "astId": 3499,
            "contract": "contracts/Institutions.sol:Institutions",
            "label": "baseURI",
            "offset": 0,
            "slot": "1",
            "type": "t_string_storage"
          },
          {
            "astId": 3501,
            "contract": "contracts/Institutions.sol:Institutions",
            "label": "activeStudentsBalance",
            "offset": 0,
            "slot": "2",
            "type": "t_uint256"
          }
        ],
        "numberOfBytes": "96"
      },
      "t_struct(RoleData)34_storage": {
        "encoding": "inplace",
        "label": "struct AccessControlUpgradeable.RoleData",
        "members": [
          {
            "astId": 31,
            "contract": "contracts/Institutions.sol:Institutions",
            "label": "members",
            "offset": 0,
            "slot": "0",
            "type": "t_mapping(t_address,t_bool)"
          },
          {
            "astId": 33,
            "contract": "contracts/Institutions.sol:Institutions",
            "label": "adminRole",
            "offset": 0,
            "slot": "1",
            "type": "t_bytes32"
          }
        ],
        "numberOfBytes": "64"
      },
      "t_struct(Student)3519_storage": {
        "encoding": "inplace",
        "label": "struct Institutions.Student",
        "members": [
          {
            "astId": 3516,
            "contract": "contracts/Institutions.sol:Institutions",
            "label": "id",
            "offset": 0,
            "slot": "0",
            "type": "t_uint256"
          },
          {
            "astId": 3518,
            "contract": "contracts/Institutions.sol:Institutions",
            "label": "isCertified",
            "offset": 0,
            "slot": "1",
            "type": "t_bool"
          }
        ],
        "numberOfBytes": "64"
      },
      "t_uint256": {
        "encoding": "inplace",
        "label": "uint256",
        "numberOfBytes": "32"
      },
      "t_uint8": {
        "encoding": "inplace",
        "label": "uint8",
        "numberOfBytes": "1"
      }
    }
  }
}