{
  "address": "0x8D3cD00d9E6d50F626E9bAbF1b2c34c1D62F1576",
  "abi": [
    {
      "inputs": [],
      "stateMutability": "nonpayable",
      "type": "constructor"
    },
    {
      "anonymous": false,
      "inputs": [
        {
          "indexed": false,
          "internalType": "uint256",
          "name": "courseId",
          "type": "uint256"
        },
        {
          "indexed": false,
          "internalType": "string",
          "name": "courseName",
          "type": "string"
        }
      ],
      "name": "CourseRegistered",
      "type": "event"
    },
    {
      "anonymous": false,
      "inputs": [
        {
          "indexed": false,
          "internalType": "uint256",
          "name": "courseId",
          "type": "uint256"
        },
        {
          "indexed": false,
          "internalType": "string",
          "name": "courseName",
          "type": "string"
        }
      ],
      "name": "CourseUnregistered",
      "type": "event"
    },
    {
      "anonymous": false,
      "inputs": [
        {
          "indexed": false,
          "internalType": "uint8",
          "name": "version",
          "type": "uint8"
        }
      ],
      "name": "Initialized",
      "type": "event"
    },
    {
      "anonymous": false,
      "inputs": [
        {
          "indexed": false,
          "internalType": "address",
          "name": "account",
          "type": "address"
        }
      ],
      "name": "Paused",
      "type": "event"
    },
    {
      "anonymous": false,
      "inputs": [
        {
          "indexed": true,
          "internalType": "bytes32",
          "name": "role",
          "type": "bytes32"
        },
        {
          "indexed": true,
          "internalType": "bytes32",
          "name": "previousAdminRole",
          "type": "bytes32"
        },
        {
          "indexed": true,
          "internalType": "bytes32",
          "name": "newAdminRole",
          "type": "bytes32"
        }
      ],
      "name": "RoleAdminChanged",
      "type": "event"
    },
    {
      "anonymous": false,
      "inputs": [
        {
          "indexed": true,
          "internalType": "bytes32",
          "name": "role",
          "type": "bytes32"
        },
        {
          "indexed": true,
          "internalType": "address",
          "name": "account",
          "type": "address"
        },
        {
          "indexed": true,
          "internalType": "address",
          "name": "sender",
          "type": "address"
        }
      ],
      "name": "RoleGranted",
      "type": "event"
    },
    {
      "anonymous": false,
      "inputs": [
        {
          "indexed": true,
          "internalType": "bytes32",
          "name": "role",
          "type": "bytes32"
        },
        {
          "indexed": true,
          "internalType": "address",
          "name": "account",
          "type": "address"
        },
        {
          "indexed": true,
          "internalType": "address",
          "name": "sender",
          "type": "address"
        }
      ],
      "name": "RoleRevoked",
      "type": "event"
    },
    {
      "anonymous": false,
      "inputs": [
        {
          "indexed": false,
          "internalType": "uint256",
          "name": "courseId",
          "type": "uint256"
        },
        {
          "indexed": false,
          "internalType": "uint256",
          "name": "studentId",
          "type": "uint256"
        },
        {
          "indexed": false,
          "internalType": "address",
          "name": "studentAddress",
          "type": "address"
        }
      ],
      "name": "StudentRegistered",
      "type": "event"
    },
    {
      "anonymous": false,
      "inputs": [
        {
          "indexed": false,
          "internalType": "uint256",
          "name": "courseId",
          "type": "uint256"
        },
        {
          "indexed": false,
          "internalType": "uint256",
          "name": "studentId",
          "type": "uint256"
        },
        {
          "indexed": false,
          "internalType": "address",
          "name": "studentAddress",
          "type": "address"
        }
      ],
      "name": "StudentUnregistered",
      "type": "event"
    },
    {
      "anonymous": false,
      "inputs": [
        {
          "indexed": false,
          "internalType": "address",
          "name": "account",
          "type": "address"
        }
      ],
      "name": "Unpaused",
      "type": "event"
    },
    {
      "inputs": [],
      "name": "DEFAULT_ADMIN_ROLE",
      "outputs": [
        {
          "internalType": "bytes32",
          "name": "",
          "type": "bytes32"
        }
      ],
      "stateMutability": "view",
      "type": "function"
    },
    {
      "inputs": [],
      "name": "INSTITUTION_INTERFACE_ID",
      "outputs": [
        {
          "internalType": "bytes4",
          "name": "",
          "type": "bytes4"
        }
      ],
      "stateMutability": "view",
      "type": "function"
    },
    {
      "inputs": [],
      "name": "INTERFACE_ERC721",
      "outputs": [
        {
          "internalType": "bytes4",
          "name": "",
          "type": "bytes4"
        }
      ],
      "stateMutability": "view",
      "type": "function"
    },
    {
      "inputs": [],
      "name": "MINTER_ROLE",
      "outputs": [
        {
          "internalType": "bytes32",
          "name": "",
          "type": "bytes32"
        }
      ],
      "stateMutability": "view",
      "type": "function"
    },
    {
      "inputs": [],
      "name": "PAUSER_ROLE",
      "outputs": [
        {
          "internalType": "bytes32",
          "name": "",
          "type": "bytes32"
        }
      ],
      "stateMutability": "view",
      "type": "function"
    },
    {
      "inputs": [],
      "name": "activeCourseCounter",
      "outputs": [
        {
          "internalType": "uint256",
          "name": "_value",
          "type": "uint256"
        }
      ],
      "stateMutability": "view",
      "type": "function"
    },
    {
      "inputs": [],
      "name": "courseCounter",
      "outputs": [
        {
          "internalType": "uint256",
          "name": "_value",
          "type": "uint256"
        }
      ],
      "stateMutability": "view",
      "type": "function"
    },
    {
      "inputs": [
        {
          "internalType": "uint256",
          "name": "",
          "type": "uint256"
        }
      ],
      "name": "courses",
      "outputs": [
        {
          "internalType": "string",
          "name": "name",
          "type": "string"
        },
        {
          "internalType": "bool",
          "name": "isActive",
          "type": "bool"
        },
        {
          "internalType": "string",
          "name": "baseURI",
          "type": "string"
        },
        {
          "internalType": "uint256",
          "name": "studentsBalance",
          "type": "uint256"
        },
        {
          "internalType": "uint256",
          "name": "activeStudentsBalance",
          "type": "uint256"
        }
      ],
      "stateMutability": "view",
      "type": "function"
    },
    {
      "inputs": [
        {
          "internalType": "address",
          "name": "student",
          "type": "address"
        }
      ],
      "name": "getAllStudentIds",
      "outputs": [
        {
          "internalType": "uint256[]",
          "name": "",
          "type": "uint256[]"
        }
      ],
      "stateMutability": "view",
      "type": "function"
    },
    {
      "inputs": [
        {
          "internalType": "address",
          "name": "student",
          "type": "address"
        }
      ],
      "name": "getAllStudentURIs",
      "outputs": [
        {
          "internalType": "string[]",
          "name": "",
          "type": "string[]"
        }
      ],
      "stateMutability": "view",
      "type": "function"
    },
    {
      "inputs": [
        {
          "internalType": "uint256",
          "name": "courseId",
          "type": "uint256"
        }
      ],
      "name": "getCourse",
      "outputs": [
        {
          "components": [
            {
              "internalType": "string",
              "name": "name",
              "type": "string"
            },
            {
              "internalType": "bool",
              "name": "isActive",
              "type": "bool"
            },
            {
              "internalType": "string",
              "name": "baseURI",
              "type": "string"
            },
            {
              "internalType": "uint256",
              "name": "studentsBalance",
              "type": "uint256"
            },
            {
              "internalType": "uint256",
              "name": "activeStudentsBalance",
              "type": "uint256"
            }
          ],
          "internalType": "struct Institution.Course",
          "name": "",
          "type": "tuple"
        }
      ],
      "stateMutability": "view",
      "type": "function"
    },
    {
      "inputs": [
        {
          "internalType": "bytes32",
          "name": "role",
          "type": "bytes32"
        }
      ],
      "name": "getRoleAdmin",
      "outputs": [
        {
          "internalType": "bytes32",
          "name": "",
          "type": "bytes32"
        }
      ],
      "stateMutability": "view",
      "type": "function"
    },
    {
      "inputs": [
        {
          "internalType": "uint256",
          "name": "courseId",
          "type": "uint256"
        },
        {
          "internalType": "address",
          "name": "student",
          "type": "address"
        }
      ],
      "name": "getStudentId",
      "outputs": [
        {
          "internalType": "uint256",
          "name": "",
          "type": "uint256"
        }
      ],
      "stateMutability": "view",
      "type": "function"
    },
    {
      "inputs": [
        {
          "internalType": "uint256",
          "name": "courseId",
          "type": "uint256"
        },
        {
          "internalType": "address",
          "name": "student",
          "type": "address"
        }
      ],
      "name": "getStudentURI",
      "outputs": [
        {
          "internalType": "string",
          "name": "",
          "type": "string"
        }
      ],
      "stateMutability": "view",
      "type": "function"
    },
    {
      "inputs": [
        {
          "internalType": "bytes32",
          "name": "role",
          "type": "bytes32"
        },
        {
          "internalType": "address",
          "name": "account",
          "type": "address"
        }
      ],
      "name": "grantRole",
      "outputs": [],
      "stateMutability": "nonpayable",
      "type": "function"
    },
    {
      "inputs": [
        {
          "internalType": "bytes32",
          "name": "role",
          "type": "bytes32"
        },
        {
          "internalType": "address",
          "name": "account",
          "type": "address"
        }
      ],
      "name": "hasRole",
      "outputs": [
        {
          "internalType": "bool",
          "name": "",
          "type": "bool"
        }
      ],
      "stateMutability": "view",
      "type": "function"
    },
    {
      "inputs": [],
      "name": "initialize",
      "outputs": [],
      "stateMutability": "nonpayable",
      "type": "function"
    },
    {
      "inputs": [],
      "name": "pause",
      "outputs": [],
      "stateMutability": "nonpayable",
      "type": "function"
    },
    {
      "inputs": [],
      "name": "paused",
      "outputs": [
        {
          "internalType": "bool",
          "name": "",
          "type": "bool"
        }
      ],
      "stateMutability": "view",
      "type": "function"
    },
    {
      "inputs": [
        {
          "internalType": "string",
          "name": "courseBaseURI",
          "type": "string"
        },
        {
          "internalType": "string",
          "name": "courseName",
          "type": "string"
        }
      ],
      "name": "registerCourse",
      "outputs": [],
      "stateMutability": "nonpayable",
      "type": "function"
    },
    {
      "inputs": [
        {
          "internalType": "uint256",
          "name": "courseId",
          "type": "uint256"
        },
        {
          "internalType": "address",
          "name": "student",
          "type": "address"
        }
      ],
      "name": "registerStudent",
      "outputs": [],
      "stateMutability": "nonpayable",
      "type": "function"
    },
    {
      "inputs": [
        {
          "internalType": "bytes32",
          "name": "role",
          "type": "bytes32"
        },
        {
          "internalType": "address",
          "name": "account",
          "type": "address"
        }
      ],
      "name": "renounceRole",
      "outputs": [],
      "stateMutability": "nonpayable",
      "type": "function"
    },
    {
      "inputs": [
        {
          "internalType": "bytes32",
          "name": "role",
          "type": "bytes32"
        },
        {
          "internalType": "address",
          "name": "account",
          "type": "address"
        }
      ],
      "name": "revokeRole",
      "outputs": [],
      "stateMutability": "nonpayable",
      "type": "function"
    },
    {
      "inputs": [
        {
          "internalType": "address",
          "name": "_studentsERC721",
          "type": "address"
        }
      ],
      "name": "setStudentsERC721",
      "outputs": [],
      "stateMutability": "nonpayable",
      "type": "function"
    },
    {
      "inputs": [],
      "name": "studentCounter",
      "outputs": [
        {
          "internalType": "uint256",
          "name": "_value",
          "type": "uint256"
        }
      ],
      "stateMutability": "view",
      "type": "function"
    },
    {
      "inputs": [
        {
          "internalType": "uint256",
          "name": "",
          "type": "uint256"
        },
        {
          "internalType": "address",
          "name": "",
          "type": "address"
        }
      ],
      "name": "students",
      "outputs": [
        {
          "internalType": "uint256",
          "name": "id",
          "type": "uint256"
        },
        {
          "internalType": "bool",
          "name": "isActive",
          "type": "bool"
        }
      ],
      "stateMutability": "view",
      "type": "function"
    },
    {
      "inputs": [],
      "name": "studentsERC721",
      "outputs": [
        {
          "internalType": "address",
          "name": "",
          "type": "address"
        }
      ],
      "stateMutability": "view",
      "type": "function"
    },
    {
      "inputs": [
        {
          "internalType": "bytes4",
          "name": "interfaceId",
          "type": "bytes4"
        }
      ],
      "name": "supportsInterface",
      "outputs": [
        {
          "internalType": "bool",
          "name": "",
          "type": "bool"
        }
      ],
      "stateMutability": "view",
      "type": "function"
    },
    {
      "inputs": [],
      "name": "unpause",
      "outputs": [],
      "stateMutability": "nonpayable",
      "type": "function"
    },
    {
      "inputs": [
        {
          "internalType": "uint256",
          "name": "courseId",
          "type": "uint256"
        }
      ],
      "name": "unregisterCourse",
      "outputs": [],
      "stateMutability": "nonpayable",
      "type": "function"
    },
    {
      "inputs": [
        {
          "internalType": "uint256",
          "name": "courseId",
          "type": "uint256"
        },
        {
          "internalType": "address",
          "name": "student",
          "type": "address"
        }
      ],
      "name": "unregisterStudent",
      "outputs": [],
      "stateMutability": "nonpayable",
      "type": "function"
    }
  ],
  "transactionHash": "0x49cfe70a54dcc390a1d054499d9f28609aa9845d833756ca144d02c400bfef62",
  "args": [],
  "numDeployments": 3,
  "solcInputHash": "7f30509b989a60e38f22afbc43d9bb59",
  "bytecode": "0x60806040523480156200001157600080fd5b50620000226200002860201b60201c565b620001d3565b600060019054906101000a900460ff16156200007b576040517f08c379a0000000000000000000000000000000000000000000000000000000008152600401620000729062000176565b60405180910390fd5b60ff801660008054906101000a900460ff1660ff161015620000ed5760ff6000806101000a81548160ff021916908360ff1602179055507f7f26b83ff96e1f2b6a682f133852f6798a09c465da95921460cefb384740249860ff604051620000e49190620001b6565b60405180910390a15b565b600082825260208201905092915050565b7f496e697469616c697a61626c653a20636f6e747261637420697320696e69746960008201527f616c697a696e6700000000000000000000000000000000000000000000000000602082015250565b60006200015e602783620000ef565b91506200016b8262000100565b604082019050919050565b6000602082019050818103600083015262000191816200014f565b9050919050565b600060ff82169050919050565b620001b08162000198565b82525050565b6000602082019050620001cd6000830184620001a5565b92915050565b613bfe80620001e36000396000f3fe608060405234801561001057600080fd5b50600436106101e45760003560e01c80638137f9701161010f57806399f7cbeb116100a2578063e3596cac11610071578063e3596cac1461056d578063e63ab1e91461058b578063fb6c2b68146105a9578063fcfedaa5146105c7576101e4565b806399f7cbeb146104f7578063a217fddf14610515578063d539139314610533578063d547741f14610551576101e4565b806389383aaa116100de57806389383aaa1461044757806391d148541461046357806396f979d2146104935780639779d9c8146104c7576101e4565b80638137f970146103d157806382216fbd146103ef578063825c02191461040d5780638456cb591461043d576101e4565b806335f10d1a11610187578063772ab33111610156578063772ab3311461035f5780637a807c7b1461037b5780637d23b3bf146103975780638129fc1c146103c7576101e4565b806335f10d1a146102eb57806336568abe1461031b5780633f4ba83a146103375780635c975abb14610341576101e4565b80630fd88c7a116101c35780630fd88c7a146102675780632332425814610283578063248a9ca31461029f5780632f2ff15d146102cf576101e4565b806215bd06146101e957806301ffc9a7146102075780630b91e28d14610237575b600080fd5b6101f16105f8565b6040516101fe91906126b5565b60405180910390f35b610221600480360381019061021c9190612710565b610603565b60405161022e9190612758565b60405180910390f35b610251600480360381019061024c91906127a9565b610664565b60405161025e919061290a565b60405180910390f35b610281600480360381019061027c9190612a61565b6107e4565b005b61029d600480360381019061029891906127a9565b6109be565b005b6102b960048036038101906102b49190612b0f565b610ad8565b6040516102c69190612b4b565b60405180910390f35b6102e960048036038101906102e49190612bc4565b610af8565b005b61030560048036038101906103009190612c04565b610b19565b6040516103129190612c53565b60405180910390f35b61033560048036038101906103309190612bc4565b610c1b565b005b61033f610c9e565b005b610349610cd3565b6040516103569190612758565b60405180910390f35b61037960048036038101906103749190612c04565b610cea565b005b61039560048036038101906103909190612c6e565b610ee5565b005b6103b160048036038101906103ac9190612c6e565b611006565b6040516103be9190612d4a565b60405180910390f35b6103cf6111ae565b005b6103d9611355565b6040516103e691906126b5565b60405180910390f35b6103f7611360565b6040516104049190612c53565b60405180910390f35b61042760048036038101906104229190612c04565b61136c565b6040516104349190612db6565b60405180910390f35b61044561151d565b005b610461600480360381019061045c9190612c04565b611552565b005b61047d60048036038101906104789190612bc4565b61192b565b60405161048a9190612758565b60405180910390f35b6104ad60048036038101906104a891906127a9565b611996565b6040516104be959493929190612dd8565b60405180910390f35b6104e160048036038101906104dc9190612c6e565b611ae9565b6040516104ee9190612efb565b60405180910390f35b6104ff611c0c565b60405161050c9190612f2c565b60405180910390f35b61051d611c32565b60405161052a9190612b4b565b60405180910390f35b61053b611c39565b6040516105489190612b4b565b60405180910390f35b61056b60048036038101906105669190612bc4565b611c5d565b005b610575611c7e565b6040516105829190612c53565b60405180910390f35b610593611c8a565b6040516105a09190612b4b565b60405180910390f35b6105b1611cae565b6040516105be9190612c53565b60405180910390f35b6105e160048036038101906105dc9190612c04565b611cba565b6040516105ef929190612f47565b60405180910390f35b63494e535460e01b81565b600061060e82611cf8565b8061065d575063494e535460e01b7bffffffffffffffffffffffffffffffffffffffffffffffffffffffff1916827bffffffffffffffffffffffffffffffffffffffffffffffffffffffff1916145b9050919050565b61066c6125a6565b60ca60008381526020019081526020016000206040518060a001604052908160008201805461069a90612f9f565b80601f01602080910402602001604051908101604052809291908181526020018280546106c690612f9f565b80156107135780601f106106e857610100808354040283529160200191610713565b820191906000526020600020905b8154815290600101906020018083116106f657829003601f168201915b505050505081526020016001820160009054906101000a900460ff1615151515815260200160028201805461074790612f9f565b80601f016020809104026020016040519081016040528092919081815260200182805461077390612f9f565b80156107c05780601f10610795576101008083540402835291602001916107c0565b820191906000526020600020905b8154815290600101906020018083116107a357829003601f168201915b50505050508152602001600382015481526020016004820154815250509050919050565b7f9f2df0fed2c77648de5860a4cc508cd0818c85b8b8a1ab4ceeef8d981c8956a661080e81611d72565b600073ffffffffffffffffffffffffffffffffffffffff1660c960009054906101000a900473ffffffffffffffffffffffffffffffffffffffff1673ffffffffffffffffffffffffffffffffffffffff1614156108a0576040517f08c379a00000000000000000000000000000000000000000000000000000000081526004016108979061301d565b60405180910390fd5b60006108ac60cb611d86565b9050600060ca600083815260200190815260200160002060030181905550600060ca600083815260200190815260200160002060040181905550600160ca600083815260200190815260200160002060010160006101000a81548160ff0219169083151502179055508360ca6000838152602001908152602001600020600201908051906020019061093f9291906125d7565b508260ca6000838152602001908152602001600020600001908051906020019061096a9291906125d7565b5061097560cb611d94565b61097f60cc611d94565b7fd53531fce7aab6eccb2aa2920e31555c687539472943d1ead2b5e64d9c57e9ce81846040516109b092919061303d565b60405180910390a150505050565b7f9f2df0fed2c77648de5860a4cc508cd0818c85b8b8a1ab4ceeef8d981c8956a66109e881611d72565b8160ca600082815260200190815260200160002060010160009054906101000a900460ff16610a4c576040517f08c379a0000000000000000000000000000000000000000000000000000000008152600401610a43906130b9565b60405180910390fd5b600060ca600085815260200190815260200160002060010160006101000a81548160ff021916908315150217905550610a8560cc611daa565b7f3dfef52cc4c4689197ee94b3a21b18067266aca685e3d80d0417e95ff7e80bd58360ca6000868152602001908152602001600020600001604051610acb92919061316e565b60405180910390a1505050565b600060976000838152602001908152602001600020600101549050919050565b610b0182610ad8565b610b0a81611d72565b610b148383611e06565b505050565b6000828260cd600083815260200190815260200160002060008273ffffffffffffffffffffffffffffffffffffffff1673ffffffffffffffffffffffffffffffffffffffff16815260200190815260200160002060010160009054906101000a900460ff16610bbd576040517f08c379a0000000000000000000000000000000000000000000000000000000008152600401610bb4906131ea565b60405180910390fd5b60cd600086815260200190815260200160002060008573ffffffffffffffffffffffffffffffffffffffff1673ffffffffffffffffffffffffffffffffffffffff168152602001908152602001600020600001549250505092915050565b610c23611ee7565b73ffffffffffffffffffffffffffffffffffffffff168173ffffffffffffffffffffffffffffffffffffffff1614610c90576040517f08c379a0000000000000000000000000000000000000000000000000000000008152600401610c879061327c565b60405180910390fd5b610c9a8282611eef565b5050565b7f65d7a28e3265b37a6474929f336521b332c1681b933f6cb9f3376673440d862a610cc881611d72565b610cd0611fd1565b50565b6000603360009054906101000a900460ff16905090565b7f9f2df0fed2c77648de5860a4cc508cd0818c85b8b8a1ab4ceeef8d981c8956a6610d1481611d72565b828260cd600083815260200190815260200160002060008273ffffffffffffffffffffffffffffffffffffffff1673ffffffffffffffffffffffffffffffffffffffff16815260200190815260200160002060010160009054906101000a900460ff16610db6576040517f08c379a0000000000000000000000000000000000000000000000000000000008152600401610dad906131ea565b60405180910390fd5b600060cd600087815260200190815260200160002060008673ffffffffffffffffffffffffffffffffffffffff1673ffffffffffffffffffffffffffffffffffffffff16815260200190815260200160002060010160006101000a81548160ff021916908315150217905550600160ca60008781526020019081526020016000206004016000828254610e4991906132cb565b925050819055507ffdd3d48b9cdf9f8a115aab58d55b064ba71a5751b6965f8225ed6110fba763a78560cd600088815260200190815260200160002060008773ffffffffffffffffffffffffffffffffffffffff1673ffffffffffffffffffffffffffffffffffffffff1681526020019081526020016000206000015486604051610ed6939291906132ff565b60405180910390a15050505050565b6000801b610ef281611d72565b8173ffffffffffffffffffffffffffffffffffffffff166301ffc9a76380ac58cd60e01b6040518263ffffffff1660e01b8152600401610f3291906126b5565b60206040518083038186803b158015610f4a57600080fd5b505afa158015610f5e573d6000803e3d6000fd5b505050506040513d601f19601f82011682018060405250810190610f829190613362565b610fc1576040517f08c379a0000000000000000000000000000000000000000000000000000000008152600401610fb8906133db565b60405180910390fd5b8160c960006101000a81548173ffffffffffffffffffffffffffffffffffffffff021916908373ffffffffffffffffffffffffffffffffffffffff1602179055505050565b6060600060c960009054906101000a900473ffffffffffffffffffffffffffffffffffffffff1673ffffffffffffffffffffffffffffffffffffffff166370a08231846040518263ffffffff1660e01b81526004016110659190612f2c565b60206040518083038186803b15801561107d57600080fd5b505afa158015611091573d6000803e3d6000fd5b505050506040513d601f19601f820116820180604052508101906110b59190613410565b9050606060005b828110156111a35760c960009054906101000a900473ffffffffffffffffffffffffffffffffffffffff1673ffffffffffffffffffffffffffffffffffffffff16632f745c5986836040518363ffffffff1660e01b815260040161112192919061343d565b60206040518083038186803b15801561113957600080fd5b505afa15801561114d573d6000803e3d6000fd5b505050506040513d601f19601f820116820180604052508101906111719190613410565b82828151811061118457611183613466565b5b602002602001018181525050808061119b90613495565b9150506110bc565b508092505050919050565b60008060019054906101000a900460ff161590508080156111df5750600160008054906101000a900460ff1660ff16105b8061120c57506111ee30612034565b15801561120b5750600160008054906101000a900460ff1660ff16145b5b61124b576040517f08c379a000000000000000000000000000000000000000000000000000000000815260040161124290613550565b60405180910390fd5b60016000806101000a81548160ff021916908360ff1602179055508015611288576001600060016101000a81548160ff0219169083151502179055505b611290612057565b6112986120b0565b6112a56000801b33611e06565b6112cf7f65d7a28e3265b37a6474929f336521b332c1681b933f6cb9f3376673440d862a33611e06565b6112f97f9f2df0fed2c77648de5860a4cc508cd0818c85b8b8a1ab4ceeef8d981c8956a633611e06565b80156113525760008060016101000a81548160ff0219169083151502179055507f7f26b83ff96e1f2b6a682f133852f6798a09c465da95921460cefb3847402498600160405161134991906135c2565b60405180910390a15b50565b6380ac58cd60e01b81565b60cb8060000154905081565b6060828260cd600083815260200190815260200160002060008273ffffffffffffffffffffffffffffffffffffffff1673ffffffffffffffffffffffffffffffffffffffff16815260200190815260200160002060010160009054906101000a900460ff16611410576040517f08c379a0000000000000000000000000000000000000000000000000000000008152600401611407906131ea565b60405180910390fd5b60c960009054906101000a900473ffffffffffffffffffffffffffffffffffffffff1673ffffffffffffffffffffffffffffffffffffffff1663c87b56dd60cd600088815260200190815260200160002060008773ffffffffffffffffffffffffffffffffffffffff1673ffffffffffffffffffffffffffffffffffffffff168152602001908152602001600020600001546040518263ffffffff1660e01b81526004016114be9190612c53565b60006040518083038186803b1580156114d657600080fd5b505afa1580156114ea573d6000803e3d6000fd5b505050506040513d6000823e3d601f19601f82011682018060405250810190611513919061364d565b9250505092915050565b7f65d7a28e3265b37a6474929f336521b332c1681b933f6cb9f3376673440d862a61154781611d72565b61154f612101565b50565b7f9f2df0fed2c77648de5860a4cc508cd0818c85b8b8a1ab4ceeef8d981c8956a661157c81611d72565b8260ca600082815260200190815260200160002060010160009054906101000a900460ff166115e0576040517f08c379a00000000000000000000000000000000000000000000000000000000081526004016115d7906130b9565b60405180910390fd5b838360cd600083815260200190815260200160002060008273ffffffffffffffffffffffffffffffffffffffff1673ffffffffffffffffffffffffffffffffffffffff16815260200190815260200160002060010160009054906101000a900460ff1615611683576040517f08c379a000000000000000000000000000000000000000000000000000000000815260040161167a906136e2565b60405180910390fd5b84600073ffffffffffffffffffffffffffffffffffffffff168173ffffffffffffffffffffffffffffffffffffffff1614156116f4576040517f08c379a00000000000000000000000000000000000000000000000000000000081526004016116eb9061374e565b60405180910390fd5b600060c960009054906101000a900473ffffffffffffffffffffffffffffffffffffffff1673ffffffffffffffffffffffffffffffffffffffff1663d204c45e8860ca60008c81526020019081526020016000206002016040518363ffffffff1660e01b815260040161176892919061376e565b602060405180830381600087803b15801561178257600080fd5b505af1158015611796573d6000803e3d6000fd5b505050506040513d601f19601f820116820180604052508101906117ba9190613410565b90508060cd60008a815260200190815260200160002060008973ffffffffffffffffffffffffffffffffffffffff1673ffffffffffffffffffffffffffffffffffffffff16815260200190815260200160002060000181905550600160cd60008a815260200190815260200160002060008973ffffffffffffffffffffffffffffffffffffffff1673ffffffffffffffffffffffffffffffffffffffff16815260200190815260200160002060010160006101000a81548160ff021916908315150217905550600160ca60008a815260200190815260200160002060040160008282546118a7919061379e565b92505081905550600160ca60008a815260200190815260200160002060030160008282546118d5919061379e565b925050819055506118e660ce611d94565b7f392750c9bb96d6376203c9f2d73b6e4f940547ac38d05458d47f85b071797959888289604051611919939291906132ff565b60405180910390a15050505050505050565b60006097600084815260200190815260200160002060000160008373ffffffffffffffffffffffffffffffffffffffff1673ffffffffffffffffffffffffffffffffffffffff16815260200190815260200160002060009054906101000a900460ff16905092915050565b60ca6020528060005260406000206000915090508060000180546119b990612f9f565b80601f01602080910402602001604051908101604052809291908181526020018280546119e590612f9f565b8015611a325780601f10611a0757610100808354040283529160200191611a32565b820191906000526020600020905b815481529060010190602001808311611a1557829003601f168201915b5050505050908060010160009054906101000a900460ff1690806002018054611a5a90612f9f565b80601f0160208091040260200160405190810160405280929190818152602001828054611a8690612f9f565b8015611ad35780601f10611aa857610100808354040283529160200191611ad3565b820191906000526020600020905b815481529060010190602001808311611ab657829003601f168201915b5050505050908060030154908060040154905085565b60606000611af683611006565b9050606060005b8251811015611c015760c960009054906101000a900473ffffffffffffffffffffffffffffffffffffffff1673ffffffffffffffffffffffffffffffffffffffff1663c87b56dd848381518110611b5757611b56613466565b5b60200260200101516040518263ffffffff1660e01b8152600401611b7b9190612c53565b60006040518083038186803b158015611b9357600080fd5b505afa158015611ba7573d6000803e3d6000fd5b505050506040513d6000823e3d601f19601f82011682018060405250810190611bd0919061364d565b828281518110611be357611be2613466565b5b60200260200101819052508080611bf990613495565b915050611afd565b508092505050919050565b60c960009054906101000a900473ffffffffffffffffffffffffffffffffffffffff1681565b6000801b81565b7f9f2df0fed2c77648de5860a4cc508cd0818c85b8b8a1ab4ceeef8d981c8956a681565b611c6682610ad8565b611c6f81611d72565b611c798383611eef565b505050565b60ce8060000154905081565b7f65d7a28e3265b37a6474929f336521b332c1681b933f6cb9f3376673440d862a81565b60cc8060000154905081565b60cd602052816000526040600020602052806000526040600020600091509150508060000154908060010160009054906101000a900460ff16905082565b60007f7965db0b000000000000000000000000000000000000000000000000000000007bffffffffffffffffffffffffffffffffffffffffffffffffffffffff1916827bffffffffffffffffffffffffffffffffffffffffffffffffffffffff19161480611d6b5750611d6a82612164565b5b9050919050565b611d8381611d7e611ee7565b6121ce565b50565b600081600001549050919050565b6001816000016000828254019250508190555050565b60008160000154905060008111611df6576040517f08c379a0000000000000000000000000000000000000000000000000000000008152600401611ded90613840565b60405180910390fd5b6001810382600001819055505050565b611e10828261192b565b611ee35760016097600084815260200190815260200160002060000160008373ffffffffffffffffffffffffffffffffffffffff1673ffffffffffffffffffffffffffffffffffffffff16815260200190815260200160002060006101000a81548160ff021916908315150217905550611e88611ee7565b73ffffffffffffffffffffffffffffffffffffffff168173ffffffffffffffffffffffffffffffffffffffff16837f2f8788117e7eff1d82e926ec794901d17c78024a50270940304540a733656f0d60405160405180910390a45b5050565b600033905090565b611ef9828261192b565b15611fcd5760006097600084815260200190815260200160002060000160008373ffffffffffffffffffffffffffffffffffffffff1673ffffffffffffffffffffffffffffffffffffffff16815260200190815260200160002060006101000a81548160ff021916908315150217905550611f72611ee7565b73ffffffffffffffffffffffffffffffffffffffff168173ffffffffffffffffffffffffffffffffffffffff16837ff6391f5c32d9c69d2a47ea670b442974b53935d1edc7fd64eb21e047a839171b60405160405180910390a45b5050565b611fd961226b565b6000603360006101000a81548160ff0219169083151502179055507f5db9ee0a495bf2e6ff9c91a7834c1ba4fdd244a5e8aa4e537bd38aeae4b073aa61201d611ee7565b60405161202a9190612f2c565b60405180910390a1565b6000808273ffffffffffffffffffffffffffffffffffffffff163b119050919050565b600060019054906101000a900460ff166120a6576040517f08c379a000000000000000000000000000000000000000000000000000000000815260040161209d906138d2565b60405180910390fd5b6120ae6122b4565b565b600060019054906101000a900460ff166120ff576040517f08c379a00000000000000000000000000000000000000000000000000000000081526004016120f6906138d2565b60405180910390fd5b565b612109612320565b6001603360006101000a81548160ff0219169083151502179055507f62e78cea01bee320cd4e420270b5ea74000d11b0c9f74754ebdbfc544b05a25861214d611ee7565b60405161215a9190612f2c565b60405180910390a1565b60007f01ffc9a7000000000000000000000000000000000000000000000000000000007bffffffffffffffffffffffffffffffffffffffffffffffffffffffff1916827bffffffffffffffffffffffffffffffffffffffffffffffffffffffff1916149050919050565b6121d8828261192b565b612267576121fd8173ffffffffffffffffffffffffffffffffffffffff16601461236a565b61220b8360001c602061236a565b60405160200161221c9291906139c6565b6040516020818303038152906040526040517f08c379a000000000000000000000000000000000000000000000000000000000815260040161225e9190612db6565b60405180910390fd5b5050565b612273610cd3565b6122b2576040517f08c379a00000000000000000000000000000000000000000000000000000000081526004016122a990613a4c565b60405180910390fd5b565b600060019054906101000a900460ff16612303576040517f08c379a00000000000000000000000000000000000000000000000000000000081526004016122fa906138d2565b60405180910390fd5b6000603360006101000a81548160ff021916908315150217905550565b612328610cd3565b15612368576040517f08c379a000000000000000000000000000000000000000000000000000000000815260040161235f90613ab8565b60405180910390fd5b565b60606000600283600261237d9190613ad8565b612387919061379e565b67ffffffffffffffff8111156123a05761239f612936565b5b6040519080825280601f01601f1916602001820160405280156123d25781602001600182028036833780820191505090505b5090507f30000000000000000000000000000000000000000000000000000000000000008160008151811061240a57612409613466565b5b60200101907effffffffffffffffffffffffffffffffffffffffffffffffffffffffffffff1916908160001a9053507f78000000000000000000000000000000000000000000000000000000000000008160018151811061246e5761246d613466565b5b60200101907effffffffffffffffffffffffffffffffffffffffffffffffffffffffffffff1916908160001a905350600060018460026124ae9190613ad8565b6124b8919061379e565b90505b6001811115612558577f3031323334353637383961626364656600000000000000000000000000000000600f8616601081106124fa576124f9613466565b5b1a60f81b82828151811061251157612510613466565b5b60200101907effffffffffffffffffffffffffffffffffffffffffffffffffffffffffffff1916908160001a905350600485901c94508061255190613b32565b90506124bb565b506000841461259c576040517f08c379a000000000000000000000000000000000000000000000000000000000815260040161259390613ba8565b60405180910390fd5b8091505092915050565b6040518060a00160405280606081526020016000151581526020016060815260200160008152602001600081525090565b8280546125e390612f9f565b90600052602060002090601f016020900481019282612605576000855561264c565b82601f1061261e57805160ff191683800117855561264c565b8280016001018555821561264c579182015b8281111561264b578251825591602001919060010190612630565b5b509050612659919061265d565b5090565b5b8082111561267657600081600090555060010161265e565b5090565b60007fffffffff0000000000000000000000000000000000000000000000000000000082169050919050565b6126af8161267a565b82525050565b60006020820190506126ca60008301846126a6565b92915050565b6000604051905090565b600080fd5b600080fd5b6126ed8161267a565b81146126f857600080fd5b50565b60008135905061270a816126e4565b92915050565b600060208284031215612726576127256126da565b5b6000612734848285016126fb565b91505092915050565b60008115159050919050565b6127528161273d565b82525050565b600060208201905061276d6000830184612749565b92915050565b6000819050919050565b61278681612773565b811461279157600080fd5b50565b6000813590506127a38161277d565b92915050565b6000602082840312156127bf576127be6126da565b5b60006127cd84828501612794565b91505092915050565b600081519050919050565b600082825260208201905092915050565b60005b838110156128105780820151818401526020810190506127f5565b8381111561281f576000848401525b50505050565b6000601f19601f8301169050919050565b6000612841826127d6565b61284b81856127e1565b935061285b8185602086016127f2565b61286481612825565b840191505092915050565b6128788161273d565b82525050565b61288781612773565b82525050565b600060a08301600083015184820360008601526128aa8282612836565b91505060208301516128bf602086018261286f565b50604083015184820360408601526128d78282612836565b91505060608301516128ec606086018261287e565b5060808301516128ff608086018261287e565b508091505092915050565b60006020820190508181036000830152612924818461288d565b905092915050565b600080fd5b600080fd5b7f4e487b7100000000000000000000000000000000000000000000000000000000600052604160045260246000fd5b61296e82612825565b810181811067ffffffffffffffff8211171561298d5761298c612936565b5b80604052505050565b60006129a06126d0565b90506129ac8282612965565b919050565b600067ffffffffffffffff8211156129cc576129cb612936565b5b6129d582612825565b9050602081019050919050565b82818337600083830152505050565b6000612a046129ff846129b1565b612996565b905082815260208101848484011115612a2057612a1f612931565b5b612a2b8482856129e2565b509392505050565b600082601f830112612a4857612a4761292c565b5b8135612a588482602086016129f1565b91505092915050565b60008060408385031215612a7857612a776126da565b5b600083013567ffffffffffffffff811115612a9657612a956126df565b5b612aa285828601612a33565b925050602083013567ffffffffffffffff811115612ac357612ac26126df565b5b612acf85828601612a33565b9150509250929050565b6000819050919050565b612aec81612ad9565b8114612af757600080fd5b50565b600081359050612b0981612ae3565b92915050565b600060208284031215612b2557612b246126da565b5b6000612b3384828501612afa565b91505092915050565b612b4581612ad9565b82525050565b6000602082019050612b606000830184612b3c565b92915050565b600073ffffffffffffffffffffffffffffffffffffffff82169050919050565b6000612b9182612b66565b9050919050565b612ba181612b86565b8114612bac57600080fd5b50565b600081359050612bbe81612b98565b92915050565b60008060408385031215612bdb57612bda6126da565b5b6000612be985828601612afa565b9250506020612bfa85828601612baf565b9150509250929050565b60008060408385031215612c1b57612c1a6126da565b5b6000612c2985828601612794565b9250506020612c3a85828601612baf565b9150509250929050565b612c4d81612773565b82525050565b6000602082019050612c686000830184612c44565b92915050565b600060208284031215612c8457612c836126da565b5b6000612c9284828501612baf565b91505092915050565b600081519050919050565b600082825260208201905092915050565b6000819050602082019050919050565b6000612cd3838361287e565b60208301905092915050565b6000602082019050919050565b6000612cf782612c9b565b612d018185612ca6565b9350612d0c83612cb7565b8060005b83811015612d3d578151612d248882612cc7565b9750612d2f83612cdf565b925050600181019050612d10565b5085935050505092915050565b60006020820190508181036000830152612d648184612cec565b905092915050565b600082825260208201905092915050565b6000612d88826127d6565b612d928185612d6c565b9350612da28185602086016127f2565b612dab81612825565b840191505092915050565b60006020820190508181036000830152612dd08184612d7d565b905092915050565b600060a0820190508181036000830152612df28188612d7d565b9050612e016020830187612749565b8181036040830152612e138186612d7d565b9050612e226060830185612c44565b612e2f6080830184612c44565b9695505050505050565b600081519050919050565b600082825260208201905092915050565b6000819050602082019050919050565b6000612e718383612836565b905092915050565b6000602082019050919050565b6000612e9182612e39565b612e9b8185612e44565b935083602082028501612ead85612e55565b8060005b85811015612ee95784840389528151612eca8582612e65565b9450612ed583612e79565b925060208a01995050600181019050612eb1565b50829750879550505050505092915050565b60006020820190508181036000830152612f158184612e86565b905092915050565b612f2681612b86565b82525050565b6000602082019050612f416000830184612f1d565b92915050565b6000604082019050612f5c6000830185612c44565b612f696020830184612749565b9392505050565b7f4e487b7100000000000000000000000000000000000000000000000000000000600052602260045260246000fd5b60006002820490506001821680612fb757607f821691505b60208210811415612fcb57612fca612f70565b5b50919050565b7f53747564656e7473455243373231206e6f7420646566696e6564000000000000600082015250565b6000613007601a83612d6c565b915061301282612fd1565b602082019050919050565b6000602082019050818103600083015261303681612ffa565b9050919050565b60006040820190506130526000830185612c44565b81810360208301526130648184612d7d565b90509392505050565b7f436f7572736520696e6163746976650000000000000000000000000000000000600082015250565b60006130a3600f83612d6c565b91506130ae8261306d565b602082019050919050565b600060208201905081810360008301526130d281613096565b9050919050565b60008190508160005260206000209050919050565b600081546130fb81612f9f565b6131058186612d6c565b94506001821660008114613120576001811461313257613165565b60ff1983168652602086019350613165565b61313b856130d9565b60005b8381101561315d5781548189015260018201915060208101905061313e565b808801955050505b50505092915050565b60006040820190506131836000830185612c44565b818103602083015261319581846130ee565b90509392505050565b7f53747564656e74206e6f74207265676973746572656400000000000000000000600082015250565b60006131d4601683612d6c565b91506131df8261319e565b602082019050919050565b60006020820190508181036000830152613203816131c7565b9050919050565b7f416363657373436f6e74726f6c3a2063616e206f6e6c792072656e6f756e636560008201527f20726f6c657320666f722073656c660000000000000000000000000000000000602082015250565b6000613266602f83612d6c565b91506132718261320a565b604082019050919050565b6000602082019050818103600083015261329581613259565b9050919050565b7f4e487b7100000000000000000000000000000000000000000000000000000000600052601160045260246000fd5b60006132d682612773565b91506132e183612773565b9250828210156132f4576132f361329c565b5b828203905092915050565b60006060820190506133146000830186612c44565b6133216020830185612c44565b61332e6040830184612f1d565b949350505050565b61333f8161273d565b811461334a57600080fd5b50565b60008151905061335c81613336565b92915050565b600060208284031215613378576133776126da565b5b60006133868482850161334d565b91505092915050565b7f436f6e7472616374206d757374206465726976652066726f6d20455243373231600082015250565b60006133c5602083612d6c565b91506133d08261338f565b602082019050919050565b600060208201905081810360008301526133f4816133b8565b9050919050565b60008151905061340a8161277d565b92915050565b600060208284031215613426576134256126da565b5b6000613434848285016133fb565b91505092915050565b60006040820190506134526000830185612f1d565b61345f6020830184612c44565b9392505050565b7f4e487b7100000000000000000000000000000000000000000000000000000000600052603260045260246000fd5b60006134a082612773565b91507fffffffffffffffffffffffffffffffffffffffffffffffffffffffffffffffff8214156134d3576134d261329c565b5b600182019050919050565b7f496e697469616c697a61626c653a20636f6e747261637420697320616c72656160008201527f647920696e697469616c697a6564000000000000000000000000000000000000602082015250565b600061353a602e83612d6c565b9150613545826134de565b604082019050919050565b600060208201905081810360008301526135698161352d565b9050919050565b6000819050919050565b600060ff82169050919050565b6000819050919050565b60006135ac6135a76135a284613570565b613587565b61357a565b9050919050565b6135bc81613591565b82525050565b60006020820190506135d760008301846135b3565b92915050565b60006135f06135eb846129b1565b612996565b90508281526020810184848401111561360c5761360b612931565b5b6136178482856127f2565b509392505050565b600082601f8301126136345761363361292c565b5b81516136448482602086016135dd565b91505092915050565b600060208284031215613663576136626126da565b5b600082015167ffffffffffffffff811115613681576136806126df565b5b61368d8482850161361f565b91505092915050565b7f53747564656e7420616c72656164792072656769737465726564000000000000600082015250565b60006136cc601a83612d6c565b91506136d782613696565b602082019050919050565b600060208201905081810360008301526136fb816136bf565b9050919050565b7f5a65726f20616464726573730000000000000000000000000000000000000000600082015250565b6000613738600c83612d6c565b915061374382613702565b602082019050919050565b600060208201905081810360008301526137678161372b565b9050919050565b60006040820190506137836000830185612f1d565b818103602083015261379581846130ee565b90509392505050565b60006137a982612773565b91506137b483612773565b9250827fffffffffffffffffffffffffffffffffffffffffffffffffffffffffffffffff038211156137e9576137e861329c565b5b828201905092915050565b7f436f756e7465723a2064656372656d656e74206f766572666c6f770000000000600082015250565b600061382a601b83612d6c565b9150613835826137f4565b602082019050919050565b600060208201905081810360008301526138598161381d565b9050919050565b7f496e697469616c697a61626c653a20636f6e7472616374206973206e6f74206960008201527f6e697469616c697a696e67000000000000000000000000000000000000000000602082015250565b60006138bc602b83612d6c565b91506138c782613860565b604082019050919050565b600060208201905081810360008301526138eb816138af565b9050919050565b600081905092915050565b7f416363657373436f6e74726f6c3a206163636f756e7420000000000000000000600082015250565b60006139336017836138f2565b915061393e826138fd565b601782019050919050565b6000613954826127d6565b61395e81856138f2565b935061396e8185602086016127f2565b80840191505092915050565b7f206973206d697373696e6720726f6c6520000000000000000000000000000000600082015250565b60006139b06011836138f2565b91506139bb8261397a565b601182019050919050565b60006139d182613926565b91506139dd8285613949565b91506139e8826139a3565b91506139f48284613949565b91508190509392505050565b7f5061757361626c653a206e6f7420706175736564000000000000000000000000600082015250565b6000613a36601483612d6c565b9150613a4182613a00565b602082019050919050565b60006020820190508181036000830152613a6581613a29565b9050919050565b7f5061757361626c653a2070617573656400000000000000000000000000000000600082015250565b6000613aa2601083612d6c565b9150613aad82613a6c565b602082019050919050565b60006020820190508181036000830152613ad181613a95565b9050919050565b6000613ae382612773565b9150613aee83612773565b9250817fffffffffffffffffffffffffffffffffffffffffffffffffffffffffffffffff0483118215151615613b2757613b2661329c565b5b828202905092915050565b6000613b3d82612773565b91506000821415613b5157613b5061329c565b5b600182039050919050565b7f537472696e67733a20686578206c656e67746820696e73756666696369656e74600082015250565b6000613b92602083612d6c565b9150613b9d82613b5c565b602082019050919050565b60006020820190508181036000830152613bc181613b85565b905091905056fea2646970667358221220bd46c5d57791dd30eb15d84d675c6a7232e5649de4f0f40117df073705169b9c64736f6c63430008090033",
  "devdoc": {
    "kind": "dev",
    "methods": {
      "getRoleAdmin(bytes32)": {
        "details": "Returns the admin role that controls `role`. See {grantRole} and {revokeRole}. To change a role's admin, use {_setRoleAdmin}."
      },
      "grantRole(bytes32,address)": {
        "details": "Grants `role` to `account`. If `account` had not been already granted `role`, emits a {RoleGranted} event. Requirements: - the caller must have ``role``'s admin role. May emit a {RoleGranted} event."
      },
      "hasRole(bytes32,address)": {
        "details": "Returns `true` if `account` has been granted `role`."
      },
      "paused()": {
        "details": "Returns true if the contract is paused, and false otherwise."
      },
      "renounceRole(bytes32,address)": {
        "details": "Revokes `role` from the calling account. Roles are often managed via {grantRole} and {revokeRole}: this function's purpose is to provide a mechanism for accounts to lose their privileges if they are compromised (such as when a trusted device is misplaced). If the calling account had been revoked `role`, emits a {RoleRevoked} event. Requirements: - the caller must be `account`. May emit a {RoleRevoked} event."
      },
      "revokeRole(bytes32,address)": {
        "details": "Revokes `role` from `account`. If `account` had been granted `role`, emits a {RoleRevoked} event. Requirements: - the caller must have ``role``'s admin role. May emit a {RoleRevoked} event."
      },
      "supportsInterface(bytes4)": {
        "details": "See {IERC165-supportsInterface}."
      }
    },
    "version": 1
  },
  "userdoc": {
    "kind": "user",
    "methods": {},
    "version": 1
  },
  "storageLayout": {
    "storage": [
      {
        "astId": 419,
        "contract": "contracts/Institution.sol:Institution",
        "label": "_initialized",
        "offset": 0,
        "slot": "0",
        "type": "t_uint8"
      },
      {
        "astId": 422,
        "contract": "contracts/Institution.sol:Institution",
        "label": "_initializing",
        "offset": 1,
        "slot": "0",
        "type": "t_bool"
      },
      {
        "astId": 2561,
        "contract": "contracts/Institution.sol:Institution",
        "label": "__gap",
        "offset": 0,
        "slot": "1",
        "type": "t_array(t_uint256)50_storage"
      },
      {
        "astId": 584,
        "contract": "contracts/Institution.sol:Institution",
        "label": "_paused",
        "offset": 0,
        "slot": "51",
        "type": "t_bool"
      },
      {
        "astId": 689,
        "contract": "contracts/Institution.sol:Institution",
        "label": "__gap",
        "offset": 0,
        "slot": "52",
        "type": "t_array(t_uint256)49_storage"
      },
      {
        "astId": 2905,
        "contract": "contracts/Institution.sol:Institution",
        "label": "__gap",
        "offset": 0,
        "slot": "101",
        "type": "t_array(t_uint256)50_storage"
      },
      {
        "astId": 39,
        "contract": "contracts/Institution.sol:Institution",
        "label": "_roles",
        "offset": 0,
        "slot": "151",
        "type": "t_mapping(t_bytes32,t_struct(RoleData)34_storage)"
      },
      {
        "astId": 338,
        "contract": "contracts/Institution.sol:Institution",
        "label": "__gap",
        "offset": 0,
        "slot": "152",
        "type": "t_array(t_uint256)49_storage"
      },
      {
        "astId": 3292,
        "contract": "contracts/Institution.sol:Institution",
        "label": "studentsERC721",
        "offset": 0,
        "slot": "201",
        "type": "t_address"
      },
      {
        "astId": 3308,
        "contract": "contracts/Institution.sol:Institution",
        "label": "courses",
        "offset": 0,
        "slot": "202",
        "type": "t_mapping(t_uint256,t_struct(Course)3303_storage)"
      },
      {
        "astId": 3311,
        "contract": "contracts/Institution.sol:Institution",
        "label": "courseCounter",
        "offset": 0,
        "slot": "203",
        "type": "t_struct(Counter)2568_storage"
      },
      {
        "astId": 3314,
        "contract": "contracts/Institution.sol:Institution",
        "label": "activeCourseCounter",
        "offset": 0,
        "slot": "204",
        "type": "t_struct(Counter)2568_storage"
      },
      {
        "astId": 3326,
        "contract": "contracts/Institution.sol:Institution",
        "label": "students",
        "offset": 0,
        "slot": "205",
        "type": "t_mapping(t_uint256,t_mapping(t_address,t_struct(Student)3319_storage))"
      },
      {
        "astId": 3329,
        "contract": "contracts/Institution.sol:Institution",
        "label": "studentCounter",
        "offset": 0,
        "slot": "206",
        "type": "t_struct(Counter)2568_storage"
      }
    ],
    "types": {
      "t_address": {
        "encoding": "inplace",
        "label": "address",
        "numberOfBytes": "20"
      },
      "t_array(t_uint256)49_storage": {
        "base": "t_uint256",
        "encoding": "inplace",
        "label": "uint256[49]",
        "numberOfBytes": "1568"
      },
      "t_array(t_uint256)50_storage": {
        "base": "t_uint256",
        "encoding": "inplace",
        "label": "uint256[50]",
        "numberOfBytes": "1600"
      },
      "t_bool": {
        "encoding": "inplace",
        "label": "bool",
        "numberOfBytes": "1"
      },
      "t_bytes32": {
        "encoding": "inplace",
        "label": "bytes32",
        "numberOfBytes": "32"
      },
      "t_mapping(t_address,t_bool)": {
        "encoding": "mapping",
        "key": "t_address",
        "label": "mapping(address => bool)",
        "numberOfBytes": "32",
        "value": "t_bool"
      },
      "t_mapping(t_address,t_struct(Student)3319_storage)": {
        "encoding": "mapping",
        "key": "t_address",
        "label": "mapping(address => struct Institution.Student)",
        "numberOfBytes": "32",
        "value": "t_struct(Student)3319_storage"
      },
      "t_mapping(t_bytes32,t_struct(RoleData)34_storage)": {
        "encoding": "mapping",
        "key": "t_bytes32",
        "label": "mapping(bytes32 => struct AccessControlUpgradeable.RoleData)",
        "numberOfBytes": "32",
        "value": "t_struct(RoleData)34_storage"
      },
      "t_mapping(t_uint256,t_mapping(t_address,t_struct(Student)3319_storage))": {
        "encoding": "mapping",
        "key": "t_uint256",
        "label": "mapping(uint256 => mapping(address => struct Institution.Student))",
        "numberOfBytes": "32",
        "value": "t_mapping(t_address,t_struct(Student)3319_storage)"
      },
      "t_mapping(t_uint256,t_struct(Course)3303_storage)": {
        "encoding": "mapping",
        "key": "t_uint256",
        "label": "mapping(uint256 => struct Institution.Course)",
        "numberOfBytes": "32",
        "value": "t_struct(Course)3303_storage"
      },
      "t_string_storage": {
        "encoding": "bytes",
        "label": "string",
        "numberOfBytes": "32"
      },
      "t_struct(Counter)2568_storage": {
        "encoding": "inplace",
        "label": "struct CountersUpgradeable.Counter",
        "members": [
          {
            "astId": 2567,
            "contract": "contracts/Institution.sol:Institution",
            "label": "_value",
            "offset": 0,
            "slot": "0",
            "type": "t_uint256"
          }
        ],
        "numberOfBytes": "32"
      },
      "t_struct(Course)3303_storage": {
        "encoding": "inplace",
        "label": "struct Institution.Course",
        "members": [
          {
            "astId": 3294,
            "contract": "contracts/Institution.sol:Institution",
            "label": "name",
            "offset": 0,
            "slot": "0",
            "type": "t_string_storage"
          },
          {
            "astId": 3296,
            "contract": "contracts/Institution.sol:Institution",
            "label": "isActive",
            "offset": 0,
            "slot": "1",
            "type": "t_bool"
          },
          {
            "astId": 3298,
            "contract": "contracts/Institution.sol:Institution",
            "label": "baseURI",
            "offset": 0,
            "slot": "2",
            "type": "t_string_storage"
          },
          {
            "astId": 3300,
            "contract": "contracts/Institution.sol:Institution",
            "label": "studentsBalance",
            "offset": 0,
            "slot": "3",
            "type": "t_uint256"
          },
          {
            "astId": 3302,
            "contract": "contracts/Institution.sol:Institution",
            "label": "activeStudentsBalance",
            "offset": 0,
            "slot": "4",
            "type": "t_uint256"
          }
        ],
        "numberOfBytes": "160"
      },
      "t_struct(RoleData)34_storage": {
        "encoding": "inplace",
        "label": "struct AccessControlUpgradeable.RoleData",
        "members": [
          {
            "astId": 31,
            "contract": "contracts/Institution.sol:Institution",
            "label": "members",
            "offset": 0,
            "slot": "0",
            "type": "t_mapping(t_address,t_bool)"
          },
          {
            "astId": 33,
            "contract": "contracts/Institution.sol:Institution",
            "label": "adminRole",
            "offset": 0,
            "slot": "1",
            "type": "t_bytes32"
          }
        ],
        "numberOfBytes": "64"
      },
      "t_struct(Student)3319_storage": {
        "encoding": "inplace",
        "label": "struct Institution.Student",
        "members": [
          {
            "astId": 3316,
            "contract": "contracts/Institution.sol:Institution",
            "label": "id",
            "offset": 0,
            "slot": "0",
            "type": "t_uint256"
          },
          {
            "astId": 3318,
            "contract": "contracts/Institution.sol:Institution",
            "label": "isActive",
            "offset": 0,
            "slot": "1",
            "type": "t_bool"
          }
        ],
        "numberOfBytes": "64"
      },
      "t_uint256": {
        "encoding": "inplace",
        "label": "uint256",
        "numberOfBytes": "32"
      },
      "t_uint8": {
        "encoding": "inplace",
        "label": "uint8",
        "numberOfBytes": "1"
      }
    }
  }
}