{
  "address": "0xcdb0635A95eBaF1B386CdaAAAaB8E1D861a62693",
  "abi": [
    {
      "inputs": [],
      "stateMutability": "nonpayable",
      "type": "constructor"
    },
    {
      "anonymous": false,
      "inputs": [
        {
          "indexed": true,
          "internalType": "address",
          "name": "owner",
          "type": "address"
        },
        {
          "indexed": true,
          "internalType": "address",
          "name": "approved",
          "type": "address"
        },
        {
          "indexed": true,
          "internalType": "uint256",
          "name": "tokenId",
          "type": "uint256"
        }
      ],
      "name": "Approval",
      "type": "event"
    },
    {
      "anonymous": false,
      "inputs": [
        {
          "indexed": true,
          "internalType": "address",
          "name": "owner",
          "type": "address"
        },
        {
          "indexed": true,
          "internalType": "address",
          "name": "operator",
          "type": "address"
        },
        {
          "indexed": false,
          "internalType": "bool",
          "name": "approved",
          "type": "bool"
        }
      ],
      "name": "ApprovalForAll",
      "type": "event"
    },
    {
      "anonymous": false,
      "inputs": [
        {
          "indexed": false,
          "internalType": "uint8",
          "name": "version",
          "type": "uint8"
        }
      ],
      "name": "Initialized",
      "type": "event"
    },
    {
      "anonymous": false,
      "inputs": [
        {
          "indexed": false,
          "internalType": "address",
          "name": "account",
          "type": "address"
        }
      ],
      "name": "Paused",
      "type": "event"
    },
    {
      "anonymous": false,
      "inputs": [
        {
          "indexed": true,
          "internalType": "bytes32",
          "name": "role",
          "type": "bytes32"
        },
        {
          "indexed": true,
          "internalType": "bytes32",
          "name": "previousAdminRole",
          "type": "bytes32"
        },
        {
          "indexed": true,
          "internalType": "bytes32",
          "name": "newAdminRole",
          "type": "bytes32"
        }
      ],
      "name": "RoleAdminChanged",
      "type": "event"
    },
    {
      "anonymous": false,
      "inputs": [
        {
          "indexed": true,
          "internalType": "bytes32",
          "name": "role",
          "type": "bytes32"
        },
        {
          "indexed": true,
          "internalType": "address",
          "name": "account",
          "type": "address"
        },
        {
          "indexed": true,
          "internalType": "address",
          "name": "sender",
          "type": "address"
        }
      ],
      "name": "RoleGranted",
      "type": "event"
    },
    {
      "anonymous": false,
      "inputs": [
        {
          "indexed": true,
          "internalType": "bytes32",
          "name": "role",
          "type": "bytes32"
        },
        {
          "indexed": true,
          "internalType": "address",
          "name": "account",
          "type": "address"
        },
        {
          "indexed": true,
          "internalType": "address",
          "name": "sender",
          "type": "address"
        }
      ],
      "name": "RoleRevoked",
      "type": "event"
    },
    {
      "anonymous": false,
      "inputs": [
        {
          "indexed": true,
          "internalType": "address",
          "name": "from",
          "type": "address"
        },
        {
          "indexed": true,
          "internalType": "address",
          "name": "to",
          "type": "address"
        },
        {
          "indexed": true,
          "internalType": "uint256",
          "name": "tokenId",
          "type": "uint256"
        }
      ],
      "name": "Transfer",
      "type": "event"
    },
    {
      "anonymous": false,
      "inputs": [
        {
          "indexed": false,
          "internalType": "address",
          "name": "account",
          "type": "address"
        }
      ],
      "name": "Unpaused",
      "type": "event"
    },
    {
      "inputs": [],
      "name": "DEFAULT_ADMIN_ROLE",
      "outputs": [
        {
          "internalType": "bytes32",
          "name": "",
          "type": "bytes32"
        }
      ],
      "stateMutability": "view",
      "type": "function"
    },
    {
      "inputs": [],
      "name": "MINTER_ROLE",
      "outputs": [
        {
          "internalType": "bytes32",
          "name": "",
          "type": "bytes32"
        }
      ],
      "stateMutability": "view",
      "type": "function"
    },
    {
      "inputs": [],
      "name": "PAUSER_ROLE",
      "outputs": [
        {
          "internalType": "bytes32",
          "name": "",
          "type": "bytes32"
        }
      ],
      "stateMutability": "view",
      "type": "function"
    },
    {
      "inputs": [
        {
          "internalType": "address",
          "name": "to",
          "type": "address"
        },
        {
          "internalType": "uint256",
          "name": "tokenId",
          "type": "uint256"
        }
      ],
      "name": "approve",
      "outputs": [],
      "stateMutability": "nonpayable",
      "type": "function"
    },
    {
      "inputs": [
        {
          "internalType": "address",
          "name": "owner",
          "type": "address"
        }
      ],
      "name": "balanceOf",
      "outputs": [
        {
          "internalType": "uint256",
          "name": "",
          "type": "uint256"
        }
      ],
      "stateMutability": "view",
      "type": "function"
    },
    {
      "inputs": [
        {
          "internalType": "uint256",
          "name": "tokenId",
          "type": "uint256"
        }
      ],
      "name": "getApproved",
      "outputs": [
        {
          "internalType": "address",
          "name": "",
          "type": "address"
        }
      ],
      "stateMutability": "view",
      "type": "function"
    },
    {
      "inputs": [
        {
          "internalType": "bytes32",
          "name": "role",
          "type": "bytes32"
        }
      ],
      "name": "getRoleAdmin",
      "outputs": [
        {
          "internalType": "bytes32",
          "name": "",
          "type": "bytes32"
        }
      ],
      "stateMutability": "view",
      "type": "function"
    },
    {
      "inputs": [
        {
          "internalType": "bytes32",
          "name": "role",
          "type": "bytes32"
        },
        {
          "internalType": "address",
          "name": "account",
          "type": "address"
        }
      ],
      "name": "grantRole",
      "outputs": [],
      "stateMutability": "nonpayable",
      "type": "function"
    },
    {
      "inputs": [
        {
          "internalType": "bytes32",
          "name": "role",
          "type": "bytes32"
        },
        {
          "internalType": "address",
          "name": "account",
          "type": "address"
        }
      ],
      "name": "hasRole",
      "outputs": [
        {
          "internalType": "bool",
          "name": "",
          "type": "bool"
        }
      ],
      "stateMutability": "view",
      "type": "function"
    },
    {
      "inputs": [
        {
          "internalType": "address",
          "name": "institution",
          "type": "address"
        }
      ],
      "name": "initialize",
      "outputs": [],
      "stateMutability": "nonpayable",
      "type": "function"
    },
    {
      "inputs": [
        {
          "internalType": "address",
          "name": "owner",
          "type": "address"
        },
        {
          "internalType": "address",
          "name": "operator",
          "type": "address"
        }
      ],
      "name": "isApprovedForAll",
      "outputs": [
        {
          "internalType": "bool",
          "name": "",
          "type": "bool"
        }
      ],
      "stateMutability": "view",
      "type": "function"
    },
    {
      "inputs": [],
      "name": "name",
      "outputs": [
        {
          "internalType": "string",
          "name": "",
          "type": "string"
        }
      ],
      "stateMutability": "view",
      "type": "function"
    },
    {
      "inputs": [
        {
          "internalType": "uint256",
          "name": "tokenId",
          "type": "uint256"
        }
      ],
      "name": "ownerOf",
      "outputs": [
        {
          "internalType": "address",
          "name": "",
          "type": "address"
        }
      ],
      "stateMutability": "view",
      "type": "function"
    },
    {
      "inputs": [],
      "name": "pause",
      "outputs": [],
      "stateMutability": "nonpayable",
      "type": "function"
    },
    {
      "inputs": [],
      "name": "paused",
      "outputs": [
        {
          "internalType": "bool",
          "name": "",
          "type": "bool"
        }
      ],
      "stateMutability": "view",
      "type": "function"
    },
    {
      "inputs": [
        {
          "internalType": "bytes32",
          "name": "role",
          "type": "bytes32"
        },
        {
          "internalType": "address",
          "name": "account",
          "type": "address"
        }
      ],
      "name": "renounceRole",
      "outputs": [],
      "stateMutability": "nonpayable",
      "type": "function"
    },
    {
      "inputs": [
        {
          "internalType": "bytes32",
          "name": "role",
          "type": "bytes32"
        },
        {
          "internalType": "address",
          "name": "account",
          "type": "address"
        }
      ],
      "name": "revokeRole",
      "outputs": [],
      "stateMutability": "nonpayable",
      "type": "function"
    },
    {
      "inputs": [
        {
          "internalType": "address",
          "name": "to",
          "type": "address"
        },
        {
          "internalType": "string",
          "name": "uri",
          "type": "string"
        }
      ],
      "name": "safeMint",
      "outputs": [
        {
          "internalType": "uint256",
          "name": "",
          "type": "uint256"
        }
      ],
      "stateMutability": "nonpayable",
      "type": "function"
    },
    {
      "inputs": [
        {
          "internalType": "address",
          "name": "from",
          "type": "address"
        },
        {
          "internalType": "address",
          "name": "to",
          "type": "address"
        },
        {
          "internalType": "uint256",
          "name": "tokenId",
          "type": "uint256"
        }
      ],
      "name": "safeTransferFrom",
      "outputs": [],
      "stateMutability": "nonpayable",
      "type": "function"
    },
    {
      "inputs": [
        {
          "internalType": "address",
          "name": "from",
          "type": "address"
        },
        {
          "internalType": "address",
          "name": "to",
          "type": "address"
        },
        {
          "internalType": "uint256",
          "name": "tokenId",
          "type": "uint256"
        },
        {
          "internalType": "bytes",
          "name": "data",
          "type": "bytes"
        }
      ],
      "name": "safeTransferFrom",
      "outputs": [],
      "stateMutability": "nonpayable",
      "type": "function"
    },
    {
      "inputs": [
        {
          "internalType": "address",
          "name": "operator",
          "type": "address"
        },
        {
          "internalType": "bool",
          "name": "approved",
          "type": "bool"
        }
      ],
      "name": "setApprovalForAll",
      "outputs": [],
      "stateMutability": "nonpayable",
      "type": "function"
    },
    {
      "inputs": [
        {
          "internalType": "bytes4",
          "name": "interfaceId",
          "type": "bytes4"
        }
      ],
      "name": "supportsInterface",
      "outputs": [
        {
          "internalType": "bool",
          "name": "",
          "type": "bool"
        }
      ],
      "stateMutability": "view",
      "type": "function"
    },
    {
      "inputs": [],
      "name": "symbol",
      "outputs": [
        {
          "internalType": "string",
          "name": "",
          "type": "string"
        }
      ],
      "stateMutability": "view",
      "type": "function"
    },
    {
      "inputs": [
        {
          "internalType": "uint256",
          "name": "index",
          "type": "uint256"
        }
      ],
      "name": "tokenByIndex",
      "outputs": [
        {
          "internalType": "uint256",
          "name": "",
          "type": "uint256"
        }
      ],
      "stateMutability": "view",
      "type": "function"
    },
    {
      "inputs": [
        {
          "internalType": "address",
          "name": "owner",
          "type": "address"
        },
        {
          "internalType": "uint256",
          "name": "index",
          "type": "uint256"
        }
      ],
      "name": "tokenOfOwnerByIndex",
      "outputs": [
        {
          "internalType": "uint256",
          "name": "",
          "type": "uint256"
        }
      ],
      "stateMutability": "view",
      "type": "function"
    },
    {
      "inputs": [
        {
          "internalType": "uint256",
          "name": "tokenId",
          "type": "uint256"
        }
      ],
      "name": "tokenURI",
      "outputs": [
        {
          "internalType": "string",
          "name": "",
          "type": "string"
        }
      ],
      "stateMutability": "view",
      "type": "function"
    },
    {
      "inputs": [],
      "name": "totalSupply",
      "outputs": [
        {
          "internalType": "uint256",
          "name": "",
          "type": "uint256"
        }
      ],
      "stateMutability": "view",
      "type": "function"
    },
    {
      "inputs": [
        {
          "internalType": "address",
          "name": "from",
          "type": "address"
        },
        {
          "internalType": "address",
          "name": "to",
          "type": "address"
        },
        {
          "internalType": "uint256",
          "name": "tokenId",
          "type": "uint256"
        }
      ],
      "name": "transferFrom",
      "outputs": [],
      "stateMutability": "nonpayable",
      "type": "function"
    },
    {
      "inputs": [],
      "name": "unpause",
      "outputs": [],
      "stateMutability": "nonpayable",
      "type": "function"
    }
  ],
  "transactionHash": "0xe8c43a7a3eb9bc8f64b43cf5998811cb215f2dd3405d377e0b8d425b17c61e2e",
  "args": [],
  "numDeployments": 2,
  "solcInputHash": "cd343a983fcbc3855315b6e3f3a7426c",
  "bytecode": "0x60806040523480156200001157600080fd5b50620000226200002860201b60201c565b620001d3565b600060019054906101000a900460ff16156200007b576040517f08c379a0000000000000000000000000000000000000000000000000000000008152600401620000729062000176565b60405180910390fd5b60ff801660008054906101000a900460ff1660ff161015620000ed5760ff6000806101000a81548160ff021916908360ff1602179055507f7f26b83ff96e1f2b6a682f133852f6798a09c465da95921460cefb384740249860ff604051620000e49190620001b6565b60405180910390a15b565b600082825260208201905092915050565b7f496e697469616c697a61626c653a20636f6e747261637420697320696e69746960008201527f616c697a696e6700000000000000000000000000000000000000000000000000602082015250565b60006200015e602783620000ef565b91506200016b8262000100565b604082019050919050565b6000602082019050818103600083015262000191816200014f565b9050919050565b600060ff82169050919050565b620001b08162000198565b82525050565b6000602082019050620001cd6000830184620001a5565b92915050565b6146cd80620001e36000396000f3fe608060405234801561001057600080fd5b50600436106101cf5760003560e01c80636352211e11610104578063b88d4fde116100a2578063d539139311610071578063d53913931461053e578063d547741f1461055c578063e63ab1e914610578578063e985e9c514610596576101cf565b8063b88d4fde146104a6578063c4d66de8146104c2578063c87b56dd146104de578063d204c45e1461050e576101cf565b806391d14854116100de57806391d148541461041e57806395d89b411461044e578063a217fddf1461046c578063a22cb4651461048a576101cf565b80636352211e146103b457806370a08231146103e45780638456cb5914610414576101cf565b80632f2ff15d116101715780633f4ba83a1161014b5780633f4ba83a1461034057806342842e0e1461034a5780634f6ccce7146103665780635c975abb14610396576101cf565b80632f2ff15d146102d85780632f745c59146102f457806336568abe14610324576101cf565b8063095ea7b3116101ad578063095ea7b31461025257806318160ddd1461026e57806323b872dd1461028c578063248a9ca3146102a8576101cf565b806301ffc9a7146101d457806306fdde0314610204578063081812fc14610222575b600080fd5b6101ee60048036038101906101e99190612fc0565b6105c6565b6040516101fb9190613008565b60405180910390f35b61020c6105d8565b60405161021991906130bc565b60405180910390f35b61023c60048036038101906102379190613114565b61066a565b6040516102499190613182565b60405180910390f35b61026c600480360381019061026791906131c9565b6106b0565b005b6102766107c8565b6040516102839190613218565b60405180910390f35b6102a660048036038101906102a19190613233565b6107d5565b005b6102c260048036038101906102bd91906132bc565b610835565b6040516102cf91906132f8565b60405180910390f35b6102f260048036038101906102ed9190613313565b610856565b005b61030e600480360381019061030991906131c9565b610877565b60405161031b9190613218565b60405180910390f35b61033e60048036038101906103399190613313565b61091c565b005b61034861099f565b005b610364600480360381019061035f9190613233565b6109d4565b005b610380600480360381019061037b9190613114565b6109f4565b60405161038d9190613218565b60405180910390f35b61039e610a65565b6040516103ab9190613008565b60405180910390f35b6103ce60048036038101906103c99190613114565b610a7c565b6040516103db9190613182565b60405180910390f35b6103fe60048036038101906103f99190613353565b610b2e565b60405161040b9190613218565b60405180910390f35b61041c610be6565b005b61043860048036038101906104339190613313565b610c1b565b6040516104459190613008565b60405180910390f35b610456610c87565b60405161046391906130bc565b60405180910390f35b610474610d19565b60405161048191906132f8565b60405180910390f35b6104a4600480360381019061049f91906133ac565b610d20565b005b6104c060048036038101906104bb9190613521565b610d36565b005b6104dc60048036038101906104d79190613353565b610d98565b005b6104f860048036038101906104f39190613114565b611025565b60405161050591906130bc565b60405180910390f35b61052860048036038101906105239190613645565b611037565b6040516105359190613218565b60405180910390f35b61054661109c565b60405161055391906132f8565b60405180910390f35b61057660048036038101906105719190613313565b6110c0565b005b6105806110e1565b60405161058d91906132f8565b60405180910390f35b6105b060048036038101906105ab91906136a1565b611105565b6040516105bd9190613008565b60405180910390f35b60006105d182611199565b9050919050565b6060606580546105e790613710565b80601f016020809104026020016040519081016040528092919081815260200182805461061390613710565b80156106605780601f1061063557610100808354040283529160200191610660565b820191906000526020600020905b81548152906001019060200180831161064357829003601f168201915b5050505050905090565b600061067582611213565b6069600083815260200190815260200160002060009054906101000a900473ffffffffffffffffffffffffffffffffffffffff169050919050565b60006106bb82610a7c565b90508073ffffffffffffffffffffffffffffffffffffffff168373ffffffffffffffffffffffffffffffffffffffff16141561072c576040517f08c379a0000000000000000000000000000000000000000000000000000000008152600401610723906137b4565b60405180910390fd5b8073ffffffffffffffffffffffffffffffffffffffff1661074b61125e565b73ffffffffffffffffffffffffffffffffffffffff16148061077a57506107798161077461125e565b611105565b5b6107b9576040517f08c379a00000000000000000000000000000000000000000000000000000000081526004016107b090613846565b60405180910390fd5b6107c38383611266565b505050565b6000609980549050905090565b6107e66107e061125e565b8261131f565b610825576040517f08c379a000000000000000000000000000000000000000000000000000000000815260040161081c906138d8565b60405180910390fd5b6108308383836113b4565b505050565b600061012d6000838152602001908152602001600020600101549050919050565b61085f82610835565b6108688161161b565b610872838361162f565b505050565b600061088283610b2e565b82106108c3576040517f08c379a00000000000000000000000000000000000000000000000000000000081526004016108ba9061396a565b60405180910390fd5b609760008473ffffffffffffffffffffffffffffffffffffffff1673ffffffffffffffffffffffffffffffffffffffff168152602001908152602001600020600083815260200190815260200160002054905092915050565b61092461125e565b73ffffffffffffffffffffffffffffffffffffffff168173ffffffffffffffffffffffffffffffffffffffff1614610991576040517f08c379a0000000000000000000000000000000000000000000000000000000008152600401610988906139fc565b60405180910390fd5b61099b8282611711565b5050565b7f65d7a28e3265b37a6474929f336521b332c1681b933f6cb9f3376673440d862a6109c98161161b565b6109d16117f4565b50565b6109ef83838360405180602001604052806000815250610d36565b505050565b60006109fe6107c8565b8210610a3f576040517f08c379a0000000000000000000000000000000000000000000000000000000008152600401610a3690613a8e565b60405180910390fd5b60998281548110610a5357610a52613aae565b5b90600052602060002001549050919050565b600060fb60009054906101000a900460ff16905090565b6000806067600084815260200190815260200160002060009054906101000a900473ffffffffffffffffffffffffffffffffffffffff169050600073ffffffffffffffffffffffffffffffffffffffff168173ffffffffffffffffffffffffffffffffffffffff161415610b25576040517f08c379a0000000000000000000000000000000000000000000000000000000008152600401610b1c90613b29565b60405180910390fd5b80915050919050565b60008073ffffffffffffffffffffffffffffffffffffffff168273ffffffffffffffffffffffffffffffffffffffff161415610b9f576040517f08c379a0000000000000000000000000000000000000000000000000000000008152600401610b9690613bbb565b60405180910390fd5b606860008373ffffffffffffffffffffffffffffffffffffffff1673ffffffffffffffffffffffffffffffffffffffff168152602001908152602001600020549050919050565b7f65d7a28e3265b37a6474929f336521b332c1681b933f6cb9f3376673440d862a610c108161161b565b610c18611857565b50565b600061012d600084815260200190815260200160002060000160008373ffffffffffffffffffffffffffffffffffffffff1673ffffffffffffffffffffffffffffffffffffffff16815260200190815260200160002060009054906101000a900460ff16905092915050565b606060668054610c9690613710565b80601f0160208091040260200160405190810160405280929190818152602001828054610cc290613710565b8015610d0f5780601f10610ce457610100808354040283529160200191610d0f565b820191906000526020600020905b815481529060010190602001808311610cf257829003601f168201915b5050505050905090565b6000801b81565b610d32610d2b61125e565b83836118ba565b5050565b610d47610d4161125e565b8361131f565b610d86576040517f08c379a0000000000000000000000000000000000000000000000000000000008152600401610d7d906138d8565b60405180910390fd5b610d9284848484611a27565b50505050565b60008060019054906101000a900460ff16159050808015610dc95750600160008054906101000a900460ff1660ff16105b80610df65750610dd830611a83565b158015610df55750600160008054906101000a900460ff1660ff16145b5b610e35576040517f08c379a0000000000000000000000000000000000000000000000000000000008152600401610e2c90613c4d565b60405180910390fd5b60016000806101000a81548160ff021916908360ff1602179055508015610e72576001600060016101000a81548160ff0219169083151502179055505b610ee66040518060400160405280601281526020017f53747564656e74734552433732312e736f6c00000000000000000000000000008152506040518060400160405280600381526020017f5354550000000000000000000000000000000000000000000000000000000000815250611aa6565b610eee611b03565b610ef6611b54565b610efe611ba5565b610f06611bfe565b610f136000801b3361162f565b610f3d7f65d7a28e3265b37a6474929f336521b332c1681b933f6cb9f3376673440d862a3361162f565b610f677f9f2df0fed2c77648de5860a4cc508cd0818c85b8b8a1ab4ceeef8d981c8956a63361162f565b610f746000801b8361162f565b610f9e7f65d7a28e3265b37a6474929f336521b332c1681b933f6cb9f3376673440d862a8361162f565b610fc87f9f2df0fed2c77648de5860a4cc508cd0818c85b8b8a1ab4ceeef8d981c8956a68361162f565b80156110215760008060016101000a81548160ff0219169083151502179055507f7f26b83ff96e1f2b6a682f133852f6798a09c465da95921460cefb384740249860016040516110189190613cbf565b60405180910390a15b5050565b606061103082611c4f565b9050919050565b60007f9f2df0fed2c77648de5860a4cc508cd0818c85b8b8a1ab4ceeef8d981c8956a66110638161161b565b600061107061015f611d62565b905061107d61015f611d70565b6110878582611d86565b6110918185611da4565b809250505092915050565b7f9f2df0fed2c77648de5860a4cc508cd0818c85b8b8a1ab4ceeef8d981c8956a681565b6110c982610835565b6110d28161161b565b6110dc8383611711565b505050565b7f65d7a28e3265b37a6474929f336521b332c1681b933f6cb9f3376673440d862a81565b6000606a60008473ffffffffffffffffffffffffffffffffffffffff1673ffffffffffffffffffffffffffffffffffffffff16815260200190815260200160002060008373ffffffffffffffffffffffffffffffffffffffff1673ffffffffffffffffffffffffffffffffffffffff16815260200190815260200160002060009054906101000a900460ff16905092915050565b60007f7965db0b000000000000000000000000000000000000000000000000000000007bffffffffffffffffffffffffffffffffffffffffffffffffffffffff1916827bffffffffffffffffffffffffffffffffffffffffffffffffffffffff1916148061120c575061120b82611e18565b5b9050919050565b61121c81611e92565b61125b576040517f08c379a000000000000000000000000000000000000000000000000000000000815260040161125290613b29565b60405180910390fd5b50565b600033905090565b816069600083815260200190815260200160002060006101000a81548173ffffffffffffffffffffffffffffffffffffffff021916908373ffffffffffffffffffffffffffffffffffffffff160217905550808273ffffffffffffffffffffffffffffffffffffffff166112d983610a7c565b73ffffffffffffffffffffffffffffffffffffffff167f8c5be1e5ebec7d5bd14f71427d1e84f3dd0314c0f7b2291e5b200ac8c7c3b92560405160405180910390a45050565b60008061132b83610a7c565b90508073ffffffffffffffffffffffffffffffffffffffff168473ffffffffffffffffffffffffffffffffffffffff16148061136d575061136c8185611105565b5b806113ab57508373ffffffffffffffffffffffffffffffffffffffff166113938461066a565b73ffffffffffffffffffffffffffffffffffffffff16145b91505092915050565b8273ffffffffffffffffffffffffffffffffffffffff166113d482610a7c565b73ffffffffffffffffffffffffffffffffffffffff161461142a576040517f08c379a000000000000000000000000000000000000000000000000000000000815260040161142190613d4c565b60405180910390fd5b600073ffffffffffffffffffffffffffffffffffffffff168273ffffffffffffffffffffffffffffffffffffffff16141561149a576040517f08c379a000000000000000000000000000000000000000000000000000000000815260040161149190613dde565b60405180910390fd5b6114a5838383611efe565b6114b0600082611266565b6001606860008573ffffffffffffffffffffffffffffffffffffffff1673ffffffffffffffffffffffffffffffffffffffff16815260200190815260200160002060008282546115009190613e2d565b925050819055506001606860008473ffffffffffffffffffffffffffffffffffffffff1673ffffffffffffffffffffffffffffffffffffffff16815260200190815260200160002060008282546115579190613e61565b92505081905550816067600083815260200190815260200160002060006101000a81548173ffffffffffffffffffffffffffffffffffffffff021916908373ffffffffffffffffffffffffffffffffffffffff160217905550808273ffffffffffffffffffffffffffffffffffffffff168473ffffffffffffffffffffffffffffffffffffffff167fddf252ad1be2c89b69c2b068fc378daa952ba7f163c4a11628f55a4df523b3ef60405160405180910390a4611616838383611f16565b505050565b61162c8161162761125e565b611f1b565b50565b6116398282610c1b565b61170d57600161012d600084815260200190815260200160002060000160008373ffffffffffffffffffffffffffffffffffffffff1673ffffffffffffffffffffffffffffffffffffffff16815260200190815260200160002060006101000a81548160ff0219169083151502179055506116b261125e565b73ffffffffffffffffffffffffffffffffffffffff168173ffffffffffffffffffffffffffffffffffffffff16837f2f8788117e7eff1d82e926ec794901d17c78024a50270940304540a733656f0d60405160405180910390a45b5050565b61171b8282610c1b565b156117f057600061012d600084815260200190815260200160002060000160008373ffffffffffffffffffffffffffffffffffffffff1673ffffffffffffffffffffffffffffffffffffffff16815260200190815260200160002060006101000a81548160ff02191690831515021790555061179561125e565b73ffffffffffffffffffffffffffffffffffffffff168173ffffffffffffffffffffffffffffffffffffffff16837ff6391f5c32d9c69d2a47ea670b442974b53935d1edc7fd64eb21e047a839171b60405160405180910390a45b5050565b6117fc611fb8565b600060fb60006101000a81548160ff0219169083151502179055507f5db9ee0a495bf2e6ff9c91a7834c1ba4fdd244a5e8aa4e537bd38aeae4b073aa61184061125e565b60405161184d9190613182565b60405180910390a1565b61185f612001565b600160fb60006101000a81548160ff0219169083151502179055507f62e78cea01bee320cd4e420270b5ea74000d11b0c9f74754ebdbfc544b05a2586118a361125e565b6040516118b09190613182565b60405180910390a1565b8173ffffffffffffffffffffffffffffffffffffffff168373ffffffffffffffffffffffffffffffffffffffff161415611929576040517f08c379a000000000000000000000000000000000000000000000000000000000815260040161192090613f03565b60405180910390fd5b80606a60008573ffffffffffffffffffffffffffffffffffffffff1673ffffffffffffffffffffffffffffffffffffffff16815260200190815260200160002060008473ffffffffffffffffffffffffffffffffffffffff1673ffffffffffffffffffffffffffffffffffffffff16815260200190815260200160002060006101000a81548160ff0219169083151502179055508173ffffffffffffffffffffffffffffffffffffffff168373ffffffffffffffffffffffffffffffffffffffff167f17307eab39ab6107e8899845ad3d59bd9653f200f220920489ca2b5937696c3183604051611a1a9190613008565b60405180910390a3505050565b611a328484846113b4565b611a3e8484848461204b565b611a7d576040517f08c379a0000000000000000000000000000000000000000000000000000000008152600401611a7490613f95565b60405180910390fd5b50505050565b6000808273ffffffffffffffffffffffffffffffffffffffff163b119050919050565b600060019054906101000a900460ff16611af5576040517f08c379a0000000000000000000000000000000000000000000000000000000008152600401611aec90614027565b60405180910390fd5b611aff82826121e2565b5050565b600060019054906101000a900460ff16611b52576040517f08c379a0000000000000000000000000000000000000000000000000000000008152600401611b4990614027565b60405180910390fd5b565b600060019054906101000a900460ff16611ba3576040517f08c379a0000000000000000000000000000000000000000000000000000000008152600401611b9a90614027565b60405180910390fd5b565b600060019054906101000a900460ff16611bf4576040517f08c379a0000000000000000000000000000000000000000000000000000000008152600401611beb90614027565b60405180910390fd5b611bfc612263565b565b600060019054906101000a900460ff16611c4d576040517f08c379a0000000000000000000000000000000000000000000000000000000008152600401611c4490614027565b60405180910390fd5b565b6060611c5a82611213565b600060c960008481526020019081526020016000208054611c7a90613710565b80601f0160208091040260200160405190810160405280929190818152602001828054611ca690613710565b8015611cf35780601f10611cc857610100808354040283529160200191611cf3565b820191906000526020600020905b815481529060010190602001808311611cd657829003601f168201915b505050505090506000611d046122cf565b9050600081511415611d1a578192505050611d5d565b600082511115611d4f578082604051602001611d37929190614083565b60405160208183030381529060405292505050611d5d565b611d588461230c565b925050505b919050565b600081600001549050919050565b6001816000016000828254019250508190555050565b611da0828260405180602001604052806000815250612374565b5050565b611dad82611e92565b611dec576040517f08c379a0000000000000000000000000000000000000000000000000000000008152600401611de390614119565b60405180910390fd5b8060c960008481526020019081526020016000209080519060200190611e13929190612eb1565b505050565b60007f780e9d63000000000000000000000000000000000000000000000000000000007bffffffffffffffffffffffffffffffffffffffffffffffffffffffff1916827bffffffffffffffffffffffffffffffffffffffffffffffffffffffff19161480611e8b5750611e8a826123cf565b5b9050919050565b60008073ffffffffffffffffffffffffffffffffffffffff166067600084815260200190815260200160002060009054906101000a900473ffffffffffffffffffffffffffffffffffffffff1673ffffffffffffffffffffffffffffffffffffffff1614159050919050565b611f06612001565b611f118383836124b1565b505050565b505050565b611f258282610c1b565b611fb457611f4a8173ffffffffffffffffffffffffffffffffffffffff1660146125c5565b611f588360001c60206125c5565b604051602001611f699291906141d1565b6040516020818303038152906040526040517f08c379a0000000000000000000000000000000000000000000000000000000008152600401611fab91906130bc565b60405180910390fd5b5050565b611fc0610a65565b611fff576040517f08c379a0000000000000000000000000000000000000000000000000000000008152600401611ff690614257565b60405180910390fd5b565b612009610a65565b15612049576040517f08c379a0000000000000000000000000000000000000000000000000000000008152600401612040906142c3565b60405180910390fd5b565b600061206c8473ffffffffffffffffffffffffffffffffffffffff16611a83565b156121d5578373ffffffffffffffffffffffffffffffffffffffff1663150b7a0261209561125e565b8786866040518563ffffffff1660e01b81526004016120b79493929190614338565b602060405180830381600087803b1580156120d157600080fd5b505af192505050801561210257506040513d601f19601f820116820180604052508101906120ff9190614399565b60015b612185573d8060008114612132576040519150601f19603f3d011682016040523d82523d6000602084013e612137565b606091505b5060008151141561217d576040517f08c379a000000000000000000000000000000000000000000000000000000000815260040161217490613f95565b60405180910390fd5b805181602001fd5b63150b7a0260e01b7bffffffffffffffffffffffffffffffffffffffffffffffffffffffff1916817bffffffffffffffffffffffffffffffffffffffffffffffffffffffff1916149150506121da565b600190505b949350505050565b600060019054906101000a900460ff16612231576040517f08c379a000000000000000000000000000000000000000000000000000000000815260040161222890614027565b60405180910390fd5b8160659080519060200190612247929190612eb1565b50806066908051906020019061225e929190612eb1565b505050565b600060019054906101000a900460ff166122b2576040517f08c379a00000000000000000000000000000000000000000000000000000000081526004016122a990614027565b60405180910390fd5b600060fb60006101000a81548160ff021916908315150217905550565b60606040518060400160405280601581526020017f687474703a2f2f6c6f63616c686f73743a333030300000000000000000000000815250905090565b606061231782611213565b60006123216122cf565b90506000815111612341576040518060200160405280600081525061236c565b8061234b84612801565b60405160200161235c929190614083565b6040516020818303038152906040525b915050919050565b61237e8383612962565b61238b600084848461204b565b6123ca576040517f08c379a00000000000000000000000000000000000000000000000000000000081526004016123c190613f95565b60405180910390fd5b505050565b60007f80ac58cd000000000000000000000000000000000000000000000000000000007bffffffffffffffffffffffffffffffffffffffffffffffffffffffff1916827bffffffffffffffffffffffffffffffffffffffffffffffffffffffff1916148061249a57507f5b5e139f000000000000000000000000000000000000000000000000000000007bffffffffffffffffffffffffffffffffffffffffffffffffffffffff1916827bffffffffffffffffffffffffffffffffffffffffffffffffffffffff1916145b806124aa57506124a982612b3c565b5b9050919050565b6124bc838383612ba6565b600073ffffffffffffffffffffffffffffffffffffffff168373ffffffffffffffffffffffffffffffffffffffff1614156124ff576124fa81612bab565b61253e565b8173ffffffffffffffffffffffffffffffffffffffff168373ffffffffffffffffffffffffffffffffffffffff161461253d5761253c8382612bf4565b5b5b600073ffffffffffffffffffffffffffffffffffffffff168273ffffffffffffffffffffffffffffffffffffffff1614156125815761257c81612d61565b6125c0565b8273ffffffffffffffffffffffffffffffffffffffff168273ffffffffffffffffffffffffffffffffffffffff16146125bf576125be8282612e32565b5b5b505050565b6060600060028360026125d891906143c6565b6125e29190613e61565b67ffffffffffffffff8111156125fb576125fa6133f6565b5b6040519080825280601f01601f19166020018201604052801561262d5781602001600182028036833780820191505090505b5090507f30000000000000000000000000000000000000000000000000000000000000008160008151811061266557612664613aae565b5b60200101907effffffffffffffffffffffffffffffffffffffffffffffffffffffffffffff1916908160001a9053507f7800000000000000000000000000000000000000000000000000000000000000816001815181106126c9576126c8613aae565b5b60200101907effffffffffffffffffffffffffffffffffffffffffffffffffffffffffffff1916908160001a9053506000600184600261270991906143c6565b6127139190613e61565b90505b60018111156127b3577f3031323334353637383961626364656600000000000000000000000000000000600f86166010811061275557612754613aae565b5b1a60f81b82828151811061276c5761276b613aae565b5b60200101907effffffffffffffffffffffffffffffffffffffffffffffffffffffffffffff1916908160001a905350600485901c9450806127ac90614420565b9050612716565b50600084146127f7576040517f08c379a00000000000000000000000000000000000000000000000000000000081526004016127ee90614496565b60405180910390fd5b8091505092915050565b60606000821415612849576040518060400160405280600181526020017f3000000000000000000000000000000000000000000000000000000000000000815250905061295d565b600082905060005b6000821461287b578080612864906144b6565b915050600a82612874919061452e565b9150612851565b60008167ffffffffffffffff811115612897576128966133f6565b5b6040519080825280601f01601f1916602001820160405280156128c95781602001600182028036833780820191505090505b5090505b60008514612956576001826128e29190613e2d565b9150600a856128f1919061455f565b60306128fd9190613e61565b60f81b81838151811061291357612912613aae565b5b60200101907effffffffffffffffffffffffffffffffffffffffffffffffffffffffffffff1916908160001a905350600a8561294f919061452e565b94506128cd565b8093505050505b919050565b600073ffffffffffffffffffffffffffffffffffffffff168273ffffffffffffffffffffffffffffffffffffffff1614156129d2576040517f08c379a00000000000000000000000000000000000000000000000000000000081526004016129c9906145dc565b60405180910390fd5b6129db81611e92565b15612a1b576040517f08c379a0000000000000000000000000000000000000000000000000000000008152600401612a1290614648565b60405180910390fd5b612a2760008383611efe565b6001606860008473ffffffffffffffffffffffffffffffffffffffff1673ffffffffffffffffffffffffffffffffffffffff1681526020019081526020016000206000828254612a779190613e61565b92505081905550816067600083815260200190815260200160002060006101000a81548173ffffffffffffffffffffffffffffffffffffffff021916908373ffffffffffffffffffffffffffffffffffffffff160217905550808273ffffffffffffffffffffffffffffffffffffffff16600073ffffffffffffffffffffffffffffffffffffffff167fddf252ad1be2c89b69c2b068fc378daa952ba7f163c4a11628f55a4df523b3ef60405160405180910390a4612b3860008383611f16565b5050565b60007f01ffc9a7000000000000000000000000000000000000000000000000000000007bffffffffffffffffffffffffffffffffffffffffffffffffffffffff1916827bffffffffffffffffffffffffffffffffffffffffffffffffffffffff1916149050919050565b505050565b609980549050609a600083815260200190815260200160002081905550609981908060018154018082558091505060019003906000526020600020016000909190919091505550565b60006001612c0184610b2e565b612c0b9190613e2d565b9050600060986000848152602001908152602001600020549050818114612cf0576000609760008673ffffffffffffffffffffffffffffffffffffffff1673ffffffffffffffffffffffffffffffffffffffff168152602001908152602001600020600084815260200190815260200160002054905080609760008773ffffffffffffffffffffffffffffffffffffffff1673ffffffffffffffffffffffffffffffffffffffff168152602001908152602001600020600084815260200190815260200160002081905550816098600083815260200190815260200160002081905550505b6098600084815260200190815260200160002060009055609760008573ffffffffffffffffffffffffffffffffffffffff1673ffffffffffffffffffffffffffffffffffffffff16815260200190815260200160002060008381526020019081526020016000206000905550505050565b60006001609980549050612d759190613e2d565b90506000609a6000848152602001908152602001600020549050600060998381548110612da557612da4613aae565b5b906000526020600020015490508060998381548110612dc757612dc6613aae565b5b906000526020600020018190555081609a600083815260200190815260200160002081905550609a6000858152602001908152602001600020600090556099805480612e1657612e15614668565b5b6001900381819060005260206000200160009055905550505050565b6000612e3d83610b2e565b905081609760008573ffffffffffffffffffffffffffffffffffffffff1673ffffffffffffffffffffffffffffffffffffffff168152602001908152602001600020600083815260200190815260200160002081905550806098600084815260200190815260200160002081905550505050565b828054612ebd90613710565b90600052602060002090601f016020900481019282612edf5760008555612f26565b82601f10612ef857805160ff1916838001178555612f26565b82800160010185558215612f26579182015b82811115612f25578251825591602001919060010190612f0a565b5b509050612f339190612f37565b5090565b5b80821115612f50576000816000905550600101612f38565b5090565b6000604051905090565b600080fd5b600080fd5b60007fffffffff0000000000000000000000000000000000000000000000000000000082169050919050565b612f9d81612f68565b8114612fa857600080fd5b50565b600081359050612fba81612f94565b92915050565b600060208284031215612fd657612fd5612f5e565b5b6000612fe484828501612fab565b91505092915050565b60008115159050919050565b61300281612fed565b82525050565b600060208201905061301d6000830184612ff9565b92915050565b600081519050919050565b600082825260208201905092915050565b60005b8381101561305d578082015181840152602081019050613042565b8381111561306c576000848401525b50505050565b6000601f19601f8301169050919050565b600061308e82613023565b613098818561302e565b93506130a881856020860161303f565b6130b181613072565b840191505092915050565b600060208201905081810360008301526130d68184613083565b905092915050565b6000819050919050565b6130f1816130de565b81146130fc57600080fd5b50565b60008135905061310e816130e8565b92915050565b60006020828403121561312a57613129612f5e565b5b6000613138848285016130ff565b91505092915050565b600073ffffffffffffffffffffffffffffffffffffffff82169050919050565b600061316c82613141565b9050919050565b61317c81613161565b82525050565b60006020820190506131976000830184613173565b92915050565b6131a681613161565b81146131b157600080fd5b50565b6000813590506131c38161319d565b92915050565b600080604083850312156131e0576131df612f5e565b5b60006131ee858286016131b4565b92505060206131ff858286016130ff565b9150509250929050565b613212816130de565b82525050565b600060208201905061322d6000830184613209565b92915050565b60008060006060848603121561324c5761324b612f5e565b5b600061325a868287016131b4565b935050602061326b868287016131b4565b925050604061327c868287016130ff565b9150509250925092565b6000819050919050565b61329981613286565b81146132a457600080fd5b50565b6000813590506132b681613290565b92915050565b6000602082840312156132d2576132d1612f5e565b5b60006132e0848285016132a7565b91505092915050565b6132f281613286565b82525050565b600060208201905061330d60008301846132e9565b92915050565b6000806040838503121561332a57613329612f5e565b5b6000613338858286016132a7565b9250506020613349858286016131b4565b9150509250929050565b60006020828403121561336957613368612f5e565b5b6000613377848285016131b4565b91505092915050565b61338981612fed565b811461339457600080fd5b50565b6000813590506133a681613380565b92915050565b600080604083850312156133c3576133c2612f5e565b5b60006133d1858286016131b4565b92505060206133e285828601613397565b9150509250929050565b600080fd5b600080fd5b7f4e487b7100000000000000000000000000000000000000000000000000000000600052604160045260246000fd5b61342e82613072565b810181811067ffffffffffffffff8211171561344d5761344c6133f6565b5b80604052505050565b6000613460612f54565b905061346c8282613425565b919050565b600067ffffffffffffffff82111561348c5761348b6133f6565b5b61349582613072565b9050602081019050919050565b82818337600083830152505050565b60006134c46134bf84613471565b613456565b9050828152602081018484840111156134e0576134df6133f1565b5b6134eb8482856134a2565b509392505050565b600082601f830112613508576135076133ec565b5b81356135188482602086016134b1565b91505092915050565b6000806000806080858703121561353b5761353a612f5e565b5b6000613549878288016131b4565b945050602061355a878288016131b4565b935050604061356b878288016130ff565b925050606085013567ffffffffffffffff81111561358c5761358b612f63565b5b613598878288016134f3565b91505092959194509250565b600067ffffffffffffffff8211156135bf576135be6133f6565b5b6135c882613072565b9050602081019050919050565b60006135e86135e3846135a4565b613456565b905082815260208101848484011115613604576136036133f1565b5b61360f8482856134a2565b509392505050565b600082601f83011261362c5761362b6133ec565b5b813561363c8482602086016135d5565b91505092915050565b6000806040838503121561365c5761365b612f5e565b5b600061366a858286016131b4565b925050602083013567ffffffffffffffff81111561368b5761368a612f63565b5b61369785828601613617565b9150509250929050565b600080604083850312156136b8576136b7612f5e565b5b60006136c6858286016131b4565b92505060206136d7858286016131b4565b9150509250929050565b7f4e487b7100000000000000000000000000000000000000000000000000000000600052602260045260246000fd5b6000600282049050600182168061372857607f821691505b6020821081141561373c5761373b6136e1565b5b50919050565b7f4552433732313a20617070726f76616c20746f2063757272656e74206f776e6560008201527f7200000000000000000000000000000000000000000000000000000000000000602082015250565b600061379e60218361302e565b91506137a982613742565b604082019050919050565b600060208201905081810360008301526137cd81613791565b9050919050565b7f4552433732313a20617070726f76652063616c6c6572206973206e6f7420746f60008201527f6b656e206f776e6572206e6f7220617070726f76656420666f7220616c6c0000602082015250565b6000613830603e8361302e565b915061383b826137d4565b604082019050919050565b6000602082019050818103600083015261385f81613823565b9050919050565b7f4552433732313a2063616c6c6572206973206e6f7420746f6b656e206f776e6560008201527f72206e6f7220617070726f766564000000000000000000000000000000000000602082015250565b60006138c2602e8361302e565b91506138cd82613866565b604082019050919050565b600060208201905081810360008301526138f1816138b5565b9050919050565b7f455243373231456e756d657261626c653a206f776e657220696e646578206f7560008201527f74206f6620626f756e6473000000000000000000000000000000000000000000602082015250565b6000613954602b8361302e565b915061395f826138f8565b604082019050919050565b6000602082019050818103600083015261398381613947565b9050919050565b7f416363657373436f6e74726f6c3a2063616e206f6e6c792072656e6f756e636560008201527f20726f6c657320666f722073656c660000000000000000000000000000000000602082015250565b60006139e6602f8361302e565b91506139f18261398a565b604082019050919050565b60006020820190508181036000830152613a15816139d9565b9050919050565b7f455243373231456e756d657261626c653a20676c6f62616c20696e646578206f60008201527f7574206f6620626f756e64730000000000000000000000000000000000000000602082015250565b6000613a78602c8361302e565b9150613a8382613a1c565b604082019050919050565b60006020820190508181036000830152613aa781613a6b565b9050919050565b7f4e487b7100000000000000000000000000000000000000000000000000000000600052603260045260246000fd5b7f4552433732313a20696e76616c696420746f6b656e2049440000000000000000600082015250565b6000613b1360188361302e565b9150613b1e82613add565b602082019050919050565b60006020820190508181036000830152613b4281613b06565b9050919050565b7f4552433732313a2061646472657373207a65726f206973206e6f74206120766160008201527f6c6964206f776e65720000000000000000000000000000000000000000000000602082015250565b6000613ba560298361302e565b9150613bb082613b49565b604082019050919050565b60006020820190508181036000830152613bd481613b98565b9050919050565b7f496e697469616c697a61626c653a20636f6e747261637420697320616c72656160008201527f647920696e697469616c697a6564000000000000000000000000000000000000602082015250565b6000613c37602e8361302e565b9150613c4282613bdb565b604082019050919050565b60006020820190508181036000830152613c6681613c2a565b9050919050565b6000819050919050565b600060ff82169050919050565b6000819050919050565b6000613ca9613ca4613c9f84613c6d565b613c84565b613c77565b9050919050565b613cb981613c8e565b82525050565b6000602082019050613cd46000830184613cb0565b92915050565b7f4552433732313a207472616e736665722066726f6d20696e636f72726563742060008201527f6f776e6572000000000000000000000000000000000000000000000000000000602082015250565b6000613d3660258361302e565b9150613d4182613cda565b604082019050919050565b60006020820190508181036000830152613d6581613d29565b9050919050565b7f4552433732313a207472616e7366657220746f20746865207a65726f2061646460008201527f7265737300000000000000000000000000000000000000000000000000000000602082015250565b6000613dc860248361302e565b9150613dd382613d6c565b604082019050919050565b60006020820190508181036000830152613df781613dbb565b9050919050565b7f4e487b7100000000000000000000000000000000000000000000000000000000600052601160045260246000fd5b6000613e38826130de565b9150613e43836130de565b925082821015613e5657613e55613dfe565b5b828203905092915050565b6000613e6c826130de565b9150613e77836130de565b9250827fffffffffffffffffffffffffffffffffffffffffffffffffffffffffffffffff03821115613eac57613eab613dfe565b5b828201905092915050565b7f4552433732313a20617070726f766520746f2063616c6c657200000000000000600082015250565b6000613eed60198361302e565b9150613ef882613eb7565b602082019050919050565b60006020820190508181036000830152613f1c81613ee0565b9050919050565b7f4552433732313a207472616e7366657220746f206e6f6e20455243373231526560008201527f63656976657220696d706c656d656e7465720000000000000000000000000000602082015250565b6000613f7f60328361302e565b9150613f8a82613f23565b604082019050919050565b60006020820190508181036000830152613fae81613f72565b9050919050565b7f496e697469616c697a61626c653a20636f6e7472616374206973206e6f74206960008201527f6e697469616c697a696e67000000000000000000000000000000000000000000602082015250565b6000614011602b8361302e565b915061401c82613fb5565b604082019050919050565b6000602082019050818103600083015261404081614004565b9050919050565b600081905092915050565b600061405d82613023565b6140678185614047565b935061407781856020860161303f565b80840191505092915050565b600061408f8285614052565b915061409b8284614052565b91508190509392505050565b7f45524337323155524953746f726167653a2055524920736574206f66206e6f6e60008201527f6578697374656e7420746f6b656e000000000000000000000000000000000000602082015250565b6000614103602e8361302e565b915061410e826140a7565b604082019050919050565b60006020820190508181036000830152614132816140f6565b9050919050565b7f416363657373436f6e74726f6c3a206163636f756e7420000000000000000000600082015250565b600061416f601783614047565b915061417a82614139565b601782019050919050565b7f206973206d697373696e6720726f6c6520000000000000000000000000000000600082015250565b60006141bb601183614047565b91506141c682614185565b601182019050919050565b60006141dc82614162565b91506141e88285614052565b91506141f3826141ae565b91506141ff8284614052565b91508190509392505050565b7f5061757361626c653a206e6f7420706175736564000000000000000000000000600082015250565b600061424160148361302e565b915061424c8261420b565b602082019050919050565b6000602082019050818103600083015261427081614234565b9050919050565b7f5061757361626c653a2070617573656400000000000000000000000000000000600082015250565b60006142ad60108361302e565b91506142b882614277565b602082019050919050565b600060208201905081810360008301526142dc816142a0565b9050919050565b600081519050919050565b600082825260208201905092915050565b600061430a826142e3565b61431481856142ee565b935061432481856020860161303f565b61432d81613072565b840191505092915050565b600060808201905061434d6000830187613173565b61435a6020830186613173565b6143676040830185613209565b818103606083015261437981846142ff565b905095945050505050565b60008151905061439381612f94565b92915050565b6000602082840312156143af576143ae612f5e565b5b60006143bd84828501614384565b91505092915050565b60006143d1826130de565b91506143dc836130de565b9250817fffffffffffffffffffffffffffffffffffffffffffffffffffffffffffffffff048311821515161561441557614414613dfe565b5b828202905092915050565b600061442b826130de565b9150600082141561443f5761443e613dfe565b5b600182039050919050565b7f537472696e67733a20686578206c656e67746820696e73756666696369656e74600082015250565b600061448060208361302e565b915061448b8261444a565b602082019050919050565b600060208201905081810360008301526144af81614473565b9050919050565b60006144c1826130de565b91507fffffffffffffffffffffffffffffffffffffffffffffffffffffffffffffffff8214156144f4576144f3613dfe565b5b600182019050919050565b7f4e487b7100000000000000000000000000000000000000000000000000000000600052601260045260246000fd5b6000614539826130de565b9150614544836130de565b925082614554576145536144ff565b5b828204905092915050565b600061456a826130de565b9150614575836130de565b925082614585576145846144ff565b5b828206905092915050565b7f4552433732313a206d696e7420746f20746865207a65726f2061646472657373600082015250565b60006145c660208361302e565b91506145d182614590565b602082019050919050565b600060208201905081810360008301526145f5816145b9565b9050919050565b7f4552433732313a20746f6b656e20616c7265616479206d696e74656400000000600082015250565b6000614632601c8361302e565b915061463d826145fc565b602082019050919050565b6000602082019050818103600083015261466181614625565b9050919050565b7f4e487b7100000000000000000000000000000000000000000000000000000000600052603160045260246000fdfea26469706673582212203445ff4d81be7cafa6e3a07995b945cc9625f8b13a1a64010d9470a5bf74e1ae64736f6c63430008090033",
  "devdoc": {
    "kind": "dev",
    "methods": {
      "approve(address,uint256)": {
        "details": "See {IERC721-approve}."
      },
      "balanceOf(address)": {
        "details": "See {IERC721-balanceOf}."
      },
      "constructor": {
        "custom:oz-upgrades-unsafe-allow": "constructor"
      },
      "getApproved(uint256)": {
        "details": "See {IERC721-getApproved}."
      },
      "getRoleAdmin(bytes32)": {
        "details": "Returns the admin role that controls `role`. See {grantRole} and {revokeRole}. To change a role's admin, use {_setRoleAdmin}."
      },
      "grantRole(bytes32,address)": {
        "details": "Grants `role` to `account`. If `account` had not been already granted `role`, emits a {RoleGranted} event. Requirements: - the caller must have ``role``'s admin role. May emit a {RoleGranted} event."
      },
      "hasRole(bytes32,address)": {
        "details": "Returns `true` if `account` has been granted `role`."
      },
      "isApprovedForAll(address,address)": {
        "details": "See {IERC721-isApprovedForAll}."
      },
      "name()": {
        "details": "See {IERC721Metadata-name}."
      },
      "ownerOf(uint256)": {
        "details": "See {IERC721-ownerOf}."
      },
      "paused()": {
        "details": "Returns true if the contract is paused, and false otherwise."
      },
      "renounceRole(bytes32,address)": {
        "details": "Revokes `role` from the calling account. Roles are often managed via {grantRole} and {revokeRole}: this function's purpose is to provide a mechanism for accounts to lose their privileges if they are compromised (such as when a trusted device is misplaced). If the calling account had been revoked `role`, emits a {RoleRevoked} event. Requirements: - the caller must be `account`. May emit a {RoleRevoked} event."
      },
      "revokeRole(bytes32,address)": {
        "details": "Revokes `role` from `account`. If `account` had been granted `role`, emits a {RoleRevoked} event. Requirements: - the caller must have ``role``'s admin role. May emit a {RoleRevoked} event."
      },
      "safeTransferFrom(address,address,uint256)": {
        "details": "See {IERC721-safeTransferFrom}."
      },
      "safeTransferFrom(address,address,uint256,bytes)": {
        "details": "See {IERC721-safeTransferFrom}."
      },
      "setApprovalForAll(address,bool)": {
        "details": "See {IERC721-setApprovalForAll}."
      },
      "symbol()": {
        "details": "See {IERC721Metadata-symbol}."
      },
      "tokenByIndex(uint256)": {
        "details": "See {IERC721Enumerable-tokenByIndex}."
      },
      "tokenOfOwnerByIndex(address,uint256)": {
        "details": "See {IERC721Enumerable-tokenOfOwnerByIndex}."
      },
      "totalSupply()": {
        "details": "See {IERC721Enumerable-totalSupply}."
      },
      "transferFrom(address,address,uint256)": {
        "details": "See {IERC721-transferFrom}."
      }
    },
    "version": 1
  },
  "userdoc": {
    "kind": "user",
    "methods": {},
    "version": 1
  },
  "storageLayout": {
    "storage": [
      {
        "astId": 419,
        "contract": "contracts/StudentsERC721.sol:StudentsERC721",
        "label": "_initialized",
        "offset": 0,
        "slot": "0",
        "type": "t_uint8"
      },
      {
        "astId": 422,
        "contract": "contracts/StudentsERC721.sol:StudentsERC721",
        "label": "_initializing",
        "offset": 1,
        "slot": "0",
        "type": "t_bool"
      },
      {
        "astId": 2561,
        "contract": "contracts/StudentsERC721.sol:StudentsERC721",
        "label": "__gap",
        "offset": 0,
        "slot": "1",
        "type": "t_array(t_uint256)50_storage"
      },
      {
        "astId": 2905,
        "contract": "contracts/StudentsERC721.sol:StudentsERC721",
        "label": "__gap",
        "offset": 0,
        "slot": "51",
        "type": "t_array(t_uint256)50_storage"
      },
      {
        "astId": 719,
        "contract": "contracts/StudentsERC721.sol:StudentsERC721",
        "label": "_name",
        "offset": 0,
        "slot": "101",
        "type": "t_string_storage"
      },
      {
        "astId": 721,
        "contract": "contracts/StudentsERC721.sol:StudentsERC721",
        "label": "_symbol",
        "offset": 0,
        "slot": "102",
        "type": "t_string_storage"
      },
      {
        "astId": 725,
        "contract": "contracts/StudentsERC721.sol:StudentsERC721",
        "label": "_owners",
        "offset": 0,
        "slot": "103",
        "type": "t_mapping(t_uint256,t_address)"
      },
      {
        "astId": 729,
        "contract": "contracts/StudentsERC721.sol:StudentsERC721",
        "label": "_balances",
        "offset": 0,
        "slot": "104",
        "type": "t_mapping(t_address,t_uint256)"
      },
      {
        "astId": 733,
        "contract": "contracts/StudentsERC721.sol:StudentsERC721",
        "label": "_tokenApprovals",
        "offset": 0,
        "slot": "105",
        "type": "t_mapping(t_uint256,t_address)"
      },
      {
        "astId": 739,
        "contract": "contracts/StudentsERC721.sol:StudentsERC721",
        "label": "_operatorApprovals",
        "offset": 0,
        "slot": "106",
        "type": "t_mapping(t_address,t_mapping(t_address,t_bool))"
      },
      {
        "astId": 1581,
        "contract": "contracts/StudentsERC721.sol:StudentsERC721",
        "label": "__gap",
        "offset": 0,
        "slot": "107",
        "type": "t_array(t_uint256)44_storage"
      },
      {
        "astId": 1746,
        "contract": "contracts/StudentsERC721.sol:StudentsERC721",
        "label": "_ownedTokens",
        "offset": 0,
        "slot": "151",
        "type": "t_mapping(t_address,t_mapping(t_uint256,t_uint256))"
      },
      {
        "astId": 1750,
        "contract": "contracts/StudentsERC721.sol:StudentsERC721",
        "label": "_ownedTokensIndex",
        "offset": 0,
        "slot": "152",
        "type": "t_mapping(t_uint256,t_uint256)"
      },
      {
        "astId": 1753,
        "contract": "contracts/StudentsERC721.sol:StudentsERC721",
        "label": "_allTokens",
        "offset": 0,
        "slot": "153",
        "type": "t_array(t_uint256)dyn_storage"
      },
      {
        "astId": 1757,
        "contract": "contracts/StudentsERC721.sol:StudentsERC721",
        "label": "_allTokensIndex",
        "offset": 0,
        "slot": "154",
        "type": "t_mapping(t_uint256,t_uint256)"
      },
      {
        "astId": 2073,
        "contract": "contracts/StudentsERC721.sol:StudentsERC721",
        "label": "__gap",
        "offset": 0,
        "slot": "155",
        "type": "t_array(t_uint256)46_storage"
      },
      {
        "astId": 2102,
        "contract": "contracts/StudentsERC721.sol:StudentsERC721",
        "label": "_tokenURIs",
        "offset": 0,
        "slot": "201",
        "type": "t_mapping(t_uint256,t_string_storage)"
      },
      {
        "astId": 2218,
        "contract": "contracts/StudentsERC721.sol:StudentsERC721",
        "label": "__gap",
        "offset": 0,
        "slot": "202",
        "type": "t_array(t_uint256)49_storage"
      },
      {
        "astId": 584,
        "contract": "contracts/StudentsERC721.sol:StudentsERC721",
        "label": "_paused",
        "offset": 0,
        "slot": "251",
        "type": "t_bool"
      },
      {
        "astId": 689,
        "contract": "contracts/StudentsERC721.sol:StudentsERC721",
        "label": "__gap",
        "offset": 0,
        "slot": "252",
        "type": "t_array(t_uint256)49_storage"
      },
      {
        "astId": 39,
        "contract": "contracts/StudentsERC721.sol:StudentsERC721",
        "label": "_roles",
        "offset": 0,
        "slot": "301",
        "type": "t_mapping(t_bytes32,t_struct(RoleData)34_storage)"
      },
      {
        "astId": 338,
        "contract": "contracts/StudentsERC721.sol:StudentsERC721",
        "label": "__gap",
        "offset": 0,
        "slot": "302",
        "type": "t_array(t_uint256)49_storage"
      },
      {
        "astId": 4178,
        "contract": "contracts/StudentsERC721.sol:StudentsERC721",
        "label": "_tokenIdCounter",
        "offset": 0,
        "slot": "351",
        "type": "t_struct(Counter)2568_storage"
      }
    ],
    "types": {
      "t_address": {
        "encoding": "inplace",
        "label": "address",
        "numberOfBytes": "20"
      },
      "t_array(t_uint256)44_storage": {
        "base": "t_uint256",
        "encoding": "inplace",
        "label": "uint256[44]",
        "numberOfBytes": "1408"
      },
      "t_array(t_uint256)46_storage": {
        "base": "t_uint256",
        "encoding": "inplace",
        "label": "uint256[46]",
        "numberOfBytes": "1472"
      },
      "t_array(t_uint256)49_storage": {
        "base": "t_uint256",
        "encoding": "inplace",
        "label": "uint256[49]",
        "numberOfBytes": "1568"
      },
      "t_array(t_uint256)50_storage": {
        "base": "t_uint256",
        "encoding": "inplace",
        "label": "uint256[50]",
        "numberOfBytes": "1600"
      },
      "t_array(t_uint256)dyn_storage": {
        "base": "t_uint256",
        "encoding": "dynamic_array",
        "label": "uint256[]",
        "numberOfBytes": "32"
      },
      "t_bool": {
        "encoding": "inplace",
        "label": "bool",
        "numberOfBytes": "1"
      },
      "t_bytes32": {
        "encoding": "inplace",
        "label": "bytes32",
        "numberOfBytes": "32"
      },
      "t_mapping(t_address,t_bool)": {
        "encoding": "mapping",
        "key": "t_address",
        "label": "mapping(address => bool)",
        "numberOfBytes": "32",
        "value": "t_bool"
      },
      "t_mapping(t_address,t_mapping(t_address,t_bool))": {
        "encoding": "mapping",
        "key": "t_address",
        "label": "mapping(address => mapping(address => bool))",
        "numberOfBytes": "32",
        "value": "t_mapping(t_address,t_bool)"
      },
      "t_mapping(t_address,t_mapping(t_uint256,t_uint256))": {
        "encoding": "mapping",
        "key": "t_address",
        "label": "mapping(address => mapping(uint256 => uint256))",
        "numberOfBytes": "32",
        "value": "t_mapping(t_uint256,t_uint256)"
      },
      "t_mapping(t_address,t_uint256)": {
        "encoding": "mapping",
        "key": "t_address",
        "label": "mapping(address => uint256)",
        "numberOfBytes": "32",
        "value": "t_uint256"
      },
      "t_mapping(t_bytes32,t_struct(RoleData)34_storage)": {
        "encoding": "mapping",
        "key": "t_bytes32",
        "label": "mapping(bytes32 => struct AccessControlUpgradeable.RoleData)",
        "numberOfBytes": "32",
        "value": "t_struct(RoleData)34_storage"
      },
      "t_mapping(t_uint256,t_address)": {
        "encoding": "mapping",
        "key": "t_uint256",
        "label": "mapping(uint256 => address)",
        "numberOfBytes": "32",
        "value": "t_address"
      },
      "t_mapping(t_uint256,t_string_storage)": {
        "encoding": "mapping",
        "key": "t_uint256",
        "label": "mapping(uint256 => string)",
        "numberOfBytes": "32",
        "value": "t_string_storage"
      },
      "t_mapping(t_uint256,t_uint256)": {
        "encoding": "mapping",
        "key": "t_uint256",
        "label": "mapping(uint256 => uint256)",
        "numberOfBytes": "32",
        "value": "t_uint256"
      },
      "t_string_storage": {
        "encoding": "bytes",
        "label": "string",
        "numberOfBytes": "32"
      },
      "t_struct(Counter)2568_storage": {
        "encoding": "inplace",
        "label": "struct CountersUpgradeable.Counter",
        "members": [
          {
            "astId": 2567,
            "contract": "contracts/StudentsERC721.sol:StudentsERC721",
            "label": "_value",
            "offset": 0,
            "slot": "0",
            "type": "t_uint256"
          }
        ],
        "numberOfBytes": "32"
      },
      "t_struct(RoleData)34_storage": {
        "encoding": "inplace",
        "label": "struct AccessControlUpgradeable.RoleData",
        "members": [
          {
            "astId": 31,
            "contract": "contracts/StudentsERC721.sol:StudentsERC721",
            "label": "members",
            "offset": 0,
            "slot": "0",
            "type": "t_mapping(t_address,t_bool)"
          },
          {
            "astId": 33,
            "contract": "contracts/StudentsERC721.sol:StudentsERC721",
            "label": "adminRole",
            "offset": 0,
            "slot": "1",
            "type": "t_bytes32"
          }
        ],
        "numberOfBytes": "64"
      },
      "t_uint256": {
        "encoding": "inplace",
        "label": "uint256",
        "numberOfBytes": "32"
      },
      "t_uint8": {
        "encoding": "inplace",
        "label": "uint8",
        "numberOfBytes": "1"
      }
    }
  }
}