{
  "address": "0x5711fB30590B5F2B3553a1a44ac5A6f1FE7e0B23",
  "abi": [
    {
      "inputs": [],
      "stateMutability": "nonpayable",
      "type": "constructor"
    },
    {
      "anonymous": false,
      "inputs": [
        {
          "indexed": true,
          "internalType": "address",
          "name": "owner",
          "type": "address"
        },
        {
          "indexed": true,
          "internalType": "address",
          "name": "approved",
          "type": "address"
        },
        {
          "indexed": true,
          "internalType": "uint256",
          "name": "tokenId",
          "type": "uint256"
        }
      ],
      "name": "Approval",
      "type": "event"
    },
    {
      "anonymous": false,
      "inputs": [
        {
          "indexed": true,
          "internalType": "address",
          "name": "owner",
          "type": "address"
        },
        {
          "indexed": true,
          "internalType": "address",
          "name": "operator",
          "type": "address"
        },
        {
          "indexed": false,
          "internalType": "bool",
          "name": "approved",
          "type": "bool"
        }
      ],
      "name": "ApprovalForAll",
      "type": "event"
    },
    {
      "anonymous": false,
      "inputs": [
        {
          "indexed": false,
          "internalType": "uint8",
          "name": "version",
          "type": "uint8"
        }
      ],
      "name": "Initialized",
      "type": "event"
    },
    {
      "anonymous": false,
      "inputs": [
        {
          "indexed": false,
          "internalType": "address",
          "name": "account",
          "type": "address"
        }
      ],
      "name": "Paused",
      "type": "event"
    },
    {
      "anonymous": false,
      "inputs": [
        {
          "indexed": true,
          "internalType": "bytes32",
          "name": "role",
          "type": "bytes32"
        },
        {
          "indexed": true,
          "internalType": "bytes32",
          "name": "previousAdminRole",
          "type": "bytes32"
        },
        {
          "indexed": true,
          "internalType": "bytes32",
          "name": "newAdminRole",
          "type": "bytes32"
        }
      ],
      "name": "RoleAdminChanged",
      "type": "event"
    },
    {
      "anonymous": false,
      "inputs": [
        {
          "indexed": true,
          "internalType": "bytes32",
          "name": "role",
          "type": "bytes32"
        },
        {
          "indexed": true,
          "internalType": "address",
          "name": "account",
          "type": "address"
        },
        {
          "indexed": true,
          "internalType": "address",
          "name": "sender",
          "type": "address"
        }
      ],
      "name": "RoleGranted",
      "type": "event"
    },
    {
      "anonymous": false,
      "inputs": [
        {
          "indexed": true,
          "internalType": "bytes32",
          "name": "role",
          "type": "bytes32"
        },
        {
          "indexed": true,
          "internalType": "address",
          "name": "account",
          "type": "address"
        },
        {
          "indexed": true,
          "internalType": "address",
          "name": "sender",
          "type": "address"
        }
      ],
      "name": "RoleRevoked",
      "type": "event"
    },
    {
      "anonymous": false,
      "inputs": [
        {
          "indexed": true,
          "internalType": "address",
          "name": "from",
          "type": "address"
        },
        {
          "indexed": true,
          "internalType": "address",
          "name": "to",
          "type": "address"
        },
        {
          "indexed": true,
          "internalType": "uint256",
          "name": "tokenId",
          "type": "uint256"
        }
      ],
      "name": "Transfer",
      "type": "event"
    },
    {
      "anonymous": false,
      "inputs": [
        {
          "indexed": false,
          "internalType": "address",
          "name": "account",
          "type": "address"
        }
      ],
      "name": "Unpaused",
      "type": "event"
    },
    {
      "inputs": [],
      "name": "DEFAULT_ADMIN_ROLE",
      "outputs": [
        {
          "internalType": "bytes32",
          "name": "",
          "type": "bytes32"
        }
      ],
      "stateMutability": "view",
      "type": "function"
    },
    {
      "inputs": [],
      "name": "MINTER_ROLE",
      "outputs": [
        {
          "internalType": "bytes32",
          "name": "",
          "type": "bytes32"
        }
      ],
      "stateMutability": "view",
      "type": "function"
    },
    {
      "inputs": [],
      "name": "PAUSER_ROLE",
      "outputs": [
        {
          "internalType": "bytes32",
          "name": "",
          "type": "bytes32"
        }
      ],
      "stateMutability": "view",
      "type": "function"
    },
    {
      "inputs": [
        {
          "internalType": "address",
          "name": "to",
          "type": "address"
        },
        {
          "internalType": "uint256",
          "name": "tokenId",
          "type": "uint256"
        }
      ],
      "name": "approve",
      "outputs": [],
      "stateMutability": "nonpayable",
      "type": "function"
    },
    {
      "inputs": [
        {
          "internalType": "address",
          "name": "owner",
          "type": "address"
        }
      ],
      "name": "balanceOf",
      "outputs": [
        {
          "internalType": "uint256",
          "name": "",
          "type": "uint256"
        }
      ],
      "stateMutability": "view",
      "type": "function"
    },
    {
      "inputs": [
        {
          "internalType": "uint256",
          "name": "tokenId",
          "type": "uint256"
        }
      ],
      "name": "getApproved",
      "outputs": [
        {
          "internalType": "address",
          "name": "",
          "type": "address"
        }
      ],
      "stateMutability": "view",
      "type": "function"
    },
    {
      "inputs": [
        {
          "internalType": "bytes32",
          "name": "role",
          "type": "bytes32"
        }
      ],
      "name": "getRoleAdmin",
      "outputs": [
        {
          "internalType": "bytes32",
          "name": "",
          "type": "bytes32"
        }
      ],
      "stateMutability": "view",
      "type": "function"
    },
    {
      "inputs": [
        {
          "internalType": "bytes32",
          "name": "role",
          "type": "bytes32"
        },
        {
          "internalType": "address",
          "name": "account",
          "type": "address"
        }
      ],
      "name": "grantRole",
      "outputs": [],
      "stateMutability": "nonpayable",
      "type": "function"
    },
    {
      "inputs": [
        {
          "internalType": "bytes32",
          "name": "role",
          "type": "bytes32"
        },
        {
          "internalType": "address",
          "name": "account",
          "type": "address"
        }
      ],
      "name": "hasRole",
      "outputs": [
        {
          "internalType": "bool",
          "name": "",
          "type": "bool"
        }
      ],
      "stateMutability": "view",
      "type": "function"
    },
    {
      "inputs": [
        {
          "internalType": "address",
          "name": "institution",
          "type": "address"
        }
      ],
      "name": "initialize",
      "outputs": [],
      "stateMutability": "nonpayable",
      "type": "function"
    },
    {
      "inputs": [
        {
          "internalType": "address",
          "name": "owner",
          "type": "address"
        },
        {
          "internalType": "address",
          "name": "operator",
          "type": "address"
        }
      ],
      "name": "isApprovedForAll",
      "outputs": [
        {
          "internalType": "bool",
          "name": "",
          "type": "bool"
        }
      ],
      "stateMutability": "view",
      "type": "function"
    },
    {
      "inputs": [],
      "name": "name",
      "outputs": [
        {
          "internalType": "string",
          "name": "",
          "type": "string"
        }
      ],
      "stateMutability": "view",
      "type": "function"
    },
    {
      "inputs": [
        {
          "internalType": "uint256",
          "name": "tokenId",
          "type": "uint256"
        }
      ],
      "name": "ownerOf",
      "outputs": [
        {
          "internalType": "address",
          "name": "",
          "type": "address"
        }
      ],
      "stateMutability": "view",
      "type": "function"
    },
    {
      "inputs": [],
      "name": "pause",
      "outputs": [],
      "stateMutability": "nonpayable",
      "type": "function"
    },
    {
      "inputs": [],
      "name": "paused",
      "outputs": [
        {
          "internalType": "bool",
          "name": "",
          "type": "bool"
        }
      ],
      "stateMutability": "view",
      "type": "function"
    },
    {
      "inputs": [
        {
          "internalType": "bytes32",
          "name": "role",
          "type": "bytes32"
        },
        {
          "internalType": "address",
          "name": "account",
          "type": "address"
        }
      ],
      "name": "renounceRole",
      "outputs": [],
      "stateMutability": "nonpayable",
      "type": "function"
    },
    {
      "inputs": [
        {
          "internalType": "bytes32",
          "name": "role",
          "type": "bytes32"
        },
        {
          "internalType": "address",
          "name": "account",
          "type": "address"
        }
      ],
      "name": "revokeRole",
      "outputs": [],
      "stateMutability": "nonpayable",
      "type": "function"
    },
    {
      "inputs": [
        {
          "internalType": "address",
          "name": "to",
          "type": "address"
        },
        {
          "internalType": "string",
          "name": "uri",
          "type": "string"
        }
      ],
      "name": "safeMint",
      "outputs": [],
      "stateMutability": "nonpayable",
      "type": "function"
    },
    {
      "inputs": [
        {
          "internalType": "address",
          "name": "from",
          "type": "address"
        },
        {
          "internalType": "address",
          "name": "to",
          "type": "address"
        },
        {
          "internalType": "uint256",
          "name": "tokenId",
          "type": "uint256"
        }
      ],
      "name": "safeTransferFrom",
      "outputs": [],
      "stateMutability": "nonpayable",
      "type": "function"
    },
    {
      "inputs": [
        {
          "internalType": "address",
          "name": "from",
          "type": "address"
        },
        {
          "internalType": "address",
          "name": "to",
          "type": "address"
        },
        {
          "internalType": "uint256",
          "name": "tokenId",
          "type": "uint256"
        },
        {
          "internalType": "bytes",
          "name": "data",
          "type": "bytes"
        }
      ],
      "name": "safeTransferFrom",
      "outputs": [],
      "stateMutability": "nonpayable",
      "type": "function"
    },
    {
      "inputs": [
        {
          "internalType": "address",
          "name": "operator",
          "type": "address"
        },
        {
          "internalType": "bool",
          "name": "approved",
          "type": "bool"
        }
      ],
      "name": "setApprovalForAll",
      "outputs": [],
      "stateMutability": "nonpayable",
      "type": "function"
    },
    {
      "inputs": [
        {
          "internalType": "bytes4",
          "name": "interfaceId",
          "type": "bytes4"
        }
      ],
      "name": "supportsInterface",
      "outputs": [
        {
          "internalType": "bool",
          "name": "",
          "type": "bool"
        }
      ],
      "stateMutability": "view",
      "type": "function"
    },
    {
      "inputs": [],
      "name": "symbol",
      "outputs": [
        {
          "internalType": "string",
          "name": "",
          "type": "string"
        }
      ],
      "stateMutability": "view",
      "type": "function"
    },
    {
      "inputs": [
        {
          "internalType": "uint256",
          "name": "index",
          "type": "uint256"
        }
      ],
      "name": "tokenByIndex",
      "outputs": [
        {
          "internalType": "uint256",
          "name": "",
          "type": "uint256"
        }
      ],
      "stateMutability": "view",
      "type": "function"
    },
    {
      "inputs": [
        {
          "internalType": "address",
          "name": "owner",
          "type": "address"
        },
        {
          "internalType": "uint256",
          "name": "index",
          "type": "uint256"
        }
      ],
      "name": "tokenOfOwnerByIndex",
      "outputs": [
        {
          "internalType": "uint256",
          "name": "",
          "type": "uint256"
        }
      ],
      "stateMutability": "view",
      "type": "function"
    },
    {
      "inputs": [
        {
          "internalType": "uint256",
          "name": "tokenId",
          "type": "uint256"
        }
      ],
      "name": "tokenURI",
      "outputs": [
        {
          "internalType": "string",
          "name": "",
          "type": "string"
        }
      ],
      "stateMutability": "view",
      "type": "function"
    },
    {
      "inputs": [],
      "name": "totalSupply",
      "outputs": [
        {
          "internalType": "uint256",
          "name": "",
          "type": "uint256"
        }
      ],
      "stateMutability": "view",
      "type": "function"
    },
    {
      "inputs": [
        {
          "internalType": "address",
          "name": "from",
          "type": "address"
        },
        {
          "internalType": "address",
          "name": "to",
          "type": "address"
        },
        {
          "internalType": "uint256",
          "name": "tokenId",
          "type": "uint256"
        }
      ],
      "name": "transferFrom",
      "outputs": [],
      "stateMutability": "nonpayable",
      "type": "function"
    },
    {
      "inputs": [],
      "name": "unpause",
      "outputs": [],
      "stateMutability": "nonpayable",
      "type": "function"
    }
  ],
  "transactionHash": "0x4650d9e3ee3e98712aa1799003b887fbf11d61d62c3ad4a0a87592b719aec930",
  "args": [],
  "numDeployments": 1,
  "solcInputHash": "79ab46929e0dd83a066285075fa8b95f",
  "bytecode": "0x60806040523480156200001157600080fd5b50620000226200002860201b60201c565b620001d3565b600060019054906101000a900460ff16156200007b576040517f08c379a0000000000000000000000000000000000000000000000000000000008152600401620000729062000176565b60405180910390fd5b60ff801660008054906101000a900460ff1660ff161015620000ed5760ff6000806101000a81548160ff021916908360ff1602179055507f7f26b83ff96e1f2b6a682f133852f6798a09c465da95921460cefb384740249860ff604051620000e49190620001b6565b60405180910390a15b565b600082825260208201905092915050565b7f496e697469616c697a61626c653a20636f6e747261637420697320696e69746960008201527f616c697a696e6700000000000000000000000000000000000000000000000000602082015250565b60006200015e602783620000ef565b91506200016b8262000100565b604082019050919050565b6000602082019050818103600083015262000191816200014f565b9050919050565b600060ff82169050919050565b620001b08162000198565b82525050565b6000602082019050620001cd6000830184620001a5565b92915050565b6146b280620001e36000396000f3fe608060405234801561001057600080fd5b50600436106101cf5760003560e01c80636352211e11610104578063b88d4fde116100a2578063d539139311610071578063d53913931461052a578063d547741f14610548578063e63ab1e914610564578063e985e9c514610582576101cf565b8063b88d4fde146104a6578063c4d66de8146104c2578063c87b56dd146104de578063d204c45e1461050e576101cf565b806391d14854116100de57806391d148541461041e57806395d89b411461044e578063a217fddf1461046c578063a22cb4651461048a576101cf565b80636352211e146103b457806370a08231146103e45780638456cb5914610414576101cf565b80632f2ff15d116101715780633f4ba83a1161014b5780633f4ba83a1461034057806342842e0e1461034a5780634f6ccce7146103665780635c975abb14610396576101cf565b80632f2ff15d146102d85780632f745c59146102f457806336568abe14610324576101cf565b8063095ea7b3116101ad578063095ea7b31461025257806318160ddd1461026e57806323b872dd1461028c578063248a9ca3146102a8576101cf565b806301ffc9a7146101d457806306fdde0314610204578063081812fc14610222575b600080fd5b6101ee60048036038101906101e99190612fa5565b6105b2565b6040516101fb9190612fed565b60405180910390f35b61020c6105c4565b60405161021991906130a1565b60405180910390f35b61023c600480360381019061023791906130f9565b610656565b6040516102499190613167565b60405180910390f35b61026c600480360381019061026791906131ae565b61069c565b005b6102766107b4565b60405161028391906131fd565b60405180910390f35b6102a660048036038101906102a19190613218565b6107c1565b005b6102c260048036038101906102bd91906132a1565b610821565b6040516102cf91906132dd565b60405180910390f35b6102f260048036038101906102ed91906132f8565b610842565b005b61030e600480360381019061030991906131ae565b610863565b60405161031b91906131fd565b60405180910390f35b61033e600480360381019061033991906132f8565b610908565b005b61034861098b565b005b610364600480360381019061035f9190613218565b6109c0565b005b610380600480360381019061037b91906130f9565b6109e0565b60405161038d91906131fd565b60405180910390f35b61039e610a51565b6040516103ab9190612fed565b60405180910390f35b6103ce60048036038101906103c991906130f9565b610a68565b6040516103db9190613167565b60405180910390f35b6103fe60048036038101906103f99190613338565b610b1a565b60405161040b91906131fd565b60405180910390f35b61041c610bd2565b005b610438600480360381019061043391906132f8565b610c07565b6040516104459190612fed565b60405180910390f35b610456610c73565b60405161046391906130a1565b60405180910390f35b610474610d05565b60405161048191906132dd565b60405180910390f35b6104a4600480360381019061049f9190613391565b610d0c565b005b6104c060048036038101906104bb9190613506565b610d22565b005b6104dc60048036038101906104d79190613338565b610d84565b005b6104f860048036038101906104f391906130f9565b611011565b60405161050591906130a1565b60405180910390f35b6105286004803603810190610523919061362a565b611023565b005b610532611081565b60405161053f91906132dd565b60405180910390f35b610562600480360381019061055d91906132f8565b6110a5565b005b61056c6110c6565b60405161057991906132dd565b60405180910390f35b61059c60048036038101906105979190613686565b6110ea565b6040516105a99190612fed565b60405180910390f35b60006105bd8261117e565b9050919050565b6060606580546105d3906136f5565b80601f01602080910402602001604051908101604052809291908181526020018280546105ff906136f5565b801561064c5780601f106106215761010080835404028352916020019161064c565b820191906000526020600020905b81548152906001019060200180831161062f57829003601f168201915b5050505050905090565b6000610661826111f8565b6069600083815260200190815260200160002060009054906101000a900473ffffffffffffffffffffffffffffffffffffffff169050919050565b60006106a782610a68565b90508073ffffffffffffffffffffffffffffffffffffffff168373ffffffffffffffffffffffffffffffffffffffff161415610718576040517f08c379a000000000000000000000000000000000000000000000000000000000815260040161070f90613799565b60405180910390fd5b8073ffffffffffffffffffffffffffffffffffffffff16610737611243565b73ffffffffffffffffffffffffffffffffffffffff161480610766575061076581610760611243565b6110ea565b5b6107a5576040517f08c379a000000000000000000000000000000000000000000000000000000000815260040161079c9061382b565b60405180910390fd5b6107af838361124b565b505050565b6000609980549050905090565b6107d26107cc611243565b82611304565b610811576040517f08c379a0000000000000000000000000000000000000000000000000000000008152600401610808906138bd565b60405180910390fd5b61081c838383611399565b505050565b600061012d6000838152602001908152602001600020600101549050919050565b61084b82610821565b61085481611600565b61085e8383611614565b505050565b600061086e83610b1a565b82106108af576040517f08c379a00000000000000000000000000000000000000000000000000000000081526004016108a69061394f565b60405180910390fd5b609760008473ffffffffffffffffffffffffffffffffffffffff1673ffffffffffffffffffffffffffffffffffffffff168152602001908152602001600020600083815260200190815260200160002054905092915050565b610910611243565b73ffffffffffffffffffffffffffffffffffffffff168173ffffffffffffffffffffffffffffffffffffffff161461097d576040517f08c379a0000000000000000000000000000000000000000000000000000000008152600401610974906139e1565b60405180910390fd5b61098782826116f6565b5050565b7f65d7a28e3265b37a6474929f336521b332c1681b933f6cb9f3376673440d862a6109b581611600565b6109bd6117d9565b50565b6109db83838360405180602001604052806000815250610d22565b505050565b60006109ea6107b4565b8210610a2b576040517f08c379a0000000000000000000000000000000000000000000000000000000008152600401610a2290613a73565b60405180910390fd5b60998281548110610a3f57610a3e613a93565b5b90600052602060002001549050919050565b600060fb60009054906101000a900460ff16905090565b6000806067600084815260200190815260200160002060009054906101000a900473ffffffffffffffffffffffffffffffffffffffff169050600073ffffffffffffffffffffffffffffffffffffffff168173ffffffffffffffffffffffffffffffffffffffff161415610b11576040517f08c379a0000000000000000000000000000000000000000000000000000000008152600401610b0890613b0e565b60405180910390fd5b80915050919050565b60008073ffffffffffffffffffffffffffffffffffffffff168273ffffffffffffffffffffffffffffffffffffffff161415610b8b576040517f08c379a0000000000000000000000000000000000000000000000000000000008152600401610b8290613ba0565b60405180910390fd5b606860008373ffffffffffffffffffffffffffffffffffffffff1673ffffffffffffffffffffffffffffffffffffffff168152602001908152602001600020549050919050565b7f65d7a28e3265b37a6474929f336521b332c1681b933f6cb9f3376673440d862a610bfc81611600565b610c0461183c565b50565b600061012d600084815260200190815260200160002060000160008373ffffffffffffffffffffffffffffffffffffffff1673ffffffffffffffffffffffffffffffffffffffff16815260200190815260200160002060009054906101000a900460ff16905092915050565b606060668054610c82906136f5565b80601f0160208091040260200160405190810160405280929190818152602001828054610cae906136f5565b8015610cfb5780601f10610cd057610100808354040283529160200191610cfb565b820191906000526020600020905b815481529060010190602001808311610cde57829003601f168201915b5050505050905090565b6000801b81565b610d1e610d17611243565b838361189f565b5050565b610d33610d2d611243565b83611304565b610d72576040517f08c379a0000000000000000000000000000000000000000000000000000000008152600401610d69906138bd565b60405180910390fd5b610d7e84848484611a0c565b50505050565b60008060019054906101000a900460ff16159050808015610db55750600160008054906101000a900460ff1660ff16105b80610de25750610dc430611a68565b158015610de15750600160008054906101000a900460ff1660ff16145b5b610e21576040517f08c379a0000000000000000000000000000000000000000000000000000000008152600401610e1890613c32565b60405180910390fd5b60016000806101000a81548160ff021916908360ff1602179055508015610e5e576001600060016101000a81548160ff0219169083151502179055505b610ed26040518060400160405280601281526020017f53747564656e74734552433732312e736f6c00000000000000000000000000008152506040518060400160405280600381526020017f5354550000000000000000000000000000000000000000000000000000000000815250611a8b565b610eda611ae8565b610ee2611b39565b610eea611b8a565b610ef2611be3565b610eff6000801b33611614565b610f297f65d7a28e3265b37a6474929f336521b332c1681b933f6cb9f3376673440d862a33611614565b610f537f9f2df0fed2c77648de5860a4cc508cd0818c85b8b8a1ab4ceeef8d981c8956a633611614565b610f606000801b83611614565b610f8a7f65d7a28e3265b37a6474929f336521b332c1681b933f6cb9f3376673440d862a83611614565b610fb47f9f2df0fed2c77648de5860a4cc508cd0818c85b8b8a1ab4ceeef8d981c8956a683611614565b801561100d5760008060016101000a81548160ff0219169083151502179055507f7f26b83ff96e1f2b6a682f133852f6798a09c465da95921460cefb384740249860016040516110049190613ca4565b60405180910390a15b5050565b606061101c82611c34565b9050919050565b7f9f2df0fed2c77648de5860a4cc508cd0818c85b8b8a1ab4ceeef8d981c8956a661104d81611600565b600061105a61015f611d47565b905061106761015f611d55565b6110718482611d6b565b61107b8184611d89565b50505050565b7f9f2df0fed2c77648de5860a4cc508cd0818c85b8b8a1ab4ceeef8d981c8956a681565b6110ae82610821565b6110b781611600565b6110c183836116f6565b505050565b7f65d7a28e3265b37a6474929f336521b332c1681b933f6cb9f3376673440d862a81565b6000606a60008473ffffffffffffffffffffffffffffffffffffffff1673ffffffffffffffffffffffffffffffffffffffff16815260200190815260200160002060008373ffffffffffffffffffffffffffffffffffffffff1673ffffffffffffffffffffffffffffffffffffffff16815260200190815260200160002060009054906101000a900460ff16905092915050565b60007f7965db0b000000000000000000000000000000000000000000000000000000007bffffffffffffffffffffffffffffffffffffffffffffffffffffffff1916827bffffffffffffffffffffffffffffffffffffffffffffffffffffffff191614806111f157506111f082611dfd565b5b9050919050565b61120181611e77565b611240576040517f08c379a000000000000000000000000000000000000000000000000000000000815260040161123790613b0e565b60405180910390fd5b50565b600033905090565b816069600083815260200190815260200160002060006101000a81548173ffffffffffffffffffffffffffffffffffffffff021916908373ffffffffffffffffffffffffffffffffffffffff160217905550808273ffffffffffffffffffffffffffffffffffffffff166112be83610a68565b73ffffffffffffffffffffffffffffffffffffffff167f8c5be1e5ebec7d5bd14f71427d1e84f3dd0314c0f7b2291e5b200ac8c7c3b92560405160405180910390a45050565b60008061131083610a68565b90508073ffffffffffffffffffffffffffffffffffffffff168473ffffffffffffffffffffffffffffffffffffffff161480611352575061135181856110ea565b5b8061139057508373ffffffffffffffffffffffffffffffffffffffff1661137884610656565b73ffffffffffffffffffffffffffffffffffffffff16145b91505092915050565b8273ffffffffffffffffffffffffffffffffffffffff166113b982610a68565b73ffffffffffffffffffffffffffffffffffffffff161461140f576040517f08c379a000000000000000000000000000000000000000000000000000000000815260040161140690613d31565b60405180910390fd5b600073ffffffffffffffffffffffffffffffffffffffff168273ffffffffffffffffffffffffffffffffffffffff16141561147f576040517f08c379a000000000000000000000000000000000000000000000000000000000815260040161147690613dc3565b60405180910390fd5b61148a838383611ee3565b61149560008261124b565b6001606860008573ffffffffffffffffffffffffffffffffffffffff1673ffffffffffffffffffffffffffffffffffffffff16815260200190815260200160002060008282546114e59190613e12565b925050819055506001606860008473ffffffffffffffffffffffffffffffffffffffff1673ffffffffffffffffffffffffffffffffffffffff168152602001908152602001600020600082825461153c9190613e46565b92505081905550816067600083815260200190815260200160002060006101000a81548173ffffffffffffffffffffffffffffffffffffffff021916908373ffffffffffffffffffffffffffffffffffffffff160217905550808273ffffffffffffffffffffffffffffffffffffffff168473ffffffffffffffffffffffffffffffffffffffff167fddf252ad1be2c89b69c2b068fc378daa952ba7f163c4a11628f55a4df523b3ef60405160405180910390a46115fb838383611efb565b505050565b6116118161160c611243565b611f00565b50565b61161e8282610c07565b6116f257600161012d600084815260200190815260200160002060000160008373ffffffffffffffffffffffffffffffffffffffff1673ffffffffffffffffffffffffffffffffffffffff16815260200190815260200160002060006101000a81548160ff021916908315150217905550611697611243565b73ffffffffffffffffffffffffffffffffffffffff168173ffffffffffffffffffffffffffffffffffffffff16837f2f8788117e7eff1d82e926ec794901d17c78024a50270940304540a733656f0d60405160405180910390a45b5050565b6117008282610c07565b156117d557600061012d600084815260200190815260200160002060000160008373ffffffffffffffffffffffffffffffffffffffff1673ffffffffffffffffffffffffffffffffffffffff16815260200190815260200160002060006101000a81548160ff02191690831515021790555061177a611243565b73ffffffffffffffffffffffffffffffffffffffff168173ffffffffffffffffffffffffffffffffffffffff16837ff6391f5c32d9c69d2a47ea670b442974b53935d1edc7fd64eb21e047a839171b60405160405180910390a45b5050565b6117e1611f9d565b600060fb60006101000a81548160ff0219169083151502179055507f5db9ee0a495bf2e6ff9c91a7834c1ba4fdd244a5e8aa4e537bd38aeae4b073aa611825611243565b6040516118329190613167565b60405180910390a1565b611844611fe6565b600160fb60006101000a81548160ff0219169083151502179055507f62e78cea01bee320cd4e420270b5ea74000d11b0c9f74754ebdbfc544b05a258611888611243565b6040516118959190613167565b60405180910390a1565b8173ffffffffffffffffffffffffffffffffffffffff168373ffffffffffffffffffffffffffffffffffffffff16141561190e576040517f08c379a000000000000000000000000000000000000000000000000000000000815260040161190590613ee8565b60405180910390fd5b80606a60008573ffffffffffffffffffffffffffffffffffffffff1673ffffffffffffffffffffffffffffffffffffffff16815260200190815260200160002060008473ffffffffffffffffffffffffffffffffffffffff1673ffffffffffffffffffffffffffffffffffffffff16815260200190815260200160002060006101000a81548160ff0219169083151502179055508173ffffffffffffffffffffffffffffffffffffffff168373ffffffffffffffffffffffffffffffffffffffff167f17307eab39ab6107e8899845ad3d59bd9653f200f220920489ca2b5937696c31836040516119ff9190612fed565b60405180910390a3505050565b611a17848484611399565b611a2384848484612030565b611a62576040517f08c379a0000000000000000000000000000000000000000000000000000000008152600401611a5990613f7a565b60405180910390fd5b50505050565b6000808273ffffffffffffffffffffffffffffffffffffffff163b119050919050565b600060019054906101000a900460ff16611ada576040517f08c379a0000000000000000000000000000000000000000000000000000000008152600401611ad19061400c565b60405180910390fd5b611ae482826121c7565b5050565b600060019054906101000a900460ff16611b37576040517f08c379a0000000000000000000000000000000000000000000000000000000008152600401611b2e9061400c565b60405180910390fd5b565b600060019054906101000a900460ff16611b88576040517f08c379a0000000000000000000000000000000000000000000000000000000008152600401611b7f9061400c565b60405180910390fd5b565b600060019054906101000a900460ff16611bd9576040517f08c379a0000000000000000000000000000000000000000000000000000000008152600401611bd09061400c565b60405180910390fd5b611be1612248565b565b600060019054906101000a900460ff16611c32576040517f08c379a0000000000000000000000000000000000000000000000000000000008152600401611c299061400c565b60405180910390fd5b565b6060611c3f826111f8565b600060c960008481526020019081526020016000208054611c5f906136f5565b80601f0160208091040260200160405190810160405280929190818152602001828054611c8b906136f5565b8015611cd85780601f10611cad57610100808354040283529160200191611cd8565b820191906000526020600020905b815481529060010190602001808311611cbb57829003601f168201915b505050505090506000611ce96122b4565b9050600081511415611cff578192505050611d42565b600082511115611d34578082604051602001611d1c929190614068565b60405160208183030381529060405292505050611d42565b611d3d846122f1565b925050505b919050565b600081600001549050919050565b6001816000016000828254019250508190555050565b611d85828260405180602001604052806000815250612359565b5050565b611d9282611e77565b611dd1576040517f08c379a0000000000000000000000000000000000000000000000000000000008152600401611dc8906140fe565b60405180910390fd5b8060c960008481526020019081526020016000209080519060200190611df8929190612e96565b505050565b60007f780e9d63000000000000000000000000000000000000000000000000000000007bffffffffffffffffffffffffffffffffffffffffffffffffffffffff1916827bffffffffffffffffffffffffffffffffffffffffffffffffffffffff19161480611e705750611e6f826123b4565b5b9050919050565b60008073ffffffffffffffffffffffffffffffffffffffff166067600084815260200190815260200160002060009054906101000a900473ffffffffffffffffffffffffffffffffffffffff1673ffffffffffffffffffffffffffffffffffffffff1614159050919050565b611eeb611fe6565b611ef6838383612496565b505050565b505050565b611f0a8282610c07565b611f9957611f2f8173ffffffffffffffffffffffffffffffffffffffff1660146125aa565b611f3d8360001c60206125aa565b604051602001611f4e9291906141b6565b6040516020818303038152906040526040517f08c379a0000000000000000000000000000000000000000000000000000000008152600401611f9091906130a1565b60405180910390fd5b5050565b611fa5610a51565b611fe4576040517f08c379a0000000000000000000000000000000000000000000000000000000008152600401611fdb9061423c565b60405180910390fd5b565b611fee610a51565b1561202e576040517f08c379a0000000000000000000000000000000000000000000000000000000008152600401612025906142a8565b60405180910390fd5b565b60006120518473ffffffffffffffffffffffffffffffffffffffff16611a68565b156121ba578373ffffffffffffffffffffffffffffffffffffffff1663150b7a0261207a611243565b8786866040518563ffffffff1660e01b815260040161209c949392919061431d565b602060405180830381600087803b1580156120b657600080fd5b505af19250505080156120e757506040513d601f19601f820116820180604052508101906120e4919061437e565b60015b61216a573d8060008114612117576040519150601f19603f3d011682016040523d82523d6000602084013e61211c565b606091505b50600081511415612162576040517f08c379a000000000000000000000000000000000000000000000000000000000815260040161215990613f7a565b60405180910390fd5b805181602001fd5b63150b7a0260e01b7bffffffffffffffffffffffffffffffffffffffffffffffffffffffff1916817bffffffffffffffffffffffffffffffffffffffffffffffffffffffff1916149150506121bf565b600190505b949350505050565b600060019054906101000a900460ff16612216576040517f08c379a000000000000000000000000000000000000000000000000000000000815260040161220d9061400c565b60405180910390fd5b816065908051906020019061222c929190612e96565b508060669080519060200190612243929190612e96565b505050565b600060019054906101000a900460ff16612297576040517f08c379a000000000000000000000000000000000000000000000000000000000815260040161228e9061400c565b60405180910390fd5b600060fb60006101000a81548160ff021916908315150217905550565b60606040518060400160405280601581526020017f687474703a2f2f6c6f63616c686f73743a333030300000000000000000000000815250905090565b60606122fc826111f8565b60006123066122b4565b905060008151116123265760405180602001604052806000815250612351565b80612330846127e6565b604051602001612341929190614068565b6040516020818303038152906040525b915050919050565b6123638383612947565b6123706000848484612030565b6123af576040517f08c379a00000000000000000000000000000000000000000000000000000000081526004016123a690613f7a565b60405180910390fd5b505050565b60007f80ac58cd000000000000000000000000000000000000000000000000000000007bffffffffffffffffffffffffffffffffffffffffffffffffffffffff1916827bffffffffffffffffffffffffffffffffffffffffffffffffffffffff1916148061247f57507f5b5e139f000000000000000000000000000000000000000000000000000000007bffffffffffffffffffffffffffffffffffffffffffffffffffffffff1916827bffffffffffffffffffffffffffffffffffffffffffffffffffffffff1916145b8061248f575061248e82612b21565b5b9050919050565b6124a1838383612b8b565b600073ffffffffffffffffffffffffffffffffffffffff168373ffffffffffffffffffffffffffffffffffffffff1614156124e4576124df81612b90565b612523565b8173ffffffffffffffffffffffffffffffffffffffff168373ffffffffffffffffffffffffffffffffffffffff1614612522576125218382612bd9565b5b5b600073ffffffffffffffffffffffffffffffffffffffff168273ffffffffffffffffffffffffffffffffffffffff1614156125665761256181612d46565b6125a5565b8273ffffffffffffffffffffffffffffffffffffffff168273ffffffffffffffffffffffffffffffffffffffff16146125a4576125a38282612e17565b5b5b505050565b6060600060028360026125bd91906143ab565b6125c79190613e46565b67ffffffffffffffff8111156125e0576125df6133db565b5b6040519080825280601f01601f1916602001820160405280156126125781602001600182028036833780820191505090505b5090507f30000000000000000000000000000000000000000000000000000000000000008160008151811061264a57612649613a93565b5b60200101907effffffffffffffffffffffffffffffffffffffffffffffffffffffffffffff1916908160001a9053507f7800000000000000000000000000000000000000000000000000000000000000816001815181106126ae576126ad613a93565b5b60200101907effffffffffffffffffffffffffffffffffffffffffffffffffffffffffffff1916908160001a905350600060018460026126ee91906143ab565b6126f89190613e46565b90505b6001811115612798577f3031323334353637383961626364656600000000000000000000000000000000600f86166010811061273a57612739613a93565b5b1a60f81b82828151811061275157612750613a93565b5b60200101907effffffffffffffffffffffffffffffffffffffffffffffffffffffffffffff1916908160001a905350600485901c94508061279190614405565b90506126fb565b50600084146127dc576040517f08c379a00000000000000000000000000000000000000000000000000000000081526004016127d39061447b565b60405180910390fd5b8091505092915050565b6060600082141561282e576040518060400160405280600181526020017f30000000000000000000000000000000000000000000000000000000000000008152509050612942565b600082905060005b600082146128605780806128499061449b565b915050600a826128599190614513565b9150612836565b60008167ffffffffffffffff81111561287c5761287b6133db565b5b6040519080825280601f01601f1916602001820160405280156128ae5781602001600182028036833780820191505090505b5090505b6000851461293b576001826128c79190613e12565b9150600a856128d69190614544565b60306128e29190613e46565b60f81b8183815181106128f8576128f7613a93565b5b60200101907effffffffffffffffffffffffffffffffffffffffffffffffffffffffffffff1916908160001a905350600a856129349190614513565b94506128b2565b8093505050505b919050565b600073ffffffffffffffffffffffffffffffffffffffff168273ffffffffffffffffffffffffffffffffffffffff1614156129b7576040517f08c379a00000000000000000000000000000000000000000000000000000000081526004016129ae906145c1565b60405180910390fd5b6129c081611e77565b15612a00576040517f08c379a00000000000000000000000000000000000000000000000000000000081526004016129f79061462d565b60405180910390fd5b612a0c60008383611ee3565b6001606860008473ffffffffffffffffffffffffffffffffffffffff1673ffffffffffffffffffffffffffffffffffffffff1681526020019081526020016000206000828254612a5c9190613e46565b92505081905550816067600083815260200190815260200160002060006101000a81548173ffffffffffffffffffffffffffffffffffffffff021916908373ffffffffffffffffffffffffffffffffffffffff160217905550808273ffffffffffffffffffffffffffffffffffffffff16600073ffffffffffffffffffffffffffffffffffffffff167fddf252ad1be2c89b69c2b068fc378daa952ba7f163c4a11628f55a4df523b3ef60405160405180910390a4612b1d60008383611efb565b5050565b60007f01ffc9a7000000000000000000000000000000000000000000000000000000007bffffffffffffffffffffffffffffffffffffffffffffffffffffffff1916827bffffffffffffffffffffffffffffffffffffffffffffffffffffffff1916149050919050565b505050565b609980549050609a600083815260200190815260200160002081905550609981908060018154018082558091505060019003906000526020600020016000909190919091505550565b60006001612be684610b1a565b612bf09190613e12565b9050600060986000848152602001908152602001600020549050818114612cd5576000609760008673ffffffffffffffffffffffffffffffffffffffff1673ffffffffffffffffffffffffffffffffffffffff168152602001908152602001600020600084815260200190815260200160002054905080609760008773ffffffffffffffffffffffffffffffffffffffff1673ffffffffffffffffffffffffffffffffffffffff168152602001908152602001600020600084815260200190815260200160002081905550816098600083815260200190815260200160002081905550505b6098600084815260200190815260200160002060009055609760008573ffffffffffffffffffffffffffffffffffffffff1673ffffffffffffffffffffffffffffffffffffffff16815260200190815260200160002060008381526020019081526020016000206000905550505050565b60006001609980549050612d5a9190613e12565b90506000609a6000848152602001908152602001600020549050600060998381548110612d8a57612d89613a93565b5b906000526020600020015490508060998381548110612dac57612dab613a93565b5b906000526020600020018190555081609a600083815260200190815260200160002081905550609a6000858152602001908152602001600020600090556099805480612dfb57612dfa61464d565b5b6001900381819060005260206000200160009055905550505050565b6000612e2283610b1a565b905081609760008573ffffffffffffffffffffffffffffffffffffffff1673ffffffffffffffffffffffffffffffffffffffff168152602001908152602001600020600083815260200190815260200160002081905550806098600084815260200190815260200160002081905550505050565b828054612ea2906136f5565b90600052602060002090601f016020900481019282612ec45760008555612f0b565b82601f10612edd57805160ff1916838001178555612f0b565b82800160010185558215612f0b579182015b82811115612f0a578251825591602001919060010190612eef565b5b509050612f189190612f1c565b5090565b5b80821115612f35576000816000905550600101612f1d565b5090565b6000604051905090565b600080fd5b600080fd5b60007fffffffff0000000000000000000000000000000000000000000000000000000082169050919050565b612f8281612f4d565b8114612f8d57600080fd5b50565b600081359050612f9f81612f79565b92915050565b600060208284031215612fbb57612fba612f43565b5b6000612fc984828501612f90565b91505092915050565b60008115159050919050565b612fe781612fd2565b82525050565b60006020820190506130026000830184612fde565b92915050565b600081519050919050565b600082825260208201905092915050565b60005b83811015613042578082015181840152602081019050613027565b83811115613051576000848401525b50505050565b6000601f19601f8301169050919050565b600061307382613008565b61307d8185613013565b935061308d818560208601613024565b61309681613057565b840191505092915050565b600060208201905081810360008301526130bb8184613068565b905092915050565b6000819050919050565b6130d6816130c3565b81146130e157600080fd5b50565b6000813590506130f3816130cd565b92915050565b60006020828403121561310f5761310e612f43565b5b600061311d848285016130e4565b91505092915050565b600073ffffffffffffffffffffffffffffffffffffffff82169050919050565b600061315182613126565b9050919050565b61316181613146565b82525050565b600060208201905061317c6000830184613158565b92915050565b61318b81613146565b811461319657600080fd5b50565b6000813590506131a881613182565b92915050565b600080604083850312156131c5576131c4612f43565b5b60006131d385828601613199565b92505060206131e4858286016130e4565b9150509250929050565b6131f7816130c3565b82525050565b600060208201905061321260008301846131ee565b92915050565b60008060006060848603121561323157613230612f43565b5b600061323f86828701613199565b935050602061325086828701613199565b9250506040613261868287016130e4565b9150509250925092565b6000819050919050565b61327e8161326b565b811461328957600080fd5b50565b60008135905061329b81613275565b92915050565b6000602082840312156132b7576132b6612f43565b5b60006132c58482850161328c565b91505092915050565b6132d78161326b565b82525050565b60006020820190506132f260008301846132ce565b92915050565b6000806040838503121561330f5761330e612f43565b5b600061331d8582860161328c565b925050602061332e85828601613199565b9150509250929050565b60006020828403121561334e5761334d612f43565b5b600061335c84828501613199565b91505092915050565b61336e81612fd2565b811461337957600080fd5b50565b60008135905061338b81613365565b92915050565b600080604083850312156133a8576133a7612f43565b5b60006133b685828601613199565b92505060206133c78582860161337c565b9150509250929050565b600080fd5b600080fd5b7f4e487b7100000000000000000000000000000000000000000000000000000000600052604160045260246000fd5b61341382613057565b810181811067ffffffffffffffff82111715613432576134316133db565b5b80604052505050565b6000613445612f39565b9050613451828261340a565b919050565b600067ffffffffffffffff821115613471576134706133db565b5b61347a82613057565b9050602081019050919050565b82818337600083830152505050565b60006134a96134a484613456565b61343b565b9050828152602081018484840111156134c5576134c46133d6565b5b6134d0848285613487565b509392505050565b600082601f8301126134ed576134ec6133d1565b5b81356134fd848260208601613496565b91505092915050565b600080600080608085870312156135205761351f612f43565b5b600061352e87828801613199565b945050602061353f87828801613199565b9350506040613550878288016130e4565b925050606085013567ffffffffffffffff81111561357157613570612f48565b5b61357d878288016134d8565b91505092959194509250565b600067ffffffffffffffff8211156135a4576135a36133db565b5b6135ad82613057565b9050602081019050919050565b60006135cd6135c884613589565b61343b565b9050828152602081018484840111156135e9576135e86133d6565b5b6135f4848285613487565b509392505050565b600082601f830112613611576136106133d1565b5b81356136218482602086016135ba565b91505092915050565b6000806040838503121561364157613640612f43565b5b600061364f85828601613199565b925050602083013567ffffffffffffffff8111156136705761366f612f48565b5b61367c858286016135fc565b9150509250929050565b6000806040838503121561369d5761369c612f43565b5b60006136ab85828601613199565b92505060206136bc85828601613199565b9150509250929050565b7f4e487b7100000000000000000000000000000000000000000000000000000000600052602260045260246000fd5b6000600282049050600182168061370d57607f821691505b60208210811415613721576137206136c6565b5b50919050565b7f4552433732313a20617070726f76616c20746f2063757272656e74206f776e6560008201527f7200000000000000000000000000000000000000000000000000000000000000602082015250565b6000613783602183613013565b915061378e82613727565b604082019050919050565b600060208201905081810360008301526137b281613776565b9050919050565b7f4552433732313a20617070726f76652063616c6c6572206973206e6f7420746f60008201527f6b656e206f776e6572206e6f7220617070726f76656420666f7220616c6c0000602082015250565b6000613815603e83613013565b9150613820826137b9565b604082019050919050565b6000602082019050818103600083015261384481613808565b9050919050565b7f4552433732313a2063616c6c6572206973206e6f7420746f6b656e206f776e6560008201527f72206e6f7220617070726f766564000000000000000000000000000000000000602082015250565b60006138a7602e83613013565b91506138b28261384b565b604082019050919050565b600060208201905081810360008301526138d68161389a565b9050919050565b7f455243373231456e756d657261626c653a206f776e657220696e646578206f7560008201527f74206f6620626f756e6473000000000000000000000000000000000000000000602082015250565b6000613939602b83613013565b9150613944826138dd565b604082019050919050565b600060208201905081810360008301526139688161392c565b9050919050565b7f416363657373436f6e74726f6c3a2063616e206f6e6c792072656e6f756e636560008201527f20726f6c657320666f722073656c660000000000000000000000000000000000602082015250565b60006139cb602f83613013565b91506139d68261396f565b604082019050919050565b600060208201905081810360008301526139fa816139be565b9050919050565b7f455243373231456e756d657261626c653a20676c6f62616c20696e646578206f60008201527f7574206f6620626f756e64730000000000000000000000000000000000000000602082015250565b6000613a5d602c83613013565b9150613a6882613a01565b604082019050919050565b60006020820190508181036000830152613a8c81613a50565b9050919050565b7f4e487b7100000000000000000000000000000000000000000000000000000000600052603260045260246000fd5b7f4552433732313a20696e76616c696420746f6b656e2049440000000000000000600082015250565b6000613af8601883613013565b9150613b0382613ac2565b602082019050919050565b60006020820190508181036000830152613b2781613aeb565b9050919050565b7f4552433732313a2061646472657373207a65726f206973206e6f74206120766160008201527f6c6964206f776e65720000000000000000000000000000000000000000000000602082015250565b6000613b8a602983613013565b9150613b9582613b2e565b604082019050919050565b60006020820190508181036000830152613bb981613b7d565b9050919050565b7f496e697469616c697a61626c653a20636f6e747261637420697320616c72656160008201527f647920696e697469616c697a6564000000000000000000000000000000000000602082015250565b6000613c1c602e83613013565b9150613c2782613bc0565b604082019050919050565b60006020820190508181036000830152613c4b81613c0f565b9050919050565b6000819050919050565b600060ff82169050919050565b6000819050919050565b6000613c8e613c89613c8484613c52565b613c69565b613c5c565b9050919050565b613c9e81613c73565b82525050565b6000602082019050613cb96000830184613c95565b92915050565b7f4552433732313a207472616e736665722066726f6d20696e636f72726563742060008201527f6f776e6572000000000000000000000000000000000000000000000000000000602082015250565b6000613d1b602583613013565b9150613d2682613cbf565b604082019050919050565b60006020820190508181036000830152613d4a81613d0e565b9050919050565b7f4552433732313a207472616e7366657220746f20746865207a65726f2061646460008201527f7265737300000000000000000000000000000000000000000000000000000000602082015250565b6000613dad602483613013565b9150613db882613d51565b604082019050919050565b60006020820190508181036000830152613ddc81613da0565b9050919050565b7f4e487b7100000000000000000000000000000000000000000000000000000000600052601160045260246000fd5b6000613e1d826130c3565b9150613e28836130c3565b925082821015613e3b57613e3a613de3565b5b828203905092915050565b6000613e51826130c3565b9150613e5c836130c3565b9250827fffffffffffffffffffffffffffffffffffffffffffffffffffffffffffffffff03821115613e9157613e90613de3565b5b828201905092915050565b7f4552433732313a20617070726f766520746f2063616c6c657200000000000000600082015250565b6000613ed2601983613013565b9150613edd82613e9c565b602082019050919050565b60006020820190508181036000830152613f0181613ec5565b9050919050565b7f4552433732313a207472616e7366657220746f206e6f6e20455243373231526560008201527f63656976657220696d706c656d656e7465720000000000000000000000000000602082015250565b6000613f64603283613013565b9150613f6f82613f08565b604082019050919050565b60006020820190508181036000830152613f9381613f57565b9050919050565b7f496e697469616c697a61626c653a20636f6e7472616374206973206e6f74206960008201527f6e697469616c697a696e67000000000000000000000000000000000000000000602082015250565b6000613ff6602b83613013565b915061400182613f9a565b604082019050919050565b6000602082019050818103600083015261402581613fe9565b9050919050565b600081905092915050565b600061404282613008565b61404c818561402c565b935061405c818560208601613024565b80840191505092915050565b60006140748285614037565b91506140808284614037565b91508190509392505050565b7f45524337323155524953746f726167653a2055524920736574206f66206e6f6e60008201527f6578697374656e7420746f6b656e000000000000000000000000000000000000602082015250565b60006140e8602e83613013565b91506140f38261408c565b604082019050919050565b60006020820190508181036000830152614117816140db565b9050919050565b7f416363657373436f6e74726f6c3a206163636f756e7420000000000000000000600082015250565b600061415460178361402c565b915061415f8261411e565b601782019050919050565b7f206973206d697373696e6720726f6c6520000000000000000000000000000000600082015250565b60006141a060118361402c565b91506141ab8261416a565b601182019050919050565b60006141c182614147565b91506141cd8285614037565b91506141d882614193565b91506141e48284614037565b91508190509392505050565b7f5061757361626c653a206e6f7420706175736564000000000000000000000000600082015250565b6000614226601483613013565b9150614231826141f0565b602082019050919050565b6000602082019050818103600083015261425581614219565b9050919050565b7f5061757361626c653a2070617573656400000000000000000000000000000000600082015250565b6000614292601083613013565b915061429d8261425c565b602082019050919050565b600060208201905081810360008301526142c181614285565b9050919050565b600081519050919050565b600082825260208201905092915050565b60006142ef826142c8565b6142f981856142d3565b9350614309818560208601613024565b61431281613057565b840191505092915050565b60006080820190506143326000830187613158565b61433f6020830186613158565b61434c60408301856131ee565b818103606083015261435e81846142e4565b905095945050505050565b60008151905061437881612f79565b92915050565b60006020828403121561439457614393612f43565b5b60006143a284828501614369565b91505092915050565b60006143b6826130c3565b91506143c1836130c3565b9250817fffffffffffffffffffffffffffffffffffffffffffffffffffffffffffffffff04831182151516156143fa576143f9613de3565b5b828202905092915050565b6000614410826130c3565b9150600082141561442457614423613de3565b5b600182039050919050565b7f537472696e67733a20686578206c656e67746820696e73756666696369656e74600082015250565b6000614465602083613013565b91506144708261442f565b602082019050919050565b6000602082019050818103600083015261449481614458565b9050919050565b60006144a6826130c3565b91507fffffffffffffffffffffffffffffffffffffffffffffffffffffffffffffffff8214156144d9576144d8613de3565b5b600182019050919050565b7f4e487b7100000000000000000000000000000000000000000000000000000000600052601260045260246000fd5b600061451e826130c3565b9150614529836130c3565b925082614539576145386144e4565b5b828204905092915050565b600061454f826130c3565b915061455a836130c3565b92508261456a576145696144e4565b5b828206905092915050565b7f4552433732313a206d696e7420746f20746865207a65726f2061646472657373600082015250565b60006145ab602083613013565b91506145b682614575565b602082019050919050565b600060208201905081810360008301526145da8161459e565b9050919050565b7f4552433732313a20746f6b656e20616c7265616479206d696e74656400000000600082015250565b6000614617601c83613013565b9150614622826145e1565b602082019050919050565b600060208201905081810360008301526146468161460a565b9050919050565b7f4e487b7100000000000000000000000000000000000000000000000000000000600052603160045260246000fdfea26469706673582212207d32276d7b8643000d3cc4fdd35fca60f32cc34e70032d3c7e5c306affb9529864736f6c63430008090033",
  "devdoc": {
    "kind": "dev",
    "methods": {
      "approve(address,uint256)": {
        "details": "See {IERC721-approve}."
      },
      "balanceOf(address)": {
        "details": "See {IERC721-balanceOf}."
      },
      "constructor": {
        "custom:oz-upgrades-unsafe-allow": "constructor"
      },
      "getApproved(uint256)": {
        "details": "See {IERC721-getApproved}."
      },
      "getRoleAdmin(bytes32)": {
        "details": "Returns the admin role that controls `role`. See {grantRole} and {revokeRole}. To change a role's admin, use {_setRoleAdmin}."
      },
      "grantRole(bytes32,address)": {
        "details": "Grants `role` to `account`. If `account` had not been already granted `role`, emits a {RoleGranted} event. Requirements: - the caller must have ``role``'s admin role. May emit a {RoleGranted} event."
      },
      "hasRole(bytes32,address)": {
        "details": "Returns `true` if `account` has been granted `role`."
      },
      "isApprovedForAll(address,address)": {
        "details": "See {IERC721-isApprovedForAll}."
      },
      "name()": {
        "details": "See {IERC721Metadata-name}."
      },
      "ownerOf(uint256)": {
        "details": "See {IERC721-ownerOf}."
      },
      "paused()": {
        "details": "Returns true if the contract is paused, and false otherwise."
      },
      "renounceRole(bytes32,address)": {
        "details": "Revokes `role` from the calling account. Roles are often managed via {grantRole} and {revokeRole}: this function's purpose is to provide a mechanism for accounts to lose their privileges if they are compromised (such as when a trusted device is misplaced). If the calling account had been revoked `role`, emits a {RoleRevoked} event. Requirements: - the caller must be `account`. May emit a {RoleRevoked} event."
      },
      "revokeRole(bytes32,address)": {
        "details": "Revokes `role` from `account`. If `account` had been granted `role`, emits a {RoleRevoked} event. Requirements: - the caller must have ``role``'s admin role. May emit a {RoleRevoked} event."
      },
      "safeTransferFrom(address,address,uint256)": {
        "details": "See {IERC721-safeTransferFrom}."
      },
      "safeTransferFrom(address,address,uint256,bytes)": {
        "details": "See {IERC721-safeTransferFrom}."
      },
      "setApprovalForAll(address,bool)": {
        "details": "See {IERC721-setApprovalForAll}."
      },
      "symbol()": {
        "details": "See {IERC721Metadata-symbol}."
      },
      "tokenByIndex(uint256)": {
        "details": "See {IERC721Enumerable-tokenByIndex}."
      },
      "tokenOfOwnerByIndex(address,uint256)": {
        "details": "See {IERC721Enumerable-tokenOfOwnerByIndex}."
      },
      "totalSupply()": {
        "details": "See {IERC721Enumerable-totalSupply}."
      },
      "transferFrom(address,address,uint256)": {
        "details": "See {IERC721-transferFrom}."
      }
    },
    "version": 1
  },
  "userdoc": {
    "kind": "user",
    "methods": {},
    "version": 1
  },
  "storageLayout": {
    "storage": [
      {
        "astId": 419,
        "contract": "contracts/StudentsERC721.sol:StudentsERC721",
        "label": "_initialized",
        "offset": 0,
        "slot": "0",
        "type": "t_uint8"
      },
      {
        "astId": 422,
        "contract": "contracts/StudentsERC721.sol:StudentsERC721",
        "label": "_initializing",
        "offset": 1,
        "slot": "0",
        "type": "t_bool"
      },
      {
        "astId": 2561,
        "contract": "contracts/StudentsERC721.sol:StudentsERC721",
        "label": "__gap",
        "offset": 0,
        "slot": "1",
        "type": "t_array(t_uint256)50_storage"
      },
      {
        "astId": 2905,
        "contract": "contracts/StudentsERC721.sol:StudentsERC721",
        "label": "__gap",
        "offset": 0,
        "slot": "51",
        "type": "t_array(t_uint256)50_storage"
      },
      {
        "astId": 719,
        "contract": "contracts/StudentsERC721.sol:StudentsERC721",
        "label": "_name",
        "offset": 0,
        "slot": "101",
        "type": "t_string_storage"
      },
      {
        "astId": 721,
        "contract": "contracts/StudentsERC721.sol:StudentsERC721",
        "label": "_symbol",
        "offset": 0,
        "slot": "102",
        "type": "t_string_storage"
      },
      {
        "astId": 725,
        "contract": "contracts/StudentsERC721.sol:StudentsERC721",
        "label": "_owners",
        "offset": 0,
        "slot": "103",
        "type": "t_mapping(t_uint256,t_address)"
      },
      {
        "astId": 729,
        "contract": "contracts/StudentsERC721.sol:StudentsERC721",
        "label": "_balances",
        "offset": 0,
        "slot": "104",
        "type": "t_mapping(t_address,t_uint256)"
      },
      {
        "astId": 733,
        "contract": "contracts/StudentsERC721.sol:StudentsERC721",
        "label": "_tokenApprovals",
        "offset": 0,
        "slot": "105",
        "type": "t_mapping(t_uint256,t_address)"
      },
      {
        "astId": 739,
        "contract": "contracts/StudentsERC721.sol:StudentsERC721",
        "label": "_operatorApprovals",
        "offset": 0,
        "slot": "106",
        "type": "t_mapping(t_address,t_mapping(t_address,t_bool))"
      },
      {
        "astId": 1581,
        "contract": "contracts/StudentsERC721.sol:StudentsERC721",
        "label": "__gap",
        "offset": 0,
        "slot": "107",
        "type": "t_array(t_uint256)44_storage"
      },
      {
        "astId": 1746,
        "contract": "contracts/StudentsERC721.sol:StudentsERC721",
        "label": "_ownedTokens",
        "offset": 0,
        "slot": "151",
        "type": "t_mapping(t_address,t_mapping(t_uint256,t_uint256))"
      },
      {
        "astId": 1750,
        "contract": "contracts/StudentsERC721.sol:StudentsERC721",
        "label": "_ownedTokensIndex",
        "offset": 0,
        "slot": "152",
        "type": "t_mapping(t_uint256,t_uint256)"
      },
      {
        "astId": 1753,
        "contract": "contracts/StudentsERC721.sol:StudentsERC721",
        "label": "_allTokens",
        "offset": 0,
        "slot": "153",
        "type": "t_array(t_uint256)dyn_storage"
      },
      {
        "astId": 1757,
        "contract": "contracts/StudentsERC721.sol:StudentsERC721",
        "label": "_allTokensIndex",
        "offset": 0,
        "slot": "154",
        "type": "t_mapping(t_uint256,t_uint256)"
      },
      {
        "astId": 2073,
        "contract": "contracts/StudentsERC721.sol:StudentsERC721",
        "label": "__gap",
        "offset": 0,
        "slot": "155",
        "type": "t_array(t_uint256)46_storage"
      },
      {
        "astId": 2102,
        "contract": "contracts/StudentsERC721.sol:StudentsERC721",
        "label": "_tokenURIs",
        "offset": 0,
        "slot": "201",
        "type": "t_mapping(t_uint256,t_string_storage)"
      },
      {
        "astId": 2218,
        "contract": "contracts/StudentsERC721.sol:StudentsERC721",
        "label": "__gap",
        "offset": 0,
        "slot": "202",
        "type": "t_array(t_uint256)49_storage"
      },
      {
        "astId": 584,
        "contract": "contracts/StudentsERC721.sol:StudentsERC721",
        "label": "_paused",
        "offset": 0,
        "slot": "251",
        "type": "t_bool"
      },
      {
        "astId": 689,
        "contract": "contracts/StudentsERC721.sol:StudentsERC721",
        "label": "__gap",
        "offset": 0,
        "slot": "252",
        "type": "t_array(t_uint256)49_storage"
      },
      {
        "astId": 39,
        "contract": "contracts/StudentsERC721.sol:StudentsERC721",
        "label": "_roles",
        "offset": 0,
        "slot": "301",
        "type": "t_mapping(t_bytes32,t_struct(RoleData)34_storage)"
      },
      {
        "astId": 338,
        "contract": "contracts/StudentsERC721.sol:StudentsERC721",
        "label": "__gap",
        "offset": 0,
        "slot": "302",
        "type": "t_array(t_uint256)49_storage"
      },
      {
        "astId": 4203,
        "contract": "contracts/StudentsERC721.sol:StudentsERC721",
        "label": "_tokenIdCounter",
        "offset": 0,
        "slot": "351",
        "type": "t_struct(Counter)2568_storage"
      }
    ],
    "types": {
      "t_address": {
        "encoding": "inplace",
        "label": "address",
        "numberOfBytes": "20"
      },
      "t_array(t_uint256)44_storage": {
        "base": "t_uint256",
        "encoding": "inplace",
        "label": "uint256[44]",
        "numberOfBytes": "1408"
      },
      "t_array(t_uint256)46_storage": {
        "base": "t_uint256",
        "encoding": "inplace",
        "label": "uint256[46]",
        "numberOfBytes": "1472"
      },
      "t_array(t_uint256)49_storage": {
        "base": "t_uint256",
        "encoding": "inplace",
        "label": "uint256[49]",
        "numberOfBytes": "1568"
      },
      "t_array(t_uint256)50_storage": {
        "base": "t_uint256",
        "encoding": "inplace",
        "label": "uint256[50]",
        "numberOfBytes": "1600"
      },
      "t_array(t_uint256)dyn_storage": {
        "base": "t_uint256",
        "encoding": "dynamic_array",
        "label": "uint256[]",
        "numberOfBytes": "32"
      },
      "t_bool": {
        "encoding": "inplace",
        "label": "bool",
        "numberOfBytes": "1"
      },
      "t_bytes32": {
        "encoding": "inplace",
        "label": "bytes32",
        "numberOfBytes": "32"
      },
      "t_mapping(t_address,t_bool)": {
        "encoding": "mapping",
        "key": "t_address",
        "label": "mapping(address => bool)",
        "numberOfBytes": "32",
        "value": "t_bool"
      },
      "t_mapping(t_address,t_mapping(t_address,t_bool))": {
        "encoding": "mapping",
        "key": "t_address",
        "label": "mapping(address => mapping(address => bool))",
        "numberOfBytes": "32",
        "value": "t_mapping(t_address,t_bool)"
      },
      "t_mapping(t_address,t_mapping(t_uint256,t_uint256))": {
        "encoding": "mapping",
        "key": "t_address",
        "label": "mapping(address => mapping(uint256 => uint256))",
        "numberOfBytes": "32",
        "value": "t_mapping(t_uint256,t_uint256)"
      },
      "t_mapping(t_address,t_uint256)": {
        "encoding": "mapping",
        "key": "t_address",
        "label": "mapping(address => uint256)",
        "numberOfBytes": "32",
        "value": "t_uint256"
      },
      "t_mapping(t_bytes32,t_struct(RoleData)34_storage)": {
        "encoding": "mapping",
        "key": "t_bytes32",
        "label": "mapping(bytes32 => struct AccessControlUpgradeable.RoleData)",
        "numberOfBytes": "32",
        "value": "t_struct(RoleData)34_storage"
      },
      "t_mapping(t_uint256,t_address)": {
        "encoding": "mapping",
        "key": "t_uint256",
        "label": "mapping(uint256 => address)",
        "numberOfBytes": "32",
        "value": "t_address"
      },
      "t_mapping(t_uint256,t_string_storage)": {
        "encoding": "mapping",
        "key": "t_uint256",
        "label": "mapping(uint256 => string)",
        "numberOfBytes": "32",
        "value": "t_string_storage"
      },
      "t_mapping(t_uint256,t_uint256)": {
        "encoding": "mapping",
        "key": "t_uint256",
        "label": "mapping(uint256 => uint256)",
        "numberOfBytes": "32",
        "value": "t_uint256"
      },
      "t_string_storage": {
        "encoding": "bytes",
        "label": "string",
        "numberOfBytes": "32"
      },
      "t_struct(Counter)2568_storage": {
        "encoding": "inplace",
        "label": "struct CountersUpgradeable.Counter",
        "members": [
          {
            "astId": 2567,
            "contract": "contracts/StudentsERC721.sol:StudentsERC721",
            "label": "_value",
            "offset": 0,
            "slot": "0",
            "type": "t_uint256"
          }
        ],
        "numberOfBytes": "32"
      },
      "t_struct(RoleData)34_storage": {
        "encoding": "inplace",
        "label": "struct AccessControlUpgradeable.RoleData",
        "members": [
          {
            "astId": 31,
            "contract": "contracts/StudentsERC721.sol:StudentsERC721",
            "label": "members",
            "offset": 0,
            "slot": "0",
            "type": "t_mapping(t_address,t_bool)"
          },
          {
            "astId": 33,
            "contract": "contracts/StudentsERC721.sol:StudentsERC721",
            "label": "adminRole",
            "offset": 0,
            "slot": "1",
            "type": "t_bytes32"
          }
        ],
        "numberOfBytes": "64"
      },
      "t_uint256": {
        "encoding": "inplace",
        "label": "uint256",
        "numberOfBytes": "32"
      },
      "t_uint8": {
        "encoding": "inplace",
        "label": "uint8",
        "numberOfBytes": "1"
      }
    }
  }
}